{
  "_format": "hh-sol-artifact-1",
  "contractName": "LingoNFT",
  "sourceName": "contracts/LingoNFT.sol",
  "abi": [
    {
      "inputs": [],
      "stateMutability": "nonpayable",
      "type": "constructor"
    },
    {
      "inputs": [],
      "name": "InvalidShortString",
      "type": "error"
    },
    {
      "inputs": [
        {
          "internalType": "string",
          "name": "str",
          "type": "string"
        }
      ],
      "name": "StringTooLong",
      "type": "error"
    },
    {
      "anonymous": false,
      "inputs": [
        {
          "indexed": true,
          "internalType": "address",
          "name": "owner",
          "type": "address"
        },
        {
          "indexed": true,
          "internalType": "address",
          "name": "approved",
          "type": "address"
        },
        {
          "indexed": true,
          "internalType": "uint256",
          "name": "tokenId",
          "type": "uint256"
        }
      ],
      "name": "Approval",
      "type": "event"
    },
    {
      "anonymous": false,
      "inputs": [
        {
          "indexed": true,
          "internalType": "address",
          "name": "owner",
          "type": "address"
        },
        {
          "indexed": true,
          "internalType": "address",
          "name": "operator",
          "type": "address"
        },
        {
          "indexed": false,
          "internalType": "bool",
          "name": "approved",
          "type": "bool"
        }
      ],
      "name": "ApprovalForAll",
      "type": "event"
    },
    {
      "anonymous": false,
      "inputs": [],
      "name": "EIP712DomainChanged",
      "type": "event"
    },
    {
      "anonymous": false,
      "inputs": [
        {
          "indexed": true,
          "internalType": "address",
          "name": "previousOwner",
          "type": "address"
        },
        {
          "indexed": true,
          "internalType": "address",
          "name": "newOwner",
          "type": "address"
        }
      ],
      "name": "OwnershipTransferred",
      "type": "event"
    },
    {
      "anonymous": false,
      "inputs": [
        {
          "indexed": true,
          "internalType": "address",
          "name": "from",
          "type": "address"
        },
        {
          "indexed": true,
          "internalType": "address",
          "name": "to",
          "type": "address"
        },
        {
          "indexed": true,
          "internalType": "uint256",
          "name": "tokenId",
          "type": "uint256"
        }
      ],
      "name": "Transfer",
      "type": "event"
    },
    {
      "inputs": [
        {
          "internalType": "address[]",
          "name": "recipients",
          "type": "address[]"
        },
        {
          "internalType": "enum LingoNFT.Tier",
          "name": "tier",
          "type": "uint8"
        }
      ],
      "name": "airdropNFT",
      "outputs": [],
      "stateMutability": "nonpayable",
      "type": "function"
    },
    {
      "inputs": [
        {
          "internalType": "address",
          "name": "to",
          "type": "address"
        },
        {
          "internalType": "uint256",
          "name": "tokenId",
          "type": "uint256"
        }
      ],
      "name": "approve",
      "outputs": [],
      "stateMutability": "nonpayable",
      "type": "function"
    },
    {
      "inputs": [
        {
          "internalType": "address",
          "name": "owner",
          "type": "address"
        }
      ],
      "name": "balanceOf",
      "outputs": [
        {
          "internalType": "uint256",
          "name": "",
          "type": "uint256"
        }
      ],
      "stateMutability": "view",
      "type": "function"
    },
    {
      "inputs": [],
      "name": "eip712Domain",
      "outputs": [
        {
          "internalType": "bytes1",
          "name": "fields",
          "type": "bytes1"
        },
        {
          "internalType": "string",
          "name": "name",
          "type": "string"
        },
        {
          "internalType": "string",
          "name": "version",
          "type": "string"
        },
        {
          "internalType": "uint256",
          "name": "chainId",
          "type": "uint256"
        },
        {
          "internalType": "address",
          "name": "verifyingContract",
          "type": "address"
        },
        {
          "internalType": "bytes32",
          "name": "salt",
          "type": "bytes32"
        },
        {
          "internalType": "uint256[]",
          "name": "extensions",
          "type": "uint256[]"
        }
      ],
      "stateMutability": "view",
      "type": "function"
    },
    {
      "inputs": [],
      "name": "firstClassMintPrice",
      "outputs": [
        {
          "internalType": "uint256",
          "name": "",
          "type": "uint256"
        }
      ],
      "stateMutability": "view",
      "type": "function"
    },
    {
      "inputs": [
        {
          "internalType": "uint256",
          "name": "tokenId",
          "type": "uint256"
        }
      ],
      "name": "getApproved",
      "outputs": [
        {
          "internalType": "address",
          "name": "",
          "type": "address"
        }
      ],
      "stateMutability": "view",
      "type": "function"
    },
    {
      "inputs": [],
      "name": "getFirstClassSupply",
      "outputs": [
        {
          "internalType": "uint256",
          "name": "",
          "type": "uint256"
        }
      ],
      "stateMutability": "view",
      "type": "function"
    },
    {
      "inputs": [
        {
          "internalType": "enum LingoNFT.Tier",
          "name": "tier",
          "type": "uint8"
        }
      ],
      "name": "getTierURI",
      "outputs": [
        {
          "internalType": "string",
          "name": "",
          "type": "string"
        }
      ],
      "stateMutability": "view",
      "type": "function"
    },
    {
      "inputs": [],
      "name": "getTotalSupply",
      "outputs": [
        {
          "internalType": "uint256",
          "name": "",
          "type": "uint256"
        }
      ],
      "stateMutability": "view",
      "type": "function"
    },
    {
      "inputs": [
        {
          "internalType": "address",
          "name": "account",
          "type": "address"
        },
        {
          "internalType": "enum LingoNFT.Tier",
          "name": "tier",
          "type": "uint8"
        }
      ],
      "name": "hasMinted",
      "outputs": [
        {
          "internalType": "bool",
          "name": "",
          "type": "bool"
        }
      ],
      "stateMutability": "view",
      "type": "function"
    },
    {
      "inputs": [
        {
          "internalType": "address",
          "name": "owner",
          "type": "address"
        },
        {
          "internalType": "address",
          "name": "operator",
          "type": "address"
        }
      ],
      "name": "isApprovedForAll",
      "outputs": [
        {
          "internalType": "bool",
          "name": "",
          "type": "bool"
        }
      ],
      "stateMutability": "view",
      "type": "function"
    },
    {
      "inputs": [],
      "name": "maxFirstClassSupply",
      "outputs": [
        {
          "internalType": "uint256",
          "name": "",
          "type": "uint256"
        }
      ],
      "stateMutability": "view",
      "type": "function"
    },
    {
      "inputs": [
        {
          "internalType": "enum LingoNFT.Tier",
          "name": "tier",
          "type": "uint8"
        },
        {
          "internalType": "bytes32",
          "name": "r",
          "type": "bytes32"
        },
        {
          "internalType": "bytes32",
          "name": "s",
          "type": "bytes32"
        },
        {
          "internalType": "uint8",
          "name": "v",
          "type": "uint8"
        }
      ],
      "name": "mintEconomyBusinessClassNFT",
      "outputs": [],
      "stateMutability": "nonpayable",
      "type": "function"
    },
    {
      "inputs": [
        {
          "internalType": "enum LingoNFT.Tier",
          "name": "tier",
          "type": "uint8"
        },
        {
          "internalType": "bytes32",
          "name": "r",
          "type": "bytes32"
        },
        {
          "internalType": "bytes32",
          "name": "s",
          "type": "bytes32"
        },
        {
          "internalType": "uint8",
          "name": "v",
          "type": "uint8"
        }
      ],
      "name": "mintFirstClassNFT",
      "outputs": [],
      "stateMutability": "payable",
      "type": "function"
    },
    {
      "inputs": [
        {
          "internalType": "address[]",
          "name": "recipients",
          "type": "address[]"
        }
      ],
      "name": "mintPrivateJetNFT",
      "outputs": [],
      "stateMutability": "nonpayable",
      "type": "function"
    },
    {
      "inputs": [],
      "name": "mintSigner",
      "outputs": [
        {
          "internalType": "address",
          "name": "",
          "type": "address"
        }
      ],
      "stateMutability": "view",
      "type": "function"
    },
    {
      "inputs": [],
      "name": "name",
      "outputs": [
        {
          "internalType": "string",
          "name": "",
          "type": "string"
        }
      ],
      "stateMutability": "view",
      "type": "function"
    },
    {
      "inputs": [],
      "name": "owner",
      "outputs": [
        {
          "internalType": "address",
          "name": "",
          "type": "address"
        }
      ],
      "stateMutability": "view",
      "type": "function"
    },
    {
      "inputs": [
        {
          "internalType": "uint256",
          "name": "tokenId",
          "type": "uint256"
        }
      ],
      "name": "ownerOf",
      "outputs": [
        {
          "internalType": "address",
          "name": "",
          "type": "address"
        }
      ],
      "stateMutability": "view",
      "type": "function"
    },
    {
      "inputs": [],
      "name": "renounceOwnership",
      "outputs": [],
      "stateMutability": "nonpayable",
      "type": "function"
    },
    {
      "inputs": [
        {
          "internalType": "address",
          "name": "from",
          "type": "address"
        },
        {
          "internalType": "address",
          "name": "to",
          "type": "address"
        },
        {
          "internalType": "uint256",
          "name": "tokenId",
          "type": "uint256"
        }
      ],
      "name": "safeTransferFrom",
      "outputs": [],
      "stateMutability": "nonpayable",
      "type": "function"
    },
    {
      "inputs": [
        {
          "internalType": "address",
          "name": "from",
          "type": "address"
        },
        {
          "internalType": "address",
          "name": "to",
          "type": "address"
        },
        {
          "internalType": "uint256",
          "name": "tokenId",
          "type": "uint256"
        },
        {
          "internalType": "bytes",
          "name": "data",
          "type": "bytes"
        }
      ],
      "name": "safeTransferFrom",
      "outputs": [],
      "stateMutability": "nonpayable",
      "type": "function"
    },
    {
      "inputs": [],
      "name": "saleStartTime",
      "outputs": [
        {
          "internalType": "uint256",
          "name": "",
          "type": "uint256"
        }
      ],
      "stateMutability": "view",
      "type": "function"
    },
    {
      "inputs": [
        {
          "internalType": "address",
          "name": "operator",
          "type": "address"
        },
        {
          "internalType": "bool",
          "name": "approved",
          "type": "bool"
        }
      ],
      "name": "setApprovalForAll",
      "outputs": [],
      "stateMutability": "nonpayable",
      "type": "function"
    },
    {
      "inputs": [
        {
          "internalType": "uint256",
          "name": "_price",
          "type": "uint256"
        }
      ],
      "name": "setFirstClassMintPrice",
      "outputs": [],
      "stateMutability": "nonpayable",
      "type": "function"
    },
    {
      "inputs": [
        {
          "internalType": "uint256",
          "name": "_maxSupply",
          "type": "uint256"
        }
      ],
      "name": "setMaxFirstClassSupply",
      "outputs": [],
      "stateMutability": "nonpayable",
      "type": "function"
    },
    {
      "inputs": [
        {
          "internalType": "address",
          "name": "_signer",
          "type": "address"
        }
      ],
      "name": "setMintSigner",
      "outputs": [],
      "stateMutability": "nonpayable",
      "type": "function"
    },
    {
      "inputs": [
        {
          "internalType": "uint256",
          "name": "_startDate",
          "type": "uint256"
        }
      ],
      "name": "setSaleStartTime",
      "outputs": [],
      "stateMutability": "nonpayable",
      "type": "function"
    },
    {
      "inputs": [
        {
          "internalType": "enum LingoNFT.Tier",
          "name": "tier",
          "type": "uint8"
        },
        {
          "internalType": "string",
          "name": "uri",
          "type": "string"
        }
      ],
      "name": "setTierURI",
      "outputs": [],
      "stateMutability": "nonpayable",
      "type": "function"
    },
    {
      "inputs": [
        {
          "internalType": "bytes4",
          "name": "interfaceId",
          "type": "bytes4"
        }
      ],
      "name": "supportsInterface",
      "outputs": [
        {
          "internalType": "bool",
          "name": "",
          "type": "bool"
        }
      ],
      "stateMutability": "view",
      "type": "function"
    },
    {
      "inputs": [],
      "name": "symbol",
      "outputs": [
        {
          "internalType": "string",
          "name": "",
          "type": "string"
        }
      ],
      "stateMutability": "view",
      "type": "function"
    },
    {
      "inputs": [
        {
          "internalType": "uint256",
          "name": "tokenId",
          "type": "uint256"
        }
      ],
      "name": "tokenURI",
      "outputs": [
        {
          "internalType": "string",
          "name": "",
          "type": "string"
        }
      ],
      "stateMutability": "view",
      "type": "function"
    },
    {
      "inputs": [
        {
          "internalType": "address",
          "name": "from",
          "type": "address"
        },
        {
          "internalType": "address",
          "name": "to",
          "type": "address"
        },
        {
          "internalType": "uint256",
          "name": "tokenId",
          "type": "uint256"
        }
      ],
      "name": "transferFrom",
      "outputs": [],
      "stateMutability": "nonpayable",
      "type": "function"
    },
    {
      "inputs": [
        {
          "internalType": "address",
          "name": "newOwner",
          "type": "address"
        }
      ],
      "name": "transferOwnership",
      "outputs": [],
      "stateMutability": "nonpayable",
      "type": "function"
    },
    {
      "inputs": [],
      "name": "withdraw",
      "outputs": [],
      "stateMutability": "nonpayable",
      "type": "function"
    }
  ],
  "bytecode": "0x6101606040523480156200001257600080fd5b506040518060400160405280600981526020017f4c696e676f204e465400000000000000000000000000000000000000000000008152506040518060400160405280600181526020017f31000000000000000000000000000000000000000000000000000000000000008152506040518060400160405280600981526020017f4c696e676f204e465400000000000000000000000000000000000000000000008152506040518060400160405280600481526020017f4c494e47000000000000000000000000000000000000000000000000000000008152508160009081620000fc9190620007fd565b5080600190816200010e9190620007fd565b505050620001276006836200038960201b90919060201c565b6101208181525050620001456007826200038960201b90919060201c565b6101408181525050818051906020012060e08181525050808051906020012061010081815250504660a0818152505062000184620003e160201b60201c565b608081815250503073ffffffffffffffffffffffffffffffffffffffff1660c08173ffffffffffffffffffffffffffffffffffffffff16815250505050620001e1620001d56200043e60201b60201c565b6200044660201b60201c565b600160098190555060405180606001604052806035815260200162005f9460359139601160008060038111156200021d576200021c620008e4565b5b6003811115620002325762000231620008e4565b5b815260200190815260200160002090816200024e9190620007fd565b5060405180606001604052806035815260200162005fc9603591396011600060016003811115620002845762000283620008e4565b5b6003811115620002995762000298620008e4565b5b81526020019081526020016000209081620002b59190620007fd565b5060405180606001604052806035815260200162005f5f603591396011600060026003811115620002eb57620002ea620008e4565b5b60038111156200030057620002ff620008e4565b5b815260200190815260200160002090816200031c9190620007fd565b5060405180606001604052806035815260200162005f2a6035913960116000600380811115620003515762000350620008e4565b5b6003811115620003665762000365620008e4565b5b81526020019081526020016000209081620003829190620007fd565b5062000b36565b6000602083511015620003af57620003a7836200050c60201b60201c565b9050620003db565b82620003c1836200057960201b60201c565b6000019081620003d29190620007fd565b5060ff60001b90505b92915050565b60007f8b73c3c69bb8fe3d512ecc4cf759cc79239f7b179b0ffacaa9a75d522b39400f60e0516101005146306040516020016200042395949392919062000984565b60405160208183030381529060405280519060200120905090565b600033905090565b6000600860009054906101000a900473ffffffffffffffffffffffffffffffffffffffff16905081600860006101000a81548173ffffffffffffffffffffffffffffffffffffffff021916908373ffffffffffffffffffffffffffffffffffffffff1602179055508173ffffffffffffffffffffffffffffffffffffffff168173ffffffffffffffffffffffffffffffffffffffff167f8be0079c531659141344cd1fd0a4f28419497f9722a3daafe3b4186f6b6457e060405160405180910390a35050565b600080829050601f815111156200055c57826040517f305a27a900000000000000000000000000000000000000000000000000000000815260040162000553919062000a70565b60405180910390fd5b8051816200056a9062000ac6565b60001c1760001b915050919050565b6000819050919050565b600081519050919050565b7f4e487b7100000000000000000000000000000000000000000000000000000000600052604160045260246000fd5b7f4e487b7100000000000000000000000000000000000000000000000000000000600052602260045260246000fd5b600060028204905060018216806200060557607f821691505b6020821081036200061b576200061a620005bd565b5b50919050565b60008190508160005260206000209050919050565b60006020601f8301049050919050565b600082821b905092915050565b600060088302620006857fffffffffffffffffffffffffffffffffffffffffffffffffffffffffffffffff8262000646565b62000691868362000646565b95508019841693508086168417925050509392505050565b6000819050919050565b6000819050919050565b6000620006de620006d8620006d284620006a9565b620006b3565b620006a9565b9050919050565b6000819050919050565b620006fa83620006bd565b620007126200070982620006e5565b84845462000653565b825550505050565b600090565b620007296200071a565b62000736818484620006ef565b505050565b5b818110156200075e57620007526000826200071f565b6001810190506200073c565b5050565b601f821115620007ad57620007778162000621565b620007828462000636565b8101602085101562000792578190505b620007aa620007a18562000636565b8301826200073b565b50505b505050565b600082821c905092915050565b6000620007d260001984600802620007b2565b1980831691505092915050565b6000620007ed8383620007bf565b9150826002028217905092915050565b620008088262000583565b67ffffffffffffffff8111156200082457620008236200058e565b5b620008308254620005ec565b6200083d82828562000762565b600060209050601f83116001811462000875576000841562000860578287015190505b6200086c8582620007df565b865550620008dc565b601f198416620008858662000621565b60005b82811015620008af5784890151825560018201915060208501945060208101905062000888565b86831015620008cf5784890151620008cb601f891682620007bf565b8355505b6001600288020188555050505b505050505050565b7f4e487b7100000000000000000000000000000000000000000000000000000000600052602160045260246000fd5b6000819050919050565b620009288162000913565b82525050565b6200093981620006a9565b82525050565b600073ffffffffffffffffffffffffffffffffffffffff82169050919050565b60006200096c826200093f565b9050919050565b6200097e816200095f565b82525050565b600060a0820190506200099b60008301886200091d565b620009aa60208301876200091d565b620009b960408301866200091d565b620009c860608301856200092e565b620009d7608083018462000973565b9695505050505050565b600082825260208201905092915050565b60005b8381101562000a12578082015181840152602081019050620009f5565b60008484015250505050565b6000601f19601f8301169050919050565b600062000a3c8262000583565b62000a488185620009e1565b935062000a5a818560208601620009f2565b62000a658162000a1e565b840191505092915050565b6000602082019050818103600083015262000a8c818462000a2f565b905092915050565b600081519050919050565b6000819050602082019050919050565b600062000abd825162000913565b80915050919050565b600062000ad38262000a94565b8262000adf8462000a9f565b905062000aec8162000aaf565b9250602082101562000b2f5762000b2a7fffffffffffffffffffffffffffffffffffffffffffffffffffffffffffffffff8360200360080262000646565b831692505b5050919050565b60805160a05160c05160e05161010051610120516101405161539962000b9160003960006110740152600061104001526000612d3601526000612d150152600061296b015260006129c1015260006129ea01526153996000f3fe6080604052600436106102045760003560e01c806384b0196e11610118578063da1642cb116100a0578063f2fde38b1161006f578063f2fde38b14610748578063f3ad4c1f14610771578063f3e997e91461079c578063fc2418fe146107c5578063ff97f660146107f057610204565b8063da1642cb1461069b578063e84a9728146106b7578063e985e9c5146106e0578063f17af48d1461071d57610204565b8063b88d4fde116100e7578063b88d4fde146105b8578063bb7c7cd0146105e1578063c4e41b221461060a578063c5f50a4714610635578063c87b56dd1461065e57610204565b806384b0196e146105085780638da5cb5b1461053957806395d89b4114610564578063a22cb4651461058f57610204565b806329caa7561161019b578063525f8a5c1161016a578063525f8a5c146104235780635b1f4bd71461044c5780636352211e1461047757806370a08231146104b4578063715018a6146104f157610204565b806329caa75614610391578063333e972d146103ba5780633ccfd60b146103e357806342842e0e146103fa57610204565b80630ddd124d116101d75780630ddd124d146102d75780631cbaee2d1461030057806323b872dd1461032b57806327af03aa1461035457610204565b806301ffc9a71461020957806306fdde0314610246578063081812fc14610271578063095ea7b3146102ae575b600080fd5b34801561021557600080fd5b50610230600480360381019061022b9190613325565b61082d565b60405161023d919061336d565b60405180910390f35b34801561025257600080fd5b5061025b61090f565b6040516102689190613418565b60405180910390f35b34801561027d57600080fd5b5061029860048036038101906102939190613470565b6109a1565b6040516102a591906134de565b60405180910390f35b3480156102ba57600080fd5b506102d560048036038101906102d09190613525565b6109e7565b005b3480156102e357600080fd5b506102fe60048036038101906102f991906135ca565b610afe565b005b34801561030c57600080fd5b50610315610b7f565b6040516103229190613626565b60405180910390f35b34801561033757600080fd5b50610352600480360381019061034d9190613641565b610b85565b005b34801561036057600080fd5b5061037b600480360381019061037691906136b9565b610be5565b6040516103889190613418565b60405180910390f35b34801561039d57600080fd5b506103b860048036038101906103b39190613470565b610cae565b005b3480156103c657600080fd5b506103e160048036038101906103dc919061373c565b610d03565b005b3480156103ef57600080fd5b506103f8610d9d565b005b34801561040657600080fd5b50610421600480360381019061041c9190613641565b610ea4565b005b34801561042f57600080fd5b5061044a60048036038101906104459190613470565b610ec4565b005b34801561045857600080fd5b50610461610ed6565b60405161046e9190613626565b60405180910390f35b34801561048357600080fd5b5061049e60048036038101906104999190613470565b610edc565b6040516104ab91906134de565b60405180910390f35b3480156104c057600080fd5b506104db60048036038101906104d6919061379c565b610f62565b6040516104e89190613626565b60405180910390f35b3480156104fd57600080fd5b50610506611019565b005b34801561051457600080fd5b5061051d61102d565b60405161053097969594939291906138db565b60405180910390f35b34801561054557600080fd5b5061054e61112f565b60405161055b91906134de565b60405180910390f35b34801561057057600080fd5b50610579611159565b6040516105869190613418565b60405180910390f35b34801561059b57600080fd5b506105b660048036038101906105b1919061398b565b6111eb565b005b3480156105c457600080fd5b506105df60048036038101906105da9190613afb565b611201565b005b3480156105ed57600080fd5b5061060860048036038101906106039190613b7e565b611263565b005b34801561061657600080fd5b5061061f611347565b60405161062c9190613626565b60405180910390f35b34801561064157600080fd5b5061065c60048036038101906106579190613c43565b611351565b005b34801561066a57600080fd5b5061068560048036038101906106809190613470565b611676565b6040516106929190613418565b60405180910390f35b6106b560048036038101906106b09190613c43565b6117ad565b005b3480156106c357600080fd5b506106de60048036038101906106d9919061379c565b611b2e565b005b3480156106ec57600080fd5b5061070760048036038101906107029190613caa565b611be9565b604051610714919061336d565b60405180910390f35b34801561072957600080fd5b50610732611c7d565b60405161073f91906134de565b60405180910390f35b34801561075457600080fd5b5061076f600480360381019061076a919061379c565b611ca3565b005b34801561077d57600080fd5b50610786611d26565b6040516107939190613626565b60405180910390f35b3480156107a857600080fd5b506107c360048036038101906107be9190613470565b611d2c565b005b3480156107d157600080fd5b506107da611d81565b6040516107e79190613626565b60405180910390f35b3480156107fc57600080fd5b5061081760048036038101906108129190613cea565b611d8b565b604051610824919061336d565b60405180910390f35b60007f80ac58cd000000000000000000000000000000000000000000000000000000007bffffffffffffffffffffffffffffffffffffffffffffffffffffffff1916827bffffffffffffffffffffffffffffffffffffffffffffffffffffffff191614806108f857507f5b5e139f000000000000000000000000000000000000000000000000000000007bffffffffffffffffffffffffffffffffffffffffffffffffffffffff1916827bffffffffffffffffffffffffffffffffffffffffffffffffffffffff1916145b80610908575061090782611e17565b5b9050919050565b60606000805461091e90613d59565b80601f016020809104026020016040519081016040528092919081815260200182805461094a90613d59565b80156109975780601f1061096c57610100808354040283529160200191610997565b820191906000526020600020905b81548152906001019060200180831161097a57829003601f168201915b5050505050905090565b60006109ac82611e81565b6004600083815260200190815260200160002060009054906101000a900473ffffffffffffffffffffffffffffffffffffffff169050919050565b60006109f282610edc565b90508073ffffffffffffffffffffffffffffffffffffffff168373ffffffffffffffffffffffffffffffffffffffff1603610a62576040517f08c379a0000000000000000000000000000000000000000000000000000000008152600401610a5990613dfc565b60405180910390fd5b8073ffffffffffffffffffffffffffffffffffffffff16610a81611ecc565b73ffffffffffffffffffffffffffffffffffffffff161480610ab05750610aaf81610aaa611ecc565b611be9565b5b610aef576040517f08c379a0000000000000000000000000000000000000000000000000000000008152600401610ae690613e8e565b60405180910390fd5b610af98383611ed4565b505050565b610b06611f8d565b610b0e611fdc565b600080600090505b83839050811015610b7157610b2961205a565b9150610b5e848483818110610b4157610b40613eae565b5b9050602002016020810190610b56919061379c565b836003612069565b8080610b6990613f0c565b915050610b16565b5050610b7b612254565b5050565b600a5481565b610b96610b90611ecc565b8261225e565b610bd5576040517f08c379a0000000000000000000000000000000000000000000000000000000008152600401610bcc90613fc6565b60405180910390fd5b610be08383836122f3565b505050565b606060116000836003811115610bfe57610bfd613fe6565b5b6003811115610c1057610c0f613fe6565b5b81526020019081526020016000208054610c2990613d59565b80601f0160208091040260200160405190810160405280929190818152602001828054610c5590613d59565b8015610ca25780601f10610c7757610100808354040283529160200191610ca2565b820191906000526020600020905b815481529060010190602001808311610c8557829003601f168201915b50505050509050919050565b610cb6611fdc565b60008111610cf9576040517f08c379a0000000000000000000000000000000000000000000000000000000008152600401610cf090614061565b60405180910390fd5b80600c8190555050565b610d0b611fdc565b60008282905011610d51576040517f08c379a0000000000000000000000000000000000000000000000000000000008152600401610d48906140cd565b60405180910390fd5b818160116000866003811115610d6a57610d69613fe6565b5b6003811115610d7c57610d7b613fe6565b5b81526020019081526020016000209182610d979291906142a4565b50505050565b610da5611fdc565b600047905060008111610ded576040517f08c379a0000000000000000000000000000000000000000000000000000000008152600401610de4906143c0565b60405180910390fd5b6000610df761112f565b73ffffffffffffffffffffffffffffffffffffffff1682604051610e1a90614411565b60006040518083038185875af1925050503d8060008114610e57576040519150601f19603f3d011682016040523d82523d6000602084013e610e5c565b606091505b5050905080610ea0576040517f08c379a0000000000000000000000000000000000000000000000000000000008152600401610e9790614472565b60405180910390fd5b5050565b610ebf83838360405180602001604052806000815250611201565b505050565b610ecc611fdc565b80600a8190555050565b600c5481565b600080610ee8836125ec565b9050600073ffffffffffffffffffffffffffffffffffffffff168173ffffffffffffffffffffffffffffffffffffffff1603610f59576040517f08c379a0000000000000000000000000000000000000000000000000000000008152600401610f50906144de565b60405180910390fd5b80915050919050565b60008073ffffffffffffffffffffffffffffffffffffffff168273ffffffffffffffffffffffffffffffffffffffff1603610fd2576040517f08c379a0000000000000000000000000000000000000000000000000000000008152600401610fc990614570565b60405180910390fd5b600360008373ffffffffffffffffffffffffffffffffffffffff1673ffffffffffffffffffffffffffffffffffffffff168152602001908152602001600020549050919050565b611021611fdc565b61102b6000612629565b565b60006060806000806000606061106d60067f00000000000000000000000000000000000000000000000000000000000000006126ef90919063ffffffff16565b6110a160077f00000000000000000000000000000000000000000000000000000000000000006126ef90919063ffffffff16565b46306000801b600067ffffffffffffffff8111156110c2576110c16139d0565b5b6040519080825280602002602001820160405280156110f05781602001602082028036833780820191505090505b507f0f00000000000000000000000000000000000000000000000000000000000000959493929190965096509650965096509650965090919293949596565b6000600860009054906101000a900473ffffffffffffffffffffffffffffffffffffffff16905090565b60606001805461116890613d59565b80601f016020809104026020016040519081016040528092919081815260200182805461119490613d59565b80156111e15780601f106111b6576101008083540402835291602001916111e1565b820191906000526020600020905b8154815290600101906020018083116111c457829003601f168201915b5050505050905090565b6111fd6111f6611ecc565b838361279f565b5050565b61121261120c611ecc565b8361225e565b611251576040517f08c379a000000000000000000000000000000000000000000000000000000000815260040161124890613fc6565b60405180910390fd5b61125d8484848461290b565b50505050565b61126b611f8d565b611273611fdc565b60038081111561128657611285613fe6565b5b81600381111561129957611298613fe6565b5b036112d9576040517f08c379a00000000000000000000000000000000000000000000000000000000081526004016112d0906145dc565b60405180910390fd5b60005b838390508110156113395760006112f161205a565b905061132585858481811061130957611308613eae565b5b905060200201602081019061131e919061379c565b8285612069565b50808061133190613f0c565b9150506112dc565b50611342612254565b505050565b6000600f54905090565b611359611f8d565b6000600a541415801561136e5750600a544210155b6113ad576040517f08c379a00000000000000000000000000000000000000000000000000000000081526004016113a490614648565b60405180910390fd5b600060038111156113c1576113c0613fe6565b5b8460038111156113d4576113d3613fe6565b5b14806114045750600160038111156113ef576113ee613fe6565b5b84600381111561140257611401613fe6565b5b145b611443576040517f08c379a000000000000000000000000000000000000000000000000000000000815260040161143a906145dc565b60405180910390fd5b601260003373ffffffffffffffffffffffffffffffffffffffff1673ffffffffffffffffffffffffffffffffffffffff168152602001908152602001600020600085600381111561149757611496613fe6565b5b60038111156114a9576114a8613fe6565b5b815260200190815260200160002060009054906101000a900460ff1615611505576040517f08c379a00000000000000000000000000000000000000000000000000000000081526004016114fc906146b4565b60405180910390fd5b600060405180604001604052803373ffffffffffffffffffffffffffffffffffffffff16815260200186600381111561154157611540613fe6565b5b815250905060007f46f4e767a8259e68d4629e440e95fd281001bab9e44421b91129c495ca9b9636826000015183602001516040516020016115859392919061471c565b60405160208183030381529060405280519060200120905060006115b06115aa612967565b83612a1e565b9050600b60009054906101000a900473ffffffffffffffffffffffffffffffffffffffff1673ffffffffffffffffffffffffffffffffffffffff166115f782868989612a5f565b73ffffffffffffffffffffffffffffffffffffffff161461164d576040517f08c379a00000000000000000000000000000000000000000000000000000000081526004016116449061479f565b60405180910390fd5b600061165761205a565b905061166433828a612069565b50505050611670612254565b50505050565b606061168182612a8a565b6116c0576040517f08c379a00000000000000000000000000000000000000000000000000000000081526004016116b79061480b565b60405180910390fd5b60006010600084815260200190815260200160002060009054906101000a900460ff169050601160008260038111156116fc576116fb613fe6565b5b600381111561170e5761170d613fe6565b5b8152602001908152602001600020805461172790613d59565b80601f016020809104026020016040519081016040528092919081815260200182805461175390613d59565b80156117a05780601f10611775576101008083540402835291602001916117a0565b820191906000526020600020905b81548152906001019060200180831161178357829003601f168201915b5050505050915050919050565b6117b5611f8d565b6000600a54141580156117ca5750600a544210155b611809576040517f08c379a000000000000000000000000000000000000000000000000000000000815260040161180090614648565b60405180910390fd5b6002600381111561181d5761181c613fe6565b5b8460038111156118305761182f613fe6565b5b14611870576040517f08c379a00000000000000000000000000000000000000000000000000000000081526004016118679061489d565b60405180910390fd5b600c5434146118b4576040517f08c379a00000000000000000000000000000000000000000000000000000000081526004016118ab90614909565b60405180910390fd5b601260003373ffffffffffffffffffffffffffffffffffffffff1673ffffffffffffffffffffffffffffffffffffffff16815260200190815260200160002060006002600381111561190957611908613fe6565b5b600381111561191b5761191a613fe6565b5b815260200190815260200160002060009054906101000a900460ff1615611977576040517f08c379a000000000000000000000000000000000000000000000000000000000815260040161196e90614975565b60405180910390fd5b600d54600e54106119bd576040517f08c379a00000000000000000000000000000000000000000000000000000000081526004016119b4906149e1565b60405180910390fd5b600060405180604001604052803373ffffffffffffffffffffffffffffffffffffffff1681526020018660038111156119f9576119f8613fe6565b5b815250905060007f46f4e767a8259e68d4629e440e95fd281001bab9e44421b91129c495ca9b963682600001518360200151604051602001611a3d9392919061471c565b6040516020818303038152906040528051906020012090506000611a68611a62612967565b83612a1e565b9050600b60009054906101000a900473ffffffffffffffffffffffffffffffffffffffff1673ffffffffffffffffffffffffffffffffffffffff16611aaf82868989612a5f565b73ffffffffffffffffffffffffffffffffffffffff1614611b05576040517f08c379a0000000000000000000000000000000000000000000000000000000008152600401611afc9061479f565b60405180910390fd5b6000611b0f61205a565b9050611b1c33828a612069565b50505050611b28612254565b50505050565b611b36611fdc565b600073ffffffffffffffffffffffffffffffffffffffff168173ffffffffffffffffffffffffffffffffffffffff1603611ba5576040517f08c379a0000000000000000000000000000000000000000000000000000000008152600401611b9c90614a4d565b60405180910390fd5b80600b60006101000a81548173ffffffffffffffffffffffffffffffffffffffff021916908373ffffffffffffffffffffffffffffffffffffffff16021790555050565b6000600560008473ffffffffffffffffffffffffffffffffffffffff1673ffffffffffffffffffffffffffffffffffffffff16815260200190815260200160002060008373ffffffffffffffffffffffffffffffffffffffff1673ffffffffffffffffffffffffffffffffffffffff16815260200190815260200160002060009054906101000a900460ff16905092915050565b600b60009054906101000a900473ffffffffffffffffffffffffffffffffffffffff1681565b611cab611fdc565b600073ffffffffffffffffffffffffffffffffffffffff168173ffffffffffffffffffffffffffffffffffffffff1603611d1a576040517f08c379a0000000000000000000000000000000000000000000000000000000008152600401611d1190614adf565b60405180910390fd5b611d2381612629565b50565b600d5481565b611d34611fdc565b60008111611d77576040517f08c379a0000000000000000000000000000000000000000000000000000000008152600401611d6e90614b71565b60405180910390fd5b80600d8190555050565b6000600e54905090565b6000601260008473ffffffffffffffffffffffffffffffffffffffff1673ffffffffffffffffffffffffffffffffffffffff1681526020019081526020016000206000836003811115611de157611de0613fe6565b5b6003811115611df357611df2613fe6565b5b815260200190815260200160002060009054906101000a900460ff16905092915050565b60007f01ffc9a7000000000000000000000000000000000000000000000000000000007bffffffffffffffffffffffffffffffffffffffffffffffffffffffff1916827bffffffffffffffffffffffffffffffffffffffffffffffffffffffff1916149050919050565b611e8a81612a8a565b611ec9576040517f08c379a0000000000000000000000000000000000000000000000000000000008152600401611ec0906144de565b60405180910390fd5b50565b600033905090565b816004600083815260200190815260200160002060006101000a81548173ffffffffffffffffffffffffffffffffffffffff021916908373ffffffffffffffffffffffffffffffffffffffff160217905550808273ffffffffffffffffffffffffffffffffffffffff16611f4783610edc565b73ffffffffffffffffffffffffffffffffffffffff167f8c5be1e5ebec7d5bd14f71427d1e84f3dd0314c0f7b2291e5b200ac8c7c3b92560405160405180910390a45050565b600260095403611fd2576040517f08c379a0000000000000000000000000000000000000000000000000000000008152600401611fc990614bdd565b60405180910390fd5b6002600981905550565b611fe4611ecc565b73ffffffffffffffffffffffffffffffffffffffff1661200261112f565b73ffffffffffffffffffffffffffffffffffffffff1614612058576040517f08c379a000000000000000000000000000000000000000000000000000000000815260040161204f90614c49565b60405180910390fd5b565b600080600f5490508091505090565b61207282612a8a565b156120b2576040517f08c379a00000000000000000000000000000000000000000000000000000000081526004016120a990614cb5565b60405180910390fd5b600073ffffffffffffffffffffffffffffffffffffffff168373ffffffffffffffffffffffffffffffffffffffff1603612121576040517f08c379a000000000000000000000000000000000000000000000000000000000815260040161211890614d21565b60405180910390fd5b6001601260003373ffffffffffffffffffffffffffffffffffffffff1673ffffffffffffffffffffffffffffffffffffffff168152602001908152602001600020600083600381111561217757612176613fe6565b5b600381111561218957612188613fe6565b5b815260200190815260200160002060006101000a81548160ff0219169083151502179055506001600f546121bd9190614d41565b600f81905550806010600084815260200190815260200160002060006101000a81548160ff021916908360038111156121f9576121f8613fe6565b5b02179055506122088383612acb565b6002600381111561221c5761221b613fe6565b5b81600381111561222f5761222e613fe6565b5b0361224f576001600e60008282546122479190614d41565b925050819055505b505050565b6001600981905550565b60008061226a83610edc565b90508073ffffffffffffffffffffffffffffffffffffffff168473ffffffffffffffffffffffffffffffffffffffff1614806122ac57506122ab8185611be9565b5b806122ea57508373ffffffffffffffffffffffffffffffffffffffff166122d2846109a1565b73ffffffffffffffffffffffffffffffffffffffff16145b91505092915050565b8273ffffffffffffffffffffffffffffffffffffffff1661231382610edc565b73ffffffffffffffffffffffffffffffffffffffff1614612369576040517f08c379a000000000000000000000000000000000000000000000000000000000815260040161236090614de7565b60405180910390fd5b600073ffffffffffffffffffffffffffffffffffffffff168273ffffffffffffffffffffffffffffffffffffffff16036123d8576040517f08c379a00000000000000000000000000000000000000000000000000000000081526004016123cf90614e79565b60405180910390fd5b6123e58383836001612ae9565b8273ffffffffffffffffffffffffffffffffffffffff1661240582610edc565b73ffffffffffffffffffffffffffffffffffffffff161461245b576040517f08c379a000000000000000000000000000000000000000000000000000000000815260040161245290614de7565b60405180910390fd5b6004600082815260200190815260200160002060006101000a81549073ffffffffffffffffffffffffffffffffffffffff02191690556001600360008573ffffffffffffffffffffffffffffffffffffffff1673ffffffffffffffffffffffffffffffffffffffff168152602001908152602001600020600082825403925050819055506001600360008473ffffffffffffffffffffffffffffffffffffffff1673ffffffffffffffffffffffffffffffffffffffff16815260200190815260200160002060008282540192505081905550816002600083815260200190815260200160002060006101000a81548173ffffffffffffffffffffffffffffffffffffffff021916908373ffffffffffffffffffffffffffffffffffffffff160217905550808273ffffffffffffffffffffffffffffffffffffffff168473ffffffffffffffffffffffffffffffffffffffff167fddf252ad1be2c89b69c2b068fc378daa952ba7f163c4a11628f55a4df523b3ef60405160405180910390a46125e78383836001612aef565b505050565b60006002600083815260200190815260200160002060009054906101000a900473ffffffffffffffffffffffffffffffffffffffff169050919050565b6000600860009054906101000a900473ffffffffffffffffffffffffffffffffffffffff16905081600860006101000a81548173ffffffffffffffffffffffffffffffffffffffff021916908373ffffffffffffffffffffffffffffffffffffffff1602179055508173ffffffffffffffffffffffffffffffffffffffff168173ffffffffffffffffffffffffffffffffffffffff167f8be0079c531659141344cd1fd0a4f28419497f9722a3daafe3b4186f6b6457e060405160405180910390a35050565b606060ff60001b831461270c5761270583612af5565b9050612799565b81805461271890613d59565b80601f016020809104026020016040519081016040528092919081815260200182805461274490613d59565b80156127915780601f1061276657610100808354040283529160200191612791565b820191906000526020600020905b81548152906001019060200180831161277457829003601f168201915b505050505090505b92915050565b8173ffffffffffffffffffffffffffffffffffffffff168373ffffffffffffffffffffffffffffffffffffffff160361280d576040517f08c379a000000000000000000000000000000000000000000000000000000000815260040161280490614ee5565b60405180910390fd5b80600560008573ffffffffffffffffffffffffffffffffffffffff1673ffffffffffffffffffffffffffffffffffffffff16815260200190815260200160002060008473ffffffffffffffffffffffffffffffffffffffff1673ffffffffffffffffffffffffffffffffffffffff16815260200190815260200160002060006101000a81548160ff0219169083151502179055508173ffffffffffffffffffffffffffffffffffffffff168373ffffffffffffffffffffffffffffffffffffffff167f17307eab39ab6107e8899845ad3d59bd9653f200f220920489ca2b5937696c31836040516128fe919061336d565b60405180910390a3505050565b6129168484846122f3565b61292284848484612b69565b612961576040517f08c379a000000000000000000000000000000000000000000000000000000000815260040161295890614f77565b60405180910390fd5b50505050565b60007f000000000000000000000000000000000000000000000000000000000000000073ffffffffffffffffffffffffffffffffffffffff163073ffffffffffffffffffffffffffffffffffffffff161480156129e357507f000000000000000000000000000000000000000000000000000000000000000046145b15612a10577f00000000000000000000000000000000000000000000000000000000000000009050612a1b565b612a18612cf0565b90505b90565b60006040517f190100000000000000000000000000000000000000000000000000000000000081528360028201528260228201526042812091505092915050565b6000806000612a7087878787612d86565b91509150612a7d81612e68565b8192505050949350505050565b60008073ffffffffffffffffffffffffffffffffffffffff16612aac836125ec565b73ffffffffffffffffffffffffffffffffffffffff1614159050919050565b612ae5828260405180602001604052806000815250612fce565b5050565b50505050565b50505050565b60606000612b0283613029565b90506000602067ffffffffffffffff811115612b2157612b206139d0565b5b6040519080825280601f01601f191660200182016040528015612b535781602001600182028036833780820191505090505b5090508181528360208201528092505050919050565b6000612b8a8473ffffffffffffffffffffffffffffffffffffffff16613079565b15612ce3578373ffffffffffffffffffffffffffffffffffffffff1663150b7a02612bb3611ecc565b8786866040518563ffffffff1660e01b8152600401612bd59493929190614fec565b6020604051808303816000875af1925050508015612c1157506040513d601f19601f82011682018060405250810190612c0e919061504d565b60015b612c93573d8060008114612c41576040519150601f19603f3d011682016040523d82523d6000602084013e612c46565b606091505b506000815103612c8b576040517f08c379a0000000000000000000000000000000000000000000000000000000008152600401612c8290614f77565b60405180910390fd5b805181602001fd5b63150b7a0260e01b7bffffffffffffffffffffffffffffffffffffffffffffffffffffffff1916817bffffffffffffffffffffffffffffffffffffffffffffffffffffffff191614915050612ce8565b600190505b949350505050565b60007f8b73c3c69bb8fe3d512ecc4cf759cc79239f7b179b0ffacaa9a75d522b39400f7f00000000000000000000000000000000000000000000000000000000000000007f00000000000000000000000000000000000000000000000000000000000000004630604051602001612d6b95949392919061507a565b60405160208183030381529060405280519060200120905090565b6000807f7fffffffffffffffffffffffffffffff5d576e7357a4501ddfe92f46681b20a08360001c1115612dc1576000600391509150612e5f565b600060018787878760405160008152602001604052604051612de694939291906150dc565b6020604051602081039080840390855afa158015612e08573d6000803e3d6000fd5b505050602060405103519050600073ffffffffffffffffffffffffffffffffffffffff168173ffffffffffffffffffffffffffffffffffffffff1603612e5657600060019250925050612e5f565b80600092509250505b94509492505050565b60006004811115612e7c57612e7b613fe6565b5b816004811115612e8f57612e8e613fe6565b5b0315612fcb5760016004811115612ea957612ea8613fe6565b5b816004811115612ebc57612ebb613fe6565b5b03612efc576040517f08c379a0000000000000000000000000000000000000000000000000000000008152600401612ef39061516d565b60405180910390fd5b60026004811115612f1057612f0f613fe6565b5b816004811115612f2357612f22613fe6565b5b03612f63576040517f08c379a0000000000000000000000000000000000000000000000000000000008152600401612f5a906151d9565b60405180910390fd5b60036004811115612f7757612f76613fe6565b5b816004811115612f8a57612f89613fe6565b5b03612fca576040517f08c379a0000000000000000000000000000000000000000000000000000000008152600401612fc19061526b565b60405180910390fd5b5b50565b612fd8838361309c565b612fe56000848484612b69565b613024576040517f08c379a000000000000000000000000000000000000000000000000000000000815260040161301b90614f77565b60405180910390fd5b505050565b60008060ff8360001c169050601f811115613070576040517fb3512b0c00000000000000000000000000000000000000000000000000000000815260040160405180910390fd5b80915050919050565b6000808273ffffffffffffffffffffffffffffffffffffffff163b119050919050565b600073ffffffffffffffffffffffffffffffffffffffff168273ffffffffffffffffffffffffffffffffffffffff160361310b576040517f08c379a0000000000000000000000000000000000000000000000000000000008152600401613102906152d7565b60405180910390fd5b61311481612a8a565b15613154576040517f08c379a000000000000000000000000000000000000000000000000000000000815260040161314b90615343565b60405180910390fd5b613162600083836001612ae9565b61316b81612a8a565b156131ab576040517f08c379a00000000000000000000000000000000000000000000000000000000081526004016131a290615343565b60405180910390fd5b6001600360008473ffffffffffffffffffffffffffffffffffffffff1673ffffffffffffffffffffffffffffffffffffffff16815260200190815260200160002060008282540192505081905550816002600083815260200190815260200160002060006101000a81548173ffffffffffffffffffffffffffffffffffffffff021916908373ffffffffffffffffffffffffffffffffffffffff160217905550808273ffffffffffffffffffffffffffffffffffffffff16600073ffffffffffffffffffffffffffffffffffffffff167fddf252ad1be2c89b69c2b068fc378daa952ba7f163c4a11628f55a4df523b3ef60405160405180910390a46132b5600083836001612aef565b5050565b6000604051905090565b600080fd5b600080fd5b60007fffffffff0000000000000000000000000000000000000000000000000000000082169050919050565b613302816132cd565b811461330d57600080fd5b50565b60008135905061331f816132f9565b92915050565b60006020828403121561333b5761333a6132c3565b5b600061334984828501613310565b91505092915050565b60008115159050919050565b61336781613352565b82525050565b6000602082019050613382600083018461335e565b92915050565b600081519050919050565b600082825260208201905092915050565b60005b838110156133c25780820151818401526020810190506133a7565b60008484015250505050565b6000601f19601f8301169050919050565b60006133ea82613388565b6133f48185613393565b93506134048185602086016133a4565b61340d816133ce565b840191505092915050565b6000602082019050818103600083015261343281846133df565b905092915050565b6000819050919050565b61344d8161343a565b811461345857600080fd5b50565b60008135905061346a81613444565b92915050565b600060208284031215613486576134856132c3565b5b60006134948482850161345b565b91505092915050565b600073ffffffffffffffffffffffffffffffffffffffff82169050919050565b60006134c88261349d565b9050919050565b6134d8816134bd565b82525050565b60006020820190506134f360008301846134cf565b92915050565b613502816134bd565b811461350d57600080fd5b50565b60008135905061351f816134f9565b92915050565b6000806040838503121561353c5761353b6132c3565b5b600061354a85828601613510565b925050602061355b8582860161345b565b9150509250929050565b600080fd5b600080fd5b600080fd5b60008083601f84011261358a57613589613565565b5b8235905067ffffffffffffffff8111156135a7576135a661356a565b5b6020830191508360208202830111156135c3576135c261356f565b5b9250929050565b600080602083850312156135e1576135e06132c3565b5b600083013567ffffffffffffffff8111156135ff576135fe6132c8565b5b61360b85828601613574565b92509250509250929050565b6136208161343a565b82525050565b600060208201905061363b6000830184613617565b92915050565b60008060006060848603121561365a576136596132c3565b5b600061366886828701613510565b935050602061367986828701613510565b925050604061368a8682870161345b565b9150509250925092565b600481106136a157600080fd5b50565b6000813590506136b381613694565b92915050565b6000602082840312156136cf576136ce6132c3565b5b60006136dd848285016136a4565b91505092915050565b60008083601f8401126136fc576136fb613565565b5b8235905067ffffffffffffffff8111156137195761371861356a565b5b6020830191508360018202830111156137355761373461356f565b5b9250929050565b600080600060408486031215613755576137546132c3565b5b6000613763868287016136a4565b935050602084013567ffffffffffffffff811115613784576137836132c8565b5b613790868287016136e6565b92509250509250925092565b6000602082840312156137b2576137b16132c3565b5b60006137c084828501613510565b91505092915050565b60007fff0000000000000000000000000000000000000000000000000000000000000082169050919050565b6137fe816137c9565b82525050565b6000819050919050565b61381781613804565b82525050565b600081519050919050565b600082825260208201905092915050565b6000819050602082019050919050565b6138528161343a565b82525050565b60006138648383613849565b60208301905092915050565b6000602082019050919050565b60006138888261381d565b6138928185613828565b935061389d83613839565b8060005b838110156138ce5781516138b58882613858565b97506138c083613870565b9250506001810190506138a1565b5085935050505092915050565b600060e0820190506138f0600083018a6137f5565b818103602083015261390281896133df565b9050818103604083015261391681886133df565b90506139256060830187613617565b61393260808301866134cf565b61393f60a083018561380e565b81810360c0830152613951818461387d565b905098975050505050505050565b61396881613352565b811461397357600080fd5b50565b6000813590506139858161395f565b92915050565b600080604083850312156139a2576139a16132c3565b5b60006139b085828601613510565b92505060206139c185828601613976565b9150509250929050565b600080fd5b7f4e487b7100000000000000000000000000000000000000000000000000000000600052604160045260246000fd5b613a08826133ce565b810181811067ffffffffffffffff82111715613a2757613a266139d0565b5b80604052505050565b6000613a3a6132b9565b9050613a4682826139ff565b919050565b600067ffffffffffffffff821115613a6657613a656139d0565b5b613a6f826133ce565b9050602081019050919050565b82818337600083830152505050565b6000613a9e613a9984613a4b565b613a30565b905082815260208101848484011115613aba57613ab96139cb565b5b613ac5848285613a7c565b509392505050565b600082601f830112613ae257613ae1613565565b5b8135613af2848260208601613a8b565b91505092915050565b60008060008060808587031215613b1557613b146132c3565b5b6000613b2387828801613510565b9450506020613b3487828801613510565b9350506040613b458782880161345b565b925050606085013567ffffffffffffffff811115613b6657613b656132c8565b5b613b7287828801613acd565b91505092959194509250565b600080600060408486031215613b9757613b966132c3565b5b600084013567ffffffffffffffff811115613bb557613bb46132c8565b5b613bc186828701613574565b93509350506020613bd4868287016136a4565b9150509250925092565b613be781613804565b8114613bf257600080fd5b50565b600081359050613c0481613bde565b92915050565b600060ff82169050919050565b613c2081613c0a565b8114613c2b57600080fd5b50565b600081359050613c3d81613c17565b92915050565b60008060008060808587031215613c5d57613c5c6132c3565b5b6000613c6b878288016136a4565b9450506020613c7c87828801613bf5565b9350506040613c8d87828801613bf5565b9250506060613c9e87828801613c2e565b91505092959194509250565b60008060408385031215613cc157613cc06132c3565b5b6000613ccf85828601613510565b9250506020613ce085828601613510565b9150509250929050565b60008060408385031215613d0157613d006132c3565b5b6000613d0f85828601613510565b9250506020613d20858286016136a4565b9150509250929050565b7f4e487b7100000000000000000000000000000000000000000000000000000000600052602260045260246000fd5b60006002820490506001821680613d7157607f821691505b602082108103613d8457613d83613d2a565b5b50919050565b7f4552433732313a20617070726f76616c20746f2063757272656e74206f776e6560008201527f7200000000000000000000000000000000000000000000000000000000000000602082015250565b6000613de6602183613393565b9150613df182613d8a565b604082019050919050565b60006020820190508181036000830152613e1581613dd9565b9050919050565b7f4552433732313a20617070726f76652063616c6c6572206973206e6f7420746f60008201527f6b656e206f776e6572206f7220617070726f76656420666f7220616c6c000000602082015250565b6000613e78603d83613393565b9150613e8382613e1c565b604082019050919050565b60006020820190508181036000830152613ea781613e6b565b9050919050565b7f4e487b7100000000000000000000000000000000000000000000000000000000600052603260045260246000fd5b7f4e487b7100000000000000000000000000000000000000000000000000000000600052601160045260246000fd5b6000613f178261343a565b91507fffffffffffffffffffffffffffffffffffffffffffffffffffffffffffffffff8203613f4957613f48613edd565b5b600182019050919050565b7f4552433732313a2063616c6c6572206973206e6f7420746f6b656e206f776e6560008201527f72206f7220617070726f76656400000000000000000000000000000000000000602082015250565b6000613fb0602d83613393565b9150613fbb82613f54565b604082019050919050565b60006020820190508181036000830152613fdf81613fa3565b9050919050565b7f4e487b7100000000000000000000000000000000000000000000000000000000600052602160045260246000fd5b7f5072696365206d7573742062652067726561746572207468616e207a65726f00600082015250565b600061404b601f83613393565b915061405682614015565b602082019050919050565b6000602082019050818103600083015261407a8161403e565b9050919050565b7f5552492063616e6e6f7420626520656d70747900000000000000000000000000600082015250565b60006140b7601383613393565b91506140c282614081565b602082019050919050565b600060208201905081810360008301526140e6816140aa565b9050919050565b600082905092915050565b60008190508160005260206000209050919050565b60006020601f8301049050919050565b600082821b905092915050565b60006008830261415a7fffffffffffffffffffffffffffffffffffffffffffffffffffffffffffffffff8261411d565b614164868361411d565b95508019841693508086168417925050509392505050565b6000819050919050565b60006141a161419c6141978461343a565b61417c565b61343a565b9050919050565b6000819050919050565b6141bb83614186565b6141cf6141c7826141a8565b84845461412a565b825550505050565b600090565b6141e46141d7565b6141ef8184846141b2565b505050565b5b81811015614213576142086000826141dc565b6001810190506141f5565b5050565b601f82111561425857614229816140f8565b6142328461410d565b81016020851015614241578190505b61425561424d8561410d565b8301826141f4565b50505b505050565b600082821c905092915050565b600061427b6000198460080261425d565b1980831691505092915050565b6000614294838361426a565b9150826002028217905092915050565b6142ae83836140ed565b67ffffffffffffffff8111156142c7576142c66139d0565b5b6142d18254613d59565b6142dc828285614217565b6000601f83116001811461430b57600084156142f9578287013590505b6143038582614288565b86555061436b565b601f198416614319866140f8565b60005b828110156143415784890135825560018201915060208501945060208101905061431c565b8683101561435e578489013561435a601f89168261426a565b8355505b6001600288020188555050505b50505050505050565b7f4e6f2066756e6473206c65667420746f20776974686472617700000000000000600082015250565b60006143aa601983613393565b91506143b582614374565b602082019050919050565b600060208201905081810360008301526143d98161439d565b9050919050565b600081905092915050565b50565b60006143fb6000836143e0565b9150614406826143eb565b600082019050919050565b600061441c826143ee565b9150819050919050565b7f5472616e73666572206661696c65642e00000000000000000000000000000000600082015250565b600061445c601083613393565b915061446782614426565b602082019050919050565b6000602082019050818103600083015261448b8161444f565b9050919050565b7f4552433732313a20696e76616c696420746f6b656e2049440000000000000000600082015250565b60006144c8601883613393565b91506144d382614492565b602082019050919050565b600060208201905081810360008301526144f7816144bb565b9050919050565b7f4552433732313a2061646472657373207a65726f206973206e6f74206120766160008201527f6c6964206f776e65720000000000000000000000000000000000000000000000602082015250565b600061455a602983613393565b9150614565826144fe565b604082019050919050565b600060208201905081810360008301526145898161454d565b9050919050565b7f496e636f72726563742054696572000000000000000000000000000000000000600082015250565b60006145c6600e83613393565b91506145d182614590565b602082019050919050565b600060208201905081810360008301526145f5816145b9565b9050919050565b7f4d696e74696e67206e6f7420616c6c6f77656400000000000000000000000000600082015250565b6000614632601383613393565b915061463d826145fc565b602082019050919050565b6000602082019050818103600083015261466181614625565b9050919050565b7f4164647265737320616c7265616479206d696e74656420746869732074696572600082015250565b600061469e602083613393565b91506146a982614668565b602082019050919050565b600060208201905081810360008301526146cd81614691565b9050919050565b600481106146e5576146e4613fe6565b5b50565b60008190506146f6826146d4565b919050565b6000614706826146e8565b9050919050565b614716816146fb565b82525050565b6000606082019050614731600083018661380e565b61473e60208301856134cf565b61474b604083018461470d565b949350505050565b7f556e617574686f72697a6564205369676e657200000000000000000000000000600082015250565b6000614789601383613393565b915061479482614753565b602082019050919050565b600060208201905081810360008301526147b88161477c565b9050919050565b7f546f6b656e20646f6573206e6f74206578697374000000000000000000000000600082015250565b60006147f5601483613393565b9150614800826147bf565b602082019050919050565b60006020820190508181036000830152614824816147e8565b9050919050565b7f546869732066756e6374696f6e206973206f6e6c7920666f722046495253545f60008201527f434c415353207469657200000000000000000000000000000000000000000000602082015250565b6000614887602a83613393565b91506148928261482b565b604082019050919050565b600060208201905081810360008301526148b68161487a565b9050919050565b7f45746865722073656e74206973206e6f7420636f727265637400000000000000600082015250565b60006148f3601983613393565b91506148fe826148bd565b602082019050919050565b60006020820190508181036000830152614922816148e6565b9050919050565b7f4164647265737320616c7265616479206d696e74656420466972737400000000600082015250565b600061495f601c83613393565b915061496a82614929565b602082019050919050565b6000602082019050818103600083015261498e81614952565b9050919050565b7f4d6178696d756d20737570706c79207265616368656400000000000000000000600082015250565b60006149cb601683613393565b91506149d682614995565b602082019050919050565b600060208201905081810360008301526149fa816149be565b9050919050565b7f5369676e657220616464726573732063616e6e6f74206265207a65726f000000600082015250565b6000614a37601d83613393565b9150614a4282614a01565b602082019050919050565b60006020820190508181036000830152614a6681614a2a565b9050919050565b7f4f776e61626c653a206e6577206f776e657220697320746865207a65726f206160008201527f6464726573730000000000000000000000000000000000000000000000000000602082015250565b6000614ac9602683613393565b9150614ad482614a6d565b604082019050919050565b60006020820190508181036000830152614af881614abc565b9050919050565b7f4d617820737570706c79206d7573742062652067726561746572207468616e2060008201527f7a65726f00000000000000000000000000000000000000000000000000000000602082015250565b6000614b5b602483613393565b9150614b6682614aff565b604082019050919050565b60006020820190508181036000830152614b8a81614b4e565b9050919050565b7f5265656e7472616e637947756172643a207265656e7472616e742063616c6c00600082015250565b6000614bc7601f83613393565b9150614bd282614b91565b602082019050919050565b60006020820190508181036000830152614bf681614bba565b9050919050565b7f4f776e61626c653a2063616c6c6572206973206e6f7420746865206f776e6572600082015250565b6000614c33602083613393565b9150614c3e82614bfd565b602082019050919050565b60006020820190508181036000830152614c6281614c26565b9050919050565b7f546f6b656e20494420616c726561647920657869737473000000000000000000600082015250565b6000614c9f601783613393565b9150614caa82614c69565b602082019050919050565b60006020820190508181036000830152614cce81614c92565b9050919050565b7f43616e6e6f74206d696e7420746f20746865207a65726f206164647265737300600082015250565b6000614d0b601f83613393565b9150614d1682614cd5565b602082019050919050565b60006020820190508181036000830152614d3a81614cfe565b9050919050565b6000614d4c8261343a565b9150614d578361343a565b9250828201905080821115614d6f57614d6e613edd565b5b92915050565b7f4552433732313a207472616e736665722066726f6d20696e636f72726563742060008201527f6f776e6572000000000000000000000000000000000000000000000000000000602082015250565b6000614dd1602583613393565b9150614ddc82614d75565b604082019050919050565b60006020820190508181036000830152614e0081614dc4565b9050919050565b7f4552433732313a207472616e7366657220746f20746865207a65726f2061646460008201527f7265737300000000000000000000000000000000000000000000000000000000602082015250565b6000614e63602483613393565b9150614e6e82614e07565b604082019050919050565b60006020820190508181036000830152614e9281614e56565b9050919050565b7f4552433732313a20617070726f766520746f2063616c6c657200000000000000600082015250565b6000614ecf601983613393565b9150614eda82614e99565b602082019050919050565b60006020820190508181036000830152614efe81614ec2565b9050919050565b7f4552433732313a207472616e7366657220746f206e6f6e20455243373231526560008201527f63656976657220696d706c656d656e7465720000000000000000000000000000602082015250565b6000614f61603283613393565b9150614f6c82614f05565b604082019050919050565b60006020820190508181036000830152614f9081614f54565b9050919050565b600081519050919050565b600082825260208201905092915050565b6000614fbe82614f97565b614fc88185614fa2565b9350614fd88185602086016133a4565b614fe1816133ce565b840191505092915050565b600060808201905061500160008301876134cf565b61500e60208301866134cf565b61501b6040830185613617565b818103606083015261502d8184614fb3565b905095945050505050565b600081519050615047816132f9565b92915050565b600060208284031215615063576150626132c3565b5b600061507184828501615038565b91505092915050565b600060a08201905061508f600083018861380e565b61509c602083018761380e565b6150a9604083018661380e565b6150b66060830185613617565b6150c360808301846134cf565b9695505050505050565b6150d681613c0a565b82525050565b60006080820190506150f1600083018761380e565b6150fe60208301866150cd565b61510b604083018561380e565b615118606083018461380e565b95945050505050565b7f45434453413a20696e76616c6964207369676e61747572650000000000000000600082015250565b6000615157601883613393565b915061516282615121565b602082019050919050565b600060208201905081810360008301526151868161514a565b9050919050565b7f45434453413a20696e76616c6964207369676e6174757265206c656e67746800600082015250565b60006151c3601f83613393565b91506151ce8261518d565b602082019050919050565b600060208201905081810360008301526151f2816151b6565b9050919050565b7f45434453413a20696e76616c6964207369676e6174757265202773272076616c60008201527f7565000000000000000000000000000000000000000000000000000000000000602082015250565b6000615255602283613393565b9150615260826151f9565b604082019050919050565b6000602082019050818103600083015261528481615248565b9050919050565b7f4552433732313a206d696e7420746f20746865207a65726f2061646472657373600082015250565b60006152c1602083613393565b91506152cc8261528b565b602082019050919050565b600060208201905081810360008301526152f0816152b4565b9050919050565b7f4552433732313a20746f6b656e20616c7265616479206d696e74656400000000600082015250565b600061532d601c83613393565b9150615338826152f7565b602082019050919050565b6000602082019050818103600083015261535c81615320565b905091905056fea2646970667358221220ca46cdebe5111f27d08e74f357c2281acb4deb383451e6ac61a3f9681c38ebfe64736f6c63430008140033697066733a2f2f516d504e535a326a6751744c6e6b343645614376636d3557513331505a444d6543746774506662426274424d7378697066733a2f2f516d5773647a74576d7058663868697547583870387358646e364b364a367a577557574d63676161365461503248697066733a2f2f516d5a316847564b556a596e4e7a77626a4a775641616b4657684458356e317144574a36525a6765724478324c4a697066733a2f2f516d59515352785556326646774b63583939513868697876796332417354454a74355447775a5445524432645851",
  "linkReferences": {},
  "deployedLinkReferences": {}
}