{
  "_format": "hh-sol-artifact-1",
  "contractName": "LingoNFT",
  "sourceName": "contracts/LingoNFT.sol",
  "abi": [
    {
      "inputs": [],
      "stateMutability": "nonpayable",
      "type": "constructor"
    },
    {
      "anonymous": false,
      "inputs": [
        {
          "indexed": true,
          "internalType": "address",
          "name": "owner",
          "type": "address"
        },
        {
          "indexed": true,
          "internalType": "address",
          "name": "approved",
          "type": "address"
        },
        {
          "indexed": true,
          "internalType": "uint256",
          "name": "tokenId",
          "type": "uint256"
        }
      ],
      "name": "Approval",
      "type": "event"
    },
    {
      "anonymous": false,
      "inputs": [
        {
          "indexed": true,
          "internalType": "address",
          "name": "owner",
          "type": "address"
        },
        {
          "indexed": true,
          "internalType": "address",
          "name": "operator",
          "type": "address"
        },
        {
          "indexed": false,
          "internalType": "bool",
          "name": "approved",
          "type": "bool"
        }
      ],
      "name": "ApprovalForAll",
      "type": "event"
    },
    {
      "anonymous": false,
      "inputs": [
        {
          "indexed": true,
          "internalType": "address",
          "name": "previousOwner",
          "type": "address"
        },
        {
          "indexed": true,
          "internalType": "address",
          "name": "newOwner",
          "type": "address"
        }
      ],
      "name": "OwnershipTransferred",
      "type": "event"
    },
    {
      "anonymous": false,
      "inputs": [
        {
          "indexed": true,
          "internalType": "address",
          "name": "from",
          "type": "address"
        },
        {
          "indexed": true,
          "internalType": "address",
          "name": "to",
          "type": "address"
        },
        {
          "indexed": true,
          "internalType": "uint256",
          "name": "tokenId",
          "type": "uint256"
        }
      ],
      "name": "Transfer",
      "type": "event"
    },
    {
      "inputs": [
        {
          "internalType": "address[]",
          "name": "recipients",
          "type": "address[]"
        },
        {
          "internalType": "enum LingoNFT.Tier",
          "name": "tier",
          "type": "uint8"
        }
      ],
      "name": "airdropNFT",
      "outputs": [],
      "stateMutability": "nonpayable",
      "type": "function"
    },
    {
      "inputs": [
        {
          "internalType": "address",
          "name": "to",
          "type": "address"
        },
        {
          "internalType": "uint256",
          "name": "tokenId",
          "type": "uint256"
        }
      ],
      "name": "approve",
      "outputs": [],
      "stateMutability": "nonpayable",
      "type": "function"
    },
    {
      "inputs": [
        {
          "internalType": "address",
          "name": "owner",
          "type": "address"
        }
      ],
      "name": "balanceOf",
      "outputs": [
        {
          "internalType": "uint256",
          "name": "",
          "type": "uint256"
        }
      ],
      "stateMutability": "view",
      "type": "function"
    },
    {
      "inputs": [],
      "name": "businessSigner",
      "outputs": [
        {
          "internalType": "address",
          "name": "",
          "type": "address"
        }
      ],
      "stateMutability": "view",
      "type": "function"
    },
    {
      "inputs": [],
      "name": "economySigner",
      "outputs": [
        {
          "internalType": "address",
          "name": "",
          "type": "address"
        }
      ],
      "stateMutability": "view",
      "type": "function"
    },
    {
      "inputs": [],
      "name": "firstClassMintPrice",
      "outputs": [
        {
          "internalType": "uint256",
          "name": "",
          "type": "uint256"
        }
      ],
      "stateMutability": "view",
      "type": "function"
    },
    {
      "inputs": [],
      "name": "firstSigner",
      "outputs": [
        {
          "internalType": "address",
          "name": "",
          "type": "address"
        }
      ],
      "stateMutability": "view",
      "type": "function"
    },
    {
      "inputs": [
        {
          "internalType": "uint256",
          "name": "tokenId",
          "type": "uint256"
        }
      ],
      "name": "getApproved",
      "outputs": [
        {
          "internalType": "address",
          "name": "",
          "type": "address"
        }
      ],
      "stateMutability": "view",
      "type": "function"
    },
    {
      "inputs": [],
      "name": "getCurrentTimestamp",
      "outputs": [
        {
          "internalType": "uint256",
          "name": "",
          "type": "uint256"
        }
      ],
      "stateMutability": "view",
      "type": "function"
    },
    {
      "inputs": [],
      "name": "getFirstClassSupply",
      "outputs": [
        {
          "internalType": "uint256",
          "name": "",
          "type": "uint256"
        }
      ],
      "stateMutability": "view",
      "type": "function"
    },
    {
      "inputs": [],
      "name": "getSaleStartTime",
      "outputs": [
        {
          "internalType": "uint256",
          "name": "",
          "type": "uint256"
        }
      ],
      "stateMutability": "view",
      "type": "function"
    },
    {
      "inputs": [
        {
          "internalType": "enum LingoNFT.Tier",
          "name": "tier",
          "type": "uint8"
        }
      ],
      "name": "getTierURI",
      "outputs": [
        {
          "internalType": "string",
          "name": "",
          "type": "string"
        }
      ],
      "stateMutability": "view",
      "type": "function"
    },
    {
      "inputs": [],
      "name": "getTotalSupply",
      "outputs": [
        {
          "internalType": "uint256",
          "name": "",
          "type": "uint256"
        }
      ],
      "stateMutability": "view",
      "type": "function"
    },
    {
      "inputs": [
        {
          "internalType": "address",
          "name": "account",
          "type": "address"
        },
        {
          "internalType": "enum LingoNFT.Tier",
          "name": "tier",
          "type": "uint8"
        }
      ],
      "name": "hasMinted",
      "outputs": [
        {
          "internalType": "bool",
          "name": "",
          "type": "bool"
        }
      ],
      "stateMutability": "view",
      "type": "function"
    },
    {
      "inputs": [
        {
          "internalType": "address",
          "name": "owner",
          "type": "address"
        },
        {
          "internalType": "address",
          "name": "operator",
          "type": "address"
        }
      ],
      "name": "isApprovedForAll",
      "outputs": [
        {
          "internalType": "bool",
          "name": "",
          "type": "bool"
        }
      ],
      "stateMutability": "view",
      "type": "function"
    },
    {
      "inputs": [],
      "name": "maxFirstClassSupply",
      "outputs": [
        {
          "internalType": "uint256",
          "name": "",
          "type": "uint256"
        }
      ],
      "stateMutability": "view",
      "type": "function"
    },
    {
      "inputs": [
        {
          "internalType": "enum LingoNFT.Tier",
          "name": "tier",
          "type": "uint8"
        },
        {
          "internalType": "bytes32",
          "name": "r",
          "type": "bytes32"
        },
        {
          "internalType": "bytes32",
          "name": "s",
          "type": "bytes32"
        },
        {
          "internalType": "uint8",
          "name": "v",
          "type": "uint8"
        }
      ],
      "name": "mintEconomyBusinessClassNFT",
      "outputs": [],
      "stateMutability": "nonpayable",
      "type": "function"
    },
    {
      "inputs": [
        {
          "internalType": "enum LingoNFT.Tier",
          "name": "tier",
          "type": "uint8"
        },
        {
          "internalType": "bytes32",
          "name": "r",
          "type": "bytes32"
        },
        {
          "internalType": "bytes32",
          "name": "s",
          "type": "bytes32"
        },
        {
          "internalType": "uint8",
          "name": "v",
          "type": "uint8"
        }
      ],
      "name": "mintFirstClassNFT",
      "outputs": [],
      "stateMutability": "payable",
      "type": "function"
    },
    {
      "inputs": [
        {
          "internalType": "address[]",
          "name": "recipients",
          "type": "address[]"
        }
      ],
      "name": "mintPrivateJetNFT",
      "outputs": [],
      "stateMutability": "nonpayable",
      "type": "function"
    },
    {
      "inputs": [],
      "name": "name",
      "outputs": [
        {
          "internalType": "string",
          "name": "",
          "type": "string"
        }
      ],
      "stateMutability": "view",
      "type": "function"
    },
    {
      "inputs": [],
      "name": "owner",
      "outputs": [
        {
          "internalType": "address",
          "name": "",
          "type": "address"
        }
      ],
      "stateMutability": "view",
      "type": "function"
    },
    {
      "inputs": [
        {
          "internalType": "uint256",
          "name": "tokenId",
          "type": "uint256"
        }
      ],
      "name": "ownerOf",
      "outputs": [
        {
          "internalType": "address",
          "name": "",
          "type": "address"
        }
      ],
      "stateMutability": "view",
      "type": "function"
    },
    {
      "inputs": [],
      "name": "renounceOwnership",
      "outputs": [],
      "stateMutability": "nonpayable",
      "type": "function"
    },
    {
      "inputs": [
        {
          "internalType": "address",
          "name": "from",
          "type": "address"
        },
        {
          "internalType": "address",
          "name": "to",
          "type": "address"
        },
        {
          "internalType": "uint256",
          "name": "tokenId",
          "type": "uint256"
        }
      ],
      "name": "safeTransferFrom",
      "outputs": [],
      "stateMutability": "nonpayable",
      "type": "function"
    },
    {
      "inputs": [
        {
          "internalType": "address",
          "name": "from",
          "type": "address"
        },
        {
          "internalType": "address",
          "name": "to",
          "type": "address"
        },
        {
          "internalType": "uint256",
          "name": "tokenId",
          "type": "uint256"
        },
        {
          "internalType": "bytes",
          "name": "data",
          "type": "bytes"
        }
      ],
      "name": "safeTransferFrom",
      "outputs": [],
      "stateMutability": "nonpayable",
      "type": "function"
    },
    {
      "inputs": [],
      "name": "saleStartTime",
      "outputs": [
        {
          "internalType": "uint256",
          "name": "",
          "type": "uint256"
        }
      ],
      "stateMutability": "view",
      "type": "function"
    },
    {
      "inputs": [
        {
          "internalType": "address",
          "name": "operator",
          "type": "address"
        },
        {
          "internalType": "bool",
          "name": "approved",
          "type": "bool"
        }
      ],
      "name": "setApprovalForAll",
      "outputs": [],
      "stateMutability": "nonpayable",
      "type": "function"
    },
    {
      "inputs": [
        {
          "internalType": "address",
          "name": "_businessSigner",
          "type": "address"
        }
      ],
      "name": "setBusinessSigner",
      "outputs": [],
      "stateMutability": "nonpayable",
      "type": "function"
    },
    {
      "inputs": [
        {
          "internalType": "address",
          "name": "_economySigner",
          "type": "address"
        }
      ],
      "name": "setEconomySigner",
      "outputs": [],
      "stateMutability": "nonpayable",
      "type": "function"
    },
    {
      "inputs": [
        {
          "internalType": "uint256",
          "name": "_price",
          "type": "uint256"
        }
      ],
      "name": "setFirstClassMintPrice",
      "outputs": [],
      "stateMutability": "nonpayable",
      "type": "function"
    },
    {
      "inputs": [
        {
          "internalType": "address",
          "name": "_firstSigner",
          "type": "address"
        }
      ],
      "name": "setFirstSigner",
      "outputs": [],
      "stateMutability": "nonpayable",
      "type": "function"
    },
    {
      "inputs": [
        {
          "internalType": "uint256",
          "name": "_maxSupply",
          "type": "uint256"
        }
      ],
      "name": "setMaxFirstClassSupply",
      "outputs": [],
      "stateMutability": "nonpayable",
      "type": "function"
    },
    {
      "inputs": [
        {
          "internalType": "uint256",
          "name": "_startDate",
          "type": "uint256"
        }
      ],
      "name": "setSaleStartTime",
      "outputs": [],
      "stateMutability": "nonpayable",
      "type": "function"
    },
    {
      "inputs": [
        {
          "internalType": "enum LingoNFT.Tier",
          "name": "tier",
          "type": "uint8"
        },
        {
          "internalType": "string",
          "name": "uri",
          "type": "string"
        }
      ],
      "name": "setTierURI",
      "outputs": [],
      "stateMutability": "nonpayable",
      "type": "function"
    },
    {
      "inputs": [
        {
          "internalType": "bytes4",
          "name": "interfaceId",
          "type": "bytes4"
        }
      ],
      "name": "supportsInterface",
      "outputs": [
        {
          "internalType": "bool",
          "name": "",
          "type": "bool"
        }
      ],
      "stateMutability": "view",
      "type": "function"
    },
    {
      "inputs": [],
      "name": "symbol",
      "outputs": [
        {
          "internalType": "string",
          "name": "",
          "type": "string"
        }
      ],
      "stateMutability": "view",
      "type": "function"
    },
    {
      "inputs": [
        {
          "internalType": "uint256",
          "name": "tokenId",
          "type": "uint256"
        }
      ],
      "name": "tokenURI",
      "outputs": [
        {
          "internalType": "string",
          "name": "",
          "type": "string"
        }
      ],
      "stateMutability": "view",
      "type": "function"
    },
    {
      "inputs": [
        {
          "internalType": "address",
          "name": "from",
          "type": "address"
        },
        {
          "internalType": "address",
          "name": "to",
          "type": "address"
        },
        {
          "internalType": "uint256",
          "name": "tokenId",
          "type": "uint256"
        }
      ],
      "name": "transferFrom",
      "outputs": [],
      "stateMutability": "nonpayable",
      "type": "function"
    },
    {
      "inputs": [
        {
          "internalType": "address",
          "name": "newOwner",
          "type": "address"
        }
      ],
      "name": "transferOwnership",
      "outputs": [],
      "stateMutability": "nonpayable",
      "type": "function"
    },
    {
      "inputs": [],
      "name": "withdraw",
      "outputs": [],
      "stateMutability": "nonpayable",
      "type": "function"
    },
    {
      "stateMutability": "payable",
      "type": "receive"
    }
  ],
  "bytecode": "0x608060405260006008553480156200001657600080fd5b506040518060400160405280600981526020017f4c696e676f204e465400000000000000000000000000000000000000000000008152506040518060400160405280600481526020017f4c494e4700000000000000000000000000000000000000000000000000000000815250816000908162000094919062000629565b508060019081620000a6919062000629565b505050620000c9620000bd620002e160201b60201c565b620002e960201b60201c565b60016007819055506040518060400160405280601681526020017f697066733a2f2f65636f6e6f6d79436c617373555249000000000000000000008152506011600080600381111562000121576200012062000710565b5b600381111562000136576200013562000710565b5b8152602001908152602001600020908162000152919062000629565b506040518060400160405280601781526020017f697066733a2f2f627573696e657373436c6173735552490000000000000000008152506011600060016003811115620001a457620001a362000710565b5b6003811115620001b957620001b862000710565b5b81526020019081526020016000209081620001d5919062000629565b506040518060400160405280601481526020017f697066733a2f2f6669727374436c617373555249000000000000000000000000815250601160006002600381111562000227576200022662000710565b5b60038111156200023c576200023b62000710565b5b8152602001908152602001600020908162000258919062000629565b506040518060400160405280601481526020017f697066733a2f2f707269766174654a657455524900000000000000000000000081525060116000600380811115620002a957620002a862000710565b5b6003811115620002be57620002bd62000710565b5b81526020019081526020016000209081620002da919062000629565b506200073f565b600033905090565b6000600660009054906101000a900473ffffffffffffffffffffffffffffffffffffffff16905081600660006101000a81548173ffffffffffffffffffffffffffffffffffffffff021916908373ffffffffffffffffffffffffffffffffffffffff1602179055508173ffffffffffffffffffffffffffffffffffffffff168173ffffffffffffffffffffffffffffffffffffffff167f8be0079c531659141344cd1fd0a4f28419497f9722a3daafe3b4186f6b6457e060405160405180910390a35050565b600081519050919050565b7f4e487b7100000000000000000000000000000000000000000000000000000000600052604160045260246000fd5b7f4e487b7100000000000000000000000000000000000000000000000000000000600052602260045260246000fd5b600060028204905060018216806200043157607f821691505b602082108103620004475762000446620003e9565b5b50919050565b60008190508160005260206000209050919050565b60006020601f8301049050919050565b600082821b905092915050565b600060088302620004b17fffffffffffffffffffffffffffffffffffffffffffffffffffffffffffffffff8262000472565b620004bd868362000472565b95508019841693508086168417925050509392505050565b6000819050919050565b6000819050919050565b60006200050a62000504620004fe84620004d5565b620004df565b620004d5565b9050919050565b6000819050919050565b6200052683620004e9565b6200053e620005358262000511565b8484546200047f565b825550505050565b600090565b6200055562000546565b620005628184846200051b565b505050565b5b818110156200058a576200057e6000826200054b565b60018101905062000568565b5050565b601f821115620005d957620005a3816200044d565b620005ae8462000462565b81016020851015620005be578190505b620005d6620005cd8562000462565b83018262000567565b50505b505050565b600082821c905092915050565b6000620005fe60001984600802620005de565b1980831691505092915050565b6000620006198383620005eb565b9150826002028217905092915050565b6200063482620003af565b67ffffffffffffffff81111562000650576200064f620003ba565b5b6200065c825462000418565b620006698282856200058e565b600060209050601f831160018114620006a157600084156200068c578287015190505b6200069885826200060b565b86555062000708565b601f198416620006b1866200044d565b60005b82811015620006db57848901518255600182019150602085019450602081019050620006b4565b86831015620006fb5784890151620006f7601f891682620005eb565b8355505b6001600288020188555050505b505050505050565b7f4e487b7100000000000000000000000000000000000000000000000000000000600052602160045260246000fd5b614e56806200074f6000396000f3fe60806040526004361061023f5760003560e01c8063715018a61161012e578063c5f50a47116100ab578063f2fde38b1161006f578063f2fde38b14610857578063f3ad4c1f14610880578063f3e997e9146108ab578063fc2418fe146108d4578063ff97f660146108ff57610246565b8063c5f50a471461076f578063c87b56dd14610798578063d4eeb2bd146107d5578063da1642cb146107fe578063e985e9c51461081a57610246565b8063a22cb465116100f2578063a22cb4651461069e578063b88d4fde146106c7578063bb7c7cd0146106f0578063c2b1ddaf14610719578063c4e41b221461074457610246565b8063715018a6146105dd578063779d3693146105f457806385e1af811461061f5780638da5cb5b1461064857806395d89b411461067357610246565b806329caa756116101bc578063525f8a5c11610180578063525f8a5c146104e45780635b1f4bd71461050d5780636352211e146105385780636c9230db1461057557806370a08231146105a057610246565b806329caa75614610427578063333e972d146104505780633ccfd60b14610479578063413215ae1461049057806342842e0e146104bb57610246565b80630ddd124d116102035780630ddd124d146103425780631cbaee2d1461036b57806323b872dd14610396578063278cf873146103bf57806327af03aa146103ea57610246565b806301ffc9a71461024b57806306fdde0314610288578063081812fc146102b3578063082587ed146102f0578063095ea7b31461031957610246565b3661024657005b600080fd5b34801561025757600080fd5b50610272600480360381019061026d91906130f8565b61093c565b60405161027f9190613140565b60405180910390f35b34801561029457600080fd5b5061029d610a1e565b6040516102aa91906131eb565b60405180910390f35b3480156102bf57600080fd5b506102da60048036038101906102d59190613243565b610ab0565b6040516102e791906132b1565b60405180910390f35b3480156102fc57600080fd5b50610317600480360381019061031291906132f8565b610af6565b005b34801561032557600080fd5b50610340600480360381019061033b9190613325565b610b42565b005b34801561034e57600080fd5b50610369600480360381019061036491906133ca565b610c59565b005b34801561037757600080fd5b50610380610d9a565b60405161038d9190613426565b60405180910390f35b3480156103a257600080fd5b506103bd60048036038101906103b89190613441565b610da0565b005b3480156103cb57600080fd5b506103d4610e00565b6040516103e191906132b1565b60405180910390f35b3480156103f657600080fd5b50610411600480360381019061040c91906134b9565b610e26565b60405161041e91906131eb565b60405180910390f35b34801561043357600080fd5b5061044e60048036038101906104499190613243565b610eef565b005b34801561045c57600080fd5b506104776004803603810190610472919061353c565b610f01565b005b34801561048557600080fd5b5061048e610f55565b005b34801561049c57600080fd5b506104a561105c565b6040516104b291906132b1565b60405180910390f35b3480156104c757600080fd5b506104e260048036038101906104dd9190613441565b611082565b005b3480156104f057600080fd5b5061050b60048036038101906105069190613243565b6110a2565b005b34801561051957600080fd5b506105226110b4565b60405161052f9190613426565b60405180910390f35b34801561054457600080fd5b5061055f600480360381019061055a9190613243565b6110ba565b60405161056c91906132b1565b60405180910390f35b34801561058157600080fd5b5061058a611140565b6040516105979190613426565b60405180910390f35b3480156105ac57600080fd5b506105c760048036038101906105c291906132f8565b611148565b6040516105d49190613426565b60405180910390f35b3480156105e957600080fd5b506105f26111ff565b005b34801561060057600080fd5b50610609611213565b60405161061691906132b1565b60405180910390f35b34801561062b57600080fd5b50610646600480360381019061064191906132f8565b611239565b005b34801561065457600080fd5b5061065d611285565b60405161066a91906132b1565b60405180910390f35b34801561067f57600080fd5b506106886112af565b60405161069591906131eb565b60405180910390f35b3480156106aa57600080fd5b506106c560048036038101906106c091906135c8565b611341565b005b3480156106d357600080fd5b506106ee60048036038101906106e99190613738565b611357565b005b3480156106fc57600080fd5b50610717600480360381019061071291906137bb565b6113b9565b005b34801561072557600080fd5b5061072e61155d565b60405161073b9190613426565b60405180910390f35b34801561075057600080fd5b50610759611567565b6040516107669190613426565b60405180910390f35b34801561077b57600080fd5b506107966004803603810190610791919061388a565b611571565b005b3480156107a457600080fd5b506107bf60048036038101906107ba9190613243565b6119a0565b6040516107cc91906131eb565b60405180910390f35b3480156107e157600080fd5b506107fc60048036038101906107f791906132f8565b611a8d565b005b6108186004803603810190610813919061388a565b611ad9565b005b34801561082657600080fd5b50610841600480360381019061083c91906138f1565b611f1f565b60405161084e9190613140565b60405180910390f35b34801561086357600080fd5b5061087e600480360381019061087991906132f8565b611fb3565b005b34801561088c57600080fd5b50610895612036565b6040516108a29190613426565b60405180910390f35b3480156108b757600080fd5b506108d260048036038101906108cd9190613243565b61203c565b005b3480156108e057600080fd5b506108e961204e565b6040516108f69190613426565b60405180910390f35b34801561090b57600080fd5b5061092660048036038101906109219190613931565b612058565b6040516109339190613140565b60405180910390f35b60007f80ac58cd000000000000000000000000000000000000000000000000000000007bffffffffffffffffffffffffffffffffffffffffffffffffffffffff1916827bffffffffffffffffffffffffffffffffffffffffffffffffffffffff19161480610a0757507f5b5e139f000000000000000000000000000000000000000000000000000000007bffffffffffffffffffffffffffffffffffffffffffffffffffffffff1916827bffffffffffffffffffffffffffffffffffffffffffffffffffffffff1916145b80610a175750610a16826120e4565b5b9050919050565b606060008054610a2d906139a0565b80601f0160208091040260200160405190810160405280929190818152602001828054610a59906139a0565b8015610aa65780601f10610a7b57610100808354040283529160200191610aa6565b820191906000526020600020905b815481529060010190602001808311610a8957829003601f168201915b5050505050905090565b6000610abb8261214e565b6004600083815260200190815260200160002060009054906101000a900473ffffffffffffffffffffffffffffffffffffffff169050919050565b610afe612199565b80600b60006101000a81548173ffffffffffffffffffffffffffffffffffffffff021916908373ffffffffffffffffffffffffffffffffffffffff16021790555050565b6000610b4d826110ba565b90508073ffffffffffffffffffffffffffffffffffffffff168373ffffffffffffffffffffffffffffffffffffffff1603610bbd576040517f08c379a0000000000000000000000000000000000000000000000000000000008152600401610bb490613a43565b60405180910390fd5b8073ffffffffffffffffffffffffffffffffffffffff16610bdc612217565b73ffffffffffffffffffffffffffffffffffffffff161480610c0b5750610c0a81610c05612217565b611f1f565b5b610c4a576040517f08c379a0000000000000000000000000000000000000000000000000000000008152600401610c4190613ad5565b60405180910390fd5b610c54838361221f565b505050565b610c616122d8565b610c69612199565b600080600090505b83839050811015610d8c57610c84612327565b9150610d79848483818110610c9c57610c9b613af5565b5b9050602002016020810190610cb191906132f8565b8360116000600380811115610cc957610cc8613b24565b5b6003811115610cdb57610cda613b24565b5b81526020019081526020016000208054610cf4906139a0565b80601f0160208091040260200160405190810160405280929190818152602001828054610d20906139a0565b8015610d6d5780601f10610d4257610100808354040283529160200191610d6d565b820191906000526020600020905b815481529060010190602001808311610d5057829003601f168201915b50505050506003612336565b8080610d8490613b82565b915050610c71565b5050610d96612508565b5050565b60085481565b610db1610dab612217565b82612512565b610df0576040517f08c379a0000000000000000000000000000000000000000000000000000000008152600401610de790613c3c565b60405180910390fd5b610dfb8383836125a7565b505050565b600a60009054906101000a900473ffffffffffffffffffffffffffffffffffffffff1681565b606060116000836003811115610e3f57610e3e613b24565b5b6003811115610e5157610e50613b24565b5b81526020019081526020016000208054610e6a906139a0565b80601f0160208091040260200160405190810160405280929190818152602001828054610e96906139a0565b8015610ee35780601f10610eb857610100808354040283529160200191610ee3565b820191906000526020600020905b815481529060010190602001808311610ec657829003601f168201915b50505050509050919050565b610ef7612199565b80600c8190555050565b610f09612199565b818160116000866003811115610f2257610f21613b24565b5b6003811115610f3457610f33613b24565b5b81526020019081526020016000209182610f4f929190613e13565b50505050565b610f5d612199565b600047905060008111610fa5576040517f08c379a0000000000000000000000000000000000000000000000000000000008152600401610f9c90613f2f565b60405180910390fd5b6000610faf611285565b73ffffffffffffffffffffffffffffffffffffffff1682604051610fd290613f80565b60006040518083038185875af1925050503d806000811461100f576040519150601f19603f3d011682016040523d82523d6000602084013e611014565b606091505b5050905080611058576040517f08c379a000000000000000000000000000000000000000000000000000000000815260040161104f90613fe1565b60405180910390fd5b5050565b600960009054906101000a900473ffffffffffffffffffffffffffffffffffffffff1681565b61109d83838360405180602001604052806000815250611357565b505050565b6110aa612199565b8060088190555050565b600c5481565b6000806110c6836128a0565b9050600073ffffffffffffffffffffffffffffffffffffffff168173ffffffffffffffffffffffffffffffffffffffff1603611137576040517f08c379a000000000000000000000000000000000000000000000000000000000815260040161112e9061404d565b60405180910390fd5b80915050919050565b600042905090565b60008073ffffffffffffffffffffffffffffffffffffffff168273ffffffffffffffffffffffffffffffffffffffff16036111b8576040517f08c379a00000000000000000000000000000000000000000000000000000000081526004016111af906140df565b60405180910390fd5b600360008373ffffffffffffffffffffffffffffffffffffffff1673ffffffffffffffffffffffffffffffffffffffff168152602001908152602001600020549050919050565b611207612199565b61121160006128dd565b565b600b60009054906101000a900473ffffffffffffffffffffffffffffffffffffffff1681565b611241612199565b80600960006101000a81548173ffffffffffffffffffffffffffffffffffffffff021916908373ffffffffffffffffffffffffffffffffffffffff16021790555050565b6000600660009054906101000a900473ffffffffffffffffffffffffffffffffffffffff16905090565b6060600180546112be906139a0565b80601f01602080910402602001604051908101604052809291908181526020018280546112ea906139a0565b80156113375780601f1061130c57610100808354040283529160200191611337565b820191906000526020600020905b81548152906001019060200180831161131a57829003601f168201915b5050505050905090565b61135361134c612217565b83836129a3565b5050565b611368611362612217565b83612512565b6113a7576040517f08c379a000000000000000000000000000000000000000000000000000000000815260040161139e90613c3c565b60405180910390fd5b6113b384848484612b0f565b50505050565b6113c16122d8565b6113c9612199565b6003808111156113dc576113db613b24565b5b8160038111156113ef576113ee613b24565b5b0361142f576040517f08c379a00000000000000000000000000000000000000000000000000000000081526004016114269061414b565b60405180910390fd5b60005b8383905081101561154f576000611447612327565b905061153b85858481811061145f5761145e613af5565b5b905060200201602081019061147491906132f8565b826011600087600381111561148c5761148b613b24565b5b600381111561149e5761149d613b24565b5b815260200190815260200160002080546114b7906139a0565b80601f01602080910402602001604051908101604052809291908181526020018280546114e3906139a0565b80156115305780601f1061150557610100808354040283529160200191611530565b820191906000526020600020905b81548152906001019060200180831161151357829003601f168201915b505050505086612336565b50808061154790613b82565b915050611432565b50611558612508565b505050565b6000600854905090565b6000600f54905090565b6115796122d8565b60006008541415801561158e57506008544210155b6115cd576040517f08c379a00000000000000000000000000000000000000000000000000000000081526004016115c4906141dd565b60405180910390fd5b600060038111156115e1576115e0613b24565b5b8460038111156115f4576115f3613b24565b5b148061162457506001600381111561160f5761160e613b24565b5b84600381111561162257611621613b24565b5b145b611663576040517f08c379a000000000000000000000000000000000000000000000000000000000815260040161165a9061414b565b60405180910390fd5b601260003373ffffffffffffffffffffffffffffffffffffffff1673ffffffffffffffffffffffffffffffffffffffff16815260200190815260200160002060008560038111156116b7576116b6613b24565b5b60038111156116c9576116c8613b24565b5b815260200190815260200160002060009054906101000a900460ff1615611725576040517f08c379a000000000000000000000000000000000000000000000000000000000815260040161171c90614249565b60405180910390fd5b600073ffffffffffffffffffffffffffffffffffffffff1661174685612b6b565b73ffffffffffffffffffffffffffffffffffffffff160361179c576040517f08c379a0000000000000000000000000000000000000000000000000000000008152600401611793906142b5565b60405180910390fd5b600033856040516020016117b192919061438c565b6040516020818303038152906040528051906020012090506000816040516020016117dc9190614430565b6040516020818303038152906040528051906020012090506117fd86612b6b565b73ffffffffffffffffffffffffffffffffffffffff16600182858888604051600081526020016040526040516118369493929190614474565b6020604051602081039080840390855afa158015611858573d6000803e3d6000fd5b5050506020604051035173ffffffffffffffffffffffffffffffffffffffff16146118b8576040517f08c379a00000000000000000000000000000000000000000000000000000000081526004016118af90614505565b60405180910390fd5b60006118c2612327565b905061198f3382601160008b60038111156118e0576118df613b24565b5b60038111156118f2576118f1613b24565b5b8152602001908152602001600020805461190b906139a0565b80601f0160208091040260200160405190810160405280929190818152602001828054611937906139a0565b80156119845780601f1061195957610100808354040283529160200191611984565b820191906000526020600020905b81548152906001019060200180831161196757829003601f168201915b50505050508a612336565b50505061199a612508565b50505050565b60606119ab82612c78565b6119ea576040517f08c379a00000000000000000000000000000000000000000000000000000000081526004016119e190614571565b60405180910390fd5b601060008381526020019081526020016000208054611a08906139a0565b80601f0160208091040260200160405190810160405280929190818152602001828054611a34906139a0565b8015611a815780601f10611a5657610100808354040283529160200191611a81565b820191906000526020600020905b815481529060010190602001808311611a6457829003601f168201915b50505050509050919050565b611a95612199565b80600a60006101000a81548173ffffffffffffffffffffffffffffffffffffffff021916908373ffffffffffffffffffffffffffffffffffffffff16021790555050565b611ae16122d8565b600060085414158015611af657506008544210155b611b35576040517f08c379a0000000000000000000000000000000000000000000000000000000008152600401611b2c906141dd565b60405180910390fd5b60026003811115611b4957611b48613b24565b5b846003811115611b5c57611b5b613b24565b5b14611b9c576040517f08c379a0000000000000000000000000000000000000000000000000000000008152600401611b9390614603565b60405180910390fd5b600c54341015611be1576040517f08c379a0000000000000000000000000000000000000000000000000000000008152600401611bd89061466f565b60405180910390fd5b601260003373ffffffffffffffffffffffffffffffffffffffff1673ffffffffffffffffffffffffffffffffffffffff168152602001908152602001600020600060026003811115611c3657611c35613b24565b5b6003811115611c4857611c47613b24565b5b815260200190815260200160002060009054906101000a900460ff1615611ca4576040517f08c379a0000000000000000000000000000000000000000000000000000000008152600401611c9b906146db565b60405180910390fd5b600073ffffffffffffffffffffffffffffffffffffffff16611cc585612b6b565b73ffffffffffffffffffffffffffffffffffffffff1603611d1b576040517f08c379a0000000000000000000000000000000000000000000000000000000008152600401611d12906142b5565b60405180910390fd5b60003385604051602001611d3092919061438c565b604051602081830303815290604052805190602001209050600081604051602001611d5b9190614430565b604051602081830303815290604052805190602001209050611d7c86612b6b565b73ffffffffffffffffffffffffffffffffffffffff1660018285888860405160008152602001604052604051611db59493929190614474565b6020604051602081039080840390855afa158015611dd7573d6000803e3d6000fd5b5050506020604051035173ffffffffffffffffffffffffffffffffffffffff1614611e37576040517f08c379a0000000000000000000000000000000000000000000000000000000008152600401611e2e90614505565b60405180910390fd5b6000611e41612327565b9050611f0e3382601160008b6003811115611e5f57611e5e613b24565b5b6003811115611e7157611e70613b24565b5b81526020019081526020016000208054611e8a906139a0565b80601f0160208091040260200160405190810160405280929190818152602001828054611eb6906139a0565b8015611f035780601f10611ed857610100808354040283529160200191611f03565b820191906000526020600020905b815481529060010190602001808311611ee657829003601f168201915b50505050508a612336565b505050611f19612508565b50505050565b6000600560008473ffffffffffffffffffffffffffffffffffffffff1673ffffffffffffffffffffffffffffffffffffffff16815260200190815260200160002060008373ffffffffffffffffffffffffffffffffffffffff1673ffffffffffffffffffffffffffffffffffffffff16815260200190815260200160002060009054906101000a900460ff16905092915050565b611fbb612199565b600073ffffffffffffffffffffffffffffffffffffffff168173ffffffffffffffffffffffffffffffffffffffff160361202a576040517f08c379a00000000000000000000000000000000000000000000000000000000081526004016120219061476d565b60405180910390fd5b612033816128dd565b50565b600d5481565b612044612199565b80600d8190555050565b6000600e54905090565b6000601260008473ffffffffffffffffffffffffffffffffffffffff1673ffffffffffffffffffffffffffffffffffffffff16815260200190815260200160002060008360038111156120ae576120ad613b24565b5b60038111156120c0576120bf613b24565b5b815260200190815260200160002060009054906101000a900460ff16905092915050565b60007f01ffc9a7000000000000000000000000000000000000000000000000000000007bffffffffffffffffffffffffffffffffffffffffffffffffffffffff1916827bffffffffffffffffffffffffffffffffffffffffffffffffffffffff1916149050919050565b61215781612c78565b612196576040517f08c379a000000000000000000000000000000000000000000000000000000000815260040161218d9061404d565b60405180910390fd5b50565b6121a1612217565b73ffffffffffffffffffffffffffffffffffffffff166121bf611285565b73ffffffffffffffffffffffffffffffffffffffff1614612215576040517f08c379a000000000000000000000000000000000000000000000000000000000815260040161220c906147d9565b60405180910390fd5b565b600033905090565b816004600083815260200190815260200160002060006101000a81548173ffffffffffffffffffffffffffffffffffffffff021916908373ffffffffffffffffffffffffffffffffffffffff160217905550808273ffffffffffffffffffffffffffffffffffffffff16612292836110ba565b73ffffffffffffffffffffffffffffffffffffffff167f8c5be1e5ebec7d5bd14f71427d1e84f3dd0314c0f7b2291e5b200ac8c7c3b92560405160405180910390a45050565b60026007540361231d576040517f08c379a000000000000000000000000000000000000000000000000000000000815260040161231490614845565b60405180910390fd5b6002600781905550565b600080600f5490508091505090565b61233f83612c78565b1561237f576040517f08c379a0000000000000000000000000000000000000000000000000000000008152600401612376906148b1565b60405180910390fd5b600073ffffffffffffffffffffffffffffffffffffffff168473ffffffffffffffffffffffffffffffffffffffff16036123ee576040517f08c379a00000000000000000000000000000000000000000000000000000000081526004016123e59061491d565b60405180910390fd5b6001601260003373ffffffffffffffffffffffffffffffffffffffff1673ffffffffffffffffffffffffffffffffffffffff168152602001908152602001600020600083600381111561244457612443613b24565b5b600381111561245657612455613b24565b5b815260200190815260200160002060006101000a81548160ff0219169083151502179055506001600f5461248a919061493d565b600f81905550816010600085815260200190815260200160002090816124b09190614971565b506124bb8484612cb9565b600260038111156124cf576124ce613b24565b5b8160038111156124e2576124e1613b24565b5b03612502576001600e60008282546124fa919061493d565b925050819055505b50505050565b6001600781905550565b60008061251e836110ba565b90508073ffffffffffffffffffffffffffffffffffffffff168473ffffffffffffffffffffffffffffffffffffffff161480612560575061255f8185611f1f565b5b8061259e57508373ffffffffffffffffffffffffffffffffffffffff1661258684610ab0565b73ffffffffffffffffffffffffffffffffffffffff16145b91505092915050565b8273ffffffffffffffffffffffffffffffffffffffff166125c7826110ba565b73ffffffffffffffffffffffffffffffffffffffff161461261d576040517f08c379a000000000000000000000000000000000000000000000000000000000815260040161261490614ab5565b60405180910390fd5b600073ffffffffffffffffffffffffffffffffffffffff168273ffffffffffffffffffffffffffffffffffffffff160361268c576040517f08c379a000000000000000000000000000000000000000000000000000000000815260040161268390614b47565b60405180910390fd5b6126998383836001612ed6565b8273ffffffffffffffffffffffffffffffffffffffff166126b9826110ba565b73ffffffffffffffffffffffffffffffffffffffff161461270f576040517f08c379a000000000000000000000000000000000000000000000000000000000815260040161270690614ab5565b60405180910390fd5b6004600082815260200190815260200160002060006101000a81549073ffffffffffffffffffffffffffffffffffffffff02191690556001600360008573ffffffffffffffffffffffffffffffffffffffff1673ffffffffffffffffffffffffffffffffffffffff168152602001908152602001600020600082825403925050819055506001600360008473ffffffffffffffffffffffffffffffffffffffff1673ffffffffffffffffffffffffffffffffffffffff16815260200190815260200160002060008282540192505081905550816002600083815260200190815260200160002060006101000a81548173ffffffffffffffffffffffffffffffffffffffff021916908373ffffffffffffffffffffffffffffffffffffffff160217905550808273ffffffffffffffffffffffffffffffffffffffff168473ffffffffffffffffffffffffffffffffffffffff167fddf252ad1be2c89b69c2b068fc378daa952ba7f163c4a11628f55a4df523b3ef60405160405180910390a461289b8383836001612edc565b505050565b60006002600083815260200190815260200160002060009054906101000a900473ffffffffffffffffffffffffffffffffffffffff169050919050565b6000600660009054906101000a900473ffffffffffffffffffffffffffffffffffffffff16905081600660006101000a81548173ffffffffffffffffffffffffffffffffffffffff021916908373ffffffffffffffffffffffffffffffffffffffff1602179055508173ffffffffffffffffffffffffffffffffffffffff168173ffffffffffffffffffffffffffffffffffffffff167f8be0079c531659141344cd1fd0a4f28419497f9722a3daafe3b4186f6b6457e060405160405180910390a35050565b8173ffffffffffffffffffffffffffffffffffffffff168373ffffffffffffffffffffffffffffffffffffffff1603612a11576040517f08c379a0000000000000000000000000000000000000000000000000000000008152600401612a0890614bb3565b60405180910390fd5b80600560008573ffffffffffffffffffffffffffffffffffffffff1673ffffffffffffffffffffffffffffffffffffffff16815260200190815260200160002060008473ffffffffffffffffffffffffffffffffffffffff1673ffffffffffffffffffffffffffffffffffffffff16815260200190815260200160002060006101000a81548160ff0219169083151502179055508173ffffffffffffffffffffffffffffffffffffffff168373ffffffffffffffffffffffffffffffffffffffff167f17307eab39ab6107e8899845ad3d59bd9653f200f220920489ca2b5937696c3183604051612b029190613140565b60405180910390a3505050565b612b1a8484846125a7565b612b2684848484612ee2565b612b65576040517f08c379a0000000000000000000000000000000000000000000000000000000008152600401612b5c90614c45565b60405180910390fd5b50505050565b6000806003811115612b8057612b7f613b24565b5b826003811115612b9357612b92613b24565b5b03612bc257600960009054906101000a900473ffffffffffffffffffffffffffffffffffffffff169050612c73565b60016003811115612bd657612bd5613b24565b5b826003811115612be957612be8613b24565b5b03612c1857600a60009054906101000a900473ffffffffffffffffffffffffffffffffffffffff169050612c73565b60026003811115612c2c57612c2b613b24565b5b826003811115612c3f57612c3e613b24565b5b03612c6e57600b60009054906101000a900473ffffffffffffffffffffffffffffffffffffffff169050612c73565b600090505b919050565b60008073ffffffffffffffffffffffffffffffffffffffff16612c9a836128a0565b73ffffffffffffffffffffffffffffffffffffffff1614159050919050565b600073ffffffffffffffffffffffffffffffffffffffff168273ffffffffffffffffffffffffffffffffffffffff1603612d28576040517f08c379a0000000000000000000000000000000000000000000000000000000008152600401612d1f90614cb1565b60405180910390fd5b612d3181612c78565b15612d71576040517f08c379a0000000000000000000000000000000000000000000000000000000008152600401612d6890614d1d565b60405180910390fd5b612d7f600083836001612ed6565b612d8881612c78565b15612dc8576040517f08c379a0000000000000000000000000000000000000000000000000000000008152600401612dbf90614d1d565b60405180910390fd5b6001600360008473ffffffffffffffffffffffffffffffffffffffff1673ffffffffffffffffffffffffffffffffffffffff16815260200190815260200160002060008282540192505081905550816002600083815260200190815260200160002060006101000a81548173ffffffffffffffffffffffffffffffffffffffff021916908373ffffffffffffffffffffffffffffffffffffffff160217905550808273ffffffffffffffffffffffffffffffffffffffff16600073ffffffffffffffffffffffffffffffffffffffff167fddf252ad1be2c89b69c2b068fc378daa952ba7f163c4a11628f55a4df523b3ef60405160405180910390a4612ed2600083836001612edc565b5050565b50505050565b50505050565b6000612f038473ffffffffffffffffffffffffffffffffffffffff16613069565b1561305c578373ffffffffffffffffffffffffffffffffffffffff1663150b7a02612f2c612217565b8786866040518563ffffffff1660e01b8152600401612f4e9493929190614d92565b6020604051808303816000875af1925050508015612f8a57506040513d601f19601f82011682018060405250810190612f879190614df3565b60015b61300c573d8060008114612fba576040519150601f19603f3d011682016040523d82523d6000602084013e612fbf565b606091505b506000815103613004576040517f08c379a0000000000000000000000000000000000000000000000000000000008152600401612ffb90614c45565b60405180910390fd5b805181602001fd5b63150b7a0260e01b7bffffffffffffffffffffffffffffffffffffffffffffffffffffffff1916817bffffffffffffffffffffffffffffffffffffffffffffffffffffffff191614915050613061565b600190505b949350505050565b6000808273ffffffffffffffffffffffffffffffffffffffff163b119050919050565b6000604051905090565b600080fd5b600080fd5b60007fffffffff0000000000000000000000000000000000000000000000000000000082169050919050565b6130d5816130a0565b81146130e057600080fd5b50565b6000813590506130f2816130cc565b92915050565b60006020828403121561310e5761310d613096565b5b600061311c848285016130e3565b91505092915050565b60008115159050919050565b61313a81613125565b82525050565b60006020820190506131556000830184613131565b92915050565b600081519050919050565b600082825260208201905092915050565b60005b8381101561319557808201518184015260208101905061317a565b60008484015250505050565b6000601f19601f8301169050919050565b60006131bd8261315b565b6131c78185613166565b93506131d7818560208601613177565b6131e0816131a1565b840191505092915050565b6000602082019050818103600083015261320581846131b2565b905092915050565b6000819050919050565b6132208161320d565b811461322b57600080fd5b50565b60008135905061323d81613217565b92915050565b60006020828403121561325957613258613096565b5b60006132678482850161322e565b91505092915050565b600073ffffffffffffffffffffffffffffffffffffffff82169050919050565b600061329b82613270565b9050919050565b6132ab81613290565b82525050565b60006020820190506132c660008301846132a2565b92915050565b6132d581613290565b81146132e057600080fd5b50565b6000813590506132f2816132cc565b92915050565b60006020828403121561330e5761330d613096565b5b600061331c848285016132e3565b91505092915050565b6000806040838503121561333c5761333b613096565b5b600061334a858286016132e3565b925050602061335b8582860161322e565b9150509250929050565b600080fd5b600080fd5b600080fd5b60008083601f84011261338a57613389613365565b5b8235905067ffffffffffffffff8111156133a7576133a661336a565b5b6020830191508360208202830111156133c3576133c261336f565b5b9250929050565b600080602083850312156133e1576133e0613096565b5b600083013567ffffffffffffffff8111156133ff576133fe61309b565b5b61340b85828601613374565b92509250509250929050565b6134208161320d565b82525050565b600060208201905061343b6000830184613417565b92915050565b60008060006060848603121561345a57613459613096565b5b6000613468868287016132e3565b9350506020613479868287016132e3565b925050604061348a8682870161322e565b9150509250925092565b600481106134a157600080fd5b50565b6000813590506134b381613494565b92915050565b6000602082840312156134cf576134ce613096565b5b60006134dd848285016134a4565b91505092915050565b60008083601f8401126134fc576134fb613365565b5b8235905067ffffffffffffffff8111156135195761351861336a565b5b6020830191508360018202830111156135355761353461336f565b5b9250929050565b60008060006040848603121561355557613554613096565b5b6000613563868287016134a4565b935050602084013567ffffffffffffffff8111156135845761358361309b565b5b613590868287016134e6565b92509250509250925092565b6135a581613125565b81146135b057600080fd5b50565b6000813590506135c28161359c565b92915050565b600080604083850312156135df576135de613096565b5b60006135ed858286016132e3565b92505060206135fe858286016135b3565b9150509250929050565b600080fd5b7f4e487b7100000000000000000000000000000000000000000000000000000000600052604160045260246000fd5b613645826131a1565b810181811067ffffffffffffffff821117156136645761366361360d565b5b80604052505050565b600061367761308c565b9050613683828261363c565b919050565b600067ffffffffffffffff8211156136a3576136a261360d565b5b6136ac826131a1565b9050602081019050919050565b82818337600083830152505050565b60006136db6136d684613688565b61366d565b9050828152602081018484840111156136f7576136f6613608565b5b6137028482856136b9565b509392505050565b600082601f83011261371f5761371e613365565b5b813561372f8482602086016136c8565b91505092915050565b6000806000806080858703121561375257613751613096565b5b6000613760878288016132e3565b9450506020613771878288016132e3565b93505060406137828782880161322e565b925050606085013567ffffffffffffffff8111156137a3576137a261309b565b5b6137af8782880161370a565b91505092959194509250565b6000806000604084860312156137d4576137d3613096565b5b600084013567ffffffffffffffff8111156137f2576137f161309b565b5b6137fe86828701613374565b93509350506020613811868287016134a4565b9150509250925092565b6000819050919050565b61382e8161381b565b811461383957600080fd5b50565b60008135905061384b81613825565b92915050565b600060ff82169050919050565b61386781613851565b811461387257600080fd5b50565b6000813590506138848161385e565b92915050565b600080600080608085870312156138a4576138a3613096565b5b60006138b2878288016134a4565b94505060206138c38782880161383c565b93505060406138d48782880161383c565b92505060606138e587828801613875565b91505092959194509250565b6000806040838503121561390857613907613096565b5b6000613916858286016132e3565b9250506020613927858286016132e3565b9150509250929050565b6000806040838503121561394857613947613096565b5b6000613956858286016132e3565b9250506020613967858286016134a4565b9150509250929050565b7f4e487b7100000000000000000000000000000000000000000000000000000000600052602260045260246000fd5b600060028204905060018216806139b857607f821691505b6020821081036139cb576139ca613971565b5b50919050565b7f4552433732313a20617070726f76616c20746f2063757272656e74206f776e6560008201527f7200000000000000000000000000000000000000000000000000000000000000602082015250565b6000613a2d602183613166565b9150613a38826139d1565b604082019050919050565b60006020820190508181036000830152613a5c81613a20565b9050919050565b7f4552433732313a20617070726f76652063616c6c6572206973206e6f7420746f60008201527f6b656e206f776e6572206f7220617070726f76656420666f7220616c6c000000602082015250565b6000613abf603d83613166565b9150613aca82613a63565b604082019050919050565b60006020820190508181036000830152613aee81613ab2565b9050919050565b7f4e487b7100000000000000000000000000000000000000000000000000000000600052603260045260246000fd5b7f4e487b7100000000000000000000000000000000000000000000000000000000600052602160045260246000fd5b7f4e487b7100000000000000000000000000000000000000000000000000000000600052601160045260246000fd5b6000613b8d8261320d565b91507fffffffffffffffffffffffffffffffffffffffffffffffffffffffffffffffff8203613bbf57613bbe613b53565b5b600182019050919050565b7f4552433732313a2063616c6c6572206973206e6f7420746f6b656e206f776e6560008201527f72206f7220617070726f76656400000000000000000000000000000000000000602082015250565b6000613c26602d83613166565b9150613c3182613bca565b604082019050919050565b60006020820190508181036000830152613c5581613c19565b9050919050565b600082905092915050565b60008190508160005260206000209050919050565b60006020601f8301049050919050565b600082821b905092915050565b600060088302613cc97fffffffffffffffffffffffffffffffffffffffffffffffffffffffffffffffff82613c8c565b613cd38683613c8c565b95508019841693508086168417925050509392505050565b6000819050919050565b6000613d10613d0b613d068461320d565b613ceb565b61320d565b9050919050565b6000819050919050565b613d2a83613cf5565b613d3e613d3682613d17565b848454613c99565b825550505050565b600090565b613d53613d46565b613d5e818484613d21565b505050565b5b81811015613d8257613d77600082613d4b565b600181019050613d64565b5050565b601f821115613dc757613d9881613c67565b613da184613c7c565b81016020851015613db0578190505b613dc4613dbc85613c7c565b830182613d63565b50505b505050565b600082821c905092915050565b6000613dea60001984600802613dcc565b1980831691505092915050565b6000613e038383613dd9565b9150826002028217905092915050565b613e1d8383613c5c565b67ffffffffffffffff811115613e3657613e3561360d565b5b613e4082546139a0565b613e4b828285613d86565b6000601f831160018114613e7a5760008415613e68578287013590505b613e728582613df7565b865550613eda565b601f198416613e8886613c67565b60005b82811015613eb057848901358255600182019150602085019450602081019050613e8b565b86831015613ecd5784890135613ec9601f891682613dd9565b8355505b6001600288020188555050505b50505050505050565b7f4e6f2066756e6473206c65667420746f20776974686472617700000000000000600082015250565b6000613f19601983613166565b9150613f2482613ee3565b602082019050919050565b60006020820190508181036000830152613f4881613f0c565b9050919050565b600081905092915050565b50565b6000613f6a600083613f4f565b9150613f7582613f5a565b600082019050919050565b6000613f8b82613f5d565b9150819050919050565b7f5472616e73666572206661696c65642e00000000000000000000000000000000600082015250565b6000613fcb601083613166565b9150613fd682613f95565b602082019050919050565b60006020820190508181036000830152613ffa81613fbe565b9050919050565b7f4552433732313a20696e76616c696420746f6b656e2049440000000000000000600082015250565b6000614037601883613166565b915061404282614001565b602082019050919050565b600060208201905081810360008301526140668161402a565b9050919050565b7f4552433732313a2061646472657373207a65726f206973206e6f74206120766160008201527f6c6964206f776e65720000000000000000000000000000000000000000000000602082015250565b60006140c9602983613166565b91506140d48261406d565b604082019050919050565b600060208201905081810360008301526140f8816140bc565b9050919050565b7f496e636f72726563742054696572000000000000000000000000000000000000600082015250565b6000614135600e83613166565b9150614140826140ff565b602082019050919050565b6000602082019050818103600083015261416481614128565b9050919050565b7f4d696e74696e67206e6f7420616c6c6f776564206f757473696465207468652060008201527f63616d706169676e2077696e646f770000000000000000000000000000000000602082015250565b60006141c7602f83613166565b91506141d28261416b565b604082019050919050565b600060208201905081810360008301526141f6816141ba565b9050919050565b7f4164647265737320616c7265616479206d696e74656420746869732074696572600082015250565b6000614233602083613166565b915061423e826141fd565b602082019050919050565b6000602082019050818103600083015261426281614226565b9050919050565b7f496e76616c6964205369676e6572000000000000000000000000000000000000600082015250565b600061429f600e83613166565b91506142aa82614269565b602082019050919050565b600060208201905081810360008301526142ce81614292565b9050919050565b60008160601b9050919050565b60006142ed826142d5565b9050919050565b60006142ff826142e2565b9050919050565b61431761431282613290565b6142f4565b82525050565b6004811061432e5761432d613b24565b5b50565b600081905061433f8261431d565b919050565b600061434f82614331565b9050919050565b60008160f81b9050919050565b600061436e82614356565b9050919050565b61438661438182614344565b614363565b82525050565b60006143988285614306565b6014820191506143a88284614375565b6001820191508190509392505050565b600081905092915050565b7f19457468657265756d205369676e6564204d6573736167653a0a333200000000600082015250565b60006143f9601c836143b8565b9150614404826143c3565b601c82019050919050565b6000819050919050565b61442a6144258261381b565b61440f565b82525050565b600061443b826143ec565b91506144478284614419565b60208201915081905092915050565b61445f8161381b565b82525050565b61446e81613851565b82525050565b60006080820190506144896000830187614456565b6144966020830186614465565b6144a36040830185614456565b6144b06060830184614456565b95945050505050565b7f556e617574686f72697a6564205369676e657200000000000000000000000000600082015250565b60006144ef601383613166565b91506144fa826144b9565b602082019050919050565b6000602082019050818103600083015261451e816144e2565b9050919050565b7f546f6b656e20646f6573206e6f74206578697374000000000000000000000000600082015250565b600061455b601483613166565b915061456682614525565b602082019050919050565b6000602082019050818103600083015261458a8161454e565b9050919050565b7f546869732066756e6374696f6e206973206f6e6c7920666f722046495253545f60008201527f434c415353207469657200000000000000000000000000000000000000000000602082015250565b60006145ed602a83613166565b91506145f882614591565b604082019050919050565b6000602082019050818103600083015261461c816145e0565b9050919050565b7f45746865722073656e74206973206e6f7420636f727265637400000000000000600082015250565b6000614659601983613166565b915061466482614623565b602082019050919050565b600060208201905081810360008301526146888161464c565b9050919050565b7f4164647265737320616c7265616479206d696e74656420466972737400000000600082015250565b60006146c5601c83613166565b91506146d08261468f565b602082019050919050565b600060208201905081810360008301526146f4816146b8565b9050919050565b7f4f776e61626c653a206e6577206f776e657220697320746865207a65726f206160008201527f6464726573730000000000000000000000000000000000000000000000000000602082015250565b6000614757602683613166565b9150614762826146fb565b604082019050919050565b600060208201905081810360008301526147868161474a565b9050919050565b7f4f776e61626c653a2063616c6c6572206973206e6f7420746865206f776e6572600082015250565b60006147c3602083613166565b91506147ce8261478d565b602082019050919050565b600060208201905081810360008301526147f2816147b6565b9050919050565b7f5265656e7472616e637947756172643a207265656e7472616e742063616c6c00600082015250565b600061482f601f83613166565b915061483a826147f9565b602082019050919050565b6000602082019050818103600083015261485e81614822565b9050919050565b7f546f6b656e20494420616c726561647920657869737473000000000000000000600082015250565b600061489b601783613166565b91506148a682614865565b602082019050919050565b600060208201905081810360008301526148ca8161488e565b9050919050565b7f43616e6e6f74206d696e7420746f20746865207a65726f206164647265737300600082015250565b6000614907601f83613166565b9150614912826148d1565b602082019050919050565b60006020820190508181036000830152614936816148fa565b9050919050565b60006149488261320d565b91506149538361320d565b925082820190508082111561496b5761496a613b53565b5b92915050565b61497a8261315b565b67ffffffffffffffff8111156149935761499261360d565b5b61499d82546139a0565b6149a8828285613d86565b600060209050601f8311600181146149db57600084156149c9578287015190505b6149d38582613df7565b865550614a3b565b601f1984166149e986613c67565b60005b82811015614a11578489015182556001820191506020850194506020810190506149ec565b86831015614a2e5784890151614a2a601f891682613dd9565b8355505b6001600288020188555050505b505050505050565b7f4552433732313a207472616e736665722066726f6d20696e636f72726563742060008201527f6f776e6572000000000000000000000000000000000000000000000000000000602082015250565b6000614a9f602583613166565b9150614aaa82614a43565b604082019050919050565b60006020820190508181036000830152614ace81614a92565b9050919050565b7f4552433732313a207472616e7366657220746f20746865207a65726f2061646460008201527f7265737300000000000000000000000000000000000000000000000000000000602082015250565b6000614b31602483613166565b9150614b3c82614ad5565b604082019050919050565b60006020820190508181036000830152614b6081614b24565b9050919050565b7f4552433732313a20617070726f766520746f2063616c6c657200000000000000600082015250565b6000614b9d601983613166565b9150614ba882614b67565b602082019050919050565b60006020820190508181036000830152614bcc81614b90565b9050919050565b7f4552433732313a207472616e7366657220746f206e6f6e20455243373231526560008201527f63656976657220696d706c656d656e7465720000000000000000000000000000602082015250565b6000614c2f603283613166565b9150614c3a82614bd3565b604082019050919050565b60006020820190508181036000830152614c5e81614c22565b9050919050565b7f4552433732313a206d696e7420746f20746865207a65726f2061646472657373600082015250565b6000614c9b602083613166565b9150614ca682614c65565b602082019050919050565b60006020820190508181036000830152614cca81614c8e565b9050919050565b7f4552433732313a20746f6b656e20616c7265616479206d696e74656400000000600082015250565b6000614d07601c83613166565b9150614d1282614cd1565b602082019050919050565b60006020820190508181036000830152614d3681614cfa565b9050919050565b600081519050919050565b600082825260208201905092915050565b6000614d6482614d3d565b614d6e8185614d48565b9350614d7e818560208601613177565b614d87816131a1565b840191505092915050565b6000608082019050614da760008301876132a2565b614db460208301866132a2565b614dc16040830185613417565b8181036060830152614dd38184614d59565b905095945050505050565b600081519050614ded816130cc565b92915050565b600060208284031215614e0957614e08613096565b5b6000614e1784828501614dde565b9150509291505056fea264697066735822122066995057efff0581d2577da0f845f7bf837457881c0a4242df948c4a16009fbf64736f6c63430008140033",
  "linkReferences": {},
  "deployedLinkReferences": {}
}