{
  "_format": "hh-sol-artifact-1",
  "contractName": "LingoNFT",
  "sourceName": "contracts/LingoNFT.sol",
  "abi": [
    {
      "inputs": [],
      "stateMutability": "nonpayable",
      "type": "constructor"
    },
    {
      "inputs": [],
      "name": "InvalidShortString",
      "type": "error"
    },
    {
      "inputs": [
        {
          "internalType": "string",
          "name": "str",
          "type": "string"
        }
      ],
      "name": "StringTooLong",
      "type": "error"
    },
    {
      "anonymous": false,
      "inputs": [
        {
          "indexed": true,
          "internalType": "address",
          "name": "owner",
          "type": "address"
        },
        {
          "indexed": true,
          "internalType": "address",
          "name": "approved",
          "type": "address"
        },
        {
          "indexed": true,
          "internalType": "uint256",
          "name": "tokenId",
          "type": "uint256"
        }
      ],
      "name": "Approval",
      "type": "event"
    },
    {
      "anonymous": false,
      "inputs": [
        {
          "indexed": true,
          "internalType": "address",
          "name": "owner",
          "type": "address"
        },
        {
          "indexed": true,
          "internalType": "address",
          "name": "operator",
          "type": "address"
        },
        {
          "indexed": false,
          "internalType": "bool",
          "name": "approved",
          "type": "bool"
        }
      ],
      "name": "ApprovalForAll",
      "type": "event"
    },
    {
      "anonymous": false,
      "inputs": [],
      "name": "EIP712DomainChanged",
      "type": "event"
    },
    {
      "anonymous": false,
      "inputs": [
        {
          "indexed": true,
          "internalType": "address",
          "name": "previousOwner",
          "type": "address"
        },
        {
          "indexed": true,
          "internalType": "address",
          "name": "newOwner",
          "type": "address"
        }
      ],
      "name": "OwnershipTransferred",
      "type": "event"
    },
    {
      "anonymous": false,
      "inputs": [
        {
          "indexed": true,
          "internalType": "address",
          "name": "from",
          "type": "address"
        },
        {
          "indexed": true,
          "internalType": "address",
          "name": "to",
          "type": "address"
        },
        {
          "indexed": true,
          "internalType": "uint256",
          "name": "tokenId",
          "type": "uint256"
        }
      ],
      "name": "Transfer",
      "type": "event"
    },
    {
      "inputs": [
        {
          "internalType": "address[]",
          "name": "recipients",
          "type": "address[]"
        },
        {
          "internalType": "enum LingoNFT.Tier",
          "name": "tier",
          "type": "uint8"
        }
      ],
      "name": "airdropNFT",
      "outputs": [],
      "stateMutability": "nonpayable",
      "type": "function"
    },
    {
      "inputs": [
        {
          "internalType": "address",
          "name": "to",
          "type": "address"
        },
        {
          "internalType": "uint256",
          "name": "tokenId",
          "type": "uint256"
        }
      ],
      "name": "approve",
      "outputs": [],
      "stateMutability": "nonpayable",
      "type": "function"
    },
    {
      "inputs": [
        {
          "internalType": "address",
          "name": "owner",
          "type": "address"
        }
      ],
      "name": "balanceOf",
      "outputs": [
        {
          "internalType": "uint256",
          "name": "",
          "type": "uint256"
        }
      ],
      "stateMutability": "view",
      "type": "function"
    },
    {
      "inputs": [],
      "name": "eip712Domain",
      "outputs": [
        {
          "internalType": "bytes1",
          "name": "fields",
          "type": "bytes1"
        },
        {
          "internalType": "string",
          "name": "name",
          "type": "string"
        },
        {
          "internalType": "string",
          "name": "version",
          "type": "string"
        },
        {
          "internalType": "uint256",
          "name": "chainId",
          "type": "uint256"
        },
        {
          "internalType": "address",
          "name": "verifyingContract",
          "type": "address"
        },
        {
          "internalType": "bytes32",
          "name": "salt",
          "type": "bytes32"
        },
        {
          "internalType": "uint256[]",
          "name": "extensions",
          "type": "uint256[]"
        }
      ],
      "stateMutability": "view",
      "type": "function"
    },
    {
      "inputs": [],
      "name": "firstClassMintPrice",
      "outputs": [
        {
          "internalType": "uint256",
          "name": "",
          "type": "uint256"
        }
      ],
      "stateMutability": "view",
      "type": "function"
    },
    {
      "inputs": [
        {
          "internalType": "uint256",
          "name": "tokenId",
          "type": "uint256"
        }
      ],
      "name": "getApproved",
      "outputs": [
        {
          "internalType": "address",
          "name": "",
          "type": "address"
        }
      ],
      "stateMutability": "view",
      "type": "function"
    },
    {
      "inputs": [],
      "name": "getCurrentTimestamp",
      "outputs": [
        {
          "internalType": "uint256",
          "name": "",
          "type": "uint256"
        }
      ],
      "stateMutability": "view",
      "type": "function"
    },
    {
      "inputs": [],
      "name": "getFirstClassSupply",
      "outputs": [
        {
          "internalType": "uint256",
          "name": "",
          "type": "uint256"
        }
      ],
      "stateMutability": "view",
      "type": "function"
    },
    {
      "inputs": [],
      "name": "getSaleStartTime",
      "outputs": [
        {
          "internalType": "uint256",
          "name": "",
          "type": "uint256"
        }
      ],
      "stateMutability": "view",
      "type": "function"
    },
    {
      "inputs": [
        {
          "internalType": "enum LingoNFT.Tier",
          "name": "tier",
          "type": "uint8"
        }
      ],
      "name": "getTierURI",
      "outputs": [
        {
          "internalType": "string",
          "name": "",
          "type": "string"
        }
      ],
      "stateMutability": "view",
      "type": "function"
    },
    {
      "inputs": [],
      "name": "getTotalSupply",
      "outputs": [
        {
          "internalType": "uint256",
          "name": "",
          "type": "uint256"
        }
      ],
      "stateMutability": "view",
      "type": "function"
    },
    {
      "inputs": [
        {
          "internalType": "address",
          "name": "account",
          "type": "address"
        },
        {
          "internalType": "enum LingoNFT.Tier",
          "name": "tier",
          "type": "uint8"
        }
      ],
      "name": "hasMinted",
      "outputs": [
        {
          "internalType": "bool",
          "name": "",
          "type": "bool"
        }
      ],
      "stateMutability": "view",
      "type": "function"
    },
    {
      "inputs": [
        {
          "internalType": "address",
          "name": "owner",
          "type": "address"
        },
        {
          "internalType": "address",
          "name": "operator",
          "type": "address"
        }
      ],
      "name": "isApprovedForAll",
      "outputs": [
        {
          "internalType": "bool",
          "name": "",
          "type": "bool"
        }
      ],
      "stateMutability": "view",
      "type": "function"
    },
    {
      "inputs": [],
      "name": "maxFirstClassSupply",
      "outputs": [
        {
          "internalType": "uint256",
          "name": "",
          "type": "uint256"
        }
      ],
      "stateMutability": "view",
      "type": "function"
    },
    {
      "inputs": [
        {
          "internalType": "enum LingoNFT.Tier",
          "name": "tier",
          "type": "uint8"
        },
        {
          "internalType": "bytes32",
          "name": "r",
          "type": "bytes32"
        },
        {
          "internalType": "bytes32",
          "name": "s",
          "type": "bytes32"
        },
        {
          "internalType": "uint8",
          "name": "v",
          "type": "uint8"
        }
      ],
      "name": "mintEconomyBusinessClassNFT",
      "outputs": [],
      "stateMutability": "nonpayable",
      "type": "function"
    },
    {
      "inputs": [
        {
          "internalType": "enum LingoNFT.Tier",
          "name": "tier",
          "type": "uint8"
        },
        {
          "internalType": "bytes32",
          "name": "r",
          "type": "bytes32"
        },
        {
          "internalType": "bytes32",
          "name": "s",
          "type": "bytes32"
        },
        {
          "internalType": "uint8",
          "name": "v",
          "type": "uint8"
        }
      ],
      "name": "mintFirstClassNFT",
      "outputs": [],
      "stateMutability": "payable",
      "type": "function"
    },
    {
      "inputs": [
        {
          "internalType": "address[]",
          "name": "recipients",
          "type": "address[]"
        }
      ],
      "name": "mintPrivateJetNFT",
      "outputs": [],
      "stateMutability": "nonpayable",
      "type": "function"
    },
    {
      "inputs": [],
      "name": "mintSigner",
      "outputs": [
        {
          "internalType": "address",
          "name": "",
          "type": "address"
        }
      ],
      "stateMutability": "view",
      "type": "function"
    },
    {
      "inputs": [],
      "name": "name",
      "outputs": [
        {
          "internalType": "string",
          "name": "",
          "type": "string"
        }
      ],
      "stateMutability": "view",
      "type": "function"
    },
    {
      "inputs": [],
      "name": "owner",
      "outputs": [
        {
          "internalType": "address",
          "name": "",
          "type": "address"
        }
      ],
      "stateMutability": "view",
      "type": "function"
    },
    {
      "inputs": [
        {
          "internalType": "uint256",
          "name": "tokenId",
          "type": "uint256"
        }
      ],
      "name": "ownerOf",
      "outputs": [
        {
          "internalType": "address",
          "name": "",
          "type": "address"
        }
      ],
      "stateMutability": "view",
      "type": "function"
    },
    {
      "inputs": [],
      "name": "renounceOwnership",
      "outputs": [],
      "stateMutability": "nonpayable",
      "type": "function"
    },
    {
      "inputs": [
        {
          "internalType": "address",
          "name": "from",
          "type": "address"
        },
        {
          "internalType": "address",
          "name": "to",
          "type": "address"
        },
        {
          "internalType": "uint256",
          "name": "tokenId",
          "type": "uint256"
        }
      ],
      "name": "safeTransferFrom",
      "outputs": [],
      "stateMutability": "nonpayable",
      "type": "function"
    },
    {
      "inputs": [
        {
          "internalType": "address",
          "name": "from",
          "type": "address"
        },
        {
          "internalType": "address",
          "name": "to",
          "type": "address"
        },
        {
          "internalType": "uint256",
          "name": "tokenId",
          "type": "uint256"
        },
        {
          "internalType": "bytes",
          "name": "data",
          "type": "bytes"
        }
      ],
      "name": "safeTransferFrom",
      "outputs": [],
      "stateMutability": "nonpayable",
      "type": "function"
    },
    {
      "inputs": [],
      "name": "saleStartTime",
      "outputs": [
        {
          "internalType": "uint256",
          "name": "",
          "type": "uint256"
        }
      ],
      "stateMutability": "view",
      "type": "function"
    },
    {
      "inputs": [
        {
          "internalType": "address",
          "name": "operator",
          "type": "address"
        },
        {
          "internalType": "bool",
          "name": "approved",
          "type": "bool"
        }
      ],
      "name": "setApprovalForAll",
      "outputs": [],
      "stateMutability": "nonpayable",
      "type": "function"
    },
    {
      "inputs": [
        {
          "internalType": "uint256",
          "name": "_price",
          "type": "uint256"
        }
      ],
      "name": "setFirstClassMintPrice",
      "outputs": [],
      "stateMutability": "nonpayable",
      "type": "function"
    },
    {
      "inputs": [
        {
          "internalType": "uint256",
          "name": "_maxSupply",
          "type": "uint256"
        }
      ],
      "name": "setMaxFirstClassSupply",
      "outputs": [],
      "stateMutability": "nonpayable",
      "type": "function"
    },
    {
      "inputs": [
        {
          "internalType": "address",
          "name": "_signer",
          "type": "address"
        }
      ],
      "name": "setMintSigner",
      "outputs": [],
      "stateMutability": "nonpayable",
      "type": "function"
    },
    {
      "inputs": [
        {
          "internalType": "uint256",
          "name": "_startDate",
          "type": "uint256"
        }
      ],
      "name": "setSaleStartTime",
      "outputs": [],
      "stateMutability": "nonpayable",
      "type": "function"
    },
    {
      "inputs": [
        {
          "internalType": "enum LingoNFT.Tier",
          "name": "tier",
          "type": "uint8"
        },
        {
          "internalType": "string",
          "name": "uri",
          "type": "string"
        }
      ],
      "name": "setTierURI",
      "outputs": [],
      "stateMutability": "nonpayable",
      "type": "function"
    },
    {
      "inputs": [
        {
          "internalType": "bytes4",
          "name": "interfaceId",
          "type": "bytes4"
        }
      ],
      "name": "supportsInterface",
      "outputs": [
        {
          "internalType": "bool",
          "name": "",
          "type": "bool"
        }
      ],
      "stateMutability": "view",
      "type": "function"
    },
    {
      "inputs": [],
      "name": "symbol",
      "outputs": [
        {
          "internalType": "string",
          "name": "",
          "type": "string"
        }
      ],
      "stateMutability": "view",
      "type": "function"
    },
    {
      "inputs": [
        {
          "internalType": "uint256",
          "name": "tokenId",
          "type": "uint256"
        }
      ],
      "name": "tokenURI",
      "outputs": [
        {
          "internalType": "string",
          "name": "",
          "type": "string"
        }
      ],
      "stateMutability": "view",
      "type": "function"
    },
    {
      "inputs": [
        {
          "internalType": "address",
          "name": "from",
          "type": "address"
        },
        {
          "internalType": "address",
          "name": "to",
          "type": "address"
        },
        {
          "internalType": "uint256",
          "name": "tokenId",
          "type": "uint256"
        }
      ],
      "name": "transferFrom",
      "outputs": [],
      "stateMutability": "nonpayable",
      "type": "function"
    },
    {
      "inputs": [
        {
          "internalType": "address",
          "name": "newOwner",
          "type": "address"
        }
      ],
      "name": "transferOwnership",
      "outputs": [],
      "stateMutability": "nonpayable",
      "type": "function"
    },
    {
      "inputs": [],
      "name": "withdraw",
      "outputs": [],
      "stateMutability": "nonpayable",
      "type": "function"
    }
  ],
  "bytecode": "0x6101606040526000600a553480156200001757600080fd5b506040518060400160405280600981526020017f4c696e676f204e465400000000000000000000000000000000000000000000008152506040518060400160405280600181526020017f31000000000000000000000000000000000000000000000000000000000000008152506040518060400160405280600981526020017f4c696e676f204e465400000000000000000000000000000000000000000000008152506040518060400160405280600481526020017f4c494e4700000000000000000000000000000000000000000000000000000000815250816000908162000101919062000802565b50806001908162000113919062000802565b5050506200012c6006836200038e60201b90919060201c565b61012081815250506200014a6007826200038e60201b90919060201c565b6101408181525050818051906020012060e08181525050808051906020012061010081815250504660a0818152505062000189620003e660201b60201c565b608081815250503073ffffffffffffffffffffffffffffffffffffffff1660c08173ffffffffffffffffffffffffffffffffffffffff16815250505050620001e6620001da6200044360201b60201c565b6200044b60201b60201c565b6001600981905550604051806060016040528060358152602001620060176035913960116000806003811115620002225762000221620008e9565b5b6003811115620002375762000236620008e9565b5b8152602001908152602001600020908162000253919062000802565b506040518060600160405280603581526020016200604c603591396011600060016003811115620002895762000288620008e9565b5b60038111156200029e576200029d620008e9565b5b81526020019081526020016000209081620002ba919062000802565b5060405180606001604052806035815260200162005fe2603591396011600060026003811115620002f057620002ef620008e9565b5b6003811115620003055762000304620008e9565b5b8152602001908152602001600020908162000321919062000802565b5060405180606001604052806035815260200162005fad6035913960116000600380811115620003565762000355620008e9565b5b60038111156200036b576200036a620008e9565b5b8152602001908152602001600020908162000387919062000802565b5062000b3b565b6000602083511015620003b457620003ac836200051160201b60201c565b9050620003e0565b82620003c6836200057e60201b60201c565b6000019081620003d7919062000802565b5060ff60001b90505b92915050565b60007f8b73c3c69bb8fe3d512ecc4cf759cc79239f7b179b0ffacaa9a75d522b39400f60e0516101005146306040516020016200042895949392919062000989565b60405160208183030381529060405280519060200120905090565b600033905090565b6000600860009054906101000a900473ffffffffffffffffffffffffffffffffffffffff16905081600860006101000a81548173ffffffffffffffffffffffffffffffffffffffff021916908373ffffffffffffffffffffffffffffffffffffffff1602179055508173ffffffffffffffffffffffffffffffffffffffff168173ffffffffffffffffffffffffffffffffffffffff167f8be0079c531659141344cd1fd0a4f28419497f9722a3daafe3b4186f6b6457e060405160405180910390a35050565b600080829050601f815111156200056157826040517f305a27a900000000000000000000000000000000000000000000000000000000815260040162000558919062000a75565b60405180910390fd5b8051816200056f9062000acb565b60001c1760001b915050919050565b6000819050919050565b600081519050919050565b7f4e487b7100000000000000000000000000000000000000000000000000000000600052604160045260246000fd5b7f4e487b7100000000000000000000000000000000000000000000000000000000600052602260045260246000fd5b600060028204905060018216806200060a57607f821691505b60208210810362000620576200061f620005c2565b5b50919050565b60008190508160005260206000209050919050565b60006020601f8301049050919050565b600082821b905092915050565b6000600883026200068a7fffffffffffffffffffffffffffffffffffffffffffffffffffffffffffffffff826200064b565b6200069686836200064b565b95508019841693508086168417925050509392505050565b6000819050919050565b6000819050919050565b6000620006e3620006dd620006d784620006ae565b620006b8565b620006ae565b9050919050565b6000819050919050565b620006ff83620006c2565b620007176200070e82620006ea565b84845462000658565b825550505050565b600090565b6200072e6200071f565b6200073b818484620006f4565b505050565b5b8181101562000763576200075760008262000724565b60018101905062000741565b5050565b601f821115620007b2576200077c8162000626565b62000787846200063b565b8101602085101562000797578190505b620007af620007a6856200063b565b83018262000740565b50505b505050565b600082821c905092915050565b6000620007d760001984600802620007b7565b1980831691505092915050565b6000620007f28383620007c4565b9150826002028217905092915050565b6200080d8262000588565b67ffffffffffffffff81111562000829576200082862000593565b5b620008358254620005f1565b6200084282828562000767565b600060209050601f8311600181146200087a576000841562000865578287015190505b620008718582620007e4565b865550620008e1565b601f1984166200088a8662000626565b60005b82811015620008b4578489015182556001820191506020850194506020810190506200088d565b86831015620008d45784890151620008d0601f891682620007c4565b8355505b6001600288020188555050505b505050505050565b7f4e487b7100000000000000000000000000000000000000000000000000000000600052602160045260246000fd5b6000819050919050565b6200092d8162000918565b82525050565b6200093e81620006ae565b82525050565b600073ffffffffffffffffffffffffffffffffffffffff82169050919050565b6000620009718262000944565b9050919050565b620009838162000964565b82525050565b600060a082019050620009a0600083018862000922565b620009af602083018762000922565b620009be604083018662000922565b620009cd606083018562000933565b620009dc608083018462000978565b9695505050505050565b600082825260208201905092915050565b60005b8381101562000a17578082015181840152602081019050620009fa565b60008484015250505050565b6000601f19601f8301169050919050565b600062000a418262000588565b62000a4d8185620009e6565b935062000a5f818560208601620009f7565b62000a6a8162000a23565b840191505092915050565b6000602082019050818103600083015262000a91818462000a34565b905092915050565b600081519050919050565b6000819050602082019050919050565b600062000ac2825162000918565b80915050919050565b600062000ad88262000a99565b8262000ae48462000aa4565b905062000af18162000ab4565b9250602082101562000b345762000b2f7fffffffffffffffffffffffffffffffffffffffffffffffffffffffffffffffff836020036008026200064b565b831692505b5050919050565b60805160a05160c05160e05161010051610120516101405161541762000b9660003960006110e8015260006110b401526000612db401526000612d93015260006129e901526000612a3f01526000612a6801526154176000f3fe60806040526004361061021a5760003560e01c806384b0196e11610123578063c87b56dd116100ab578063f2fde38b1161006f578063f2fde38b146107b4578063f3ad4c1f146107dd578063f3e997e914610808578063fc2418fe14610831578063ff97f6601461085c5761021a565b8063c87b56dd146106ca578063da1642cb14610707578063e84a972814610723578063e985e9c51461074c578063f17af48d146107895761021a565b8063b88d4fde116100f2578063b88d4fde146105f9578063bb7c7cd014610622578063c2b1ddaf1461064b578063c4e41b2214610676578063c5f50a47146106a15761021a565b806384b0196e146105495780638da5cb5b1461057a57806395d89b41146105a5578063a22cb465146105d05761021a565b8063333e972d116101a65780635b1f4bd7116101755780635b1f4bd7146104625780636352211e1461048d5780636c9230db146104ca57806370a08231146104f5578063715018a6146105325761021a565b8063333e972d146103d05780633ccfd60b146103f957806342842e0e14610410578063525f8a5c146104395761021a565b80630ddd124d116101ed5780630ddd124d146102ed5780631cbaee2d1461031657806323b872dd1461034157806327af03aa1461036a57806329caa756146103a75761021a565b806301ffc9a71461021f57806306fdde031461025c578063081812fc14610287578063095ea7b3146102c4575b600080fd5b34801561022b57600080fd5b50610246600480360381019061024191906133a3565b610899565b60405161025391906133eb565b60405180910390f35b34801561026857600080fd5b5061027161097b565b60405161027e9190613496565b60405180910390f35b34801561029357600080fd5b506102ae60048036038101906102a991906134ee565b610a0d565b6040516102bb919061355c565b60405180910390f35b3480156102d057600080fd5b506102eb60048036038101906102e691906135a3565b610a53565b005b3480156102f957600080fd5b50610314600480360381019061030f9190613648565b610b6a565b005b34801561032257600080fd5b5061032b610beb565b60405161033891906136a4565b60405180910390f35b34801561034d57600080fd5b50610368600480360381019061036391906136bf565b610bf1565b005b34801561037657600080fd5b50610391600480360381019061038c9190613737565b610c51565b60405161039e9190613496565b60405180910390f35b3480156103b357600080fd5b506103ce60048036038101906103c991906134ee565b610d1a565b005b3480156103dc57600080fd5b506103f760048036038101906103f291906137ba565b610d6f565b005b34801561040557600080fd5b5061040e610e09565b005b34801561041c57600080fd5b50610437600480360381019061043291906136bf565b610f10565b005b34801561044557600080fd5b50610460600480360381019061045b91906134ee565b610f30565b005b34801561046e57600080fd5b50610477610f42565b60405161048491906136a4565b60405180910390f35b34801561049957600080fd5b506104b460048036038101906104af91906134ee565b610f48565b6040516104c1919061355c565b60405180910390f35b3480156104d657600080fd5b506104df610fce565b6040516104ec91906136a4565b60405180910390f35b34801561050157600080fd5b5061051c6004803603810190610517919061381a565b610fd6565b60405161052991906136a4565b60405180910390f35b34801561053e57600080fd5b5061054761108d565b005b34801561055557600080fd5b5061055e6110a1565b6040516105719796959493929190613959565b60405180910390f35b34801561058657600080fd5b5061058f6111a3565b60405161059c919061355c565b60405180910390f35b3480156105b157600080fd5b506105ba6111cd565b6040516105c79190613496565b60405180910390f35b3480156105dc57600080fd5b506105f760048036038101906105f29190613a09565b61125f565b005b34801561060557600080fd5b50610620600480360381019061061b9190613b79565b611275565b005b34801561062e57600080fd5b5061064960048036038101906106449190613bfc565b6112d7565b005b34801561065757600080fd5b506106606113bb565b60405161066d91906136a4565b60405180910390f35b34801561068257600080fd5b5061068b6113c5565b60405161069891906136a4565b60405180910390f35b3480156106ad57600080fd5b506106c860048036038101906106c39190613cc1565b6113cf565b005b3480156106d657600080fd5b506106f160048036038101906106ec91906134ee565b6116f4565b6040516106fe9190613496565b60405180910390f35b610721600480360381019061071c9190613cc1565b61182b565b005b34801561072f57600080fd5b5061074a6004803603810190610745919061381a565b611bac565b005b34801561075857600080fd5b50610773600480360381019061076e9190613d28565b611c67565b60405161078091906133eb565b60405180910390f35b34801561079557600080fd5b5061079e611cfb565b6040516107ab919061355c565b60405180910390f35b3480156107c057600080fd5b506107db60048036038101906107d6919061381a565b611d21565b005b3480156107e957600080fd5b506107f2611da4565b6040516107ff91906136a4565b60405180910390f35b34801561081457600080fd5b5061082f600480360381019061082a91906134ee565b611daa565b005b34801561083d57600080fd5b50610846611dff565b60405161085391906136a4565b60405180910390f35b34801561086857600080fd5b50610883600480360381019061087e9190613d68565b611e09565b60405161089091906133eb565b60405180910390f35b60007f80ac58cd000000000000000000000000000000000000000000000000000000007bffffffffffffffffffffffffffffffffffffffffffffffffffffffff1916827bffffffffffffffffffffffffffffffffffffffffffffffffffffffff1916148061096457507f5b5e139f000000000000000000000000000000000000000000000000000000007bffffffffffffffffffffffffffffffffffffffffffffffffffffffff1916827bffffffffffffffffffffffffffffffffffffffffffffffffffffffff1916145b80610974575061097382611e95565b5b9050919050565b60606000805461098a90613dd7565b80601f01602080910402602001604051908101604052809291908181526020018280546109b690613dd7565b8015610a035780601f106109d857610100808354040283529160200191610a03565b820191906000526020600020905b8154815290600101906020018083116109e657829003601f168201915b5050505050905090565b6000610a1882611eff565b6004600083815260200190815260200160002060009054906101000a900473ffffffffffffffffffffffffffffffffffffffff169050919050565b6000610a5e82610f48565b90508073ffffffffffffffffffffffffffffffffffffffff168373ffffffffffffffffffffffffffffffffffffffff1603610ace576040517f08c379a0000000000000000000000000000000000000000000000000000000008152600401610ac590613e7a565b60405180910390fd5b8073ffffffffffffffffffffffffffffffffffffffff16610aed611f4a565b73ffffffffffffffffffffffffffffffffffffffff161480610b1c5750610b1b81610b16611f4a565b611c67565b5b610b5b576040517f08c379a0000000000000000000000000000000000000000000000000000000008152600401610b5290613f0c565b60405180910390fd5b610b658383611f52565b505050565b610b7261200b565b610b7a61205a565b600080600090505b83839050811015610bdd57610b956120d8565b9150610bca848483818110610bad57610bac613f2c565b5b9050602002016020810190610bc2919061381a565b8360036120e7565b8080610bd590613f8a565b915050610b82565b5050610be76122d2565b5050565b600a5481565b610c02610bfc611f4a565b826122dc565b610c41576040517f08c379a0000000000000000000000000000000000000000000000000000000008152600401610c3890614044565b60405180910390fd5b610c4c838383612371565b505050565b606060116000836003811115610c6a57610c69614064565b5b6003811115610c7c57610c7b614064565b5b81526020019081526020016000208054610c9590613dd7565b80601f0160208091040260200160405190810160405280929190818152602001828054610cc190613dd7565b8015610d0e5780601f10610ce357610100808354040283529160200191610d0e565b820191906000526020600020905b815481529060010190602001808311610cf157829003601f168201915b50505050509050919050565b610d2261205a565b60008111610d65576040517f08c379a0000000000000000000000000000000000000000000000000000000008152600401610d5c906140df565b60405180910390fd5b80600c8190555050565b610d7761205a565b60008282905011610dbd576040517f08c379a0000000000000000000000000000000000000000000000000000000008152600401610db49061414b565b60405180910390fd5b818160116000866003811115610dd657610dd5614064565b5b6003811115610de857610de7614064565b5b81526020019081526020016000209182610e03929190614322565b50505050565b610e1161205a565b600047905060008111610e59576040517f08c379a0000000000000000000000000000000000000000000000000000000008152600401610e509061443e565b60405180910390fd5b6000610e636111a3565b73ffffffffffffffffffffffffffffffffffffffff1682604051610e869061448f565b60006040518083038185875af1925050503d8060008114610ec3576040519150601f19603f3d011682016040523d82523d6000602084013e610ec8565b606091505b5050905080610f0c576040517f08c379a0000000000000000000000000000000000000000000000000000000008152600401610f03906144f0565b60405180910390fd5b5050565b610f2b83838360405180602001604052806000815250611275565b505050565b610f3861205a565b80600a8190555050565b600c5481565b600080610f548361266a565b9050600073ffffffffffffffffffffffffffffffffffffffff168173ffffffffffffffffffffffffffffffffffffffff1603610fc5576040517f08c379a0000000000000000000000000000000000000000000000000000000008152600401610fbc9061455c565b60405180910390fd5b80915050919050565b600042905090565b60008073ffffffffffffffffffffffffffffffffffffffff168273ffffffffffffffffffffffffffffffffffffffff1603611046576040517f08c379a000000000000000000000000000000000000000000000000000000000815260040161103d906145ee565b60405180910390fd5b600360008373ffffffffffffffffffffffffffffffffffffffff1673ffffffffffffffffffffffffffffffffffffffff168152602001908152602001600020549050919050565b61109561205a565b61109f60006126a7565b565b6000606080600080600060606110e160067f000000000000000000000000000000000000000000000000000000000000000061276d90919063ffffffff16565b61111560077f000000000000000000000000000000000000000000000000000000000000000061276d90919063ffffffff16565b46306000801b600067ffffffffffffffff81111561113657611135613a4e565b5b6040519080825280602002602001820160405280156111645781602001602082028036833780820191505090505b507f0f00000000000000000000000000000000000000000000000000000000000000959493929190965096509650965096509650965090919293949596565b6000600860009054906101000a900473ffffffffffffffffffffffffffffffffffffffff16905090565b6060600180546111dc90613dd7565b80601f016020809104026020016040519081016040528092919081815260200182805461120890613dd7565b80156112555780601f1061122a57610100808354040283529160200191611255565b820191906000526020600020905b81548152906001019060200180831161123857829003601f168201915b5050505050905090565b61127161126a611f4a565b838361281d565b5050565b611286611280611f4a565b836122dc565b6112c5576040517f08c379a00000000000000000000000000000000000000000000000000000000081526004016112bc90614044565b60405180910390fd5b6112d184848484612989565b50505050565b6112df61200b565b6112e761205a565b6003808111156112fa576112f9614064565b5b81600381111561130d5761130c614064565b5b0361134d576040517f08c379a00000000000000000000000000000000000000000000000000000000081526004016113449061465a565b60405180910390fd5b60005b838390508110156113ad5760006113656120d8565b905061139985858481811061137d5761137c613f2c565b5b9050602002016020810190611392919061381a565b82856120e7565b5080806113a590613f8a565b915050611350565b506113b66122d2565b505050565b6000600a54905090565b6000600f54905090565b6113d761200b565b6000600a54141580156113ec5750600a544210155b61142b576040517f08c379a0000000000000000000000000000000000000000000000000000000008152600401611422906146c6565b60405180910390fd5b6000600381111561143f5761143e614064565b5b84600381111561145257611451614064565b5b148061148257506001600381111561146d5761146c614064565b5b8460038111156114805761147f614064565b5b145b6114c1576040517f08c379a00000000000000000000000000000000000000000000000000000000081526004016114b89061465a565b60405180910390fd5b601260003373ffffffffffffffffffffffffffffffffffffffff1673ffffffffffffffffffffffffffffffffffffffff168152602001908152602001600020600085600381111561151557611514614064565b5b600381111561152757611526614064565b5b815260200190815260200160002060009054906101000a900460ff1615611583576040517f08c379a000000000000000000000000000000000000000000000000000000000815260040161157a90614732565b60405180910390fd5b600060405180604001604052803373ffffffffffffffffffffffffffffffffffffffff1681526020018660038111156115bf576115be614064565b5b815250905060007f46f4e767a8259e68d4629e440e95fd281001bab9e44421b91129c495ca9b9636826000015183602001516040516020016116039392919061479a565b604051602081830303815290604052805190602001209050600061162e6116286129e5565b83612a9c565b9050600b60009054906101000a900473ffffffffffffffffffffffffffffffffffffffff1673ffffffffffffffffffffffffffffffffffffffff1661167582868989612add565b73ffffffffffffffffffffffffffffffffffffffff16146116cb576040517f08c379a00000000000000000000000000000000000000000000000000000000081526004016116c29061481d565b60405180910390fd5b60006116d56120d8565b90506116e233828a6120e7565b505050506116ee6122d2565b50505050565b60606116ff82612b08565b61173e576040517f08c379a000000000000000000000000000000000000000000000000000000000815260040161173590614889565b60405180910390fd5b60006010600084815260200190815260200160002060009054906101000a900460ff1690506011600082600381111561177a57611779614064565b5b600381111561178c5761178b614064565b5b815260200190815260200160002080546117a590613dd7565b80601f01602080910402602001604051908101604052809291908181526020018280546117d190613dd7565b801561181e5780601f106117f35761010080835404028352916020019161181e565b820191906000526020600020905b81548152906001019060200180831161180157829003601f168201915b5050505050915050919050565b61183361200b565b6000600a54141580156118485750600a544210155b611887576040517f08c379a000000000000000000000000000000000000000000000000000000000815260040161187e906146c6565b60405180910390fd5b6002600381111561189b5761189a614064565b5b8460038111156118ae576118ad614064565b5b146118ee576040517f08c379a00000000000000000000000000000000000000000000000000000000081526004016118e59061491b565b60405180910390fd5b600c543414611932576040517f08c379a000000000000000000000000000000000000000000000000000000000815260040161192990614987565b60405180910390fd5b601260003373ffffffffffffffffffffffffffffffffffffffff1673ffffffffffffffffffffffffffffffffffffffff16815260200190815260200160002060006002600381111561198757611986614064565b5b600381111561199957611998614064565b5b815260200190815260200160002060009054906101000a900460ff16156119f5576040517f08c379a00000000000000000000000000000000000000000000000000000000081526004016119ec906149f3565b60405180910390fd5b600d54600e5410611a3b576040517f08c379a0000000000000000000000000000000000000000000000000000000008152600401611a3290614a5f565b60405180910390fd5b600060405180604001604052803373ffffffffffffffffffffffffffffffffffffffff168152602001866003811115611a7757611a76614064565b5b815250905060007f46f4e767a8259e68d4629e440e95fd281001bab9e44421b91129c495ca9b963682600001518360200151604051602001611abb9392919061479a565b6040516020818303038152906040528051906020012090506000611ae6611ae06129e5565b83612a9c565b9050600b60009054906101000a900473ffffffffffffffffffffffffffffffffffffffff1673ffffffffffffffffffffffffffffffffffffffff16611b2d82868989612add565b73ffffffffffffffffffffffffffffffffffffffff1614611b83576040517f08c379a0000000000000000000000000000000000000000000000000000000008152600401611b7a9061481d565b60405180910390fd5b6000611b8d6120d8565b9050611b9a33828a6120e7565b50505050611ba66122d2565b50505050565b611bb461205a565b600073ffffffffffffffffffffffffffffffffffffffff168173ffffffffffffffffffffffffffffffffffffffff1603611c23576040517f08c379a0000000000000000000000000000000000000000000000000000000008152600401611c1a90614acb565b60405180910390fd5b80600b60006101000a81548173ffffffffffffffffffffffffffffffffffffffff021916908373ffffffffffffffffffffffffffffffffffffffff16021790555050565b6000600560008473ffffffffffffffffffffffffffffffffffffffff1673ffffffffffffffffffffffffffffffffffffffff16815260200190815260200160002060008373ffffffffffffffffffffffffffffffffffffffff1673ffffffffffffffffffffffffffffffffffffffff16815260200190815260200160002060009054906101000a900460ff16905092915050565b600b60009054906101000a900473ffffffffffffffffffffffffffffffffffffffff1681565b611d2961205a565b600073ffffffffffffffffffffffffffffffffffffffff168173ffffffffffffffffffffffffffffffffffffffff1603611d98576040517f08c379a0000000000000000000000000000000000000000000000000000000008152600401611d8f90614b5d565b60405180910390fd5b611da1816126a7565b50565b600d5481565b611db261205a565b60008111611df5576040517f08c379a0000000000000000000000000000000000000000000000000000000008152600401611dec90614bef565b60405180910390fd5b80600d8190555050565b6000600e54905090565b6000601260008473ffffffffffffffffffffffffffffffffffffffff1673ffffffffffffffffffffffffffffffffffffffff1681526020019081526020016000206000836003811115611e5f57611e5e614064565b5b6003811115611e7157611e70614064565b5b815260200190815260200160002060009054906101000a900460ff16905092915050565b60007f01ffc9a7000000000000000000000000000000000000000000000000000000007bffffffffffffffffffffffffffffffffffffffffffffffffffffffff1916827bffffffffffffffffffffffffffffffffffffffffffffffffffffffff1916149050919050565b611f0881612b08565b611f47576040517f08c379a0000000000000000000000000000000000000000000000000000000008152600401611f3e9061455c565b60405180910390fd5b50565b600033905090565b816004600083815260200190815260200160002060006101000a81548173ffffffffffffffffffffffffffffffffffffffff021916908373ffffffffffffffffffffffffffffffffffffffff160217905550808273ffffffffffffffffffffffffffffffffffffffff16611fc583610f48565b73ffffffffffffffffffffffffffffffffffffffff167f8c5be1e5ebec7d5bd14f71427d1e84f3dd0314c0f7b2291e5b200ac8c7c3b92560405160405180910390a45050565b600260095403612050576040517f08c379a000000000000000000000000000000000000000000000000000000000815260040161204790614c5b565b60405180910390fd5b6002600981905550565b612062611f4a565b73ffffffffffffffffffffffffffffffffffffffff166120806111a3565b73ffffffffffffffffffffffffffffffffffffffff16146120d6576040517f08c379a00000000000000000000000000000000000000000000000000000000081526004016120cd90614cc7565b60405180910390fd5b565b600080600f5490508091505090565b6120f082612b08565b15612130576040517f08c379a000000000000000000000000000000000000000000000000000000000815260040161212790614d33565b60405180910390fd5b600073ffffffffffffffffffffffffffffffffffffffff168373ffffffffffffffffffffffffffffffffffffffff160361219f576040517f08c379a000000000000000000000000000000000000000000000000000000000815260040161219690614d9f565b60405180910390fd5b6001601260003373ffffffffffffffffffffffffffffffffffffffff1673ffffffffffffffffffffffffffffffffffffffff16815260200190815260200160002060008360038111156121f5576121f4614064565b5b600381111561220757612206614064565b5b815260200190815260200160002060006101000a81548160ff0219169083151502179055506001600f5461223b9190614dbf565b600f81905550806010600084815260200190815260200160002060006101000a81548160ff0219169083600381111561227757612276614064565b5b02179055506122868383612b49565b6002600381111561229a57612299614064565b5b8160038111156122ad576122ac614064565b5b036122cd576001600e60008282546122c59190614dbf565b925050819055505b505050565b6001600981905550565b6000806122e883610f48565b90508073ffffffffffffffffffffffffffffffffffffffff168473ffffffffffffffffffffffffffffffffffffffff16148061232a57506123298185611c67565b5b8061236857508373ffffffffffffffffffffffffffffffffffffffff1661235084610a0d565b73ffffffffffffffffffffffffffffffffffffffff16145b91505092915050565b8273ffffffffffffffffffffffffffffffffffffffff1661239182610f48565b73ffffffffffffffffffffffffffffffffffffffff16146123e7576040517f08c379a00000000000000000000000000000000000000000000000000000000081526004016123de90614e65565b60405180910390fd5b600073ffffffffffffffffffffffffffffffffffffffff168273ffffffffffffffffffffffffffffffffffffffff1603612456576040517f08c379a000000000000000000000000000000000000000000000000000000000815260040161244d90614ef7565b60405180910390fd5b6124638383836001612b67565b8273ffffffffffffffffffffffffffffffffffffffff1661248382610f48565b73ffffffffffffffffffffffffffffffffffffffff16146124d9576040517f08c379a00000000000000000000000000000000000000000000000000000000081526004016124d090614e65565b60405180910390fd5b6004600082815260200190815260200160002060006101000a81549073ffffffffffffffffffffffffffffffffffffffff02191690556001600360008573ffffffffffffffffffffffffffffffffffffffff1673ffffffffffffffffffffffffffffffffffffffff168152602001908152602001600020600082825403925050819055506001600360008473ffffffffffffffffffffffffffffffffffffffff1673ffffffffffffffffffffffffffffffffffffffff16815260200190815260200160002060008282540192505081905550816002600083815260200190815260200160002060006101000a81548173ffffffffffffffffffffffffffffffffffffffff021916908373ffffffffffffffffffffffffffffffffffffffff160217905550808273ffffffffffffffffffffffffffffffffffffffff168473ffffffffffffffffffffffffffffffffffffffff167fddf252ad1be2c89b69c2b068fc378daa952ba7f163c4a11628f55a4df523b3ef60405160405180910390a46126658383836001612b6d565b505050565b60006002600083815260200190815260200160002060009054906101000a900473ffffffffffffffffffffffffffffffffffffffff169050919050565b6000600860009054906101000a900473ffffffffffffffffffffffffffffffffffffffff16905081600860006101000a81548173ffffffffffffffffffffffffffffffffffffffff021916908373ffffffffffffffffffffffffffffffffffffffff1602179055508173ffffffffffffffffffffffffffffffffffffffff168173ffffffffffffffffffffffffffffffffffffffff167f8be0079c531659141344cd1fd0a4f28419497f9722a3daafe3b4186f6b6457e060405160405180910390a35050565b606060ff60001b831461278a5761278383612b73565b9050612817565b81805461279690613dd7565b80601f01602080910402602001604051908101604052809291908181526020018280546127c290613dd7565b801561280f5780601f106127e45761010080835404028352916020019161280f565b820191906000526020600020905b8154815290600101906020018083116127f257829003601f168201915b505050505090505b92915050565b8173ffffffffffffffffffffffffffffffffffffffff168373ffffffffffffffffffffffffffffffffffffffff160361288b576040517f08c379a000000000000000000000000000000000000000000000000000000000815260040161288290614f63565b60405180910390fd5b80600560008573ffffffffffffffffffffffffffffffffffffffff1673ffffffffffffffffffffffffffffffffffffffff16815260200190815260200160002060008473ffffffffffffffffffffffffffffffffffffffff1673ffffffffffffffffffffffffffffffffffffffff16815260200190815260200160002060006101000a81548160ff0219169083151502179055508173ffffffffffffffffffffffffffffffffffffffff168373ffffffffffffffffffffffffffffffffffffffff167f17307eab39ab6107e8899845ad3d59bd9653f200f220920489ca2b5937696c318360405161297c91906133eb565b60405180910390a3505050565b612994848484612371565b6129a084848484612be7565b6129df576040517f08c379a00000000000000000000000000000000000000000000000000000000081526004016129d690614ff5565b60405180910390fd5b50505050565b60007f000000000000000000000000000000000000000000000000000000000000000073ffffffffffffffffffffffffffffffffffffffff163073ffffffffffffffffffffffffffffffffffffffff16148015612a6157507f000000000000000000000000000000000000000000000000000000000000000046145b15612a8e577f00000000000000000000000000000000000000000000000000000000000000009050612a99565b612a96612d6e565b90505b90565b60006040517f190100000000000000000000000000000000000000000000000000000000000081528360028201528260228201526042812091505092915050565b6000806000612aee87878787612e04565b91509150612afb81612ee6565b8192505050949350505050565b60008073ffffffffffffffffffffffffffffffffffffffff16612b2a8361266a565b73ffffffffffffffffffffffffffffffffffffffff1614159050919050565b612b6382826040518060200160405280600081525061304c565b5050565b50505050565b50505050565b60606000612b80836130a7565b90506000602067ffffffffffffffff811115612b9f57612b9e613a4e565b5b6040519080825280601f01601f191660200182016040528015612bd15781602001600182028036833780820191505090505b5090508181528360208201528092505050919050565b6000612c088473ffffffffffffffffffffffffffffffffffffffff166130f7565b15612d61578373ffffffffffffffffffffffffffffffffffffffff1663150b7a02612c31611f4a565b8786866040518563ffffffff1660e01b8152600401612c53949392919061506a565b6020604051808303816000875af1925050508015612c8f57506040513d601f19601f82011682018060405250810190612c8c91906150cb565b60015b612d11573d8060008114612cbf576040519150601f19603f3d011682016040523d82523d6000602084013e612cc4565b606091505b506000815103612d09576040517f08c379a0000000000000000000000000000000000000000000000000000000008152600401612d0090614ff5565b60405180910390fd5b805181602001fd5b63150b7a0260e01b7bffffffffffffffffffffffffffffffffffffffffffffffffffffffff1916817bffffffffffffffffffffffffffffffffffffffffffffffffffffffff191614915050612d66565b600190505b949350505050565b60007f8b73c3c69bb8fe3d512ecc4cf759cc79239f7b179b0ffacaa9a75d522b39400f7f00000000000000000000000000000000000000000000000000000000000000007f00000000000000000000000000000000000000000000000000000000000000004630604051602001612de99594939291906150f8565b60405160208183030381529060405280519060200120905090565b6000807f7fffffffffffffffffffffffffffffff5d576e7357a4501ddfe92f46681b20a08360001c1115612e3f576000600391509150612edd565b600060018787878760405160008152602001604052604051612e64949392919061515a565b6020604051602081039080840390855afa158015612e86573d6000803e3d6000fd5b505050602060405103519050600073ffffffffffffffffffffffffffffffffffffffff168173ffffffffffffffffffffffffffffffffffffffff1603612ed457600060019250925050612edd565b80600092509250505b94509492505050565b60006004811115612efa57612ef9614064565b5b816004811115612f0d57612f0c614064565b5b03156130495760016004811115612f2757612f26614064565b5b816004811115612f3a57612f39614064565b5b03612f7a576040517f08c379a0000000000000000000000000000000000000000000000000000000008152600401612f71906151eb565b60405180910390fd5b60026004811115612f8e57612f8d614064565b5b816004811115612fa157612fa0614064565b5b03612fe1576040517f08c379a0000000000000000000000000000000000000000000000000000000008152600401612fd890615257565b60405180910390fd5b60036004811115612ff557612ff4614064565b5b81600481111561300857613007614064565b5b03613048576040517f08c379a000000000000000000000000000000000000000000000000000000000815260040161303f906152e9565b60405180910390fd5b5b50565b613056838361311a565b6130636000848484612be7565b6130a2576040517f08c379a000000000000000000000000000000000000000000000000000000000815260040161309990614ff5565b60405180910390fd5b505050565b60008060ff8360001c169050601f8111156130ee576040517fb3512b0c00000000000000000000000000000000000000000000000000000000815260040160405180910390fd5b80915050919050565b6000808273ffffffffffffffffffffffffffffffffffffffff163b119050919050565b600073ffffffffffffffffffffffffffffffffffffffff168273ffffffffffffffffffffffffffffffffffffffff1603613189576040517f08c379a000000000000000000000000000000000000000000000000000000000815260040161318090615355565b60405180910390fd5b61319281612b08565b156131d2576040517f08c379a00000000000000000000000000000000000000000000000000000000081526004016131c9906153c1565b60405180910390fd5b6131e0600083836001612b67565b6131e981612b08565b15613229576040517f08c379a0000000000000000000000000000000000000000000000000000000008152600401613220906153c1565b60405180910390fd5b6001600360008473ffffffffffffffffffffffffffffffffffffffff1673ffffffffffffffffffffffffffffffffffffffff16815260200190815260200160002060008282540192505081905550816002600083815260200190815260200160002060006101000a81548173ffffffffffffffffffffffffffffffffffffffff021916908373ffffffffffffffffffffffffffffffffffffffff160217905550808273ffffffffffffffffffffffffffffffffffffffff16600073ffffffffffffffffffffffffffffffffffffffff167fddf252ad1be2c89b69c2b068fc378daa952ba7f163c4a11628f55a4df523b3ef60405160405180910390a4613333600083836001612b6d565b5050565b6000604051905090565b600080fd5b600080fd5b60007fffffffff0000000000000000000000000000000000000000000000000000000082169050919050565b6133808161334b565b811461338b57600080fd5b50565b60008135905061339d81613377565b92915050565b6000602082840312156133b9576133b8613341565b5b60006133c78482850161338e565b91505092915050565b60008115159050919050565b6133e5816133d0565b82525050565b600060208201905061340060008301846133dc565b92915050565b600081519050919050565b600082825260208201905092915050565b60005b83811015613440578082015181840152602081019050613425565b60008484015250505050565b6000601f19601f8301169050919050565b600061346882613406565b6134728185613411565b9350613482818560208601613422565b61348b8161344c565b840191505092915050565b600060208201905081810360008301526134b0818461345d565b905092915050565b6000819050919050565b6134cb816134b8565b81146134d657600080fd5b50565b6000813590506134e8816134c2565b92915050565b60006020828403121561350457613503613341565b5b6000613512848285016134d9565b91505092915050565b600073ffffffffffffffffffffffffffffffffffffffff82169050919050565b60006135468261351b565b9050919050565b6135568161353b565b82525050565b6000602082019050613571600083018461354d565b92915050565b6135808161353b565b811461358b57600080fd5b50565b60008135905061359d81613577565b92915050565b600080604083850312156135ba576135b9613341565b5b60006135c88582860161358e565b92505060206135d9858286016134d9565b9150509250929050565b600080fd5b600080fd5b600080fd5b60008083601f840112613608576136076135e3565b5b8235905067ffffffffffffffff811115613625576136246135e8565b5b602083019150836020820283011115613641576136406135ed565b5b9250929050565b6000806020838503121561365f5761365e613341565b5b600083013567ffffffffffffffff81111561367d5761367c613346565b5b613689858286016135f2565b92509250509250929050565b61369e816134b8565b82525050565b60006020820190506136b96000830184613695565b92915050565b6000806000606084860312156136d8576136d7613341565b5b60006136e68682870161358e565b93505060206136f78682870161358e565b9250506040613708868287016134d9565b9150509250925092565b6004811061371f57600080fd5b50565b60008135905061373181613712565b92915050565b60006020828403121561374d5761374c613341565b5b600061375b84828501613722565b91505092915050565b60008083601f84011261377a576137796135e3565b5b8235905067ffffffffffffffff811115613797576137966135e8565b5b6020830191508360018202830111156137b3576137b26135ed565b5b9250929050565b6000806000604084860312156137d3576137d2613341565b5b60006137e186828701613722565b935050602084013567ffffffffffffffff81111561380257613801613346565b5b61380e86828701613764565b92509250509250925092565b6000602082840312156138305761382f613341565b5b600061383e8482850161358e565b91505092915050565b60007fff0000000000000000000000000000000000000000000000000000000000000082169050919050565b61387c81613847565b82525050565b6000819050919050565b61389581613882565b82525050565b600081519050919050565b600082825260208201905092915050565b6000819050602082019050919050565b6138d0816134b8565b82525050565b60006138e283836138c7565b60208301905092915050565b6000602082019050919050565b60006139068261389b565b61391081856138a6565b935061391b836138b7565b8060005b8381101561394c57815161393388826138d6565b975061393e836138ee565b92505060018101905061391f565b5085935050505092915050565b600060e08201905061396e600083018a613873565b8181036020830152613980818961345d565b90508181036040830152613994818861345d565b90506139a36060830187613695565b6139b0608083018661354d565b6139bd60a083018561388c565b81810360c08301526139cf81846138fb565b905098975050505050505050565b6139e6816133d0565b81146139f157600080fd5b50565b600081359050613a03816139dd565b92915050565b60008060408385031215613a2057613a1f613341565b5b6000613a2e8582860161358e565b9250506020613a3f858286016139f4565b9150509250929050565b600080fd5b7f4e487b7100000000000000000000000000000000000000000000000000000000600052604160045260246000fd5b613a868261344c565b810181811067ffffffffffffffff82111715613aa557613aa4613a4e565b5b80604052505050565b6000613ab8613337565b9050613ac48282613a7d565b919050565b600067ffffffffffffffff821115613ae457613ae3613a4e565b5b613aed8261344c565b9050602081019050919050565b82818337600083830152505050565b6000613b1c613b1784613ac9565b613aae565b905082815260208101848484011115613b3857613b37613a49565b5b613b43848285613afa565b509392505050565b600082601f830112613b6057613b5f6135e3565b5b8135613b70848260208601613b09565b91505092915050565b60008060008060808587031215613b9357613b92613341565b5b6000613ba18782880161358e565b9450506020613bb28782880161358e565b9350506040613bc3878288016134d9565b925050606085013567ffffffffffffffff811115613be457613be3613346565b5b613bf087828801613b4b565b91505092959194509250565b600080600060408486031215613c1557613c14613341565b5b600084013567ffffffffffffffff811115613c3357613c32613346565b5b613c3f868287016135f2565b93509350506020613c5286828701613722565b9150509250925092565b613c6581613882565b8114613c7057600080fd5b50565b600081359050613c8281613c5c565b92915050565b600060ff82169050919050565b613c9e81613c88565b8114613ca957600080fd5b50565b600081359050613cbb81613c95565b92915050565b60008060008060808587031215613cdb57613cda613341565b5b6000613ce987828801613722565b9450506020613cfa87828801613c73565b9350506040613d0b87828801613c73565b9250506060613d1c87828801613cac565b91505092959194509250565b60008060408385031215613d3f57613d3e613341565b5b6000613d4d8582860161358e565b9250506020613d5e8582860161358e565b9150509250929050565b60008060408385031215613d7f57613d7e613341565b5b6000613d8d8582860161358e565b9250506020613d9e85828601613722565b9150509250929050565b7f4e487b7100000000000000000000000000000000000000000000000000000000600052602260045260246000fd5b60006002820490506001821680613def57607f821691505b602082108103613e0257613e01613da8565b5b50919050565b7f4552433732313a20617070726f76616c20746f2063757272656e74206f776e6560008201527f7200000000000000000000000000000000000000000000000000000000000000602082015250565b6000613e64602183613411565b9150613e6f82613e08565b604082019050919050565b60006020820190508181036000830152613e9381613e57565b9050919050565b7f4552433732313a20617070726f76652063616c6c6572206973206e6f7420746f60008201527f6b656e206f776e6572206f7220617070726f76656420666f7220616c6c000000602082015250565b6000613ef6603d83613411565b9150613f0182613e9a565b604082019050919050565b60006020820190508181036000830152613f2581613ee9565b9050919050565b7f4e487b7100000000000000000000000000000000000000000000000000000000600052603260045260246000fd5b7f4e487b7100000000000000000000000000000000000000000000000000000000600052601160045260246000fd5b6000613f95826134b8565b91507fffffffffffffffffffffffffffffffffffffffffffffffffffffffffffffffff8203613fc757613fc6613f5b565b5b600182019050919050565b7f4552433732313a2063616c6c6572206973206e6f7420746f6b656e206f776e6560008201527f72206f7220617070726f76656400000000000000000000000000000000000000602082015250565b600061402e602d83613411565b915061403982613fd2565b604082019050919050565b6000602082019050818103600083015261405d81614021565b9050919050565b7f4e487b7100000000000000000000000000000000000000000000000000000000600052602160045260246000fd5b7f5072696365206d7573742062652067726561746572207468616e207a65726f00600082015250565b60006140c9601f83613411565b91506140d482614093565b602082019050919050565b600060208201905081810360008301526140f8816140bc565b9050919050565b7f5552492063616e6e6f7420626520656d70747900000000000000000000000000600082015250565b6000614135601383613411565b9150614140826140ff565b602082019050919050565b6000602082019050818103600083015261416481614128565b9050919050565b600082905092915050565b60008190508160005260206000209050919050565b60006020601f8301049050919050565b600082821b905092915050565b6000600883026141d87fffffffffffffffffffffffffffffffffffffffffffffffffffffffffffffffff8261419b565b6141e2868361419b565b95508019841693508086168417925050509392505050565b6000819050919050565b600061421f61421a614215846134b8565b6141fa565b6134b8565b9050919050565b6000819050919050565b61423983614204565b61424d61424582614226565b8484546141a8565b825550505050565b600090565b614262614255565b61426d818484614230565b505050565b5b818110156142915761428660008261425a565b600181019050614273565b5050565b601f8211156142d6576142a781614176565b6142b08461418b565b810160208510156142bf578190505b6142d36142cb8561418b565b830182614272565b50505b505050565b600082821c905092915050565b60006142f9600019846008026142db565b1980831691505092915050565b600061431283836142e8565b9150826002028217905092915050565b61432c838361416b565b67ffffffffffffffff81111561434557614344613a4e565b5b61434f8254613dd7565b61435a828285614295565b6000601f8311600181146143895760008415614377578287013590505b6143818582614306565b8655506143e9565b601f19841661439786614176565b60005b828110156143bf5784890135825560018201915060208501945060208101905061439a565b868310156143dc57848901356143d8601f8916826142e8565b8355505b6001600288020188555050505b50505050505050565b7f4e6f2066756e6473206c65667420746f20776974686472617700000000000000600082015250565b6000614428601983613411565b9150614433826143f2565b602082019050919050565b600060208201905081810360008301526144578161441b565b9050919050565b600081905092915050565b50565b600061447960008361445e565b915061448482614469565b600082019050919050565b600061449a8261446c565b9150819050919050565b7f5472616e73666572206661696c65642e00000000000000000000000000000000600082015250565b60006144da601083613411565b91506144e5826144a4565b602082019050919050565b60006020820190508181036000830152614509816144cd565b9050919050565b7f4552433732313a20696e76616c696420746f6b656e2049440000000000000000600082015250565b6000614546601883613411565b915061455182614510565b602082019050919050565b6000602082019050818103600083015261457581614539565b9050919050565b7f4552433732313a2061646472657373207a65726f206973206e6f74206120766160008201527f6c6964206f776e65720000000000000000000000000000000000000000000000602082015250565b60006145d8602983613411565b91506145e38261457c565b604082019050919050565b60006020820190508181036000830152614607816145cb565b9050919050565b7f496e636f72726563742054696572000000000000000000000000000000000000600082015250565b6000614644600e83613411565b915061464f8261460e565b602082019050919050565b6000602082019050818103600083015261467381614637565b9050919050565b7f4d696e74696e67206e6f7420616c6c6f77656400000000000000000000000000600082015250565b60006146b0601383613411565b91506146bb8261467a565b602082019050919050565b600060208201905081810360008301526146df816146a3565b9050919050565b7f4164647265737320616c7265616479206d696e74656420746869732074696572600082015250565b600061471c602083613411565b9150614727826146e6565b602082019050919050565b6000602082019050818103600083015261474b8161470f565b9050919050565b6004811061476357614762614064565b5b50565b600081905061477482614752565b919050565b600061478482614766565b9050919050565b61479481614779565b82525050565b60006060820190506147af600083018661388c565b6147bc602083018561354d565b6147c9604083018461478b565b949350505050565b7f556e617574686f72697a6564205369676e657200000000000000000000000000600082015250565b6000614807601383613411565b9150614812826147d1565b602082019050919050565b60006020820190508181036000830152614836816147fa565b9050919050565b7f546f6b656e20646f6573206e6f74206578697374000000000000000000000000600082015250565b6000614873601483613411565b915061487e8261483d565b602082019050919050565b600060208201905081810360008301526148a281614866565b9050919050565b7f546869732066756e6374696f6e206973206f6e6c7920666f722046495253545f60008201527f434c415353207469657200000000000000000000000000000000000000000000602082015250565b6000614905602a83613411565b9150614910826148a9565b604082019050919050565b60006020820190508181036000830152614934816148f8565b9050919050565b7f45746865722073656e74206973206e6f7420636f727265637400000000000000600082015250565b6000614971601983613411565b915061497c8261493b565b602082019050919050565b600060208201905081810360008301526149a081614964565b9050919050565b7f4164647265737320616c7265616479206d696e74656420466972737400000000600082015250565b60006149dd601c83613411565b91506149e8826149a7565b602082019050919050565b60006020820190508181036000830152614a0c816149d0565b9050919050565b7f4d6178696d756d20737570706c79207265616368656400000000000000000000600082015250565b6000614a49601683613411565b9150614a5482614a13565b602082019050919050565b60006020820190508181036000830152614a7881614a3c565b9050919050565b7f5369676e657220616464726573732063616e6e6f74206265207a65726f000000600082015250565b6000614ab5601d83613411565b9150614ac082614a7f565b602082019050919050565b60006020820190508181036000830152614ae481614aa8565b9050919050565b7f4f776e61626c653a206e6577206f776e657220697320746865207a65726f206160008201527f6464726573730000000000000000000000000000000000000000000000000000602082015250565b6000614b47602683613411565b9150614b5282614aeb565b604082019050919050565b60006020820190508181036000830152614b7681614b3a565b9050919050565b7f4d617820737570706c79206d7573742062652067726561746572207468616e2060008201527f7a65726f00000000000000000000000000000000000000000000000000000000602082015250565b6000614bd9602483613411565b9150614be482614b7d565b604082019050919050565b60006020820190508181036000830152614c0881614bcc565b9050919050565b7f5265656e7472616e637947756172643a207265656e7472616e742063616c6c00600082015250565b6000614c45601f83613411565b9150614c5082614c0f565b602082019050919050565b60006020820190508181036000830152614c7481614c38565b9050919050565b7f4f776e61626c653a2063616c6c6572206973206e6f7420746865206f776e6572600082015250565b6000614cb1602083613411565b9150614cbc82614c7b565b602082019050919050565b60006020820190508181036000830152614ce081614ca4565b9050919050565b7f546f6b656e20494420616c726561647920657869737473000000000000000000600082015250565b6000614d1d601783613411565b9150614d2882614ce7565b602082019050919050565b60006020820190508181036000830152614d4c81614d10565b9050919050565b7f43616e6e6f74206d696e7420746f20746865207a65726f206164647265737300600082015250565b6000614d89601f83613411565b9150614d9482614d53565b602082019050919050565b60006020820190508181036000830152614db881614d7c565b9050919050565b6000614dca826134b8565b9150614dd5836134b8565b9250828201905080821115614ded57614dec613f5b565b5b92915050565b7f4552433732313a207472616e736665722066726f6d20696e636f72726563742060008201527f6f776e6572000000000000000000000000000000000000000000000000000000602082015250565b6000614e4f602583613411565b9150614e5a82614df3565b604082019050919050565b60006020820190508181036000830152614e7e81614e42565b9050919050565b7f4552433732313a207472616e7366657220746f20746865207a65726f2061646460008201527f7265737300000000000000000000000000000000000000000000000000000000602082015250565b6000614ee1602483613411565b9150614eec82614e85565b604082019050919050565b60006020820190508181036000830152614f1081614ed4565b9050919050565b7f4552433732313a20617070726f766520746f2063616c6c657200000000000000600082015250565b6000614f4d601983613411565b9150614f5882614f17565b602082019050919050565b60006020820190508181036000830152614f7c81614f40565b9050919050565b7f4552433732313a207472616e7366657220746f206e6f6e20455243373231526560008201527f63656976657220696d706c656d656e7465720000000000000000000000000000602082015250565b6000614fdf603283613411565b9150614fea82614f83565b604082019050919050565b6000602082019050818103600083015261500e81614fd2565b9050919050565b600081519050919050565b600082825260208201905092915050565b600061503c82615015565b6150468185615020565b9350615056818560208601613422565b61505f8161344c565b840191505092915050565b600060808201905061507f600083018761354d565b61508c602083018661354d565b6150996040830185613695565b81810360608301526150ab8184615031565b905095945050505050565b6000815190506150c581613377565b92915050565b6000602082840312156150e1576150e0613341565b5b60006150ef848285016150b6565b91505092915050565b600060a08201905061510d600083018861388c565b61511a602083018761388c565b615127604083018661388c565b6151346060830185613695565b615141608083018461354d565b9695505050505050565b61515481613c88565b82525050565b600060808201905061516f600083018761388c565b61517c602083018661514b565b615189604083018561388c565b615196606083018461388c565b95945050505050565b7f45434453413a20696e76616c6964207369676e61747572650000000000000000600082015250565b60006151d5601883613411565b91506151e08261519f565b602082019050919050565b60006020820190508181036000830152615204816151c8565b9050919050565b7f45434453413a20696e76616c6964207369676e6174757265206c656e67746800600082015250565b6000615241601f83613411565b915061524c8261520b565b602082019050919050565b6000602082019050818103600083015261527081615234565b9050919050565b7f45434453413a20696e76616c6964207369676e6174757265202773272076616c60008201527f7565000000000000000000000000000000000000000000000000000000000000602082015250565b60006152d3602283613411565b91506152de82615277565b604082019050919050565b60006020820190508181036000830152615302816152c6565b9050919050565b7f4552433732313a206d696e7420746f20746865207a65726f2061646472657373600082015250565b600061533f602083613411565b915061534a82615309565b602082019050919050565b6000602082019050818103600083015261536e81615332565b9050919050565b7f4552433732313a20746f6b656e20616c7265616479206d696e74656400000000600082015250565b60006153ab601c83613411565b91506153b682615375565b602082019050919050565b600060208201905081810360008301526153da8161539e565b905091905056fea264697066735822122013b3d4558692ba1cc10a706dbf91c94fae09f38fca6319e34ad00fe8177cbe6e64736f6c63430008140033697066733a2f2f516d504e535a326a6751744c6e6b343645614376636d3557513331505a444d6543746774506662426274424d7378697066733a2f2f516d5773647a74576d7058663868697547583870387358646e364b364a367a577557574d63676161365461503248697066733a2f2f516d5a316847564b556a596e4e7a77626a4a775641616b4657684458356e317144574a36525a6765724478324c4a697066733a2f2f516d59515352785556326646774b63583939513868697876796332417354454a74355447775a5445524432645851",
  "linkReferences": {},
  "deployedLinkReferences": {}
}