{
  "_format": "hh-sol-artifact-1",
  "contractName": "LingoNFT",
  "sourceName": "contracts/LingoNFT.sol",
  "abi": [
    {
      "inputs": [],
      "stateMutability": "nonpayable",
      "type": "constructor"
    },
    {
      "inputs": [],
      "name": "InvalidShortString",
      "type": "error"
    },
    {
      "inputs": [
        {
          "internalType": "string",
          "name": "str",
          "type": "string"
        }
      ],
      "name": "StringTooLong",
      "type": "error"
    },
    {
      "anonymous": false,
      "inputs": [
        {
          "indexed": true,
          "internalType": "address",
          "name": "owner",
          "type": "address"
        },
        {
          "indexed": true,
          "internalType": "address",
          "name": "approved",
          "type": "address"
        },
        {
          "indexed": true,
          "internalType": "uint256",
          "name": "tokenId",
          "type": "uint256"
        }
      ],
      "name": "Approval",
      "type": "event"
    },
    {
      "anonymous": false,
      "inputs": [
        {
          "indexed": true,
          "internalType": "address",
          "name": "owner",
          "type": "address"
        },
        {
          "indexed": true,
          "internalType": "address",
          "name": "operator",
          "type": "address"
        },
        {
          "indexed": false,
          "internalType": "bool",
          "name": "approved",
          "type": "bool"
        }
      ],
      "name": "ApprovalForAll",
      "type": "event"
    },
    {
      "anonymous": false,
      "inputs": [],
      "name": "EIP712DomainChanged",
      "type": "event"
    },
    {
      "anonymous": false,
      "inputs": [
        {
          "indexed": true,
          "internalType": "address",
          "name": "previousOwner",
          "type": "address"
        },
        {
          "indexed": true,
          "internalType": "address",
          "name": "newOwner",
          "type": "address"
        }
      ],
      "name": "OwnershipTransferred",
      "type": "event"
    },
    {
      "anonymous": false,
      "inputs": [
        {
          "indexed": true,
          "internalType": "address",
          "name": "from",
          "type": "address"
        },
        {
          "indexed": true,
          "internalType": "address",
          "name": "to",
          "type": "address"
        },
        {
          "indexed": true,
          "internalType": "uint256",
          "name": "tokenId",
          "type": "uint256"
        }
      ],
      "name": "Transfer",
      "type": "event"
    },
    {
      "inputs": [
        {
          "internalType": "address[]",
          "name": "recipients",
          "type": "address[]"
        },
        {
          "internalType": "enum LingoNFT.Tier",
          "name": "tier",
          "type": "uint8"
        }
      ],
      "name": "airdropNFT",
      "outputs": [],
      "stateMutability": "nonpayable",
      "type": "function"
    },
    {
      "inputs": [
        {
          "internalType": "address",
          "name": "to",
          "type": "address"
        },
        {
          "internalType": "uint256",
          "name": "tokenId",
          "type": "uint256"
        }
      ],
      "name": "approve",
      "outputs": [],
      "stateMutability": "nonpayable",
      "type": "function"
    },
    {
      "inputs": [
        {
          "internalType": "address",
          "name": "owner",
          "type": "address"
        }
      ],
      "name": "balanceOf",
      "outputs": [
        {
          "internalType": "uint256",
          "name": "",
          "type": "uint256"
        }
      ],
      "stateMutability": "view",
      "type": "function"
    },
    {
      "inputs": [],
      "name": "eip712Domain",
      "outputs": [
        {
          "internalType": "bytes1",
          "name": "fields",
          "type": "bytes1"
        },
        {
          "internalType": "string",
          "name": "name",
          "type": "string"
        },
        {
          "internalType": "string",
          "name": "version",
          "type": "string"
        },
        {
          "internalType": "uint256",
          "name": "chainId",
          "type": "uint256"
        },
        {
          "internalType": "address",
          "name": "verifyingContract",
          "type": "address"
        },
        {
          "internalType": "bytes32",
          "name": "salt",
          "type": "bytes32"
        },
        {
          "internalType": "uint256[]",
          "name": "extensions",
          "type": "uint256[]"
        }
      ],
      "stateMutability": "view",
      "type": "function"
    },
    {
      "inputs": [],
      "name": "firstClassMintPrice",
      "outputs": [
        {
          "internalType": "uint256",
          "name": "",
          "type": "uint256"
        }
      ],
      "stateMutability": "view",
      "type": "function"
    },
    {
      "inputs": [
        {
          "internalType": "uint256",
          "name": "tokenId",
          "type": "uint256"
        }
      ],
      "name": "getApproved",
      "outputs": [
        {
          "internalType": "address",
          "name": "",
          "type": "address"
        }
      ],
      "stateMutability": "view",
      "type": "function"
    },
    {
      "inputs": [],
      "name": "getCurrentTimestamp",
      "outputs": [
        {
          "internalType": "uint256",
          "name": "",
          "type": "uint256"
        }
      ],
      "stateMutability": "view",
      "type": "function"
    },
    {
      "inputs": [],
      "name": "getFirstClassSupply",
      "outputs": [
        {
          "internalType": "uint256",
          "name": "",
          "type": "uint256"
        }
      ],
      "stateMutability": "view",
      "type": "function"
    },
    {
      "inputs": [],
      "name": "getSaleStartTime",
      "outputs": [
        {
          "internalType": "uint256",
          "name": "",
          "type": "uint256"
        }
      ],
      "stateMutability": "view",
      "type": "function"
    },
    {
      "inputs": [
        {
          "internalType": "enum LingoNFT.Tier",
          "name": "tier",
          "type": "uint8"
        }
      ],
      "name": "getTierURI",
      "outputs": [
        {
          "internalType": "string",
          "name": "",
          "type": "string"
        }
      ],
      "stateMutability": "view",
      "type": "function"
    },
    {
      "inputs": [],
      "name": "getTotalSupply",
      "outputs": [
        {
          "internalType": "uint256",
          "name": "",
          "type": "uint256"
        }
      ],
      "stateMutability": "view",
      "type": "function"
    },
    {
      "inputs": [
        {
          "internalType": "address",
          "name": "account",
          "type": "address"
        },
        {
          "internalType": "enum LingoNFT.Tier",
          "name": "tier",
          "type": "uint8"
        }
      ],
      "name": "hasMinted",
      "outputs": [
        {
          "internalType": "bool",
          "name": "",
          "type": "bool"
        }
      ],
      "stateMutability": "view",
      "type": "function"
    },
    {
      "inputs": [
        {
          "internalType": "address",
          "name": "owner",
          "type": "address"
        },
        {
          "internalType": "address",
          "name": "operator",
          "type": "address"
        }
      ],
      "name": "isApprovedForAll",
      "outputs": [
        {
          "internalType": "bool",
          "name": "",
          "type": "bool"
        }
      ],
      "stateMutability": "view",
      "type": "function"
    },
    {
      "inputs": [],
      "name": "maxFirstClassSupply",
      "outputs": [
        {
          "internalType": "uint256",
          "name": "",
          "type": "uint256"
        }
      ],
      "stateMutability": "view",
      "type": "function"
    },
    {
      "inputs": [
        {
          "internalType": "enum LingoNFT.Tier",
          "name": "tier",
          "type": "uint8"
        },
        {
          "internalType": "bytes32",
          "name": "r",
          "type": "bytes32"
        },
        {
          "internalType": "bytes32",
          "name": "s",
          "type": "bytes32"
        },
        {
          "internalType": "uint8",
          "name": "v",
          "type": "uint8"
        }
      ],
      "name": "mintEconomyBusinessClassNFT",
      "outputs": [],
      "stateMutability": "nonpayable",
      "type": "function"
    },
    {
      "inputs": [
        {
          "internalType": "enum LingoNFT.Tier",
          "name": "tier",
          "type": "uint8"
        },
        {
          "internalType": "bytes32",
          "name": "r",
          "type": "bytes32"
        },
        {
          "internalType": "bytes32",
          "name": "s",
          "type": "bytes32"
        },
        {
          "internalType": "uint8",
          "name": "v",
          "type": "uint8"
        }
      ],
      "name": "mintFirstClassNFT",
      "outputs": [],
      "stateMutability": "payable",
      "type": "function"
    },
    {
      "inputs": [
        {
          "internalType": "address[]",
          "name": "recipients",
          "type": "address[]"
        }
      ],
      "name": "mintPrivateJetNFT",
      "outputs": [],
      "stateMutability": "nonpayable",
      "type": "function"
    },
    {
      "inputs": [],
      "name": "mintSigner",
      "outputs": [
        {
          "internalType": "address",
          "name": "",
          "type": "address"
        }
      ],
      "stateMutability": "view",
      "type": "function"
    },
    {
      "inputs": [],
      "name": "name",
      "outputs": [
        {
          "internalType": "string",
          "name": "",
          "type": "string"
        }
      ],
      "stateMutability": "view",
      "type": "function"
    },
    {
      "inputs": [],
      "name": "owner",
      "outputs": [
        {
          "internalType": "address",
          "name": "",
          "type": "address"
        }
      ],
      "stateMutability": "view",
      "type": "function"
    },
    {
      "inputs": [
        {
          "internalType": "uint256",
          "name": "tokenId",
          "type": "uint256"
        }
      ],
      "name": "ownerOf",
      "outputs": [
        {
          "internalType": "address",
          "name": "",
          "type": "address"
        }
      ],
      "stateMutability": "view",
      "type": "function"
    },
    {
      "inputs": [],
      "name": "renounceOwnership",
      "outputs": [],
      "stateMutability": "nonpayable",
      "type": "function"
    },
    {
      "inputs": [
        {
          "internalType": "address",
          "name": "from",
          "type": "address"
        },
        {
          "internalType": "address",
          "name": "to",
          "type": "address"
        },
        {
          "internalType": "uint256",
          "name": "tokenId",
          "type": "uint256"
        }
      ],
      "name": "safeTransferFrom",
      "outputs": [],
      "stateMutability": "nonpayable",
      "type": "function"
    },
    {
      "inputs": [
        {
          "internalType": "address",
          "name": "from",
          "type": "address"
        },
        {
          "internalType": "address",
          "name": "to",
          "type": "address"
        },
        {
          "internalType": "uint256",
          "name": "tokenId",
          "type": "uint256"
        },
        {
          "internalType": "bytes",
          "name": "data",
          "type": "bytes"
        }
      ],
      "name": "safeTransferFrom",
      "outputs": [],
      "stateMutability": "nonpayable",
      "type": "function"
    },
    {
      "inputs": [],
      "name": "saleStartTime",
      "outputs": [
        {
          "internalType": "uint256",
          "name": "",
          "type": "uint256"
        }
      ],
      "stateMutability": "view",
      "type": "function"
    },
    {
      "inputs": [
        {
          "internalType": "address",
          "name": "operator",
          "type": "address"
        },
        {
          "internalType": "bool",
          "name": "approved",
          "type": "bool"
        }
      ],
      "name": "setApprovalForAll",
      "outputs": [],
      "stateMutability": "nonpayable",
      "type": "function"
    },
    {
      "inputs": [
        {
          "internalType": "uint256",
          "name": "_price",
          "type": "uint256"
        }
      ],
      "name": "setFirstClassMintPrice",
      "outputs": [],
      "stateMutability": "nonpayable",
      "type": "function"
    },
    {
      "inputs": [
        {
          "internalType": "uint256",
          "name": "_maxSupply",
          "type": "uint256"
        }
      ],
      "name": "setMaxFirstClassSupply",
      "outputs": [],
      "stateMutability": "nonpayable",
      "type": "function"
    },
    {
      "inputs": [
        {
          "internalType": "address",
          "name": "_signer",
          "type": "address"
        }
      ],
      "name": "setMintSigner",
      "outputs": [],
      "stateMutability": "nonpayable",
      "type": "function"
    },
    {
      "inputs": [
        {
          "internalType": "uint256",
          "name": "_startDate",
          "type": "uint256"
        }
      ],
      "name": "setSaleStartTime",
      "outputs": [],
      "stateMutability": "nonpayable",
      "type": "function"
    },
    {
      "inputs": [
        {
          "internalType": "enum LingoNFT.Tier",
          "name": "tier",
          "type": "uint8"
        },
        {
          "internalType": "string",
          "name": "uri",
          "type": "string"
        }
      ],
      "name": "setTierURI",
      "outputs": [],
      "stateMutability": "nonpayable",
      "type": "function"
    },
    {
      "inputs": [
        {
          "internalType": "bytes4",
          "name": "interfaceId",
          "type": "bytes4"
        }
      ],
      "name": "supportsInterface",
      "outputs": [
        {
          "internalType": "bool",
          "name": "",
          "type": "bool"
        }
      ],
      "stateMutability": "view",
      "type": "function"
    },
    {
      "inputs": [],
      "name": "symbol",
      "outputs": [
        {
          "internalType": "string",
          "name": "",
          "type": "string"
        }
      ],
      "stateMutability": "view",
      "type": "function"
    },
    {
      "inputs": [
        {
          "internalType": "uint256",
          "name": "tokenId",
          "type": "uint256"
        }
      ],
      "name": "tokenURI",
      "outputs": [
        {
          "internalType": "string",
          "name": "",
          "type": "string"
        }
      ],
      "stateMutability": "view",
      "type": "function"
    },
    {
      "inputs": [
        {
          "internalType": "address",
          "name": "from",
          "type": "address"
        },
        {
          "internalType": "address",
          "name": "to",
          "type": "address"
        },
        {
          "internalType": "uint256",
          "name": "tokenId",
          "type": "uint256"
        }
      ],
      "name": "transferFrom",
      "outputs": [],
      "stateMutability": "nonpayable",
      "type": "function"
    },
    {
      "inputs": [
        {
          "internalType": "address",
          "name": "newOwner",
          "type": "address"
        }
      ],
      "name": "transferOwnership",
      "outputs": [],
      "stateMutability": "nonpayable",
      "type": "function"
    },
    {
      "inputs": [],
      "name": "withdraw",
      "outputs": [],
      "stateMutability": "nonpayable",
      "type": "function"
    }
  ],
  "bytecode": "0x6101606040526000600a553480156200001757600080fd5b506040518060400160405280600981526020017f4c696e676f204e465400000000000000000000000000000000000000000000008152506040518060400160405280600181526020017f31000000000000000000000000000000000000000000000000000000000000008152506040518060400160405280600981526020017f4c696e676f204e465400000000000000000000000000000000000000000000008152506040518060400160405280600481526020017f4c494e4700000000000000000000000000000000000000000000000000000000815250816000908162000101919062000802565b50806001908162000113919062000802565b5050506200012c6006836200038e60201b90919060201c565b61012081815250506200014a6007826200038e60201b90919060201c565b6101408181525050818051906020012060e08181525050808051906020012061010081815250504660a0818152505062000189620003e660201b60201c565b608081815250503073ffffffffffffffffffffffffffffffffffffffff1660c08173ffffffffffffffffffffffffffffffffffffffff16815250505050620001e6620001da6200044360201b60201c565b6200044b60201b60201c565b6001600981905550604051806060016040528060358152602001620063866035913960116000806003811115620002225762000221620008e9565b5b6003811115620002375762000236620008e9565b5b8152602001908152602001600020908162000253919062000802565b50604051806060016040528060358152602001620063bb603591396011600060016003811115620002895762000288620008e9565b5b60038111156200029e576200029d620008e9565b5b81526020019081526020016000209081620002ba919062000802565b5060405180606001604052806035815260200162006351603591396011600060026003811115620002f057620002ef620008e9565b5b6003811115620003055762000304620008e9565b5b8152602001908152602001600020908162000321919062000802565b506040518060600160405280603581526020016200631c6035913960116000600380811115620003565762000355620008e9565b5b60038111156200036b576200036a620008e9565b5b8152602001908152602001600020908162000387919062000802565b5062000b3b565b6000602083511015620003b457620003ac836200051160201b60201c565b9050620003e0565b82620003c6836200057e60201b60201c565b6000019081620003d7919062000802565b5060ff60001b90505b92915050565b60007f8b73c3c69bb8fe3d512ecc4cf759cc79239f7b179b0ffacaa9a75d522b39400f60e0516101005146306040516020016200042895949392919062000989565b60405160208183030381529060405280519060200120905090565b600033905090565b6000600860009054906101000a900473ffffffffffffffffffffffffffffffffffffffff16905081600860006101000a81548173ffffffffffffffffffffffffffffffffffffffff021916908373ffffffffffffffffffffffffffffffffffffffff1602179055508173ffffffffffffffffffffffffffffffffffffffff168173ffffffffffffffffffffffffffffffffffffffff167f8be0079c531659141344cd1fd0a4f28419497f9722a3daafe3b4186f6b6457e060405160405180910390a35050565b600080829050601f815111156200056157826040517f305a27a900000000000000000000000000000000000000000000000000000000815260040162000558919062000a75565b60405180910390fd5b8051816200056f9062000acb565b60001c1760001b915050919050565b6000819050919050565b600081519050919050565b7f4e487b7100000000000000000000000000000000000000000000000000000000600052604160045260246000fd5b7f4e487b7100000000000000000000000000000000000000000000000000000000600052602260045260246000fd5b600060028204905060018216806200060a57607f821691505b60208210810362000620576200061f620005c2565b5b50919050565b60008190508160005260206000209050919050565b60006020601f8301049050919050565b600082821b905092915050565b6000600883026200068a7fffffffffffffffffffffffffffffffffffffffffffffffffffffffffffffffff826200064b565b6200069686836200064b565b95508019841693508086168417925050509392505050565b6000819050919050565b6000819050919050565b6000620006e3620006dd620006d784620006ae565b620006b8565b620006ae565b9050919050565b6000819050919050565b620006ff83620006c2565b620007176200070e82620006ea565b84845462000658565b825550505050565b600090565b6200072e6200071f565b6200073b818484620006f4565b505050565b5b8181101562000763576200075760008262000724565b60018101905062000741565b5050565b601f821115620007b2576200077c8162000626565b62000787846200063b565b8101602085101562000797578190505b620007af620007a6856200063b565b83018262000740565b50505b505050565b600082821c905092915050565b6000620007d760001984600802620007b7565b1980831691505092915050565b6000620007f28383620007c4565b9150826002028217905092915050565b6200080d8262000588565b67ffffffffffffffff81111562000829576200082862000593565b5b620008358254620005f1565b6200084282828562000767565b600060209050601f8311600181146200087a576000841562000865578287015190505b620008718582620007e4565b865550620008e1565b601f1984166200088a8662000626565b60005b82811015620008b4578489015182556001820191506020850194506020810190506200088d565b86831015620008d45784890151620008d0601f891682620007c4565b8355505b6001600288020188555050505b505050505050565b7f4e487b7100000000000000000000000000000000000000000000000000000000600052602160045260246000fd5b6000819050919050565b6200092d8162000918565b82525050565b6200093e81620006ae565b82525050565b600073ffffffffffffffffffffffffffffffffffffffff82169050919050565b6000620009718262000944565b9050919050565b620009838162000964565b82525050565b600060a082019050620009a0600083018862000922565b620009af602083018762000922565b620009be604083018662000922565b620009cd606083018562000933565b620009dc608083018462000978565b9695505050505050565b600082825260208201905092915050565b60005b8381101562000a17578082015181840152602081019050620009fa565b60008484015250505050565b6000601f19601f8301169050919050565b600062000a418262000588565b62000a4d8185620009e6565b935062000a5f818560208601620009f7565b62000a6a8162000a23565b840191505092915050565b6000602082019050818103600083015262000a91818462000a34565b905092915050565b600081519050919050565b6000819050602082019050919050565b600062000ac2825162000918565b80915050919050565b600062000ad88262000a99565b8262000ae48462000aa4565b905062000af18162000ab4565b9250602082101562000b345762000b2f7fffffffffffffffffffffffffffffffffffffffffffffffffffffffffffffffff836020036008026200064b565b831692505b5050919050565b60805160a05160c05160e05161010051610120516101405161578662000b9660003960006111a801526000611174015260006130510152600061303001526000612c8601526000612cdc01526000612d0501526157866000f3fe60806040526004361061021a5760003560e01c806384b0196e11610123578063c87b56dd116100ab578063f2fde38b1161006f578063f2fde38b146107b4578063f3ad4c1f146107dd578063f3e997e914610808578063fc2418fe14610831578063ff97f6601461085c5761021a565b8063c87b56dd146106ca578063da1642cb14610707578063e84a972814610723578063e985e9c51461074c578063f17af48d146107895761021a565b8063b88d4fde116100f2578063b88d4fde146105f9578063bb7c7cd014610622578063c2b1ddaf1461064b578063c4e41b2214610676578063c5f50a47146106a15761021a565b806384b0196e146105495780638da5cb5b1461057a57806395d89b41146105a5578063a22cb465146105d05761021a565b8063333e972d116101a65780635b1f4bd7116101755780635b1f4bd7146104625780636352211e1461048d5780636c9230db146104ca57806370a08231146104f5578063715018a6146105325761021a565b8063333e972d146103d05780633ccfd60b146103f957806342842e0e14610410578063525f8a5c146104395761021a565b80630ddd124d116101ed5780630ddd124d146102ed5780631cbaee2d1461031657806323b872dd1461034157806327af03aa1461036a57806329caa756146103a75761021a565b806301ffc9a71461021f57806306fdde031461025c578063081812fc14610287578063095ea7b3146102c4575b600080fd5b34801561022b57600080fd5b5061024660048036038101906102419190613640565b610899565b6040516102539190613688565b60405180910390f35b34801561026857600080fd5b5061027161097b565b60405161027e9190613733565b60405180910390f35b34801561029357600080fd5b506102ae60048036038101906102a9919061378b565b610a0d565b6040516102bb91906137f9565b60405180910390f35b3480156102d057600080fd5b506102eb60048036038101906102e69190613840565b610a53565b005b3480156102f957600080fd5b50610314600480360381019061030f91906138e5565b610b6a565b005b34801561032257600080fd5b5061032b610cab565b6040516103389190613941565b60405180910390f35b34801561034d57600080fd5b506103686004803603810190610363919061395c565b610cb1565b005b34801561037657600080fd5b50610391600480360381019061038c91906139d4565b610d11565b60405161039e9190613733565b60405180910390f35b3480156103b357600080fd5b506103ce60048036038101906103c9919061378b565b610dda565b005b3480156103dc57600080fd5b506103f760048036038101906103f29190613a57565b610e2f565b005b34801561040557600080fd5b5061040e610ec9565b005b34801561041c57600080fd5b506104376004803603810190610432919061395c565b610fd0565b005b34801561044557600080fd5b50610460600480360381019061045b919061378b565b610ff0565b005b34801561046e57600080fd5b50610477611002565b6040516104849190613941565b60405180910390f35b34801561049957600080fd5b506104b460048036038101906104af919061378b565b611008565b6040516104c191906137f9565b60405180910390f35b3480156104d657600080fd5b506104df61108e565b6040516104ec9190613941565b60405180910390f35b34801561050157600080fd5b5061051c60048036038101906105179190613ab7565b611096565b6040516105299190613941565b60405180910390f35b34801561053e57600080fd5b5061054761114d565b005b34801561055557600080fd5b5061055e611161565b6040516105719796959493929190613bf6565b60405180910390f35b34801561058657600080fd5b5061058f611263565b60405161059c91906137f9565b60405180910390f35b3480156105b157600080fd5b506105ba61128d565b6040516105c79190613733565b60405180910390f35b3480156105dc57600080fd5b506105f760048036038101906105f29190613ca6565b61131f565b005b34801561060557600080fd5b50610620600480360381019061061b9190613e16565b611335565b005b34801561062e57600080fd5b5061064960048036038101906106449190613e99565b611397565b005b34801561065757600080fd5b5061066061153b565b60405161066d9190613941565b60405180910390f35b34801561068257600080fd5b5061068b611545565b6040516106989190613941565b60405180910390f35b3480156106ad57600080fd5b506106c860048036038101906106c39190613f5e565b61154f565b005b3480156106d657600080fd5b506106f160048036038101906106ec919061378b565b611934565b6040516106fe9190613733565b60405180910390f35b610721600480360381019061071c9190613f5e565b611a21565b005b34801561072f57600080fd5b5061074a60048036038101906107459190613ab7565b611e62565b005b34801561075857600080fd5b50610773600480360381019061076e9190613fc5565b611f1d565b6040516107809190613688565b60405180910390f35b34801561079557600080fd5b5061079e611fb1565b6040516107ab91906137f9565b60405180910390f35b3480156107c057600080fd5b506107db60048036038101906107d69190613ab7565b611fd7565b005b3480156107e957600080fd5b506107f261205a565b6040516107ff9190613941565b60405180910390f35b34801561081457600080fd5b5061082f600480360381019061082a919061378b565b612060565b005b34801561083d57600080fd5b506108466120b5565b6040516108539190613941565b60405180910390f35b34801561086857600080fd5b50610883600480360381019061087e9190614005565b6120bf565b6040516108909190613688565b60405180910390f35b60007f80ac58cd000000000000000000000000000000000000000000000000000000007bffffffffffffffffffffffffffffffffffffffffffffffffffffffff1916827bffffffffffffffffffffffffffffffffffffffffffffffffffffffff1916148061096457507f5b5e139f000000000000000000000000000000000000000000000000000000007bffffffffffffffffffffffffffffffffffffffffffffffffffffffff1916827bffffffffffffffffffffffffffffffffffffffffffffffffffffffff1916145b8061097457506109738261214b565b5b9050919050565b60606000805461098a90614074565b80601f01602080910402602001604051908101604052809291908181526020018280546109b690614074565b8015610a035780601f106109d857610100808354040283529160200191610a03565b820191906000526020600020905b8154815290600101906020018083116109e657829003601f168201915b5050505050905090565b6000610a18826121b5565b6004600083815260200190815260200160002060009054906101000a900473ffffffffffffffffffffffffffffffffffffffff169050919050565b6000610a5e82611008565b90508073ffffffffffffffffffffffffffffffffffffffff168373ffffffffffffffffffffffffffffffffffffffff1603610ace576040517f08c379a0000000000000000000000000000000000000000000000000000000008152600401610ac590614117565b60405180910390fd5b8073ffffffffffffffffffffffffffffffffffffffff16610aed612200565b73ffffffffffffffffffffffffffffffffffffffff161480610b1c5750610b1b81610b16612200565b611f1d565b5b610b5b576040517f08c379a0000000000000000000000000000000000000000000000000000000008152600401610b52906141a9565b60405180910390fd5b610b658383612208565b505050565b610b726122c1565b610b7a612310565b600080600090505b83839050811015610c9d57610b9561238e565b9150610c8a848483818110610bad57610bac6141c9565b5b9050602002016020810190610bc29190613ab7565b8360116000600380811115610bda57610bd96141f8565b5b6003811115610bec57610beb6141f8565b5b81526020019081526020016000208054610c0590614074565b80601f0160208091040260200160405190810160405280929190818152602001828054610c3190614074565b8015610c7e5780601f10610c5357610100808354040283529160200191610c7e565b820191906000526020600020905b815481529060010190602001808311610c6157829003601f168201915b5050505050600361239d565b8080610c9590614256565b915050610b82565b5050610ca761256f565b5050565b600a5481565b610cc2610cbc612200565b82612579565b610d01576040517f08c379a0000000000000000000000000000000000000000000000000000000008152600401610cf890614310565b60405180910390fd5b610d0c83838361260e565b505050565b606060116000836003811115610d2a57610d296141f8565b5b6003811115610d3c57610d3b6141f8565b5b81526020019081526020016000208054610d5590614074565b80601f0160208091040260200160405190810160405280929190818152602001828054610d8190614074565b8015610dce5780601f10610da357610100808354040283529160200191610dce565b820191906000526020600020905b815481529060010190602001808311610db157829003601f168201915b50505050509050919050565b610de2612310565b60008111610e25576040517f08c379a0000000000000000000000000000000000000000000000000000000008152600401610e1c9061437c565b60405180910390fd5b80600c8190555050565b610e37612310565b60008282905011610e7d576040517f08c379a0000000000000000000000000000000000000000000000000000000008152600401610e74906143e8565b60405180910390fd5b818160116000866003811115610e9657610e956141f8565b5b6003811115610ea857610ea76141f8565b5b81526020019081526020016000209182610ec39291906145bf565b50505050565b610ed1612310565b600047905060008111610f19576040517f08c379a0000000000000000000000000000000000000000000000000000000008152600401610f10906146db565b60405180910390fd5b6000610f23611263565b73ffffffffffffffffffffffffffffffffffffffff1682604051610f469061472c565b60006040518083038185875af1925050503d8060008114610f83576040519150601f19603f3d011682016040523d82523d6000602084013e610f88565b606091505b5050905080610fcc576040517f08c379a0000000000000000000000000000000000000000000000000000000008152600401610fc39061478d565b60405180910390fd5b5050565b610feb83838360405180602001604052806000815250611335565b505050565b610ff8612310565b80600a8190555050565b600c5481565b60008061101483612907565b9050600073ffffffffffffffffffffffffffffffffffffffff168173ffffffffffffffffffffffffffffffffffffffff1603611085576040517f08c379a000000000000000000000000000000000000000000000000000000000815260040161107c906147f9565b60405180910390fd5b80915050919050565b600042905090565b60008073ffffffffffffffffffffffffffffffffffffffff168273ffffffffffffffffffffffffffffffffffffffff1603611106576040517f08c379a00000000000000000000000000000000000000000000000000000000081526004016110fd9061488b565b60405180910390fd5b600360008373ffffffffffffffffffffffffffffffffffffffff1673ffffffffffffffffffffffffffffffffffffffff168152602001908152602001600020549050919050565b611155612310565b61115f6000612944565b565b6000606080600080600060606111a160067f0000000000000000000000000000000000000000000000000000000000000000612a0a90919063ffffffff16565b6111d560077f0000000000000000000000000000000000000000000000000000000000000000612a0a90919063ffffffff16565b46306000801b600067ffffffffffffffff8111156111f6576111f5613ceb565b5b6040519080825280602002602001820160405280156112245781602001602082028036833780820191505090505b507f0f00000000000000000000000000000000000000000000000000000000000000959493929190965096509650965096509650965090919293949596565b6000600860009054906101000a900473ffffffffffffffffffffffffffffffffffffffff16905090565b60606001805461129c90614074565b80601f01602080910402602001604051908101604052809291908181526020018280546112c890614074565b80156113155780601f106112ea57610100808354040283529160200191611315565b820191906000526020600020905b8154815290600101906020018083116112f857829003601f168201915b5050505050905090565b61133161132a612200565b8383612aba565b5050565b611346611340612200565b83612579565b611385576040517f08c379a000000000000000000000000000000000000000000000000000000000815260040161137c90614310565b60405180910390fd5b61139184848484612c26565b50505050565b61139f6122c1565b6113a7612310565b6003808111156113ba576113b96141f8565b5b8160038111156113cd576113cc6141f8565b5b0361140d576040517f08c379a0000000000000000000000000000000000000000000000000000000008152600401611404906148f7565b60405180910390fd5b60005b8383905081101561152d57600061142561238e565b905061151985858481811061143d5761143c6141c9565b5b90506020020160208101906114529190613ab7565b826011600087600381111561146a576114696141f8565b5b600381111561147c5761147b6141f8565b5b8152602001908152602001600020805461149590614074565b80601f01602080910402602001604051908101604052809291908181526020018280546114c190614074565b801561150e5780601f106114e35761010080835404028352916020019161150e565b820191906000526020600020905b8154815290600101906020018083116114f157829003601f168201915b50505050508661239d565b50808061152590614256565b915050611410565b5061153661256f565b505050565b6000600a54905090565b6000600f54905090565b6115576122c1565b6000600a541415801561156c5750600a544210155b6115ab576040517f08c379a00000000000000000000000000000000000000000000000000000000081526004016115a290614963565b60405180910390fd5b600060038111156115bf576115be6141f8565b5b8460038111156115d2576115d16141f8565b5b14806116025750600160038111156115ed576115ec6141f8565b5b846003811115611600576115ff6141f8565b5b145b611641576040517f08c379a0000000000000000000000000000000000000000000000000000000008152600401611638906148f7565b60405180910390fd5b601260003373ffffffffffffffffffffffffffffffffffffffff1673ffffffffffffffffffffffffffffffffffffffff1681526020019081526020016000206000856003811115611695576116946141f8565b5b60038111156116a7576116a66141f8565b5b815260200190815260200160002060009054906101000a900460ff1615611703576040517f08c379a00000000000000000000000000000000000000000000000000000000081526004016116fa906149cf565b60405180910390fd5b600060405180604001604052803373ffffffffffffffffffffffffffffffffffffffff16815260200186600381111561173f5761173e6141f8565b5b815250905060007f46f4e767a8259e68d4629e440e95fd281001bab9e44421b91129c495ca9b96368260000151836020015160405160200161178393929190614a37565b60405160208183030381529060405280519060200120905060006117ae6117a8612c82565b83612d39565b9050600b60009054906101000a900473ffffffffffffffffffffffffffffffffffffffff1673ffffffffffffffffffffffffffffffffffffffff166117f582868989612d7a565b73ffffffffffffffffffffffffffffffffffffffff161461184b576040517f08c379a000000000000000000000000000000000000000000000000000000000815260040161184290614aba565b60405180910390fd5b600061185561238e565b90506119223382601160008c6003811115611873576118726141f8565b5b6003811115611885576118846141f8565b5b8152602001908152602001600020805461189e90614074565b80601f01602080910402602001604051908101604052809291908181526020018280546118ca90614074565b80156119175780601f106118ec57610100808354040283529160200191611917565b820191906000526020600020905b8154815290600101906020018083116118fa57829003601f168201915b50505050508b61239d565b5050505061192e61256f565b50505050565b606061193f82612da5565b61197e576040517f08c379a000000000000000000000000000000000000000000000000000000000815260040161197590614b26565b60405180910390fd5b60106000838152602001908152602001600020805461199c90614074565b80601f01602080910402602001604051908101604052809291908181526020018280546119c890614074565b8015611a155780601f106119ea57610100808354040283529160200191611a15565b820191906000526020600020905b8154815290600101906020018083116119f857829003601f168201915b50505050509050919050565b611a296122c1565b6000600a5414158015611a3e5750600a544210155b611a7d576040517f08c379a0000000000000000000000000000000000000000000000000000000008152600401611a7490614963565b60405180910390fd5b60026003811115611a9157611a906141f8565b5b846003811115611aa457611aa36141f8565b5b14611ae4576040517f08c379a0000000000000000000000000000000000000000000000000000000008152600401611adb90614bb8565b60405180910390fd5b600c543414611b28576040517f08c379a0000000000000000000000000000000000000000000000000000000008152600401611b1f90614c24565b60405180910390fd5b601260003373ffffffffffffffffffffffffffffffffffffffff1673ffffffffffffffffffffffffffffffffffffffff168152602001908152602001600020600060026003811115611b7d57611b7c6141f8565b5b6003811115611b8f57611b8e6141f8565b5b815260200190815260200160002060009054906101000a900460ff1615611beb576040517f08c379a0000000000000000000000000000000000000000000000000000000008152600401611be290614c90565b60405180910390fd5b600d54600e5410611c31576040517f08c379a0000000000000000000000000000000000000000000000000000000008152600401611c2890614cfc565b60405180910390fd5b600060405180604001604052803373ffffffffffffffffffffffffffffffffffffffff168152602001866003811115611c6d57611c6c6141f8565b5b815250905060007f46f4e767a8259e68d4629e440e95fd281001bab9e44421b91129c495ca9b963682600001518360200151604051602001611cb193929190614a37565b6040516020818303038152906040528051906020012090506000611cdc611cd6612c82565b83612d39565b9050600b60009054906101000a900473ffffffffffffffffffffffffffffffffffffffff1673ffffffffffffffffffffffffffffffffffffffff16611d2382868989612d7a565b73ffffffffffffffffffffffffffffffffffffffff1614611d79576040517f08c379a0000000000000000000000000000000000000000000000000000000008152600401611d7090614aba565b60405180910390fd5b6000611d8361238e565b9050611e503382601160008c6003811115611da157611da06141f8565b5b6003811115611db357611db26141f8565b5b81526020019081526020016000208054611dcc90614074565b80601f0160208091040260200160405190810160405280929190818152602001828054611df890614074565b8015611e455780601f10611e1a57610100808354040283529160200191611e45565b820191906000526020600020905b815481529060010190602001808311611e2857829003601f168201915b50505050508b61239d565b50505050611e5c61256f565b50505050565b611e6a612310565b600073ffffffffffffffffffffffffffffffffffffffff168173ffffffffffffffffffffffffffffffffffffffff1603611ed9576040517f08c379a0000000000000000000000000000000000000000000000000000000008152600401611ed090614d68565b60405180910390fd5b80600b60006101000a81548173ffffffffffffffffffffffffffffffffffffffff021916908373ffffffffffffffffffffffffffffffffffffffff16021790555050565b6000600560008473ffffffffffffffffffffffffffffffffffffffff1673ffffffffffffffffffffffffffffffffffffffff16815260200190815260200160002060008373ffffffffffffffffffffffffffffffffffffffff1673ffffffffffffffffffffffffffffffffffffffff16815260200190815260200160002060009054906101000a900460ff16905092915050565b600b60009054906101000a900473ffffffffffffffffffffffffffffffffffffffff1681565b611fdf612310565b600073ffffffffffffffffffffffffffffffffffffffff168173ffffffffffffffffffffffffffffffffffffffff160361204e576040517f08c379a000000000000000000000000000000000000000000000000000000000815260040161204590614dfa565b60405180910390fd5b61205781612944565b50565b600d5481565b612068612310565b600081116120ab576040517f08c379a00000000000000000000000000000000000000000000000000000000081526004016120a290614e8c565b60405180910390fd5b80600d8190555050565b6000600e54905090565b6000601260008473ffffffffffffffffffffffffffffffffffffffff1673ffffffffffffffffffffffffffffffffffffffff1681526020019081526020016000206000836003811115612115576121146141f8565b5b6003811115612127576121266141f8565b5b815260200190815260200160002060009054906101000a900460ff16905092915050565b60007f01ffc9a7000000000000000000000000000000000000000000000000000000007bffffffffffffffffffffffffffffffffffffffffffffffffffffffff1916827bffffffffffffffffffffffffffffffffffffffffffffffffffffffff1916149050919050565b6121be81612da5565b6121fd576040517f08c379a00000000000000000000000000000000000000000000000000000000081526004016121f4906147f9565b60405180910390fd5b50565b600033905090565b816004600083815260200190815260200160002060006101000a81548173ffffffffffffffffffffffffffffffffffffffff021916908373ffffffffffffffffffffffffffffffffffffffff160217905550808273ffffffffffffffffffffffffffffffffffffffff1661227b83611008565b73ffffffffffffffffffffffffffffffffffffffff167f8c5be1e5ebec7d5bd14f71427d1e84f3dd0314c0f7b2291e5b200ac8c7c3b92560405160405180910390a45050565b600260095403612306576040517f08c379a00000000000000000000000000000000000000000000000000000000081526004016122fd90614ef8565b60405180910390fd5b6002600981905550565b612318612200565b73ffffffffffffffffffffffffffffffffffffffff16612336611263565b73ffffffffffffffffffffffffffffffffffffffff161461238c576040517f08c379a000000000000000000000000000000000000000000000000000000000815260040161238390614f64565b60405180910390fd5b565b600080600f5490508091505090565b6123a683612da5565b156123e6576040517f08c379a00000000000000000000000000000000000000000000000000000000081526004016123dd90614fd0565b60405180910390fd5b600073ffffffffffffffffffffffffffffffffffffffff168473ffffffffffffffffffffffffffffffffffffffff1603612455576040517f08c379a000000000000000000000000000000000000000000000000000000000815260040161244c9061503c565b60405180910390fd5b6001601260003373ffffffffffffffffffffffffffffffffffffffff1673ffffffffffffffffffffffffffffffffffffffff16815260200190815260200160002060008360038111156124ab576124aa6141f8565b5b60038111156124bd576124bc6141f8565b5b815260200190815260200160002060006101000a81548160ff0219169083151502179055506001600f546124f1919061505c565b600f81905550816010600085815260200190815260200160002090816125179190615090565b506125228484612de6565b60026003811115612536576125356141f8565b5b816003811115612549576125486141f8565b5b03612569576001600e6000828254612561919061505c565b925050819055505b50505050565b6001600981905550565b60008061258583611008565b90508073ffffffffffffffffffffffffffffffffffffffff168473ffffffffffffffffffffffffffffffffffffffff1614806125c757506125c68185611f1d565b5b8061260557508373ffffffffffffffffffffffffffffffffffffffff166125ed84610a0d565b73ffffffffffffffffffffffffffffffffffffffff16145b91505092915050565b8273ffffffffffffffffffffffffffffffffffffffff1661262e82611008565b73ffffffffffffffffffffffffffffffffffffffff1614612684576040517f08c379a000000000000000000000000000000000000000000000000000000000815260040161267b906151d4565b60405180910390fd5b600073ffffffffffffffffffffffffffffffffffffffff168273ffffffffffffffffffffffffffffffffffffffff16036126f3576040517f08c379a00000000000000000000000000000000000000000000000000000000081526004016126ea90615266565b60405180910390fd5b6127008383836001612e04565b8273ffffffffffffffffffffffffffffffffffffffff1661272082611008565b73ffffffffffffffffffffffffffffffffffffffff1614612776576040517f08c379a000000000000000000000000000000000000000000000000000000000815260040161276d906151d4565b60405180910390fd5b6004600082815260200190815260200160002060006101000a81549073ffffffffffffffffffffffffffffffffffffffff02191690556001600360008573ffffffffffffffffffffffffffffffffffffffff1673ffffffffffffffffffffffffffffffffffffffff168152602001908152602001600020600082825403925050819055506001600360008473ffffffffffffffffffffffffffffffffffffffff1673ffffffffffffffffffffffffffffffffffffffff16815260200190815260200160002060008282540192505081905550816002600083815260200190815260200160002060006101000a81548173ffffffffffffffffffffffffffffffffffffffff021916908373ffffffffffffffffffffffffffffffffffffffff160217905550808273ffffffffffffffffffffffffffffffffffffffff168473ffffffffffffffffffffffffffffffffffffffff167fddf252ad1be2c89b69c2b068fc378daa952ba7f163c4a11628f55a4df523b3ef60405160405180910390a46129028383836001612e0a565b505050565b60006002600083815260200190815260200160002060009054906101000a900473ffffffffffffffffffffffffffffffffffffffff169050919050565b6000600860009054906101000a900473ffffffffffffffffffffffffffffffffffffffff16905081600860006101000a81548173ffffffffffffffffffffffffffffffffffffffff021916908373ffffffffffffffffffffffffffffffffffffffff1602179055508173ffffffffffffffffffffffffffffffffffffffff168173ffffffffffffffffffffffffffffffffffffffff167f8be0079c531659141344cd1fd0a4f28419497f9722a3daafe3b4186f6b6457e060405160405180910390a35050565b606060ff60001b8314612a2757612a2083612e10565b9050612ab4565b818054612a3390614074565b80601f0160208091040260200160405190810160405280929190818152602001828054612a5f90614074565b8015612aac5780601f10612a8157610100808354040283529160200191612aac565b820191906000526020600020905b815481529060010190602001808311612a8f57829003601f168201915b505050505090505b92915050565b8173ffffffffffffffffffffffffffffffffffffffff168373ffffffffffffffffffffffffffffffffffffffff1603612b28576040517f08c379a0000000000000000000000000000000000000000000000000000000008152600401612b1f906152d2565b60405180910390fd5b80600560008573ffffffffffffffffffffffffffffffffffffffff1673ffffffffffffffffffffffffffffffffffffffff16815260200190815260200160002060008473ffffffffffffffffffffffffffffffffffffffff1673ffffffffffffffffffffffffffffffffffffffff16815260200190815260200160002060006101000a81548160ff0219169083151502179055508173ffffffffffffffffffffffffffffffffffffffff168373ffffffffffffffffffffffffffffffffffffffff167f17307eab39ab6107e8899845ad3d59bd9653f200f220920489ca2b5937696c3183604051612c199190613688565b60405180910390a3505050565b612c3184848461260e565b612c3d84848484612e84565b612c7c576040517f08c379a0000000000000000000000000000000000000000000000000000000008152600401612c7390615364565b60405180910390fd5b50505050565b60007f000000000000000000000000000000000000000000000000000000000000000073ffffffffffffffffffffffffffffffffffffffff163073ffffffffffffffffffffffffffffffffffffffff16148015612cfe57507f000000000000000000000000000000000000000000000000000000000000000046145b15612d2b577f00000000000000000000000000000000000000000000000000000000000000009050612d36565b612d3361300b565b90505b90565b60006040517f190100000000000000000000000000000000000000000000000000000000000081528360028201528260228201526042812091505092915050565b6000806000612d8b878787876130a1565b91509150612d9881613183565b8192505050949350505050565b60008073ffffffffffffffffffffffffffffffffffffffff16612dc783612907565b73ffffffffffffffffffffffffffffffffffffffff1614159050919050565b612e008282604051806020016040528060008152506132e9565b5050565b50505050565b50505050565b60606000612e1d83613344565b90506000602067ffffffffffffffff811115612e3c57612e3b613ceb565b5b6040519080825280601f01601f191660200182016040528015612e6e5781602001600182028036833780820191505090505b5090508181528360208201528092505050919050565b6000612ea58473ffffffffffffffffffffffffffffffffffffffff16613394565b15612ffe578373ffffffffffffffffffffffffffffffffffffffff1663150b7a02612ece612200565b8786866040518563ffffffff1660e01b8152600401612ef094939291906153d9565b6020604051808303816000875af1925050508015612f2c57506040513d601f19601f82011682018060405250810190612f29919061543a565b60015b612fae573d8060008114612f5c576040519150601f19603f3d011682016040523d82523d6000602084013e612f61565b606091505b506000815103612fa6576040517f08c379a0000000000000000000000000000000000000000000000000000000008152600401612f9d90615364565b60405180910390fd5b805181602001fd5b63150b7a0260e01b7bffffffffffffffffffffffffffffffffffffffffffffffffffffffff1916817bffffffffffffffffffffffffffffffffffffffffffffffffffffffff191614915050613003565b600190505b949350505050565b60007f8b73c3c69bb8fe3d512ecc4cf759cc79239f7b179b0ffacaa9a75d522b39400f7f00000000000000000000000000000000000000000000000000000000000000007f00000000000000000000000000000000000000000000000000000000000000004630604051602001613086959493929190615467565b60405160208183030381529060405280519060200120905090565b6000807f7fffffffffffffffffffffffffffffff5d576e7357a4501ddfe92f46681b20a08360001c11156130dc57600060039150915061317a565b60006001878787876040516000815260200160405260405161310194939291906154c9565b6020604051602081039080840390855afa158015613123573d6000803e3d6000fd5b505050602060405103519050600073ffffffffffffffffffffffffffffffffffffffff168173ffffffffffffffffffffffffffffffffffffffff16036131715760006001925092505061317a565b80600092509250505b94509492505050565b60006004811115613197576131966141f8565b5b8160048111156131aa576131a96141f8565b5b03156132e657600160048111156131c4576131c36141f8565b5b8160048111156131d7576131d66141f8565b5b03613217576040517f08c379a000000000000000000000000000000000000000000000000000000000815260040161320e9061555a565b60405180910390fd5b6002600481111561322b5761322a6141f8565b5b81600481111561323e5761323d6141f8565b5b0361327e576040517f08c379a0000000000000000000000000000000000000000000000000000000008152600401613275906155c6565b60405180910390fd5b60036004811115613292576132916141f8565b5b8160048111156132a5576132a46141f8565b5b036132e5576040517f08c379a00000000000000000000000000000000000000000000000000000000081526004016132dc90615658565b60405180910390fd5b5b50565b6132f383836133b7565b6133006000848484612e84565b61333f576040517f08c379a000000000000000000000000000000000000000000000000000000000815260040161333690615364565b60405180910390fd5b505050565b60008060ff8360001c169050601f81111561338b576040517fb3512b0c00000000000000000000000000000000000000000000000000000000815260040160405180910390fd5b80915050919050565b6000808273ffffffffffffffffffffffffffffffffffffffff163b119050919050565b600073ffffffffffffffffffffffffffffffffffffffff168273ffffffffffffffffffffffffffffffffffffffff1603613426576040517f08c379a000000000000000000000000000000000000000000000000000000000815260040161341d906156c4565b60405180910390fd5b61342f81612da5565b1561346f576040517f08c379a000000000000000000000000000000000000000000000000000000000815260040161346690615730565b60405180910390fd5b61347d600083836001612e04565b61348681612da5565b156134c6576040517f08c379a00000000000000000000000000000000000000000000000000000000081526004016134bd90615730565b60405180910390fd5b6001600360008473ffffffffffffffffffffffffffffffffffffffff1673ffffffffffffffffffffffffffffffffffffffff16815260200190815260200160002060008282540192505081905550816002600083815260200190815260200160002060006101000a81548173ffffffffffffffffffffffffffffffffffffffff021916908373ffffffffffffffffffffffffffffffffffffffff160217905550808273ffffffffffffffffffffffffffffffffffffffff16600073ffffffffffffffffffffffffffffffffffffffff167fddf252ad1be2c89b69c2b068fc378daa952ba7f163c4a11628f55a4df523b3ef60405160405180910390a46135d0600083836001612e0a565b5050565b6000604051905090565b600080fd5b600080fd5b60007fffffffff0000000000000000000000000000000000000000000000000000000082169050919050565b61361d816135e8565b811461362857600080fd5b50565b60008135905061363a81613614565b92915050565b600060208284031215613656576136556135de565b5b60006136648482850161362b565b91505092915050565b60008115159050919050565b6136828161366d565b82525050565b600060208201905061369d6000830184613679565b92915050565b600081519050919050565b600082825260208201905092915050565b60005b838110156136dd5780820151818401526020810190506136c2565b60008484015250505050565b6000601f19601f8301169050919050565b6000613705826136a3565b61370f81856136ae565b935061371f8185602086016136bf565b613728816136e9565b840191505092915050565b6000602082019050818103600083015261374d81846136fa565b905092915050565b6000819050919050565b61376881613755565b811461377357600080fd5b50565b6000813590506137858161375f565b92915050565b6000602082840312156137a1576137a06135de565b5b60006137af84828501613776565b91505092915050565b600073ffffffffffffffffffffffffffffffffffffffff82169050919050565b60006137e3826137b8565b9050919050565b6137f3816137d8565b82525050565b600060208201905061380e60008301846137ea565b92915050565b61381d816137d8565b811461382857600080fd5b50565b60008135905061383a81613814565b92915050565b60008060408385031215613857576138566135de565b5b60006138658582860161382b565b925050602061387685828601613776565b9150509250929050565b600080fd5b600080fd5b600080fd5b60008083601f8401126138a5576138a4613880565b5b8235905067ffffffffffffffff8111156138c2576138c1613885565b5b6020830191508360208202830111156138de576138dd61388a565b5b9250929050565b600080602083850312156138fc576138fb6135de565b5b600083013567ffffffffffffffff81111561391a576139196135e3565b5b6139268582860161388f565b92509250509250929050565b61393b81613755565b82525050565b60006020820190506139566000830184613932565b92915050565b600080600060608486031215613975576139746135de565b5b60006139838682870161382b565b93505060206139948682870161382b565b92505060406139a586828701613776565b9150509250925092565b600481106139bc57600080fd5b50565b6000813590506139ce816139af565b92915050565b6000602082840312156139ea576139e96135de565b5b60006139f8848285016139bf565b91505092915050565b60008083601f840112613a1757613a16613880565b5b8235905067ffffffffffffffff811115613a3457613a33613885565b5b602083019150836001820283011115613a5057613a4f61388a565b5b9250929050565b600080600060408486031215613a7057613a6f6135de565b5b6000613a7e868287016139bf565b935050602084013567ffffffffffffffff811115613a9f57613a9e6135e3565b5b613aab86828701613a01565b92509250509250925092565b600060208284031215613acd57613acc6135de565b5b6000613adb8482850161382b565b91505092915050565b60007fff0000000000000000000000000000000000000000000000000000000000000082169050919050565b613b1981613ae4565b82525050565b6000819050919050565b613b3281613b1f565b82525050565b600081519050919050565b600082825260208201905092915050565b6000819050602082019050919050565b613b6d81613755565b82525050565b6000613b7f8383613b64565b60208301905092915050565b6000602082019050919050565b6000613ba382613b38565b613bad8185613b43565b9350613bb883613b54565b8060005b83811015613be9578151613bd08882613b73565b9750613bdb83613b8b565b925050600181019050613bbc565b5085935050505092915050565b600060e082019050613c0b600083018a613b10565b8181036020830152613c1d81896136fa565b90508181036040830152613c3181886136fa565b9050613c406060830187613932565b613c4d60808301866137ea565b613c5a60a0830185613b29565b81810360c0830152613c6c8184613b98565b905098975050505050505050565b613c838161366d565b8114613c8e57600080fd5b50565b600081359050613ca081613c7a565b92915050565b60008060408385031215613cbd57613cbc6135de565b5b6000613ccb8582860161382b565b9250506020613cdc85828601613c91565b9150509250929050565b600080fd5b7f4e487b7100000000000000000000000000000000000000000000000000000000600052604160045260246000fd5b613d23826136e9565b810181811067ffffffffffffffff82111715613d4257613d41613ceb565b5b80604052505050565b6000613d556135d4565b9050613d618282613d1a565b919050565b600067ffffffffffffffff821115613d8157613d80613ceb565b5b613d8a826136e9565b9050602081019050919050565b82818337600083830152505050565b6000613db9613db484613d66565b613d4b565b905082815260208101848484011115613dd557613dd4613ce6565b5b613de0848285613d97565b509392505050565b600082601f830112613dfd57613dfc613880565b5b8135613e0d848260208601613da6565b91505092915050565b60008060008060808587031215613e3057613e2f6135de565b5b6000613e3e8782880161382b565b9450506020613e4f8782880161382b565b9350506040613e6087828801613776565b925050606085013567ffffffffffffffff811115613e8157613e806135e3565b5b613e8d87828801613de8565b91505092959194509250565b600080600060408486031215613eb257613eb16135de565b5b600084013567ffffffffffffffff811115613ed057613ecf6135e3565b5b613edc8682870161388f565b93509350506020613eef868287016139bf565b9150509250925092565b613f0281613b1f565b8114613f0d57600080fd5b50565b600081359050613f1f81613ef9565b92915050565b600060ff82169050919050565b613f3b81613f25565b8114613f4657600080fd5b50565b600081359050613f5881613f32565b92915050565b60008060008060808587031215613f7857613f776135de565b5b6000613f86878288016139bf565b9450506020613f9787828801613f10565b9350506040613fa887828801613f10565b9250506060613fb987828801613f49565b91505092959194509250565b60008060408385031215613fdc57613fdb6135de565b5b6000613fea8582860161382b565b9250506020613ffb8582860161382b565b9150509250929050565b6000806040838503121561401c5761401b6135de565b5b600061402a8582860161382b565b925050602061403b858286016139bf565b9150509250929050565b7f4e487b7100000000000000000000000000000000000000000000000000000000600052602260045260246000fd5b6000600282049050600182168061408c57607f821691505b60208210810361409f5761409e614045565b5b50919050565b7f4552433732313a20617070726f76616c20746f2063757272656e74206f776e6560008201527f7200000000000000000000000000000000000000000000000000000000000000602082015250565b60006141016021836136ae565b915061410c826140a5565b604082019050919050565b60006020820190508181036000830152614130816140f4565b9050919050565b7f4552433732313a20617070726f76652063616c6c6572206973206e6f7420746f60008201527f6b656e206f776e6572206f7220617070726f76656420666f7220616c6c000000602082015250565b6000614193603d836136ae565b915061419e82614137565b604082019050919050565b600060208201905081810360008301526141c281614186565b9050919050565b7f4e487b7100000000000000000000000000000000000000000000000000000000600052603260045260246000fd5b7f4e487b7100000000000000000000000000000000000000000000000000000000600052602160045260246000fd5b7f4e487b7100000000000000000000000000000000000000000000000000000000600052601160045260246000fd5b600061426182613755565b91507fffffffffffffffffffffffffffffffffffffffffffffffffffffffffffffffff820361429357614292614227565b5b600182019050919050565b7f4552433732313a2063616c6c6572206973206e6f7420746f6b656e206f776e6560008201527f72206f7220617070726f76656400000000000000000000000000000000000000602082015250565b60006142fa602d836136ae565b91506143058261429e565b604082019050919050565b60006020820190508181036000830152614329816142ed565b9050919050565b7f5072696365206d7573742062652067726561746572207468616e207a65726f00600082015250565b6000614366601f836136ae565b915061437182614330565b602082019050919050565b6000602082019050818103600083015261439581614359565b9050919050565b7f5552492063616e6e6f7420626520656d70747900000000000000000000000000600082015250565b60006143d26013836136ae565b91506143dd8261439c565b602082019050919050565b60006020820190508181036000830152614401816143c5565b9050919050565b600082905092915050565b60008190508160005260206000209050919050565b60006020601f8301049050919050565b600082821b905092915050565b6000600883026144757fffffffffffffffffffffffffffffffffffffffffffffffffffffffffffffffff82614438565b61447f8683614438565b95508019841693508086168417925050509392505050565b6000819050919050565b60006144bc6144b76144b284613755565b614497565b613755565b9050919050565b6000819050919050565b6144d6836144a1565b6144ea6144e2826144c3565b848454614445565b825550505050565b600090565b6144ff6144f2565b61450a8184846144cd565b505050565b5b8181101561452e576145236000826144f7565b600181019050614510565b5050565b601f8211156145735761454481614413565b61454d84614428565b8101602085101561455c578190505b61457061456885614428565b83018261450f565b50505b505050565b600082821c905092915050565b600061459660001984600802614578565b1980831691505092915050565b60006145af8383614585565b9150826002028217905092915050565b6145c98383614408565b67ffffffffffffffff8111156145e2576145e1613ceb565b5b6145ec8254614074565b6145f7828285614532565b6000601f8311600181146146265760008415614614578287013590505b61461e85826145a3565b865550614686565b601f19841661463486614413565b60005b8281101561465c57848901358255600182019150602085019450602081019050614637565b868310156146795784890135614675601f891682614585565b8355505b6001600288020188555050505b50505050505050565b7f4e6f2066756e6473206c65667420746f20776974686472617700000000000000600082015250565b60006146c56019836136ae565b91506146d08261468f565b602082019050919050565b600060208201905081810360008301526146f4816146b8565b9050919050565b600081905092915050565b50565b60006147166000836146fb565b915061472182614706565b600082019050919050565b600061473782614709565b9150819050919050565b7f5472616e73666572206661696c65642e00000000000000000000000000000000600082015250565b60006147776010836136ae565b915061478282614741565b602082019050919050565b600060208201905081810360008301526147a68161476a565b9050919050565b7f4552433732313a20696e76616c696420746f6b656e2049440000000000000000600082015250565b60006147e36018836136ae565b91506147ee826147ad565b602082019050919050565b60006020820190508181036000830152614812816147d6565b9050919050565b7f4552433732313a2061646472657373207a65726f206973206e6f74206120766160008201527f6c6964206f776e65720000000000000000000000000000000000000000000000602082015250565b60006148756029836136ae565b915061488082614819565b604082019050919050565b600060208201905081810360008301526148a481614868565b9050919050565b7f496e636f72726563742054696572000000000000000000000000000000000000600082015250565b60006148e1600e836136ae565b91506148ec826148ab565b602082019050919050565b60006020820190508181036000830152614910816148d4565b9050919050565b7f4d696e74696e67206e6f7420616c6c6f77656400000000000000000000000000600082015250565b600061494d6013836136ae565b915061495882614917565b602082019050919050565b6000602082019050818103600083015261497c81614940565b9050919050565b7f4164647265737320616c7265616479206d696e74656420746869732074696572600082015250565b60006149b96020836136ae565b91506149c482614983565b602082019050919050565b600060208201905081810360008301526149e8816149ac565b9050919050565b60048110614a00576149ff6141f8565b5b50565b6000819050614a11826149ef565b919050565b6000614a2182614a03565b9050919050565b614a3181614a16565b82525050565b6000606082019050614a4c6000830186613b29565b614a5960208301856137ea565b614a666040830184614a28565b949350505050565b7f556e617574686f72697a6564205369676e657200000000000000000000000000600082015250565b6000614aa46013836136ae565b9150614aaf82614a6e565b602082019050919050565b60006020820190508181036000830152614ad381614a97565b9050919050565b7f546f6b656e20646f6573206e6f74206578697374000000000000000000000000600082015250565b6000614b106014836136ae565b9150614b1b82614ada565b602082019050919050565b60006020820190508181036000830152614b3f81614b03565b9050919050565b7f546869732066756e6374696f6e206973206f6e6c7920666f722046495253545f60008201527f434c415353207469657200000000000000000000000000000000000000000000602082015250565b6000614ba2602a836136ae565b9150614bad82614b46565b604082019050919050565b60006020820190508181036000830152614bd181614b95565b9050919050565b7f45746865722073656e74206973206e6f7420636f727265637400000000000000600082015250565b6000614c0e6019836136ae565b9150614c1982614bd8565b602082019050919050565b60006020820190508181036000830152614c3d81614c01565b9050919050565b7f4164647265737320616c7265616479206d696e74656420466972737400000000600082015250565b6000614c7a601c836136ae565b9150614c8582614c44565b602082019050919050565b60006020820190508181036000830152614ca981614c6d565b9050919050565b7f4d6178696d756d20737570706c79207265616368656400000000000000000000600082015250565b6000614ce66016836136ae565b9150614cf182614cb0565b602082019050919050565b60006020820190508181036000830152614d1581614cd9565b9050919050565b7f5369676e657220616464726573732063616e6e6f74206265207a65726f000000600082015250565b6000614d52601d836136ae565b9150614d5d82614d1c565b602082019050919050565b60006020820190508181036000830152614d8181614d45565b9050919050565b7f4f776e61626c653a206e6577206f776e657220697320746865207a65726f206160008201527f6464726573730000000000000000000000000000000000000000000000000000602082015250565b6000614de46026836136ae565b9150614def82614d88565b604082019050919050565b60006020820190508181036000830152614e1381614dd7565b9050919050565b7f4d617820737570706c79206d7573742062652067726561746572207468616e2060008201527f7a65726f00000000000000000000000000000000000000000000000000000000602082015250565b6000614e766024836136ae565b9150614e8182614e1a565b604082019050919050565b60006020820190508181036000830152614ea581614e69565b9050919050565b7f5265656e7472616e637947756172643a207265656e7472616e742063616c6c00600082015250565b6000614ee2601f836136ae565b9150614eed82614eac565b602082019050919050565b60006020820190508181036000830152614f1181614ed5565b9050919050565b7f4f776e61626c653a2063616c6c6572206973206e6f7420746865206f776e6572600082015250565b6000614f4e6020836136ae565b9150614f5982614f18565b602082019050919050565b60006020820190508181036000830152614f7d81614f41565b9050919050565b7f546f6b656e20494420616c726561647920657869737473000000000000000000600082015250565b6000614fba6017836136ae565b9150614fc582614f84565b602082019050919050565b60006020820190508181036000830152614fe981614fad565b9050919050565b7f43616e6e6f74206d696e7420746f20746865207a65726f206164647265737300600082015250565b6000615026601f836136ae565b915061503182614ff0565b602082019050919050565b6000602082019050818103600083015261505581615019565b9050919050565b600061506782613755565b915061507283613755565b925082820190508082111561508a57615089614227565b5b92915050565b615099826136a3565b67ffffffffffffffff8111156150b2576150b1613ceb565b5b6150bc8254614074565b6150c7828285614532565b600060209050601f8311600181146150fa57600084156150e8578287015190505b6150f285826145a3565b86555061515a565b601f19841661510886614413565b60005b828110156151305784890151825560018201915060208501945060208101905061510b565b8683101561514d5784890151615149601f891682614585565b8355505b6001600288020188555050505b505050505050565b7f4552433732313a207472616e736665722066726f6d20696e636f72726563742060008201527f6f776e6572000000000000000000000000000000000000000000000000000000602082015250565b60006151be6025836136ae565b91506151c982615162565b604082019050919050565b600060208201905081810360008301526151ed816151b1565b9050919050565b7f4552433732313a207472616e7366657220746f20746865207a65726f2061646460008201527f7265737300000000000000000000000000000000000000000000000000000000602082015250565b60006152506024836136ae565b915061525b826151f4565b604082019050919050565b6000602082019050818103600083015261527f81615243565b9050919050565b7f4552433732313a20617070726f766520746f2063616c6c657200000000000000600082015250565b60006152bc6019836136ae565b91506152c782615286565b602082019050919050565b600060208201905081810360008301526152eb816152af565b9050919050565b7f4552433732313a207472616e7366657220746f206e6f6e20455243373231526560008201527f63656976657220696d706c656d656e7465720000000000000000000000000000602082015250565b600061534e6032836136ae565b9150615359826152f2565b604082019050919050565b6000602082019050818103600083015261537d81615341565b9050919050565b600081519050919050565b600082825260208201905092915050565b60006153ab82615384565b6153b5818561538f565b93506153c58185602086016136bf565b6153ce816136e9565b840191505092915050565b60006080820190506153ee60008301876137ea565b6153fb60208301866137ea565b6154086040830185613932565b818103606083015261541a81846153a0565b905095945050505050565b60008151905061543481613614565b92915050565b6000602082840312156154505761544f6135de565b5b600061545e84828501615425565b91505092915050565b600060a08201905061547c6000830188613b29565b6154896020830187613b29565b6154966040830186613b29565b6154a36060830185613932565b6154b060808301846137ea565b9695505050505050565b6154c381613f25565b82525050565b60006080820190506154de6000830187613b29565b6154eb60208301866154ba565b6154f86040830185613b29565b6155056060830184613b29565b95945050505050565b7f45434453413a20696e76616c6964207369676e61747572650000000000000000600082015250565b60006155446018836136ae565b915061554f8261550e565b602082019050919050565b6000602082019050818103600083015261557381615537565b9050919050565b7f45434453413a20696e76616c6964207369676e6174757265206c656e67746800600082015250565b60006155b0601f836136ae565b91506155bb8261557a565b602082019050919050565b600060208201905081810360008301526155df816155a3565b9050919050565b7f45434453413a20696e76616c6964207369676e6174757265202773272076616c60008201527f7565000000000000000000000000000000000000000000000000000000000000602082015250565b60006156426022836136ae565b915061564d826155e6565b604082019050919050565b6000602082019050818103600083015261567181615635565b9050919050565b7f4552433732313a206d696e7420746f20746865207a65726f2061646472657373600082015250565b60006156ae6020836136ae565b91506156b982615678565b602082019050919050565b600060208201905081810360008301526156dd816156a1565b9050919050565b7f4552433732313a20746f6b656e20616c7265616479206d696e74656400000000600082015250565b600061571a601c836136ae565b9150615725826156e4565b602082019050919050565b600060208201905081810360008301526157498161570d565b905091905056fea26469706673582212209c00154bfb3380785e79958f3d1e9324b501d52d9a64b4bf9ed223672a05e70064736f6c63430008140033697066733a2f2f516d504e535a326a6751744c6e6b343645614376636d3557513331505a444d6543746774506662426274424d7378697066733a2f2f516d5773647a74576d7058663868697547583870387358646e364b364a367a577557574d63676161365461503248697066733a2f2f516d5a316847564b556a596e4e7a77626a4a775641616b4657684458356e317144574a36525a6765724478324c4a697066733a2f2f516d59515352785556326646774b63583939513868697876796332417354454a74355447775a5445524432645851",
  "linkReferences": {},
  "deployedLinkReferences": {}
}