{
  "_format": "hh-sol-artifact-1",
  "contractName": "LingoNFT",
  "sourceName": "contracts/LingoNFT.sol",
  "abi": [
    {
      "inputs": [],
      "stateMutability": "nonpayable",
      "type": "constructor"
    },
    {
      "inputs": [],
      "name": "InvalidShortString",
      "type": "error"
    },
    {
      "inputs": [
        {
          "internalType": "string",
          "name": "str",
          "type": "string"
        }
      ],
      "name": "StringTooLong",
      "type": "error"
    },
    {
      "anonymous": false,
      "inputs": [
        {
          "indexed": true,
          "internalType": "address",
          "name": "owner",
          "type": "address"
        },
        {
          "indexed": true,
          "internalType": "address",
          "name": "approved",
          "type": "address"
        },
        {
          "indexed": true,
          "internalType": "uint256",
          "name": "tokenId",
          "type": "uint256"
        }
      ],
      "name": "Approval",
      "type": "event"
    },
    {
      "anonymous": false,
      "inputs": [
        {
          "indexed": true,
          "internalType": "address",
          "name": "owner",
          "type": "address"
        },
        {
          "indexed": true,
          "internalType": "address",
          "name": "operator",
          "type": "address"
        },
        {
          "indexed": false,
          "internalType": "bool",
          "name": "approved",
          "type": "bool"
        }
      ],
      "name": "ApprovalForAll",
      "type": "event"
    },
    {
      "anonymous": false,
      "inputs": [],
      "name": "EIP712DomainChanged",
      "type": "event"
    },
    {
      "anonymous": false,
      "inputs": [
        {
          "indexed": true,
          "internalType": "address",
          "name": "previousOwner",
          "type": "address"
        },
        {
          "indexed": true,
          "internalType": "address",
          "name": "newOwner",
          "type": "address"
        }
      ],
      "name": "OwnershipTransferred",
      "type": "event"
    },
    {
      "anonymous": false,
      "inputs": [
        {
          "indexed": true,
          "internalType": "address",
          "name": "from",
          "type": "address"
        },
        {
          "indexed": true,
          "internalType": "address",
          "name": "to",
          "type": "address"
        },
        {
          "indexed": true,
          "internalType": "uint256",
          "name": "tokenId",
          "type": "uint256"
        }
      ],
      "name": "Transfer",
      "type": "event"
    },
    {
      "inputs": [
        {
          "internalType": "address[]",
          "name": "recipients",
          "type": "address[]"
        },
        {
          "internalType": "enum LingoNFT.Tier",
          "name": "tier",
          "type": "uint8"
        }
      ],
      "name": "airdropNFT",
      "outputs": [],
      "stateMutability": "nonpayable",
      "type": "function"
    },
    {
      "inputs": [
        {
          "internalType": "address",
          "name": "to",
          "type": "address"
        },
        {
          "internalType": "uint256",
          "name": "tokenId",
          "type": "uint256"
        }
      ],
      "name": "approve",
      "outputs": [],
      "stateMutability": "nonpayable",
      "type": "function"
    },
    {
      "inputs": [
        {
          "internalType": "address",
          "name": "owner",
          "type": "address"
        }
      ],
      "name": "balanceOf",
      "outputs": [
        {
          "internalType": "uint256",
          "name": "",
          "type": "uint256"
        }
      ],
      "stateMutability": "view",
      "type": "function"
    },
    {
      "inputs": [],
      "name": "eip712Domain",
      "outputs": [
        {
          "internalType": "bytes1",
          "name": "fields",
          "type": "bytes1"
        },
        {
          "internalType": "string",
          "name": "name",
          "type": "string"
        },
        {
          "internalType": "string",
          "name": "version",
          "type": "string"
        },
        {
          "internalType": "uint256",
          "name": "chainId",
          "type": "uint256"
        },
        {
          "internalType": "address",
          "name": "verifyingContract",
          "type": "address"
        },
        {
          "internalType": "bytes32",
          "name": "salt",
          "type": "bytes32"
        },
        {
          "internalType": "uint256[]",
          "name": "extensions",
          "type": "uint256[]"
        }
      ],
      "stateMutability": "view",
      "type": "function"
    },
    {
      "inputs": [],
      "name": "firstClassMintPrice",
      "outputs": [
        {
          "internalType": "uint256",
          "name": "",
          "type": "uint256"
        }
      ],
      "stateMutability": "view",
      "type": "function"
    },
    {
      "inputs": [
        {
          "internalType": "uint256",
          "name": "tokenId",
          "type": "uint256"
        }
      ],
      "name": "getApproved",
      "outputs": [
        {
          "internalType": "address",
          "name": "",
          "type": "address"
        }
      ],
      "stateMutability": "view",
      "type": "function"
    },
    {
      "inputs": [],
      "name": "getCurrentTimestamp",
      "outputs": [
        {
          "internalType": "uint256",
          "name": "",
          "type": "uint256"
        }
      ],
      "stateMutability": "view",
      "type": "function"
    },
    {
      "inputs": [],
      "name": "getDomainSeperator",
      "outputs": [
        {
          "internalType": "bytes32",
          "name": "",
          "type": "bytes32"
        }
      ],
      "stateMutability": "view",
      "type": "function"
    },
    {
      "inputs": [],
      "name": "getFirstClassSupply",
      "outputs": [
        {
          "internalType": "uint256",
          "name": "",
          "type": "uint256"
        }
      ],
      "stateMutability": "view",
      "type": "function"
    },
    {
      "inputs": [],
      "name": "getSaleStartTime",
      "outputs": [
        {
          "internalType": "uint256",
          "name": "",
          "type": "uint256"
        }
      ],
      "stateMutability": "view",
      "type": "function"
    },
    {
      "inputs": [
        {
          "internalType": "enum LingoNFT.Tier",
          "name": "tier",
          "type": "uint8"
        }
      ],
      "name": "getTierURI",
      "outputs": [
        {
          "internalType": "string",
          "name": "",
          "type": "string"
        }
      ],
      "stateMutability": "view",
      "type": "function"
    },
    {
      "inputs": [],
      "name": "getTotalSupply",
      "outputs": [
        {
          "internalType": "uint256",
          "name": "",
          "type": "uint256"
        }
      ],
      "stateMutability": "view",
      "type": "function"
    },
    {
      "inputs": [
        {
          "internalType": "address",
          "name": "account",
          "type": "address"
        },
        {
          "internalType": "enum LingoNFT.Tier",
          "name": "tier",
          "type": "uint8"
        }
      ],
      "name": "hasMinted",
      "outputs": [
        {
          "internalType": "bool",
          "name": "",
          "type": "bool"
        }
      ],
      "stateMutability": "view",
      "type": "function"
    },
    {
      "inputs": [
        {
          "internalType": "address",
          "name": "owner",
          "type": "address"
        },
        {
          "internalType": "address",
          "name": "operator",
          "type": "address"
        }
      ],
      "name": "isApprovedForAll",
      "outputs": [
        {
          "internalType": "bool",
          "name": "",
          "type": "bool"
        }
      ],
      "stateMutability": "view",
      "type": "function"
    },
    {
      "inputs": [],
      "name": "maxFirstClassSupply",
      "outputs": [
        {
          "internalType": "uint256",
          "name": "",
          "type": "uint256"
        }
      ],
      "stateMutability": "view",
      "type": "function"
    },
    {
      "inputs": [
        {
          "internalType": "enum LingoNFT.Tier",
          "name": "tier",
          "type": "uint8"
        },
        {
          "internalType": "bytes32",
          "name": "r",
          "type": "bytes32"
        },
        {
          "internalType": "bytes32",
          "name": "s",
          "type": "bytes32"
        },
        {
          "internalType": "uint8",
          "name": "v",
          "type": "uint8"
        }
      ],
      "name": "mintEconomyBusinessClassNFT",
      "outputs": [],
      "stateMutability": "nonpayable",
      "type": "function"
    },
    {
      "inputs": [
        {
          "internalType": "enum LingoNFT.Tier",
          "name": "tier",
          "type": "uint8"
        },
        {
          "internalType": "bytes32",
          "name": "r",
          "type": "bytes32"
        },
        {
          "internalType": "bytes32",
          "name": "s",
          "type": "bytes32"
        },
        {
          "internalType": "uint8",
          "name": "v",
          "type": "uint8"
        }
      ],
      "name": "mintFirstClassNFT",
      "outputs": [],
      "stateMutability": "payable",
      "type": "function"
    },
    {
      "inputs": [
        {
          "internalType": "address[]",
          "name": "recipients",
          "type": "address[]"
        }
      ],
      "name": "mintPrivateJetNFT",
      "outputs": [],
      "stateMutability": "nonpayable",
      "type": "function"
    },
    {
      "inputs": [],
      "name": "mintSigner",
      "outputs": [
        {
          "internalType": "address",
          "name": "",
          "type": "address"
        }
      ],
      "stateMutability": "view",
      "type": "function"
    },
    {
      "inputs": [],
      "name": "name",
      "outputs": [
        {
          "internalType": "string",
          "name": "",
          "type": "string"
        }
      ],
      "stateMutability": "view",
      "type": "function"
    },
    {
      "inputs": [],
      "name": "owner",
      "outputs": [
        {
          "internalType": "address",
          "name": "",
          "type": "address"
        }
      ],
      "stateMutability": "view",
      "type": "function"
    },
    {
      "inputs": [
        {
          "internalType": "uint256",
          "name": "tokenId",
          "type": "uint256"
        }
      ],
      "name": "ownerOf",
      "outputs": [
        {
          "internalType": "address",
          "name": "",
          "type": "address"
        }
      ],
      "stateMutability": "view",
      "type": "function"
    },
    {
      "inputs": [],
      "name": "renounceOwnership",
      "outputs": [],
      "stateMutability": "nonpayable",
      "type": "function"
    },
    {
      "inputs": [
        {
          "internalType": "address",
          "name": "from",
          "type": "address"
        },
        {
          "internalType": "address",
          "name": "to",
          "type": "address"
        },
        {
          "internalType": "uint256",
          "name": "tokenId",
          "type": "uint256"
        }
      ],
      "name": "safeTransferFrom",
      "outputs": [],
      "stateMutability": "nonpayable",
      "type": "function"
    },
    {
      "inputs": [
        {
          "internalType": "address",
          "name": "from",
          "type": "address"
        },
        {
          "internalType": "address",
          "name": "to",
          "type": "address"
        },
        {
          "internalType": "uint256",
          "name": "tokenId",
          "type": "uint256"
        },
        {
          "internalType": "bytes",
          "name": "data",
          "type": "bytes"
        }
      ],
      "name": "safeTransferFrom",
      "outputs": [],
      "stateMutability": "nonpayable",
      "type": "function"
    },
    {
      "inputs": [],
      "name": "saleStartTime",
      "outputs": [
        {
          "internalType": "uint256",
          "name": "",
          "type": "uint256"
        }
      ],
      "stateMutability": "view",
      "type": "function"
    },
    {
      "inputs": [
        {
          "internalType": "address",
          "name": "operator",
          "type": "address"
        },
        {
          "internalType": "bool",
          "name": "approved",
          "type": "bool"
        }
      ],
      "name": "setApprovalForAll",
      "outputs": [],
      "stateMutability": "nonpayable",
      "type": "function"
    },
    {
      "inputs": [
        {
          "internalType": "uint256",
          "name": "_price",
          "type": "uint256"
        }
      ],
      "name": "setFirstClassMintPrice",
      "outputs": [],
      "stateMutability": "nonpayable",
      "type": "function"
    },
    {
      "inputs": [
        {
          "internalType": "uint256",
          "name": "_maxSupply",
          "type": "uint256"
        }
      ],
      "name": "setMaxFirstClassSupply",
      "outputs": [],
      "stateMutability": "nonpayable",
      "type": "function"
    },
    {
      "inputs": [
        {
          "internalType": "address",
          "name": "_signer",
          "type": "address"
        }
      ],
      "name": "setMintSigner",
      "outputs": [],
      "stateMutability": "nonpayable",
      "type": "function"
    },
    {
      "inputs": [
        {
          "internalType": "uint256",
          "name": "_startDate",
          "type": "uint256"
        }
      ],
      "name": "setSaleStartTime",
      "outputs": [],
      "stateMutability": "nonpayable",
      "type": "function"
    },
    {
      "inputs": [
        {
          "internalType": "enum LingoNFT.Tier",
          "name": "tier",
          "type": "uint8"
        },
        {
          "internalType": "string",
          "name": "uri",
          "type": "string"
        }
      ],
      "name": "setTierURI",
      "outputs": [],
      "stateMutability": "nonpayable",
      "type": "function"
    },
    {
      "inputs": [
        {
          "internalType": "bytes4",
          "name": "interfaceId",
          "type": "bytes4"
        }
      ],
      "name": "supportsInterface",
      "outputs": [
        {
          "internalType": "bool",
          "name": "",
          "type": "bool"
        }
      ],
      "stateMutability": "view",
      "type": "function"
    },
    {
      "inputs": [],
      "name": "symbol",
      "outputs": [
        {
          "internalType": "string",
          "name": "",
          "type": "string"
        }
      ],
      "stateMutability": "view",
      "type": "function"
    },
    {
      "inputs": [
        {
          "internalType": "uint256",
          "name": "tokenId",
          "type": "uint256"
        }
      ],
      "name": "tokenURI",
      "outputs": [
        {
          "internalType": "string",
          "name": "",
          "type": "string"
        }
      ],
      "stateMutability": "view",
      "type": "function"
    },
    {
      "inputs": [
        {
          "internalType": "address",
          "name": "from",
          "type": "address"
        },
        {
          "internalType": "address",
          "name": "to",
          "type": "address"
        },
        {
          "internalType": "uint256",
          "name": "tokenId",
          "type": "uint256"
        }
      ],
      "name": "transferFrom",
      "outputs": [],
      "stateMutability": "nonpayable",
      "type": "function"
    },
    {
      "inputs": [
        {
          "internalType": "address",
          "name": "newOwner",
          "type": "address"
        }
      ],
      "name": "transferOwnership",
      "outputs": [],
      "stateMutability": "nonpayable",
      "type": "function"
    },
    {
      "inputs": [],
      "name": "withdraw",
      "outputs": [],
      "stateMutability": "nonpayable",
      "type": "function"
    }
  ],
  "bytecode": "0x6101606040526000600a553480156200001757600080fd5b506040518060400160405280600981526020017f4c696e676f204e465400000000000000000000000000000000000000000000008152506040518060400160405280600181526020017f31000000000000000000000000000000000000000000000000000000000000008152506040518060400160405280600981526020017f4c696e676f204e465400000000000000000000000000000000000000000000008152506040518060400160405280600481526020017f4c494e4700000000000000000000000000000000000000000000000000000000815250816000908162000101919062000802565b50806001908162000113919062000802565b5050506200012c6006836200038e60201b90919060201c565b61012081815250506200014a6007826200038e60201b90919060201c565b6101408181525050818051906020012060e08181525050808051906020012061010081815250504660a0818152505062000189620003e660201b60201c565b608081815250503073ffffffffffffffffffffffffffffffffffffffff1660c08173ffffffffffffffffffffffffffffffffffffffff16815250505050620001e6620001da6200044360201b60201c565b6200044b60201b60201c565b6001600981905550604051806060016040528060358152602001620063e66035913960116000806003811115620002225762000221620008e9565b5b6003811115620002375762000236620008e9565b5b8152602001908152602001600020908162000253919062000802565b506040518060600160405280603581526020016200641b603591396011600060016003811115620002895762000288620008e9565b5b60038111156200029e576200029d620008e9565b5b81526020019081526020016000209081620002ba919062000802565b50604051806060016040528060358152602001620063b1603591396011600060026003811115620002f057620002ef620008e9565b5b6003811115620003055762000304620008e9565b5b8152602001908152602001600020908162000321919062000802565b506040518060600160405280603581526020016200637c6035913960116000600380811115620003565762000355620008e9565b5b60038111156200036b576200036a620008e9565b5b8152602001908152602001600020908162000387919062000802565b5062000b3b565b6000602083511015620003b457620003ac836200051160201b60201c565b9050620003e0565b82620003c6836200057e60201b60201c565b6000019081620003d7919062000802565b5060ff60001b90505b92915050565b60007f8b73c3c69bb8fe3d512ecc4cf759cc79239f7b179b0ffacaa9a75d522b39400f60e0516101005146306040516020016200042895949392919062000989565b60405160208183030381529060405280519060200120905090565b600033905090565b6000600860009054906101000a900473ffffffffffffffffffffffffffffffffffffffff16905081600860006101000a81548173ffffffffffffffffffffffffffffffffffffffff021916908373ffffffffffffffffffffffffffffffffffffffff1602179055508173ffffffffffffffffffffffffffffffffffffffff168173ffffffffffffffffffffffffffffffffffffffff167f8be0079c531659141344cd1fd0a4f28419497f9722a3daafe3b4186f6b6457e060405160405180910390a35050565b600080829050601f815111156200056157826040517f305a27a900000000000000000000000000000000000000000000000000000000815260040162000558919062000a75565b60405180910390fd5b8051816200056f9062000acb565b60001c1760001b915050919050565b6000819050919050565b600081519050919050565b7f4e487b7100000000000000000000000000000000000000000000000000000000600052604160045260246000fd5b7f4e487b7100000000000000000000000000000000000000000000000000000000600052602260045260246000fd5b600060028204905060018216806200060a57607f821691505b60208210810362000620576200061f620005c2565b5b50919050565b60008190508160005260206000209050919050565b60006020601f8301049050919050565b600082821b905092915050565b6000600883026200068a7fffffffffffffffffffffffffffffffffffffffffffffffffffffffffffffffff826200064b565b6200069686836200064b565b95508019841693508086168417925050509392505050565b6000819050919050565b6000819050919050565b6000620006e3620006dd620006d784620006ae565b620006b8565b620006ae565b9050919050565b6000819050919050565b620006ff83620006c2565b620007176200070e82620006ea565b84845462000658565b825550505050565b600090565b6200072e6200071f565b6200073b818484620006f4565b505050565b5b8181101562000763576200075760008262000724565b60018101905062000741565b5050565b601f821115620007b2576200077c8162000626565b62000787846200063b565b8101602085101562000797578190505b620007af620007a6856200063b565b83018262000740565b50505b505050565b600082821c905092915050565b6000620007d760001984600802620007b7565b1980831691505092915050565b6000620007f28383620007c4565b9150826002028217905092915050565b6200080d8262000588565b67ffffffffffffffff81111562000829576200082862000593565b5b620008358254620005f1565b6200084282828562000767565b600060209050601f8311600181146200087a576000841562000865578287015190505b620008718582620007e4565b865550620008e1565b601f1984166200088a8662000626565b60005b82811015620008b4578489015182556001820191506020850194506020810190506200088d565b86831015620008d45784890151620008d0601f891682620007c4565b8355505b6001600288020188555050505b505050505050565b7f4e487b7100000000000000000000000000000000000000000000000000000000600052602160045260246000fd5b6000819050919050565b6200092d8162000918565b82525050565b6200093e81620006ae565b82525050565b600073ffffffffffffffffffffffffffffffffffffffff82169050919050565b6000620009718262000944565b9050919050565b620009838162000964565b82525050565b600060a082019050620009a0600083018862000922565b620009af602083018762000922565b620009be604083018662000922565b620009cd606083018562000933565b620009dc608083018462000978565b9695505050505050565b600082825260208201905092915050565b60005b8381101562000a17578082015181840152602081019050620009fa565b60008484015250505050565b6000601f19601f8301169050919050565b600062000a418262000588565b62000a4d8185620009e6565b935062000a5f818560208601620009f7565b62000a6a8162000a23565b840191505092915050565b6000602082019050818103600083015262000a91818462000a34565b905092915050565b600081519050919050565b6000819050602082019050919050565b600062000ac2825162000918565b80915050919050565b600062000ad88262000a99565b8262000ae48462000aa4565b905062000af18162000ab4565b9250602082101562000b345762000b2f7fffffffffffffffffffffffffffffffffffffffffffffffffffffffffffffffff836020036008026200064b565b831692505b5050919050565b60805160a05160c05160e0516101005161012051610140516157e662000b9660003960006111ed015260006111b901526000612e8f01526000612e6e015260006125c2015260006126180152600061264101526157e66000f3fe6080604052600436106102255760003560e01c806384b0196e11610123578063c87b56dd116100ab578063f2fde38b1161006f578063f2fde38b146107ea578063f3ad4c1f14610813578063f3e997e91461083e578063fc2418fe14610867578063ff97f6601461089257610225565b8063c87b56dd14610700578063da1642cb1461073d578063e84a972814610759578063e985e9c514610782578063f17af48d146107bf57610225565b8063b88d4fde116100f2578063b88d4fde1461062f578063bb7c7cd014610658578063c2b1ddaf14610681578063c4e41b22146106ac578063c5f50a47146106d757610225565b806384b0196e1461057f5780638da5cb5b146105b057806395d89b41146105db578063a22cb4651461060657610225565b806329caa756116101b15780635b1f4bd7116101755780635b1f4bd7146104985780636352211e146104c35780636c9230db1461050057806370a082311461052b578063715018a61461056857610225565b806329caa756146103dd578063333e972d146104065780633ccfd60b1461042f57806342842e0e14610446578063525f8a5c1461046f57610225565b80630ddd124d116101f85780630ddd124d146102f85780631cbaee2d1461032157806320379ee51461034c57806323b872dd1461037757806327af03aa146103a057610225565b806301ffc9a71461022a57806306fdde0314610267578063081812fc14610292578063095ea7b3146102cf575b600080fd5b34801561023657600080fd5b50610251600480360381019061024c9190613685565b6108cf565b60405161025e91906136cd565b60405180910390f35b34801561027357600080fd5b5061027c6109b1565b6040516102899190613778565b60405180910390f35b34801561029e57600080fd5b506102b960048036038101906102b491906137d0565b610a43565b6040516102c6919061383e565b60405180910390f35b3480156102db57600080fd5b506102f660048036038101906102f19190613885565b610a89565b005b34801561030457600080fd5b5061031f600480360381019061031a919061392a565b610ba0565b005b34801561032d57600080fd5b50610336610ce1565b6040516103439190613986565b60405180910390f35b34801561035857600080fd5b50610361610ce7565b60405161036e91906139ba565b60405180910390f35b34801561038357600080fd5b5061039e600480360381019061039991906139d5565b610cf6565b005b3480156103ac57600080fd5b506103c760048036038101906103c29190613a4d565b610d56565b6040516103d49190613778565b60405180910390f35b3480156103e957600080fd5b5061040460048036038101906103ff91906137d0565b610e1f565b005b34801561041257600080fd5b5061042d60048036038101906104289190613ad0565b610e74565b005b34801561043b57600080fd5b50610444610f0e565b005b34801561045257600080fd5b5061046d600480360381019061046891906139d5565b611015565b005b34801561047b57600080fd5b50610496600480360381019061049191906137d0565b611035565b005b3480156104a457600080fd5b506104ad611047565b6040516104ba9190613986565b60405180910390f35b3480156104cf57600080fd5b506104ea60048036038101906104e591906137d0565b61104d565b6040516104f7919061383e565b60405180910390f35b34801561050c57600080fd5b506105156110d3565b6040516105229190613986565b60405180910390f35b34801561053757600080fd5b50610552600480360381019061054d9190613b30565b6110db565b60405161055f9190613986565b60405180910390f35b34801561057457600080fd5b5061057d611192565b005b34801561058b57600080fd5b506105946111a6565b6040516105a79796959493929190613c56565b60405180910390f35b3480156105bc57600080fd5b506105c56112a8565b6040516105d2919061383e565b60405180910390f35b3480156105e757600080fd5b506105f06112d2565b6040516105fd9190613778565b60405180910390f35b34801561061257600080fd5b5061062d60048036038101906106289190613d06565b611364565b005b34801561063b57600080fd5b5061065660048036038101906106519190613e76565b61137a565b005b34801561066457600080fd5b5061067f600480360381019061067a9190613ef9565b6113dc565b005b34801561068d57600080fd5b50610696611580565b6040516106a39190613986565b60405180910390f35b3480156106b857600080fd5b506106c161158a565b6040516106ce9190613986565b60405180910390f35b3480156106e357600080fd5b506106fe60048036038101906106f99190613fbe565b611594565b005b34801561070c57600080fd5b50610727600480360381019061072291906137d0565b611979565b6040516107349190613778565b60405180910390f35b61075760048036038101906107529190613fbe565b611a66565b005b34801561076557600080fd5b50610780600480360381019061077b9190613b30565b611ea7565b005b34801561078e57600080fd5b506107a960048036038101906107a49190614025565b611f62565b6040516107b691906136cd565b60405180910390f35b3480156107cb57600080fd5b506107d4611ff6565b6040516107e1919061383e565b60405180910390f35b3480156107f657600080fd5b50610811600480360381019061080c9190613b30565b61201c565b005b34801561081f57600080fd5b5061082861209f565b6040516108359190613986565b60405180910390f35b34801561084a57600080fd5b50610865600480360381019061086091906137d0565b6120a5565b005b34801561087357600080fd5b5061087c6120fa565b6040516108899190613986565b60405180910390f35b34801561089e57600080fd5b506108b960048036038101906108b49190614065565b612104565b6040516108c691906136cd565b60405180910390f35b60007f80ac58cd000000000000000000000000000000000000000000000000000000007bffffffffffffffffffffffffffffffffffffffffffffffffffffffff1916827bffffffffffffffffffffffffffffffffffffffffffffffffffffffff1916148061099a57507f5b5e139f000000000000000000000000000000000000000000000000000000007bffffffffffffffffffffffffffffffffffffffffffffffffffffffff1916827bffffffffffffffffffffffffffffffffffffffffffffffffffffffff1916145b806109aa57506109a982612190565b5b9050919050565b6060600080546109c0906140d4565b80601f01602080910402602001604051908101604052809291908181526020018280546109ec906140d4565b8015610a395780601f10610a0e57610100808354040283529160200191610a39565b820191906000526020600020905b815481529060010190602001808311610a1c57829003601f168201915b5050505050905090565b6000610a4e826121fa565b6004600083815260200190815260200160002060009054906101000a900473ffffffffffffffffffffffffffffffffffffffff169050919050565b6000610a948261104d565b90508073ffffffffffffffffffffffffffffffffffffffff168373ffffffffffffffffffffffffffffffffffffffff1603610b04576040517f08c379a0000000000000000000000000000000000000000000000000000000008152600401610afb90614177565b60405180910390fd5b8073ffffffffffffffffffffffffffffffffffffffff16610b23612245565b73ffffffffffffffffffffffffffffffffffffffff161480610b525750610b5181610b4c612245565b611f62565b5b610b91576040517f08c379a0000000000000000000000000000000000000000000000000000000008152600401610b8890614209565b60405180910390fd5b610b9b838361224d565b505050565b610ba8612306565b610bb0612355565b600080600090505b83839050811015610cd357610bcb6123d3565b9150610cc0848483818110610be357610be2614229565b5b9050602002016020810190610bf89190613b30565b8360116000600380811115610c1057610c0f614258565b5b6003811115610c2257610c21614258565b5b81526020019081526020016000208054610c3b906140d4565b80601f0160208091040260200160405190810160405280929190818152602001828054610c67906140d4565b8015610cb45780601f10610c8957610100808354040283529160200191610cb4565b820191906000526020600020905b815481529060010190602001808311610c9757829003601f168201915b505050505060036123e2565b8080610ccb906142b6565b915050610bb8565b5050610cdd6125b4565b5050565b600a5481565b6000610cf16125be565b905090565b610d07610d01612245565b82612675565b610d46576040517f08c379a0000000000000000000000000000000000000000000000000000000008152600401610d3d90614370565b60405180910390fd5b610d5183838361270a565b505050565b606060116000836003811115610d6f57610d6e614258565b5b6003811115610d8157610d80614258565b5b81526020019081526020016000208054610d9a906140d4565b80601f0160208091040260200160405190810160405280929190818152602001828054610dc6906140d4565b8015610e135780601f10610de857610100808354040283529160200191610e13565b820191906000526020600020905b815481529060010190602001808311610df657829003601f168201915b50505050509050919050565b610e27612355565b60008111610e6a576040517f08c379a0000000000000000000000000000000000000000000000000000000008152600401610e61906143dc565b60405180910390fd5b80600c8190555050565b610e7c612355565b60008282905011610ec2576040517f08c379a0000000000000000000000000000000000000000000000000000000008152600401610eb990614448565b60405180910390fd5b818160116000866003811115610edb57610eda614258565b5b6003811115610eed57610eec614258565b5b81526020019081526020016000209182610f0892919061461f565b50505050565b610f16612355565b600047905060008111610f5e576040517f08c379a0000000000000000000000000000000000000000000000000000000008152600401610f559061473b565b60405180910390fd5b6000610f686112a8565b73ffffffffffffffffffffffffffffffffffffffff1682604051610f8b9061478c565b60006040518083038185875af1925050503d8060008114610fc8576040519150601f19603f3d011682016040523d82523d6000602084013e610fcd565b606091505b5050905080611011576040517f08c379a0000000000000000000000000000000000000000000000000000000008152600401611008906147ed565b60405180910390fd5b5050565b6110308383836040518060200160405280600081525061137a565b505050565b61103d612355565b80600a8190555050565b600c5481565b60008061105983612a03565b9050600073ffffffffffffffffffffffffffffffffffffffff168173ffffffffffffffffffffffffffffffffffffffff16036110ca576040517f08c379a00000000000000000000000000000000000000000000000000000000081526004016110c190614859565b60405180910390fd5b80915050919050565b600042905090565b60008073ffffffffffffffffffffffffffffffffffffffff168273ffffffffffffffffffffffffffffffffffffffff160361114b576040517f08c379a0000000000000000000000000000000000000000000000000000000008152600401611142906148eb565b60405180910390fd5b600360008373ffffffffffffffffffffffffffffffffffffffff1673ffffffffffffffffffffffffffffffffffffffff168152602001908152602001600020549050919050565b61119a612355565b6111a46000612a40565b565b6000606080600080600060606111e660067f0000000000000000000000000000000000000000000000000000000000000000612b0690919063ffffffff16565b61121a60077f0000000000000000000000000000000000000000000000000000000000000000612b0690919063ffffffff16565b46306000801b600067ffffffffffffffff81111561123b5761123a613d4b565b5b6040519080825280602002602001820160405280156112695781602001602082028036833780820191505090505b507f0f00000000000000000000000000000000000000000000000000000000000000959493929190965096509650965096509650965090919293949596565b6000600860009054906101000a900473ffffffffffffffffffffffffffffffffffffffff16905090565b6060600180546112e1906140d4565b80601f016020809104026020016040519081016040528092919081815260200182805461130d906140d4565b801561135a5780601f1061132f5761010080835404028352916020019161135a565b820191906000526020600020905b81548152906001019060200180831161133d57829003601f168201915b5050505050905090565b61137661136f612245565b8383612bb6565b5050565b61138b611385612245565b83612675565b6113ca576040517f08c379a00000000000000000000000000000000000000000000000000000000081526004016113c190614370565b60405180910390fd5b6113d684848484612d22565b50505050565b6113e4612306565b6113ec612355565b6003808111156113ff576113fe614258565b5b81600381111561141257611411614258565b5b03611452576040517f08c379a000000000000000000000000000000000000000000000000000000000815260040161144990614957565b60405180910390fd5b60005b8383905081101561157257600061146a6123d3565b905061155e85858481811061148257611481614229565b5b90506020020160208101906114979190613b30565b82601160008760038111156114af576114ae614258565b5b60038111156114c1576114c0614258565b5b815260200190815260200160002080546114da906140d4565b80601f0160208091040260200160405190810160405280929190818152602001828054611506906140d4565b80156115535780601f1061152857610100808354040283529160200191611553565b820191906000526020600020905b81548152906001019060200180831161153657829003601f168201915b5050505050866123e2565b50808061156a906142b6565b915050611455565b5061157b6125b4565b505050565b6000600a54905090565b6000600f54905090565b61159c612306565b6000600a54141580156115b15750600a544210155b6115f0576040517f08c379a00000000000000000000000000000000000000000000000000000000081526004016115e7906149c3565b60405180910390fd5b6000600381111561160457611603614258565b5b84600381111561161757611616614258565b5b148061164757506001600381111561163257611631614258565b5b84600381111561164557611644614258565b5b145b611686576040517f08c379a000000000000000000000000000000000000000000000000000000000815260040161167d90614957565b60405180910390fd5b601260003373ffffffffffffffffffffffffffffffffffffffff1673ffffffffffffffffffffffffffffffffffffffff16815260200190815260200160002060008560038111156116da576116d9614258565b5b60038111156116ec576116eb614258565b5b815260200190815260200160002060009054906101000a900460ff1615611748576040517f08c379a000000000000000000000000000000000000000000000000000000000815260040161173f90614a2f565b60405180910390fd5b600060405180604001604052803373ffffffffffffffffffffffffffffffffffffffff16815260200186600381111561178457611783614258565b5b815250905060007f46f4e767a8259e68d4629e440e95fd281001bab9e44421b91129c495ca9b9636826000015183602001516040516020016117c893929190614a97565b60405160208183030381529060405280519060200120905060006117f36117ed6125be565b83612d7e565b9050600b60009054906101000a900473ffffffffffffffffffffffffffffffffffffffff1673ffffffffffffffffffffffffffffffffffffffff1661183a82868989612dbf565b73ffffffffffffffffffffffffffffffffffffffff1614611890576040517f08c379a000000000000000000000000000000000000000000000000000000000815260040161188790614b1a565b60405180910390fd5b600061189a6123d3565b90506119673382601160008c60038111156118b8576118b7614258565b5b60038111156118ca576118c9614258565b5b815260200190815260200160002080546118e3906140d4565b80601f016020809104026020016040519081016040528092919081815260200182805461190f906140d4565b801561195c5780601f106119315761010080835404028352916020019161195c565b820191906000526020600020905b81548152906001019060200180831161193f57829003601f168201915b50505050508b6123e2565b505050506119736125b4565b50505050565b606061198482612dea565b6119c3576040517f08c379a00000000000000000000000000000000000000000000000000000000081526004016119ba90614b86565b60405180910390fd5b6010600083815260200190815260200160002080546119e1906140d4565b80601f0160208091040260200160405190810160405280929190818152602001828054611a0d906140d4565b8015611a5a5780601f10611a2f57610100808354040283529160200191611a5a565b820191906000526020600020905b815481529060010190602001808311611a3d57829003601f168201915b50505050509050919050565b611a6e612306565b6000600a5414158015611a835750600a544210155b611ac2576040517f08c379a0000000000000000000000000000000000000000000000000000000008152600401611ab9906149c3565b60405180910390fd5b60026003811115611ad657611ad5614258565b5b846003811115611ae957611ae8614258565b5b14611b29576040517f08c379a0000000000000000000000000000000000000000000000000000000008152600401611b2090614c18565b60405180910390fd5b600c543414611b6d576040517f08c379a0000000000000000000000000000000000000000000000000000000008152600401611b6490614c84565b60405180910390fd5b601260003373ffffffffffffffffffffffffffffffffffffffff1673ffffffffffffffffffffffffffffffffffffffff168152602001908152602001600020600060026003811115611bc257611bc1614258565b5b6003811115611bd457611bd3614258565b5b815260200190815260200160002060009054906101000a900460ff1615611c30576040517f08c379a0000000000000000000000000000000000000000000000000000000008152600401611c2790614cf0565b60405180910390fd5b600d54600e5410611c76576040517f08c379a0000000000000000000000000000000000000000000000000000000008152600401611c6d90614d5c565b60405180910390fd5b600060405180604001604052803373ffffffffffffffffffffffffffffffffffffffff168152602001866003811115611cb257611cb1614258565b5b815250905060007f46f4e767a8259e68d4629e440e95fd281001bab9e44421b91129c495ca9b963682600001518360200151604051602001611cf693929190614a97565b6040516020818303038152906040528051906020012090506000611d21611d1b6125be565b83612d7e565b9050600b60009054906101000a900473ffffffffffffffffffffffffffffffffffffffff1673ffffffffffffffffffffffffffffffffffffffff16611d6882868989612dbf565b73ffffffffffffffffffffffffffffffffffffffff1614611dbe576040517f08c379a0000000000000000000000000000000000000000000000000000000008152600401611db590614b1a565b60405180910390fd5b6000611dc86123d3565b9050611e953382601160008c6003811115611de657611de5614258565b5b6003811115611df857611df7614258565b5b81526020019081526020016000208054611e11906140d4565b80601f0160208091040260200160405190810160405280929190818152602001828054611e3d906140d4565b8015611e8a5780601f10611e5f57610100808354040283529160200191611e8a565b820191906000526020600020905b815481529060010190602001808311611e6d57829003601f168201915b50505050508b6123e2565b50505050611ea16125b4565b50505050565b611eaf612355565b600073ffffffffffffffffffffffffffffffffffffffff168173ffffffffffffffffffffffffffffffffffffffff1603611f1e576040517f08c379a0000000000000000000000000000000000000000000000000000000008152600401611f1590614dc8565b60405180910390fd5b80600b60006101000a81548173ffffffffffffffffffffffffffffffffffffffff021916908373ffffffffffffffffffffffffffffffffffffffff16021790555050565b6000600560008473ffffffffffffffffffffffffffffffffffffffff1673ffffffffffffffffffffffffffffffffffffffff16815260200190815260200160002060008373ffffffffffffffffffffffffffffffffffffffff1673ffffffffffffffffffffffffffffffffffffffff16815260200190815260200160002060009054906101000a900460ff16905092915050565b600b60009054906101000a900473ffffffffffffffffffffffffffffffffffffffff1681565b612024612355565b600073ffffffffffffffffffffffffffffffffffffffff168173ffffffffffffffffffffffffffffffffffffffff1603612093576040517f08c379a000000000000000000000000000000000000000000000000000000000815260040161208a90614e5a565b60405180910390fd5b61209c81612a40565b50565b600d5481565b6120ad612355565b600081116120f0576040517f08c379a00000000000000000000000000000000000000000000000000000000081526004016120e790614eec565b60405180910390fd5b80600d8190555050565b6000600e54905090565b6000601260008473ffffffffffffffffffffffffffffffffffffffff1673ffffffffffffffffffffffffffffffffffffffff168152602001908152602001600020600083600381111561215a57612159614258565b5b600381111561216c5761216b614258565b5b815260200190815260200160002060009054906101000a900460ff16905092915050565b60007f01ffc9a7000000000000000000000000000000000000000000000000000000007bffffffffffffffffffffffffffffffffffffffffffffffffffffffff1916827bffffffffffffffffffffffffffffffffffffffffffffffffffffffff1916149050919050565b61220381612dea565b612242576040517f08c379a000000000000000000000000000000000000000000000000000000000815260040161223990614859565b60405180910390fd5b50565b600033905090565b816004600083815260200190815260200160002060006101000a81548173ffffffffffffffffffffffffffffffffffffffff021916908373ffffffffffffffffffffffffffffffffffffffff160217905550808273ffffffffffffffffffffffffffffffffffffffff166122c08361104d565b73ffffffffffffffffffffffffffffffffffffffff167f8c5be1e5ebec7d5bd14f71427d1e84f3dd0314c0f7b2291e5b200ac8c7c3b92560405160405180910390a45050565b60026009540361234b576040517f08c379a000000000000000000000000000000000000000000000000000000000815260040161234290614f58565b60405180910390fd5b6002600981905550565b61235d612245565b73ffffffffffffffffffffffffffffffffffffffff1661237b6112a8565b73ffffffffffffffffffffffffffffffffffffffff16146123d1576040517f08c379a00000000000000000000000000000000000000000000000000000000081526004016123c890614fc4565b60405180910390fd5b565b600080600f5490508091505090565b6123eb83612dea565b1561242b576040517f08c379a000000000000000000000000000000000000000000000000000000000815260040161242290615030565b60405180910390fd5b600073ffffffffffffffffffffffffffffffffffffffff168473ffffffffffffffffffffffffffffffffffffffff160361249a576040517f08c379a00000000000000000000000000000000000000000000000000000000081526004016124919061509c565b60405180910390fd5b6001601260003373ffffffffffffffffffffffffffffffffffffffff1673ffffffffffffffffffffffffffffffffffffffff16815260200190815260200160002060008360038111156124f0576124ef614258565b5b600381111561250257612501614258565b5b815260200190815260200160002060006101000a81548160ff0219169083151502179055506001600f5461253691906150bc565b600f819055508160106000858152602001908152602001600020908161255c91906150f0565b506125678484612e2b565b6002600381111561257b5761257a614258565b5b81600381111561258e5761258d614258565b5b036125ae576001600e60008282546125a691906150bc565b925050819055505b50505050565b6001600981905550565b60007f000000000000000000000000000000000000000000000000000000000000000073ffffffffffffffffffffffffffffffffffffffff163073ffffffffffffffffffffffffffffffffffffffff1614801561263a57507f000000000000000000000000000000000000000000000000000000000000000046145b15612667577f00000000000000000000000000000000000000000000000000000000000000009050612672565b61266f612e49565b90505b90565b6000806126818361104d565b90508073ffffffffffffffffffffffffffffffffffffffff168473ffffffffffffffffffffffffffffffffffffffff1614806126c357506126c28185611f62565b5b8061270157508373ffffffffffffffffffffffffffffffffffffffff166126e984610a43565b73ffffffffffffffffffffffffffffffffffffffff16145b91505092915050565b8273ffffffffffffffffffffffffffffffffffffffff1661272a8261104d565b73ffffffffffffffffffffffffffffffffffffffff1614612780576040517f08c379a000000000000000000000000000000000000000000000000000000000815260040161277790615234565b60405180910390fd5b600073ffffffffffffffffffffffffffffffffffffffff168273ffffffffffffffffffffffffffffffffffffffff16036127ef576040517f08c379a00000000000000000000000000000000000000000000000000000000081526004016127e6906152c6565b60405180910390fd5b6127fc8383836001612edf565b8273ffffffffffffffffffffffffffffffffffffffff1661281c8261104d565b73ffffffffffffffffffffffffffffffffffffffff1614612872576040517f08c379a000000000000000000000000000000000000000000000000000000000815260040161286990615234565b60405180910390fd5b6004600082815260200190815260200160002060006101000a81549073ffffffffffffffffffffffffffffffffffffffff02191690556001600360008573ffffffffffffffffffffffffffffffffffffffff1673ffffffffffffffffffffffffffffffffffffffff168152602001908152602001600020600082825403925050819055506001600360008473ffffffffffffffffffffffffffffffffffffffff1673ffffffffffffffffffffffffffffffffffffffff16815260200190815260200160002060008282540192505081905550816002600083815260200190815260200160002060006101000a81548173ffffffffffffffffffffffffffffffffffffffff021916908373ffffffffffffffffffffffffffffffffffffffff160217905550808273ffffffffffffffffffffffffffffffffffffffff168473ffffffffffffffffffffffffffffffffffffffff167fddf252ad1be2c89b69c2b068fc378daa952ba7f163c4a11628f55a4df523b3ef60405160405180910390a46129fe8383836001612ee5565b505050565b60006002600083815260200190815260200160002060009054906101000a900473ffffffffffffffffffffffffffffffffffffffff169050919050565b6000600860009054906101000a900473ffffffffffffffffffffffffffffffffffffffff16905081600860006101000a81548173ffffffffffffffffffffffffffffffffffffffff021916908373ffffffffffffffffffffffffffffffffffffffff1602179055508173ffffffffffffffffffffffffffffffffffffffff168173ffffffffffffffffffffffffffffffffffffffff167f8be0079c531659141344cd1fd0a4f28419497f9722a3daafe3b4186f6b6457e060405160405180910390a35050565b606060ff60001b8314612b2357612b1c83612eeb565b9050612bb0565b818054612b2f906140d4565b80601f0160208091040260200160405190810160405280929190818152602001828054612b5b906140d4565b8015612ba85780601f10612b7d57610100808354040283529160200191612ba8565b820191906000526020600020905b815481529060010190602001808311612b8b57829003601f168201915b505050505090505b92915050565b8173ffffffffffffffffffffffffffffffffffffffff168373ffffffffffffffffffffffffffffffffffffffff1603612c24576040517f08c379a0000000000000000000000000000000000000000000000000000000008152600401612c1b90615332565b60405180910390fd5b80600560008573ffffffffffffffffffffffffffffffffffffffff1673ffffffffffffffffffffffffffffffffffffffff16815260200190815260200160002060008473ffffffffffffffffffffffffffffffffffffffff1673ffffffffffffffffffffffffffffffffffffffff16815260200190815260200160002060006101000a81548160ff0219169083151502179055508173ffffffffffffffffffffffffffffffffffffffff168373ffffffffffffffffffffffffffffffffffffffff167f17307eab39ab6107e8899845ad3d59bd9653f200f220920489ca2b5937696c3183604051612d1591906136cd565b60405180910390a3505050565b612d2d84848461270a565b612d3984848484612f5f565b612d78576040517f08c379a0000000000000000000000000000000000000000000000000000000008152600401612d6f906153c4565b60405180910390fd5b50505050565b60006040517f190100000000000000000000000000000000000000000000000000000000000081528360028201528260228201526042812091505092915050565b6000806000612dd0878787876130e6565b91509150612ddd816131c8565b8192505050949350505050565b60008073ffffffffffffffffffffffffffffffffffffffff16612e0c83612a03565b73ffffffffffffffffffffffffffffffffffffffff1614159050919050565b612e4582826040518060200160405280600081525061332e565b5050565b60007f8b73c3c69bb8fe3d512ecc4cf759cc79239f7b179b0ffacaa9a75d522b39400f7f00000000000000000000000000000000000000000000000000000000000000007f00000000000000000000000000000000000000000000000000000000000000004630604051602001612ec49594939291906153e4565b60405160208183030381529060405280519060200120905090565b50505050565b50505050565b60606000612ef883613389565b90506000602067ffffffffffffffff811115612f1757612f16613d4b565b5b6040519080825280601f01601f191660200182016040528015612f495781602001600182028036833780820191505090505b5090508181528360208201528092505050919050565b6000612f808473ffffffffffffffffffffffffffffffffffffffff166133d9565b156130d9578373ffffffffffffffffffffffffffffffffffffffff1663150b7a02612fa9612245565b8786866040518563ffffffff1660e01b8152600401612fcb949392919061548c565b6020604051808303816000875af192505050801561300757506040513d601f19601f8201168201806040525081019061300491906154ed565b60015b613089573d8060008114613037576040519150601f19603f3d011682016040523d82523d6000602084013e61303c565b606091505b506000815103613081576040517f08c379a0000000000000000000000000000000000000000000000000000000008152600401613078906153c4565b60405180910390fd5b805181602001fd5b63150b7a0260e01b7bffffffffffffffffffffffffffffffffffffffffffffffffffffffff1916817bffffffffffffffffffffffffffffffffffffffffffffffffffffffff1916149150506130de565b600190505b949350505050565b6000807f7fffffffffffffffffffffffffffffff5d576e7357a4501ddfe92f46681b20a08360001c11156131215760006003915091506131bf565b6000600187878787604051600081526020016040526040516131469493929190615529565b6020604051602081039080840390855afa158015613168573d6000803e3d6000fd5b505050602060405103519050600073ffffffffffffffffffffffffffffffffffffffff168173ffffffffffffffffffffffffffffffffffffffff16036131b6576000600192509250506131bf565b80600092509250505b94509492505050565b600060048111156131dc576131db614258565b5b8160048111156131ef576131ee614258565b5b031561332b576001600481111561320957613208614258565b5b81600481111561321c5761321b614258565b5b0361325c576040517f08c379a0000000000000000000000000000000000000000000000000000000008152600401613253906155ba565b60405180910390fd5b600260048111156132705761326f614258565b5b81600481111561328357613282614258565b5b036132c3576040517f08c379a00000000000000000000000000000000000000000000000000000000081526004016132ba90615626565b60405180910390fd5b600360048111156132d7576132d6614258565b5b8160048111156132ea576132e9614258565b5b0361332a576040517f08c379a0000000000000000000000000000000000000000000000000000000008152600401613321906156b8565b60405180910390fd5b5b50565b61333883836133fc565b6133456000848484612f5f565b613384576040517f08c379a000000000000000000000000000000000000000000000000000000000815260040161337b906153c4565b60405180910390fd5b505050565b60008060ff8360001c169050601f8111156133d0576040517fb3512b0c00000000000000000000000000000000000000000000000000000000815260040160405180910390fd5b80915050919050565b6000808273ffffffffffffffffffffffffffffffffffffffff163b119050919050565b600073ffffffffffffffffffffffffffffffffffffffff168273ffffffffffffffffffffffffffffffffffffffff160361346b576040517f08c379a000000000000000000000000000000000000000000000000000000000815260040161346290615724565b60405180910390fd5b61347481612dea565b156134b4576040517f08c379a00000000000000000000000000000000000000000000000000000000081526004016134ab90615790565b60405180910390fd5b6134c2600083836001612edf565b6134cb81612dea565b1561350b576040517f08c379a000000000000000000000000000000000000000000000000000000000815260040161350290615790565b60405180910390fd5b6001600360008473ffffffffffffffffffffffffffffffffffffffff1673ffffffffffffffffffffffffffffffffffffffff16815260200190815260200160002060008282540192505081905550816002600083815260200190815260200160002060006101000a81548173ffffffffffffffffffffffffffffffffffffffff021916908373ffffffffffffffffffffffffffffffffffffffff160217905550808273ffffffffffffffffffffffffffffffffffffffff16600073ffffffffffffffffffffffffffffffffffffffff167fddf252ad1be2c89b69c2b068fc378daa952ba7f163c4a11628f55a4df523b3ef60405160405180910390a4613615600083836001612ee5565b5050565b6000604051905090565b600080fd5b600080fd5b60007fffffffff0000000000000000000000000000000000000000000000000000000082169050919050565b6136628161362d565b811461366d57600080fd5b50565b60008135905061367f81613659565b92915050565b60006020828403121561369b5761369a613623565b5b60006136a984828501613670565b91505092915050565b60008115159050919050565b6136c7816136b2565b82525050565b60006020820190506136e260008301846136be565b92915050565b600081519050919050565b600082825260208201905092915050565b60005b83811015613722578082015181840152602081019050613707565b60008484015250505050565b6000601f19601f8301169050919050565b600061374a826136e8565b61375481856136f3565b9350613764818560208601613704565b61376d8161372e565b840191505092915050565b60006020820190508181036000830152613792818461373f565b905092915050565b6000819050919050565b6137ad8161379a565b81146137b857600080fd5b50565b6000813590506137ca816137a4565b92915050565b6000602082840312156137e6576137e5613623565b5b60006137f4848285016137bb565b91505092915050565b600073ffffffffffffffffffffffffffffffffffffffff82169050919050565b6000613828826137fd565b9050919050565b6138388161381d565b82525050565b6000602082019050613853600083018461382f565b92915050565b6138628161381d565b811461386d57600080fd5b50565b60008135905061387f81613859565b92915050565b6000806040838503121561389c5761389b613623565b5b60006138aa85828601613870565b92505060206138bb858286016137bb565b9150509250929050565b600080fd5b600080fd5b600080fd5b60008083601f8401126138ea576138e96138c5565b5b8235905067ffffffffffffffff811115613907576139066138ca565b5b602083019150836020820283011115613923576139226138cf565b5b9250929050565b6000806020838503121561394157613940613623565b5b600083013567ffffffffffffffff81111561395f5761395e613628565b5b61396b858286016138d4565b92509250509250929050565b6139808161379a565b82525050565b600060208201905061399b6000830184613977565b92915050565b6000819050919050565b6139b4816139a1565b82525050565b60006020820190506139cf60008301846139ab565b92915050565b6000806000606084860312156139ee576139ed613623565b5b60006139fc86828701613870565b9350506020613a0d86828701613870565b9250506040613a1e868287016137bb565b9150509250925092565b60048110613a3557600080fd5b50565b600081359050613a4781613a28565b92915050565b600060208284031215613a6357613a62613623565b5b6000613a7184828501613a38565b91505092915050565b60008083601f840112613a9057613a8f6138c5565b5b8235905067ffffffffffffffff811115613aad57613aac6138ca565b5b602083019150836001820283011115613ac957613ac86138cf565b5b9250929050565b600080600060408486031215613ae957613ae8613623565b5b6000613af786828701613a38565b935050602084013567ffffffffffffffff811115613b1857613b17613628565b5b613b2486828701613a7a565b92509250509250925092565b600060208284031215613b4657613b45613623565b5b6000613b5484828501613870565b91505092915050565b60007fff0000000000000000000000000000000000000000000000000000000000000082169050919050565b613b9281613b5d565b82525050565b600081519050919050565b600082825260208201905092915050565b6000819050602082019050919050565b613bcd8161379a565b82525050565b6000613bdf8383613bc4565b60208301905092915050565b6000602082019050919050565b6000613c0382613b98565b613c0d8185613ba3565b9350613c1883613bb4565b8060005b83811015613c49578151613c308882613bd3565b9750613c3b83613beb565b925050600181019050613c1c565b5085935050505092915050565b600060e082019050613c6b600083018a613b89565b8181036020830152613c7d818961373f565b90508181036040830152613c91818861373f565b9050613ca06060830187613977565b613cad608083018661382f565b613cba60a08301856139ab565b81810360c0830152613ccc8184613bf8565b905098975050505050505050565b613ce3816136b2565b8114613cee57600080fd5b50565b600081359050613d0081613cda565b92915050565b60008060408385031215613d1d57613d1c613623565b5b6000613d2b85828601613870565b9250506020613d3c85828601613cf1565b9150509250929050565b600080fd5b7f4e487b7100000000000000000000000000000000000000000000000000000000600052604160045260246000fd5b613d838261372e565b810181811067ffffffffffffffff82111715613da257613da1613d4b565b5b80604052505050565b6000613db5613619565b9050613dc18282613d7a565b919050565b600067ffffffffffffffff821115613de157613de0613d4b565b5b613dea8261372e565b9050602081019050919050565b82818337600083830152505050565b6000613e19613e1484613dc6565b613dab565b905082815260208101848484011115613e3557613e34613d46565b5b613e40848285613df7565b509392505050565b600082601f830112613e5d57613e5c6138c5565b5b8135613e6d848260208601613e06565b91505092915050565b60008060008060808587031215613e9057613e8f613623565b5b6000613e9e87828801613870565b9450506020613eaf87828801613870565b9350506040613ec0878288016137bb565b925050606085013567ffffffffffffffff811115613ee157613ee0613628565b5b613eed87828801613e48565b91505092959194509250565b600080600060408486031215613f1257613f11613623565b5b600084013567ffffffffffffffff811115613f3057613f2f613628565b5b613f3c868287016138d4565b93509350506020613f4f86828701613a38565b9150509250925092565b613f62816139a1565b8114613f6d57600080fd5b50565b600081359050613f7f81613f59565b92915050565b600060ff82169050919050565b613f9b81613f85565b8114613fa657600080fd5b50565b600081359050613fb881613f92565b92915050565b60008060008060808587031215613fd857613fd7613623565b5b6000613fe687828801613a38565b9450506020613ff787828801613f70565b935050604061400887828801613f70565b925050606061401987828801613fa9565b91505092959194509250565b6000806040838503121561403c5761403b613623565b5b600061404a85828601613870565b925050602061405b85828601613870565b9150509250929050565b6000806040838503121561407c5761407b613623565b5b600061408a85828601613870565b925050602061409b85828601613a38565b9150509250929050565b7f4e487b7100000000000000000000000000000000000000000000000000000000600052602260045260246000fd5b600060028204905060018216806140ec57607f821691505b6020821081036140ff576140fe6140a5565b5b50919050565b7f4552433732313a20617070726f76616c20746f2063757272656e74206f776e6560008201527f7200000000000000000000000000000000000000000000000000000000000000602082015250565b60006141616021836136f3565b915061416c82614105565b604082019050919050565b6000602082019050818103600083015261419081614154565b9050919050565b7f4552433732313a20617070726f76652063616c6c6572206973206e6f7420746f60008201527f6b656e206f776e6572206f7220617070726f76656420666f7220616c6c000000602082015250565b60006141f3603d836136f3565b91506141fe82614197565b604082019050919050565b60006020820190508181036000830152614222816141e6565b9050919050565b7f4e487b7100000000000000000000000000000000000000000000000000000000600052603260045260246000fd5b7f4e487b7100000000000000000000000000000000000000000000000000000000600052602160045260246000fd5b7f4e487b7100000000000000000000000000000000000000000000000000000000600052601160045260246000fd5b60006142c18261379a565b91507fffffffffffffffffffffffffffffffffffffffffffffffffffffffffffffffff82036142f3576142f2614287565b5b600182019050919050565b7f4552433732313a2063616c6c6572206973206e6f7420746f6b656e206f776e6560008201527f72206f7220617070726f76656400000000000000000000000000000000000000602082015250565b600061435a602d836136f3565b9150614365826142fe565b604082019050919050565b600060208201905081810360008301526143898161434d565b9050919050565b7f5072696365206d7573742062652067726561746572207468616e207a65726f00600082015250565b60006143c6601f836136f3565b91506143d182614390565b602082019050919050565b600060208201905081810360008301526143f5816143b9565b9050919050565b7f5552492063616e6e6f7420626520656d70747900000000000000000000000000600082015250565b60006144326013836136f3565b915061443d826143fc565b602082019050919050565b6000602082019050818103600083015261446181614425565b9050919050565b600082905092915050565b60008190508160005260206000209050919050565b60006020601f8301049050919050565b600082821b905092915050565b6000600883026144d57fffffffffffffffffffffffffffffffffffffffffffffffffffffffffffffffff82614498565b6144df8683614498565b95508019841693508086168417925050509392505050565b6000819050919050565b600061451c6145176145128461379a565b6144f7565b61379a565b9050919050565b6000819050919050565b61453683614501565b61454a61454282614523565b8484546144a5565b825550505050565b600090565b61455f614552565b61456a81848461452d565b505050565b5b8181101561458e57614583600082614557565b600181019050614570565b5050565b601f8211156145d3576145a481614473565b6145ad84614488565b810160208510156145bc578190505b6145d06145c885614488565b83018261456f565b50505b505050565b600082821c905092915050565b60006145f6600019846008026145d8565b1980831691505092915050565b600061460f83836145e5565b9150826002028217905092915050565b6146298383614468565b67ffffffffffffffff81111561464257614641613d4b565b5b61464c82546140d4565b614657828285614592565b6000601f8311600181146146865760008415614674578287013590505b61467e8582614603565b8655506146e6565b601f19841661469486614473565b60005b828110156146bc57848901358255600182019150602085019450602081019050614697565b868310156146d957848901356146d5601f8916826145e5565b8355505b6001600288020188555050505b50505050505050565b7f4e6f2066756e6473206c65667420746f20776974686472617700000000000000600082015250565b60006147256019836136f3565b9150614730826146ef565b602082019050919050565b6000602082019050818103600083015261475481614718565b9050919050565b600081905092915050565b50565b600061477660008361475b565b915061478182614766565b600082019050919050565b600061479782614769565b9150819050919050565b7f5472616e73666572206661696c65642e00000000000000000000000000000000600082015250565b60006147d76010836136f3565b91506147e2826147a1565b602082019050919050565b60006020820190508181036000830152614806816147ca565b9050919050565b7f4552433732313a20696e76616c696420746f6b656e2049440000000000000000600082015250565b60006148436018836136f3565b915061484e8261480d565b602082019050919050565b6000602082019050818103600083015261487281614836565b9050919050565b7f4552433732313a2061646472657373207a65726f206973206e6f74206120766160008201527f6c6964206f776e65720000000000000000000000000000000000000000000000602082015250565b60006148d56029836136f3565b91506148e082614879565b604082019050919050565b60006020820190508181036000830152614904816148c8565b9050919050565b7f496e636f72726563742054696572000000000000000000000000000000000000600082015250565b6000614941600e836136f3565b915061494c8261490b565b602082019050919050565b6000602082019050818103600083015261497081614934565b9050919050565b7f4d696e74696e67206e6f7420616c6c6f77656400000000000000000000000000600082015250565b60006149ad6013836136f3565b91506149b882614977565b602082019050919050565b600060208201905081810360008301526149dc816149a0565b9050919050565b7f4164647265737320616c7265616479206d696e74656420746869732074696572600082015250565b6000614a196020836136f3565b9150614a24826149e3565b602082019050919050565b60006020820190508181036000830152614a4881614a0c565b9050919050565b60048110614a6057614a5f614258565b5b50565b6000819050614a7182614a4f565b919050565b6000614a8182614a63565b9050919050565b614a9181614a76565b82525050565b6000606082019050614aac60008301866139ab565b614ab9602083018561382f565b614ac66040830184614a88565b949350505050565b7f556e617574686f72697a6564205369676e657200000000000000000000000000600082015250565b6000614b046013836136f3565b9150614b0f82614ace565b602082019050919050565b60006020820190508181036000830152614b3381614af7565b9050919050565b7f546f6b656e20646f6573206e6f74206578697374000000000000000000000000600082015250565b6000614b706014836136f3565b9150614b7b82614b3a565b602082019050919050565b60006020820190508181036000830152614b9f81614b63565b9050919050565b7f546869732066756e6374696f6e206973206f6e6c7920666f722046495253545f60008201527f434c415353207469657200000000000000000000000000000000000000000000602082015250565b6000614c02602a836136f3565b9150614c0d82614ba6565b604082019050919050565b60006020820190508181036000830152614c3181614bf5565b9050919050565b7f45746865722073656e74206973206e6f7420636f727265637400000000000000600082015250565b6000614c6e6019836136f3565b9150614c7982614c38565b602082019050919050565b60006020820190508181036000830152614c9d81614c61565b9050919050565b7f4164647265737320616c7265616479206d696e74656420466972737400000000600082015250565b6000614cda601c836136f3565b9150614ce582614ca4565b602082019050919050565b60006020820190508181036000830152614d0981614ccd565b9050919050565b7f4d6178696d756d20737570706c79207265616368656400000000000000000000600082015250565b6000614d466016836136f3565b9150614d5182614d10565b602082019050919050565b60006020820190508181036000830152614d7581614d39565b9050919050565b7f5369676e657220616464726573732063616e6e6f74206265207a65726f000000600082015250565b6000614db2601d836136f3565b9150614dbd82614d7c565b602082019050919050565b60006020820190508181036000830152614de181614da5565b9050919050565b7f4f776e61626c653a206e6577206f776e657220697320746865207a65726f206160008201527f6464726573730000000000000000000000000000000000000000000000000000602082015250565b6000614e446026836136f3565b9150614e4f82614de8565b604082019050919050565b60006020820190508181036000830152614e7381614e37565b9050919050565b7f4d617820737570706c79206d7573742062652067726561746572207468616e2060008201527f7a65726f00000000000000000000000000000000000000000000000000000000602082015250565b6000614ed66024836136f3565b9150614ee182614e7a565b604082019050919050565b60006020820190508181036000830152614f0581614ec9565b9050919050565b7f5265656e7472616e637947756172643a207265656e7472616e742063616c6c00600082015250565b6000614f42601f836136f3565b9150614f4d82614f0c565b602082019050919050565b60006020820190508181036000830152614f7181614f35565b9050919050565b7f4f776e61626c653a2063616c6c6572206973206e6f7420746865206f776e6572600082015250565b6000614fae6020836136f3565b9150614fb982614f78565b602082019050919050565b60006020820190508181036000830152614fdd81614fa1565b9050919050565b7f546f6b656e20494420616c726561647920657869737473000000000000000000600082015250565b600061501a6017836136f3565b915061502582614fe4565b602082019050919050565b600060208201905081810360008301526150498161500d565b9050919050565b7f43616e6e6f74206d696e7420746f20746865207a65726f206164647265737300600082015250565b6000615086601f836136f3565b915061509182615050565b602082019050919050565b600060208201905081810360008301526150b581615079565b9050919050565b60006150c78261379a565b91506150d28361379a565b92508282019050808211156150ea576150e9614287565b5b92915050565b6150f9826136e8565b67ffffffffffffffff81111561511257615111613d4b565b5b61511c82546140d4565b615127828285614592565b600060209050601f83116001811461515a5760008415615148578287015190505b6151528582614603565b8655506151ba565b601f19841661516886614473565b60005b828110156151905784890151825560018201915060208501945060208101905061516b565b868310156151ad57848901516151a9601f8916826145e5565b8355505b6001600288020188555050505b505050505050565b7f4552433732313a207472616e736665722066726f6d20696e636f72726563742060008201527f6f776e6572000000000000000000000000000000000000000000000000000000602082015250565b600061521e6025836136f3565b9150615229826151c2565b604082019050919050565b6000602082019050818103600083015261524d81615211565b9050919050565b7f4552433732313a207472616e7366657220746f20746865207a65726f2061646460008201527f7265737300000000000000000000000000000000000000000000000000000000602082015250565b60006152b06024836136f3565b91506152bb82615254565b604082019050919050565b600060208201905081810360008301526152df816152a3565b9050919050565b7f4552433732313a20617070726f766520746f2063616c6c657200000000000000600082015250565b600061531c6019836136f3565b9150615327826152e6565b602082019050919050565b6000602082019050818103600083015261534b8161530f565b9050919050565b7f4552433732313a207472616e7366657220746f206e6f6e20455243373231526560008201527f63656976657220696d706c656d656e7465720000000000000000000000000000602082015250565b60006153ae6032836136f3565b91506153b982615352565b604082019050919050565b600060208201905081810360008301526153dd816153a1565b9050919050565b600060a0820190506153f960008301886139ab565b61540660208301876139ab565b61541360408301866139ab565b6154206060830185613977565b61542d608083018461382f565b9695505050505050565b600081519050919050565b600082825260208201905092915050565b600061545e82615437565b6154688185615442565b9350615478818560208601613704565b6154818161372e565b840191505092915050565b60006080820190506154a1600083018761382f565b6154ae602083018661382f565b6154bb6040830185613977565b81810360608301526154cd8184615453565b905095945050505050565b6000815190506154e781613659565b92915050565b60006020828403121561550357615502613623565b5b6000615511848285016154d8565b91505092915050565b61552381613f85565b82525050565b600060808201905061553e60008301876139ab565b61554b602083018661551a565b61555860408301856139ab565b61556560608301846139ab565b95945050505050565b7f45434453413a20696e76616c6964207369676e61747572650000000000000000600082015250565b60006155a46018836136f3565b91506155af8261556e565b602082019050919050565b600060208201905081810360008301526155d381615597565b9050919050565b7f45434453413a20696e76616c6964207369676e6174757265206c656e67746800600082015250565b6000615610601f836136f3565b915061561b826155da565b602082019050919050565b6000602082019050818103600083015261563f81615603565b9050919050565b7f45434453413a20696e76616c6964207369676e6174757265202773272076616c60008201527f7565000000000000000000000000000000000000000000000000000000000000602082015250565b60006156a26022836136f3565b91506156ad82615646565b604082019050919050565b600060208201905081810360008301526156d181615695565b9050919050565b7f4552433732313a206d696e7420746f20746865207a65726f2061646472657373600082015250565b600061570e6020836136f3565b9150615719826156d8565b602082019050919050565b6000602082019050818103600083015261573d81615701565b9050919050565b7f4552433732313a20746f6b656e20616c7265616479206d696e74656400000000600082015250565b600061577a601c836136f3565b915061578582615744565b602082019050919050565b600060208201905081810360008301526157a98161576d565b905091905056fea2646970667358221220468e61064a4aa5c9bb35e6577fabc815597be3c2c3ba5090760732663ed9615c64736f6c63430008140033697066733a2f2f516d504e535a326a6751744c6e6b343645614376636d3557513331505a444d6543746774506662426274424d7378697066733a2f2f516d5773647a74576d7058663868697547583870387358646e364b364a367a577557574d63676161365461503248697066733a2f2f516d5a316847564b556a596e4e7a77626a4a775641616b4657684458356e317144574a36525a6765724478324c4a697066733a2f2f516d59515352785556326646774b63583939513868697876796332417354454a74355447775a5445524432645851",
  "linkReferences": {},
  "deployedLinkReferences": {}
}