{
  "_format": "hh-sol-artifact-1",
  "contractName": "LingoNFT",
  "sourceName": "contracts/LingoNFT.sol",
  "abi": [
    {
      "inputs": [],
      "stateMutability": "nonpayable",
      "type": "constructor"
    },
    {
      "anonymous": false,
      "inputs": [
        {
          "indexed": true,
          "internalType": "address",
          "name": "owner",
          "type": "address"
        },
        {
          "indexed": true,
          "internalType": "address",
          "name": "approved",
          "type": "address"
        },
        {
          "indexed": true,
          "internalType": "uint256",
          "name": "tokenId",
          "type": "uint256"
        }
      ],
      "name": "Approval",
      "type": "event"
    },
    {
      "anonymous": false,
      "inputs": [
        {
          "indexed": true,
          "internalType": "address",
          "name": "owner",
          "type": "address"
        },
        {
          "indexed": true,
          "internalType": "address",
          "name": "operator",
          "type": "address"
        },
        {
          "indexed": false,
          "internalType": "bool",
          "name": "approved",
          "type": "bool"
        }
      ],
      "name": "ApprovalForAll",
      "type": "event"
    },
    {
      "anonymous": false,
      "inputs": [
        {
          "indexed": true,
          "internalType": "address",
          "name": "previousOwner",
          "type": "address"
        },
        {
          "indexed": true,
          "internalType": "address",
          "name": "newOwner",
          "type": "address"
        }
      ],
      "name": "OwnershipTransferred",
      "type": "event"
    },
    {
      "anonymous": false,
      "inputs": [
        {
          "indexed": true,
          "internalType": "address",
          "name": "from",
          "type": "address"
        },
        {
          "indexed": true,
          "internalType": "address",
          "name": "to",
          "type": "address"
        },
        {
          "indexed": true,
          "internalType": "uint256",
          "name": "tokenId",
          "type": "uint256"
        }
      ],
      "name": "Transfer",
      "type": "event"
    },
    {
      "inputs": [
        {
          "internalType": "address[]",
          "name": "recipients",
          "type": "address[]"
        },
        {
          "internalType": "enum LingoNFT.Tier",
          "name": "tier",
          "type": "uint8"
        }
      ],
      "name": "airdropNFT",
      "outputs": [],
      "stateMutability": "nonpayable",
      "type": "function"
    },
    {
      "inputs": [
        {
          "internalType": "address",
          "name": "to",
          "type": "address"
        },
        {
          "internalType": "uint256",
          "name": "tokenId",
          "type": "uint256"
        }
      ],
      "name": "approve",
      "outputs": [],
      "stateMutability": "nonpayable",
      "type": "function"
    },
    {
      "inputs": [
        {
          "internalType": "address",
          "name": "owner",
          "type": "address"
        }
      ],
      "name": "balanceOf",
      "outputs": [
        {
          "internalType": "uint256",
          "name": "",
          "type": "uint256"
        }
      ],
      "stateMutability": "view",
      "type": "function"
    },
    {
      "inputs": [],
      "name": "businessSigner",
      "outputs": [
        {
          "internalType": "address",
          "name": "",
          "type": "address"
        }
      ],
      "stateMutability": "view",
      "type": "function"
    },
    {
      "inputs": [],
      "name": "economySigner",
      "outputs": [
        {
          "internalType": "address",
          "name": "",
          "type": "address"
        }
      ],
      "stateMutability": "view",
      "type": "function"
    },
    {
      "inputs": [],
      "name": "firstClassMintPrice",
      "outputs": [
        {
          "internalType": "uint256",
          "name": "",
          "type": "uint256"
        }
      ],
      "stateMutability": "view",
      "type": "function"
    },
    {
      "inputs": [],
      "name": "firstSigner",
      "outputs": [
        {
          "internalType": "address",
          "name": "",
          "type": "address"
        }
      ],
      "stateMutability": "view",
      "type": "function"
    },
    {
      "inputs": [
        {
          "internalType": "uint256",
          "name": "tokenId",
          "type": "uint256"
        }
      ],
      "name": "getApproved",
      "outputs": [
        {
          "internalType": "address",
          "name": "",
          "type": "address"
        }
      ],
      "stateMutability": "view",
      "type": "function"
    },
    {
      "inputs": [],
      "name": "getCurrentTimestamp",
      "outputs": [
        {
          "internalType": "uint256",
          "name": "",
          "type": "uint256"
        }
      ],
      "stateMutability": "view",
      "type": "function"
    },
    {
      "inputs": [],
      "name": "getFirstClassSupply",
      "outputs": [
        {
          "internalType": "uint256",
          "name": "",
          "type": "uint256"
        }
      ],
      "stateMutability": "view",
      "type": "function"
    },
    {
      "inputs": [],
      "name": "getSaleStartTime",
      "outputs": [
        {
          "internalType": "uint256",
          "name": "",
          "type": "uint256"
        }
      ],
      "stateMutability": "view",
      "type": "function"
    },
    {
      "inputs": [
        {
          "internalType": "enum LingoNFT.Tier",
          "name": "tier",
          "type": "uint8"
        }
      ],
      "name": "getTierURI",
      "outputs": [
        {
          "internalType": "string",
          "name": "",
          "type": "string"
        }
      ],
      "stateMutability": "view",
      "type": "function"
    },
    {
      "inputs": [],
      "name": "getTotalSupply",
      "outputs": [
        {
          "internalType": "uint256",
          "name": "",
          "type": "uint256"
        }
      ],
      "stateMutability": "view",
      "type": "function"
    },
    {
      "inputs": [
        {
          "internalType": "address",
          "name": "account",
          "type": "address"
        },
        {
          "internalType": "enum LingoNFT.Tier",
          "name": "tier",
          "type": "uint8"
        }
      ],
      "name": "hasMinted",
      "outputs": [
        {
          "internalType": "bool",
          "name": "",
          "type": "bool"
        }
      ],
      "stateMutability": "view",
      "type": "function"
    },
    {
      "inputs": [
        {
          "internalType": "address",
          "name": "owner",
          "type": "address"
        },
        {
          "internalType": "address",
          "name": "operator",
          "type": "address"
        }
      ],
      "name": "isApprovedForAll",
      "outputs": [
        {
          "internalType": "bool",
          "name": "",
          "type": "bool"
        }
      ],
      "stateMutability": "view",
      "type": "function"
    },
    {
      "inputs": [],
      "name": "maxFirstClassSupply",
      "outputs": [
        {
          "internalType": "uint256",
          "name": "",
          "type": "uint256"
        }
      ],
      "stateMutability": "view",
      "type": "function"
    },
    {
      "inputs": [
        {
          "internalType": "enum LingoNFT.Tier",
          "name": "tier",
          "type": "uint8"
        },
        {
          "internalType": "bytes32",
          "name": "r",
          "type": "bytes32"
        },
        {
          "internalType": "bytes32",
          "name": "s",
          "type": "bytes32"
        },
        {
          "internalType": "uint8",
          "name": "v",
          "type": "uint8"
        }
      ],
      "name": "mintEconomyBusinessClassNFT",
      "outputs": [],
      "stateMutability": "nonpayable",
      "type": "function"
    },
    {
      "inputs": [
        {
          "internalType": "enum LingoNFT.Tier",
          "name": "tier",
          "type": "uint8"
        },
        {
          "internalType": "bytes32",
          "name": "r",
          "type": "bytes32"
        },
        {
          "internalType": "bytes32",
          "name": "s",
          "type": "bytes32"
        },
        {
          "internalType": "uint8",
          "name": "v",
          "type": "uint8"
        }
      ],
      "name": "mintFirstClassNFT",
      "outputs": [],
      "stateMutability": "payable",
      "type": "function"
    },
    {
      "inputs": [
        {
          "internalType": "address[]",
          "name": "recipients",
          "type": "address[]"
        }
      ],
      "name": "mintPrivateJetNFT",
      "outputs": [],
      "stateMutability": "nonpayable",
      "type": "function"
    },
    {
      "inputs": [],
      "name": "name",
      "outputs": [
        {
          "internalType": "string",
          "name": "",
          "type": "string"
        }
      ],
      "stateMutability": "view",
      "type": "function"
    },
    {
      "inputs": [],
      "name": "owner",
      "outputs": [
        {
          "internalType": "address",
          "name": "",
          "type": "address"
        }
      ],
      "stateMutability": "view",
      "type": "function"
    },
    {
      "inputs": [
        {
          "internalType": "uint256",
          "name": "tokenId",
          "type": "uint256"
        }
      ],
      "name": "ownerOf",
      "outputs": [
        {
          "internalType": "address",
          "name": "",
          "type": "address"
        }
      ],
      "stateMutability": "view",
      "type": "function"
    },
    {
      "inputs": [],
      "name": "renounceOwnership",
      "outputs": [],
      "stateMutability": "nonpayable",
      "type": "function"
    },
    {
      "inputs": [
        {
          "internalType": "address",
          "name": "from",
          "type": "address"
        },
        {
          "internalType": "address",
          "name": "to",
          "type": "address"
        },
        {
          "internalType": "uint256",
          "name": "tokenId",
          "type": "uint256"
        }
      ],
      "name": "safeTransferFrom",
      "outputs": [],
      "stateMutability": "nonpayable",
      "type": "function"
    },
    {
      "inputs": [
        {
          "internalType": "address",
          "name": "from",
          "type": "address"
        },
        {
          "internalType": "address",
          "name": "to",
          "type": "address"
        },
        {
          "internalType": "uint256",
          "name": "tokenId",
          "type": "uint256"
        },
        {
          "internalType": "bytes",
          "name": "data",
          "type": "bytes"
        }
      ],
      "name": "safeTransferFrom",
      "outputs": [],
      "stateMutability": "nonpayable",
      "type": "function"
    },
    {
      "inputs": [],
      "name": "saleStartTime",
      "outputs": [
        {
          "internalType": "uint256",
          "name": "",
          "type": "uint256"
        }
      ],
      "stateMutability": "view",
      "type": "function"
    },
    {
      "inputs": [
        {
          "internalType": "address",
          "name": "operator",
          "type": "address"
        },
        {
          "internalType": "bool",
          "name": "approved",
          "type": "bool"
        }
      ],
      "name": "setApprovalForAll",
      "outputs": [],
      "stateMutability": "nonpayable",
      "type": "function"
    },
    {
      "inputs": [
        {
          "internalType": "address",
          "name": "_businessSigner",
          "type": "address"
        }
      ],
      "name": "setBusinessSigner",
      "outputs": [],
      "stateMutability": "nonpayable",
      "type": "function"
    },
    {
      "inputs": [
        {
          "internalType": "address",
          "name": "_economySigner",
          "type": "address"
        }
      ],
      "name": "setEconomySigner",
      "outputs": [],
      "stateMutability": "nonpayable",
      "type": "function"
    },
    {
      "inputs": [
        {
          "internalType": "uint256",
          "name": "_price",
          "type": "uint256"
        }
      ],
      "name": "setFirstClassMintPrice",
      "outputs": [],
      "stateMutability": "nonpayable",
      "type": "function"
    },
    {
      "inputs": [
        {
          "internalType": "address",
          "name": "_firstSigner",
          "type": "address"
        }
      ],
      "name": "setFirstSigner",
      "outputs": [],
      "stateMutability": "nonpayable",
      "type": "function"
    },
    {
      "inputs": [
        {
          "internalType": "uint256",
          "name": "_maxSupply",
          "type": "uint256"
        }
      ],
      "name": "setMaxFirstClassSupply",
      "outputs": [],
      "stateMutability": "nonpayable",
      "type": "function"
    },
    {
      "inputs": [
        {
          "internalType": "uint256",
          "name": "_startDate",
          "type": "uint256"
        }
      ],
      "name": "setSaleStartTime",
      "outputs": [],
      "stateMutability": "nonpayable",
      "type": "function"
    },
    {
      "inputs": [
        {
          "internalType": "enum LingoNFT.Tier",
          "name": "tier",
          "type": "uint8"
        },
        {
          "internalType": "string",
          "name": "uri",
          "type": "string"
        }
      ],
      "name": "setTierURI",
      "outputs": [],
      "stateMutability": "nonpayable",
      "type": "function"
    },
    {
      "inputs": [
        {
          "internalType": "bytes4",
          "name": "interfaceId",
          "type": "bytes4"
        }
      ],
      "name": "supportsInterface",
      "outputs": [
        {
          "internalType": "bool",
          "name": "",
          "type": "bool"
        }
      ],
      "stateMutability": "view",
      "type": "function"
    },
    {
      "inputs": [],
      "name": "symbol",
      "outputs": [
        {
          "internalType": "string",
          "name": "",
          "type": "string"
        }
      ],
      "stateMutability": "view",
      "type": "function"
    },
    {
      "inputs": [
        {
          "internalType": "uint256",
          "name": "tokenId",
          "type": "uint256"
        }
      ],
      "name": "tokenURI",
      "outputs": [
        {
          "internalType": "string",
          "name": "",
          "type": "string"
        }
      ],
      "stateMutability": "view",
      "type": "function"
    },
    {
      "inputs": [
        {
          "internalType": "address",
          "name": "from",
          "type": "address"
        },
        {
          "internalType": "address",
          "name": "to",
          "type": "address"
        },
        {
          "internalType": "uint256",
          "name": "tokenId",
          "type": "uint256"
        }
      ],
      "name": "transferFrom",
      "outputs": [],
      "stateMutability": "nonpayable",
      "type": "function"
    },
    {
      "inputs": [
        {
          "internalType": "address",
          "name": "newOwner",
          "type": "address"
        }
      ],
      "name": "transferOwnership",
      "outputs": [],
      "stateMutability": "nonpayable",
      "type": "function"
    },
    {
      "inputs": [],
      "name": "withdraw",
      "outputs": [],
      "stateMutability": "nonpayable",
      "type": "function"
    }
  ],
  "bytecode": "0x608060405260006008553480156200001657600080fd5b506040518060400160405280600981526020017f4c696e676f204e465400000000000000000000000000000000000000000000008152506040518060400160405280600481526020017f4c494e4700000000000000000000000000000000000000000000000000000000815250816000908162000094919062000629565b508060019081620000a6919062000629565b505050620000c9620000bd620002e160201b60201c565b620002e960201b60201c565b60016007819055506040518060400160405280601681526020017f697066733a2f2f65636f6e6f6d79436c617373555249000000000000000000008152506011600080600381111562000121576200012062000710565b5b600381111562000136576200013562000710565b5b8152602001908152602001600020908162000152919062000629565b506040518060400160405280601781526020017f697066733a2f2f627573696e657373436c6173735552490000000000000000008152506011600060016003811115620001a457620001a362000710565b5b6003811115620001b957620001b862000710565b5b81526020019081526020016000209081620001d5919062000629565b506040518060400160405280601481526020017f697066733a2f2f6669727374436c617373555249000000000000000000000000815250601160006002600381111562000227576200022662000710565b5b60038111156200023c576200023b62000710565b5b8152602001908152602001600020908162000258919062000629565b506040518060400160405280601481526020017f697066733a2f2f707269766174654a657455524900000000000000000000000081525060116000600380811115620002a957620002a862000710565b5b6003811115620002be57620002bd62000710565b5b81526020019081526020016000209081620002da919062000629565b506200073f565b600033905090565b6000600660009054906101000a900473ffffffffffffffffffffffffffffffffffffffff16905081600660006101000a81548173ffffffffffffffffffffffffffffffffffffffff021916908373ffffffffffffffffffffffffffffffffffffffff1602179055508173ffffffffffffffffffffffffffffffffffffffff168173ffffffffffffffffffffffffffffffffffffffff167f8be0079c531659141344cd1fd0a4f28419497f9722a3daafe3b4186f6b6457e060405160405180910390a35050565b600081519050919050565b7f4e487b7100000000000000000000000000000000000000000000000000000000600052604160045260246000fd5b7f4e487b7100000000000000000000000000000000000000000000000000000000600052602260045260246000fd5b600060028204905060018216806200043157607f821691505b602082108103620004475762000446620003e9565b5b50919050565b60008190508160005260206000209050919050565b60006020601f8301049050919050565b600082821b905092915050565b600060088302620004b17fffffffffffffffffffffffffffffffffffffffffffffffffffffffffffffffff8262000472565b620004bd868362000472565b95508019841693508086168417925050509392505050565b6000819050919050565b6000819050919050565b60006200050a62000504620004fe84620004d5565b620004df565b620004d5565b9050919050565b6000819050919050565b6200052683620004e9565b6200053e620005358262000511565b8484546200047f565b825550505050565b600090565b6200055562000546565b620005628184846200051b565b505050565b5b818110156200058a576200057e6000826200054b565b60018101905062000568565b5050565b601f821115620005d957620005a3816200044d565b620005ae8462000462565b81016020851015620005be578190505b620005d6620005cd8562000462565b83018262000567565b50505b505050565b600082821c905092915050565b6000620005fe60001984600802620005de565b1980831691505092915050565b6000620006198383620005eb565b9150826002028217905092915050565b6200063482620003af565b67ffffffffffffffff81111562000650576200064f620003ba565b5b6200065c825462000418565b620006698282856200058e565b600060209050601f831160018114620006a157600084156200068c578287015190505b6200069885826200060b565b86555062000708565b601f198416620006b1866200044d565b60005b82811015620006db57848901518255600182019150602085019450602081019050620006b4565b86831015620006fb5784890151620006f7601f891682620005eb565b8355505b6001600288020188555050505b505050505050565b7f4e487b7100000000000000000000000000000000000000000000000000000000600052602160045260246000fd5b614e4b806200074f6000396000f3fe60806040526004361061023b5760003560e01c8063715018a61161012e578063c5f50a47116100ab578063f2fde38b1161006f578063f2fde38b1461084c578063f3ad4c1f14610875578063f3e997e9146108a0578063fc2418fe146108c9578063ff97f660146108f45761023b565b8063c5f50a4714610764578063c87b56dd1461078d578063d4eeb2bd146107ca578063da1642cb146107f3578063e985e9c51461080f5761023b565b8063a22cb465116100f2578063a22cb46514610693578063b88d4fde146106bc578063bb7c7cd0146106e5578063c2b1ddaf1461070e578063c4e41b22146107395761023b565b8063715018a6146105d2578063779d3693146105e957806385e1af81146106145780638da5cb5b1461063d57806395d89b41146106685761023b565b806329caa756116101bc578063525f8a5c11610180578063525f8a5c146104d95780635b1f4bd7146105025780636352211e1461052d5780636c9230db1461056a57806370a08231146105955761023b565b806329caa7561461041c578063333e972d146104455780633ccfd60b1461046e578063413215ae1461048557806342842e0e146104b05761023b565b80630ddd124d116102035780630ddd124d146103375780631cbaee2d1461036057806323b872dd1461038b578063278cf873146103b457806327af03aa146103df5761023b565b806301ffc9a71461024057806306fdde031461027d578063081812fc146102a8578063082587ed146102e5578063095ea7b31461030e575b600080fd5b34801561024c57600080fd5b50610267600480360381019061026291906130ed565b610931565b6040516102749190613135565b60405180910390f35b34801561028957600080fd5b50610292610a13565b60405161029f91906131e0565b60405180910390f35b3480156102b457600080fd5b506102cf60048036038101906102ca9190613238565b610aa5565b6040516102dc91906132a6565b60405180910390f35b3480156102f157600080fd5b5061030c600480360381019061030791906132ed565b610aeb565b005b34801561031a57600080fd5b506103356004803603810190610330919061331a565b610b37565b005b34801561034357600080fd5b5061035e600480360381019061035991906133bf565b610c4e565b005b34801561036c57600080fd5b50610375610d8f565b604051610382919061341b565b60405180910390f35b34801561039757600080fd5b506103b260048036038101906103ad9190613436565b610d95565b005b3480156103c057600080fd5b506103c9610df5565b6040516103d691906132a6565b60405180910390f35b3480156103eb57600080fd5b50610406600480360381019061040191906134ae565b610e1b565b60405161041391906131e0565b60405180910390f35b34801561042857600080fd5b50610443600480360381019061043e9190613238565b610ee4565b005b34801561045157600080fd5b5061046c60048036038101906104679190613531565b610ef6565b005b34801561047a57600080fd5b50610483610f4a565b005b34801561049157600080fd5b5061049a611051565b6040516104a791906132a6565b60405180910390f35b3480156104bc57600080fd5b506104d760048036038101906104d29190613436565b611077565b005b3480156104e557600080fd5b5061050060048036038101906104fb9190613238565b611097565b005b34801561050e57600080fd5b506105176110a9565b604051610524919061341b565b60405180910390f35b34801561053957600080fd5b50610554600480360381019061054f9190613238565b6110af565b60405161056191906132a6565b60405180910390f35b34801561057657600080fd5b5061057f611135565b60405161058c919061341b565b60405180910390f35b3480156105a157600080fd5b506105bc60048036038101906105b791906132ed565b61113d565b6040516105c9919061341b565b60405180910390f35b3480156105de57600080fd5b506105e76111f4565b005b3480156105f557600080fd5b506105fe611208565b60405161060b91906132a6565b60405180910390f35b34801561062057600080fd5b5061063b600480360381019061063691906132ed565b61122e565b005b34801561064957600080fd5b5061065261127a565b60405161065f91906132a6565b60405180910390f35b34801561067457600080fd5b5061067d6112a4565b60405161068a91906131e0565b60405180910390f35b34801561069f57600080fd5b506106ba60048036038101906106b591906135bd565b611336565b005b3480156106c857600080fd5b506106e360048036038101906106de919061372d565b61134c565b005b3480156106f157600080fd5b5061070c600480360381019061070791906137b0565b6113ae565b005b34801561071a57600080fd5b50610723611552565b604051610730919061341b565b60405180910390f35b34801561074557600080fd5b5061074e61155c565b60405161075b919061341b565b60405180910390f35b34801561077057600080fd5b5061078b6004803603810190610786919061387f565b611566565b005b34801561079957600080fd5b506107b460048036038101906107af9190613238565b611995565b6040516107c191906131e0565b60405180910390f35b3480156107d657600080fd5b506107f160048036038101906107ec91906132ed565b611a82565b005b61080d6004803603810190610808919061387f565b611ace565b005b34801561081b57600080fd5b50610836600480360381019061083191906138e6565b611f14565b6040516108439190613135565b60405180910390f35b34801561085857600080fd5b50610873600480360381019061086e91906132ed565b611fa8565b005b34801561088157600080fd5b5061088a61202b565b604051610897919061341b565b60405180910390f35b3480156108ac57600080fd5b506108c760048036038101906108c29190613238565b612031565b005b3480156108d557600080fd5b506108de612043565b6040516108eb919061341b565b60405180910390f35b34801561090057600080fd5b5061091b60048036038101906109169190613926565b61204d565b6040516109289190613135565b60405180910390f35b60007f80ac58cd000000000000000000000000000000000000000000000000000000007bffffffffffffffffffffffffffffffffffffffffffffffffffffffff1916827bffffffffffffffffffffffffffffffffffffffffffffffffffffffff191614806109fc57507f5b5e139f000000000000000000000000000000000000000000000000000000007bffffffffffffffffffffffffffffffffffffffffffffffffffffffff1916827bffffffffffffffffffffffffffffffffffffffffffffffffffffffff1916145b80610a0c5750610a0b826120d9565b5b9050919050565b606060008054610a2290613995565b80601f0160208091040260200160405190810160405280929190818152602001828054610a4e90613995565b8015610a9b5780601f10610a7057610100808354040283529160200191610a9b565b820191906000526020600020905b815481529060010190602001808311610a7e57829003601f168201915b5050505050905090565b6000610ab082612143565b6004600083815260200190815260200160002060009054906101000a900473ffffffffffffffffffffffffffffffffffffffff169050919050565b610af361218e565b80600b60006101000a81548173ffffffffffffffffffffffffffffffffffffffff021916908373ffffffffffffffffffffffffffffffffffffffff16021790555050565b6000610b42826110af565b90508073ffffffffffffffffffffffffffffffffffffffff168373ffffffffffffffffffffffffffffffffffffffff1603610bb2576040517f08c379a0000000000000000000000000000000000000000000000000000000008152600401610ba990613a38565b60405180910390fd5b8073ffffffffffffffffffffffffffffffffffffffff16610bd161220c565b73ffffffffffffffffffffffffffffffffffffffff161480610c005750610bff81610bfa61220c565b611f14565b5b610c3f576040517f08c379a0000000000000000000000000000000000000000000000000000000008152600401610c3690613aca565b60405180910390fd5b610c498383612214565b505050565b610c566122cd565b610c5e61218e565b600080600090505b83839050811015610d8157610c7961231c565b9150610d6e848483818110610c9157610c90613aea565b5b9050602002016020810190610ca691906132ed565b8360116000600380811115610cbe57610cbd613b19565b5b6003811115610cd057610ccf613b19565b5b81526020019081526020016000208054610ce990613995565b80601f0160208091040260200160405190810160405280929190818152602001828054610d1590613995565b8015610d625780601f10610d3757610100808354040283529160200191610d62565b820191906000526020600020905b815481529060010190602001808311610d4557829003601f168201915b5050505050600361232b565b8080610d7990613b77565b915050610c66565b5050610d8b6124fd565b5050565b60085481565b610da6610da061220c565b82612507565b610de5576040517f08c379a0000000000000000000000000000000000000000000000000000000008152600401610ddc90613c31565b60405180910390fd5b610df083838361259c565b505050565b600a60009054906101000a900473ffffffffffffffffffffffffffffffffffffffff1681565b606060116000836003811115610e3457610e33613b19565b5b6003811115610e4657610e45613b19565b5b81526020019081526020016000208054610e5f90613995565b80601f0160208091040260200160405190810160405280929190818152602001828054610e8b90613995565b8015610ed85780601f10610ead57610100808354040283529160200191610ed8565b820191906000526020600020905b815481529060010190602001808311610ebb57829003601f168201915b50505050509050919050565b610eec61218e565b80600c8190555050565b610efe61218e565b818160116000866003811115610f1757610f16613b19565b5b6003811115610f2957610f28613b19565b5b81526020019081526020016000209182610f44929190613e08565b50505050565b610f5261218e565b600047905060008111610f9a576040517f08c379a0000000000000000000000000000000000000000000000000000000008152600401610f9190613f24565b60405180910390fd5b6000610fa461127a565b73ffffffffffffffffffffffffffffffffffffffff1682604051610fc790613f75565b60006040518083038185875af1925050503d8060008114611004576040519150601f19603f3d011682016040523d82523d6000602084013e611009565b606091505b505090508061104d576040517f08c379a000000000000000000000000000000000000000000000000000000000815260040161104490613fd6565b60405180910390fd5b5050565b600960009054906101000a900473ffffffffffffffffffffffffffffffffffffffff1681565b6110928383836040518060200160405280600081525061134c565b505050565b61109f61218e565b8060088190555050565b600c5481565b6000806110bb83612895565b9050600073ffffffffffffffffffffffffffffffffffffffff168173ffffffffffffffffffffffffffffffffffffffff160361112c576040517f08c379a000000000000000000000000000000000000000000000000000000000815260040161112390614042565b60405180910390fd5b80915050919050565b600042905090565b60008073ffffffffffffffffffffffffffffffffffffffff168273ffffffffffffffffffffffffffffffffffffffff16036111ad576040517f08c379a00000000000000000000000000000000000000000000000000000000081526004016111a4906140d4565b60405180910390fd5b600360008373ffffffffffffffffffffffffffffffffffffffff1673ffffffffffffffffffffffffffffffffffffffff168152602001908152602001600020549050919050565b6111fc61218e565b61120660006128d2565b565b600b60009054906101000a900473ffffffffffffffffffffffffffffffffffffffff1681565b61123661218e565b80600960006101000a81548173ffffffffffffffffffffffffffffffffffffffff021916908373ffffffffffffffffffffffffffffffffffffffff16021790555050565b6000600660009054906101000a900473ffffffffffffffffffffffffffffffffffffffff16905090565b6060600180546112b390613995565b80601f01602080910402602001604051908101604052809291908181526020018280546112df90613995565b801561132c5780601f106113015761010080835404028352916020019161132c565b820191906000526020600020905b81548152906001019060200180831161130f57829003601f168201915b5050505050905090565b61134861134161220c565b8383612998565b5050565b61135d61135761220c565b83612507565b61139c576040517f08c379a000000000000000000000000000000000000000000000000000000000815260040161139390613c31565b60405180910390fd5b6113a884848484612b04565b50505050565b6113b66122cd565b6113be61218e565b6003808111156113d1576113d0613b19565b5b8160038111156113e4576113e3613b19565b5b03611424576040517f08c379a000000000000000000000000000000000000000000000000000000000815260040161141b90614140565b60405180910390fd5b60005b8383905081101561154457600061143c61231c565b905061153085858481811061145457611453613aea565b5b905060200201602081019061146991906132ed565b826011600087600381111561148157611480613b19565b5b600381111561149357611492613b19565b5b815260200190815260200160002080546114ac90613995565b80601f01602080910402602001604051908101604052809291908181526020018280546114d890613995565b80156115255780601f106114fa57610100808354040283529160200191611525565b820191906000526020600020905b81548152906001019060200180831161150857829003601f168201915b50505050508661232b565b50808061153c90613b77565b915050611427565b5061154d6124fd565b505050565b6000600854905090565b6000600f54905090565b61156e6122cd565b60006008541415801561158357506008544210155b6115c2576040517f08c379a00000000000000000000000000000000000000000000000000000000081526004016115b9906141d2565b60405180910390fd5b600060038111156115d6576115d5613b19565b5b8460038111156115e9576115e8613b19565b5b148061161957506001600381111561160457611603613b19565b5b84600381111561161757611616613b19565b5b145b611658576040517f08c379a000000000000000000000000000000000000000000000000000000000815260040161164f90614140565b60405180910390fd5b601260003373ffffffffffffffffffffffffffffffffffffffff1673ffffffffffffffffffffffffffffffffffffffff16815260200190815260200160002060008560038111156116ac576116ab613b19565b5b60038111156116be576116bd613b19565b5b815260200190815260200160002060009054906101000a900460ff161561171a576040517f08c379a00000000000000000000000000000000000000000000000000000000081526004016117119061423e565b60405180910390fd5b600073ffffffffffffffffffffffffffffffffffffffff1661173b85612b60565b73ffffffffffffffffffffffffffffffffffffffff1603611791576040517f08c379a0000000000000000000000000000000000000000000000000000000008152600401611788906142aa565b60405180910390fd5b600033856040516020016117a6929190614381565b6040516020818303038152906040528051906020012090506000816040516020016117d19190614425565b6040516020818303038152906040528051906020012090506117f286612b60565b73ffffffffffffffffffffffffffffffffffffffff166001828588886040516000815260200160405260405161182b9493929190614469565b6020604051602081039080840390855afa15801561184d573d6000803e3d6000fd5b5050506020604051035173ffffffffffffffffffffffffffffffffffffffff16146118ad576040517f08c379a00000000000000000000000000000000000000000000000000000000081526004016118a4906144fa565b60405180910390fd5b60006118b761231c565b90506119843382601160008b60038111156118d5576118d4613b19565b5b60038111156118e7576118e6613b19565b5b8152602001908152602001600020805461190090613995565b80601f016020809104026020016040519081016040528092919081815260200182805461192c90613995565b80156119795780601f1061194e57610100808354040283529160200191611979565b820191906000526020600020905b81548152906001019060200180831161195c57829003601f168201915b50505050508a61232b565b50505061198f6124fd565b50505050565b60606119a082612c6d565b6119df576040517f08c379a00000000000000000000000000000000000000000000000000000000081526004016119d690614566565b60405180910390fd5b6010600083815260200190815260200160002080546119fd90613995565b80601f0160208091040260200160405190810160405280929190818152602001828054611a2990613995565b8015611a765780601f10611a4b57610100808354040283529160200191611a76565b820191906000526020600020905b815481529060010190602001808311611a5957829003601f168201915b50505050509050919050565b611a8a61218e565b80600a60006101000a81548173ffffffffffffffffffffffffffffffffffffffff021916908373ffffffffffffffffffffffffffffffffffffffff16021790555050565b611ad66122cd565b600060085414158015611aeb57506008544210155b611b2a576040517f08c379a0000000000000000000000000000000000000000000000000000000008152600401611b21906141d2565b60405180910390fd5b60026003811115611b3e57611b3d613b19565b5b846003811115611b5157611b50613b19565b5b14611b91576040517f08c379a0000000000000000000000000000000000000000000000000000000008152600401611b88906145f8565b60405180910390fd5b600c54341015611bd6576040517f08c379a0000000000000000000000000000000000000000000000000000000008152600401611bcd90614664565b60405180910390fd5b601260003373ffffffffffffffffffffffffffffffffffffffff1673ffffffffffffffffffffffffffffffffffffffff168152602001908152602001600020600060026003811115611c2b57611c2a613b19565b5b6003811115611c3d57611c3c613b19565b5b815260200190815260200160002060009054906101000a900460ff1615611c99576040517f08c379a0000000000000000000000000000000000000000000000000000000008152600401611c90906146d0565b60405180910390fd5b600073ffffffffffffffffffffffffffffffffffffffff16611cba85612b60565b73ffffffffffffffffffffffffffffffffffffffff1603611d10576040517f08c379a0000000000000000000000000000000000000000000000000000000008152600401611d07906142aa565b60405180910390fd5b60003385604051602001611d25929190614381565b604051602081830303815290604052805190602001209050600081604051602001611d509190614425565b604051602081830303815290604052805190602001209050611d7186612b60565b73ffffffffffffffffffffffffffffffffffffffff1660018285888860405160008152602001604052604051611daa9493929190614469565b6020604051602081039080840390855afa158015611dcc573d6000803e3d6000fd5b5050506020604051035173ffffffffffffffffffffffffffffffffffffffff1614611e2c576040517f08c379a0000000000000000000000000000000000000000000000000000000008152600401611e23906144fa565b60405180910390fd5b6000611e3661231c565b9050611f033382601160008b6003811115611e5457611e53613b19565b5b6003811115611e6657611e65613b19565b5b81526020019081526020016000208054611e7f90613995565b80601f0160208091040260200160405190810160405280929190818152602001828054611eab90613995565b8015611ef85780601f10611ecd57610100808354040283529160200191611ef8565b820191906000526020600020905b815481529060010190602001808311611edb57829003601f168201915b50505050508a61232b565b505050611f0e6124fd565b50505050565b6000600560008473ffffffffffffffffffffffffffffffffffffffff1673ffffffffffffffffffffffffffffffffffffffff16815260200190815260200160002060008373ffffffffffffffffffffffffffffffffffffffff1673ffffffffffffffffffffffffffffffffffffffff16815260200190815260200160002060009054906101000a900460ff16905092915050565b611fb061218e565b600073ffffffffffffffffffffffffffffffffffffffff168173ffffffffffffffffffffffffffffffffffffffff160361201f576040517f08c379a000000000000000000000000000000000000000000000000000000000815260040161201690614762565b60405180910390fd5b612028816128d2565b50565b600d5481565b61203961218e565b80600d8190555050565b6000600e54905090565b6000601260008473ffffffffffffffffffffffffffffffffffffffff1673ffffffffffffffffffffffffffffffffffffffff16815260200190815260200160002060008360038111156120a3576120a2613b19565b5b60038111156120b5576120b4613b19565b5b815260200190815260200160002060009054906101000a900460ff16905092915050565b60007f01ffc9a7000000000000000000000000000000000000000000000000000000007bffffffffffffffffffffffffffffffffffffffffffffffffffffffff1916827bffffffffffffffffffffffffffffffffffffffffffffffffffffffff1916149050919050565b61214c81612c6d565b61218b576040517f08c379a000000000000000000000000000000000000000000000000000000000815260040161218290614042565b60405180910390fd5b50565b61219661220c565b73ffffffffffffffffffffffffffffffffffffffff166121b461127a565b73ffffffffffffffffffffffffffffffffffffffff161461220a576040517f08c379a0000000000000000000000000000000000000000000000000000000008152600401612201906147ce565b60405180910390fd5b565b600033905090565b816004600083815260200190815260200160002060006101000a81548173ffffffffffffffffffffffffffffffffffffffff021916908373ffffffffffffffffffffffffffffffffffffffff160217905550808273ffffffffffffffffffffffffffffffffffffffff16612287836110af565b73ffffffffffffffffffffffffffffffffffffffff167f8c5be1e5ebec7d5bd14f71427d1e84f3dd0314c0f7b2291e5b200ac8c7c3b92560405160405180910390a45050565b600260075403612312576040517f08c379a00000000000000000000000000000000000000000000000000000000081526004016123099061483a565b60405180910390fd5b6002600781905550565b600080600f5490508091505090565b61233483612c6d565b15612374576040517f08c379a000000000000000000000000000000000000000000000000000000000815260040161236b906148a6565b60405180910390fd5b600073ffffffffffffffffffffffffffffffffffffffff168473ffffffffffffffffffffffffffffffffffffffff16036123e3576040517f08c379a00000000000000000000000000000000000000000000000000000000081526004016123da90614912565b60405180910390fd5b6001601260003373ffffffffffffffffffffffffffffffffffffffff1673ffffffffffffffffffffffffffffffffffffffff168152602001908152602001600020600083600381111561243957612438613b19565b5b600381111561244b5761244a613b19565b5b815260200190815260200160002060006101000a81548160ff0219169083151502179055506001600f5461247f9190614932565b600f81905550816010600085815260200190815260200160002090816124a59190614966565b506124b08484612cae565b600260038111156124c4576124c3613b19565b5b8160038111156124d7576124d6613b19565b5b036124f7576001600e60008282546124ef9190614932565b925050819055505b50505050565b6001600781905550565b600080612513836110af565b90508073ffffffffffffffffffffffffffffffffffffffff168473ffffffffffffffffffffffffffffffffffffffff16148061255557506125548185611f14565b5b8061259357508373ffffffffffffffffffffffffffffffffffffffff1661257b84610aa5565b73ffffffffffffffffffffffffffffffffffffffff16145b91505092915050565b8273ffffffffffffffffffffffffffffffffffffffff166125bc826110af565b73ffffffffffffffffffffffffffffffffffffffff1614612612576040517f08c379a000000000000000000000000000000000000000000000000000000000815260040161260990614aaa565b60405180910390fd5b600073ffffffffffffffffffffffffffffffffffffffff168273ffffffffffffffffffffffffffffffffffffffff1603612681576040517f08c379a000000000000000000000000000000000000000000000000000000000815260040161267890614b3c565b60405180910390fd5b61268e8383836001612ecb565b8273ffffffffffffffffffffffffffffffffffffffff166126ae826110af565b73ffffffffffffffffffffffffffffffffffffffff1614612704576040517f08c379a00000000000000000000000000000000000000000000000000000000081526004016126fb90614aaa565b60405180910390fd5b6004600082815260200190815260200160002060006101000a81549073ffffffffffffffffffffffffffffffffffffffff02191690556001600360008573ffffffffffffffffffffffffffffffffffffffff1673ffffffffffffffffffffffffffffffffffffffff168152602001908152602001600020600082825403925050819055506001600360008473ffffffffffffffffffffffffffffffffffffffff1673ffffffffffffffffffffffffffffffffffffffff16815260200190815260200160002060008282540192505081905550816002600083815260200190815260200160002060006101000a81548173ffffffffffffffffffffffffffffffffffffffff021916908373ffffffffffffffffffffffffffffffffffffffff160217905550808273ffffffffffffffffffffffffffffffffffffffff168473ffffffffffffffffffffffffffffffffffffffff167fddf252ad1be2c89b69c2b068fc378daa952ba7f163c4a11628f55a4df523b3ef60405160405180910390a46128908383836001612ed1565b505050565b60006002600083815260200190815260200160002060009054906101000a900473ffffffffffffffffffffffffffffffffffffffff169050919050565b6000600660009054906101000a900473ffffffffffffffffffffffffffffffffffffffff16905081600660006101000a81548173ffffffffffffffffffffffffffffffffffffffff021916908373ffffffffffffffffffffffffffffffffffffffff1602179055508173ffffffffffffffffffffffffffffffffffffffff168173ffffffffffffffffffffffffffffffffffffffff167f8be0079c531659141344cd1fd0a4f28419497f9722a3daafe3b4186f6b6457e060405160405180910390a35050565b8173ffffffffffffffffffffffffffffffffffffffff168373ffffffffffffffffffffffffffffffffffffffff1603612a06576040517f08c379a00000000000000000000000000000000000000000000000000000000081526004016129fd90614ba8565b60405180910390fd5b80600560008573ffffffffffffffffffffffffffffffffffffffff1673ffffffffffffffffffffffffffffffffffffffff16815260200190815260200160002060008473ffffffffffffffffffffffffffffffffffffffff1673ffffffffffffffffffffffffffffffffffffffff16815260200190815260200160002060006101000a81548160ff0219169083151502179055508173ffffffffffffffffffffffffffffffffffffffff168373ffffffffffffffffffffffffffffffffffffffff167f17307eab39ab6107e8899845ad3d59bd9653f200f220920489ca2b5937696c3183604051612af79190613135565b60405180910390a3505050565b612b0f84848461259c565b612b1b84848484612ed7565b612b5a576040517f08c379a0000000000000000000000000000000000000000000000000000000008152600401612b5190614c3a565b60405180910390fd5b50505050565b6000806003811115612b7557612b74613b19565b5b826003811115612b8857612b87613b19565b5b03612bb757600960009054906101000a900473ffffffffffffffffffffffffffffffffffffffff169050612c68565b60016003811115612bcb57612bca613b19565b5b826003811115612bde57612bdd613b19565b5b03612c0d57600a60009054906101000a900473ffffffffffffffffffffffffffffffffffffffff169050612c68565b60026003811115612c2157612c20613b19565b5b826003811115612c3457612c33613b19565b5b03612c6357600b60009054906101000a900473ffffffffffffffffffffffffffffffffffffffff169050612c68565b600090505b919050565b60008073ffffffffffffffffffffffffffffffffffffffff16612c8f83612895565b73ffffffffffffffffffffffffffffffffffffffff1614159050919050565b600073ffffffffffffffffffffffffffffffffffffffff168273ffffffffffffffffffffffffffffffffffffffff1603612d1d576040517f08c379a0000000000000000000000000000000000000000000000000000000008152600401612d1490614ca6565b60405180910390fd5b612d2681612c6d565b15612d66576040517f08c379a0000000000000000000000000000000000000000000000000000000008152600401612d5d90614d12565b60405180910390fd5b612d74600083836001612ecb565b612d7d81612c6d565b15612dbd576040517f08c379a0000000000000000000000000000000000000000000000000000000008152600401612db490614d12565b60405180910390fd5b6001600360008473ffffffffffffffffffffffffffffffffffffffff1673ffffffffffffffffffffffffffffffffffffffff16815260200190815260200160002060008282540192505081905550816002600083815260200190815260200160002060006101000a81548173ffffffffffffffffffffffffffffffffffffffff021916908373ffffffffffffffffffffffffffffffffffffffff160217905550808273ffffffffffffffffffffffffffffffffffffffff16600073ffffffffffffffffffffffffffffffffffffffff167fddf252ad1be2c89b69c2b068fc378daa952ba7f163c4a11628f55a4df523b3ef60405160405180910390a4612ec7600083836001612ed1565b5050565b50505050565b50505050565b6000612ef88473ffffffffffffffffffffffffffffffffffffffff1661305e565b15613051578373ffffffffffffffffffffffffffffffffffffffff1663150b7a02612f2161220c565b8786866040518563ffffffff1660e01b8152600401612f439493929190614d87565b6020604051808303816000875af1925050508015612f7f57506040513d601f19601f82011682018060405250810190612f7c9190614de8565b60015b613001573d8060008114612faf576040519150601f19603f3d011682016040523d82523d6000602084013e612fb4565b606091505b506000815103612ff9576040517f08c379a0000000000000000000000000000000000000000000000000000000008152600401612ff090614c3a565b60405180910390fd5b805181602001fd5b63150b7a0260e01b7bffffffffffffffffffffffffffffffffffffffffffffffffffffffff1916817bffffffffffffffffffffffffffffffffffffffffffffffffffffffff191614915050613056565b600190505b949350505050565b6000808273ffffffffffffffffffffffffffffffffffffffff163b119050919050565b6000604051905090565b600080fd5b600080fd5b60007fffffffff0000000000000000000000000000000000000000000000000000000082169050919050565b6130ca81613095565b81146130d557600080fd5b50565b6000813590506130e7816130c1565b92915050565b6000602082840312156131035761310261308b565b5b6000613111848285016130d8565b91505092915050565b60008115159050919050565b61312f8161311a565b82525050565b600060208201905061314a6000830184613126565b92915050565b600081519050919050565b600082825260208201905092915050565b60005b8381101561318a57808201518184015260208101905061316f565b60008484015250505050565b6000601f19601f8301169050919050565b60006131b282613150565b6131bc818561315b565b93506131cc81856020860161316c565b6131d581613196565b840191505092915050565b600060208201905081810360008301526131fa81846131a7565b905092915050565b6000819050919050565b61321581613202565b811461322057600080fd5b50565b6000813590506132328161320c565b92915050565b60006020828403121561324e5761324d61308b565b5b600061325c84828501613223565b91505092915050565b600073ffffffffffffffffffffffffffffffffffffffff82169050919050565b600061329082613265565b9050919050565b6132a081613285565b82525050565b60006020820190506132bb6000830184613297565b92915050565b6132ca81613285565b81146132d557600080fd5b50565b6000813590506132e7816132c1565b92915050565b6000602082840312156133035761330261308b565b5b6000613311848285016132d8565b91505092915050565b600080604083850312156133315761333061308b565b5b600061333f858286016132d8565b925050602061335085828601613223565b9150509250929050565b600080fd5b600080fd5b600080fd5b60008083601f84011261337f5761337e61335a565b5b8235905067ffffffffffffffff81111561339c5761339b61335f565b5b6020830191508360208202830111156133b8576133b7613364565b5b9250929050565b600080602083850312156133d6576133d561308b565b5b600083013567ffffffffffffffff8111156133f4576133f3613090565b5b61340085828601613369565b92509250509250929050565b61341581613202565b82525050565b6000602082019050613430600083018461340c565b92915050565b60008060006060848603121561344f5761344e61308b565b5b600061345d868287016132d8565b935050602061346e868287016132d8565b925050604061347f86828701613223565b9150509250925092565b6004811061349657600080fd5b50565b6000813590506134a881613489565b92915050565b6000602082840312156134c4576134c361308b565b5b60006134d284828501613499565b91505092915050565b60008083601f8401126134f1576134f061335a565b5b8235905067ffffffffffffffff81111561350e5761350d61335f565b5b60208301915083600182028301111561352a57613529613364565b5b9250929050565b60008060006040848603121561354a5761354961308b565b5b600061355886828701613499565b935050602084013567ffffffffffffffff81111561357957613578613090565b5b613585868287016134db565b92509250509250925092565b61359a8161311a565b81146135a557600080fd5b50565b6000813590506135b781613591565b92915050565b600080604083850312156135d4576135d361308b565b5b60006135e2858286016132d8565b92505060206135f3858286016135a8565b9150509250929050565b600080fd5b7f4e487b7100000000000000000000000000000000000000000000000000000000600052604160045260246000fd5b61363a82613196565b810181811067ffffffffffffffff8211171561365957613658613602565b5b80604052505050565b600061366c613081565b90506136788282613631565b919050565b600067ffffffffffffffff82111561369857613697613602565b5b6136a182613196565b9050602081019050919050565b82818337600083830152505050565b60006136d06136cb8461367d565b613662565b9050828152602081018484840111156136ec576136eb6135fd565b5b6136f78482856136ae565b509392505050565b600082601f8301126137145761371361335a565b5b81356137248482602086016136bd565b91505092915050565b600080600080608085870312156137475761374661308b565b5b6000613755878288016132d8565b9450506020613766878288016132d8565b935050604061377787828801613223565b925050606085013567ffffffffffffffff81111561379857613797613090565b5b6137a4878288016136ff565b91505092959194509250565b6000806000604084860312156137c9576137c861308b565b5b600084013567ffffffffffffffff8111156137e7576137e6613090565b5b6137f386828701613369565b9350935050602061380686828701613499565b9150509250925092565b6000819050919050565b61382381613810565b811461382e57600080fd5b50565b6000813590506138408161381a565b92915050565b600060ff82169050919050565b61385c81613846565b811461386757600080fd5b50565b60008135905061387981613853565b92915050565b600080600080608085870312156138995761389861308b565b5b60006138a787828801613499565b94505060206138b887828801613831565b93505060406138c987828801613831565b92505060606138da8782880161386a565b91505092959194509250565b600080604083850312156138fd576138fc61308b565b5b600061390b858286016132d8565b925050602061391c858286016132d8565b9150509250929050565b6000806040838503121561393d5761393c61308b565b5b600061394b858286016132d8565b925050602061395c85828601613499565b9150509250929050565b7f4e487b7100000000000000000000000000000000000000000000000000000000600052602260045260246000fd5b600060028204905060018216806139ad57607f821691505b6020821081036139c0576139bf613966565b5b50919050565b7f4552433732313a20617070726f76616c20746f2063757272656e74206f776e6560008201527f7200000000000000000000000000000000000000000000000000000000000000602082015250565b6000613a2260218361315b565b9150613a2d826139c6565b604082019050919050565b60006020820190508181036000830152613a5181613a15565b9050919050565b7f4552433732313a20617070726f76652063616c6c6572206973206e6f7420746f60008201527f6b656e206f776e6572206f7220617070726f76656420666f7220616c6c000000602082015250565b6000613ab4603d8361315b565b9150613abf82613a58565b604082019050919050565b60006020820190508181036000830152613ae381613aa7565b9050919050565b7f4e487b7100000000000000000000000000000000000000000000000000000000600052603260045260246000fd5b7f4e487b7100000000000000000000000000000000000000000000000000000000600052602160045260246000fd5b7f4e487b7100000000000000000000000000000000000000000000000000000000600052601160045260246000fd5b6000613b8282613202565b91507fffffffffffffffffffffffffffffffffffffffffffffffffffffffffffffffff8203613bb457613bb3613b48565b5b600182019050919050565b7f4552433732313a2063616c6c6572206973206e6f7420746f6b656e206f776e6560008201527f72206f7220617070726f76656400000000000000000000000000000000000000602082015250565b6000613c1b602d8361315b565b9150613c2682613bbf565b604082019050919050565b60006020820190508181036000830152613c4a81613c0e565b9050919050565b600082905092915050565b60008190508160005260206000209050919050565b60006020601f8301049050919050565b600082821b905092915050565b600060088302613cbe7fffffffffffffffffffffffffffffffffffffffffffffffffffffffffffffffff82613c81565b613cc88683613c81565b95508019841693508086168417925050509392505050565b6000819050919050565b6000613d05613d00613cfb84613202565b613ce0565b613202565b9050919050565b6000819050919050565b613d1f83613cea565b613d33613d2b82613d0c565b848454613c8e565b825550505050565b600090565b613d48613d3b565b613d53818484613d16565b505050565b5b81811015613d7757613d6c600082613d40565b600181019050613d59565b5050565b601f821115613dbc57613d8d81613c5c565b613d9684613c71565b81016020851015613da5578190505b613db9613db185613c71565b830182613d58565b50505b505050565b600082821c905092915050565b6000613ddf60001984600802613dc1565b1980831691505092915050565b6000613df88383613dce565b9150826002028217905092915050565b613e128383613c51565b67ffffffffffffffff811115613e2b57613e2a613602565b5b613e358254613995565b613e40828285613d7b565b6000601f831160018114613e6f5760008415613e5d578287013590505b613e678582613dec565b865550613ecf565b601f198416613e7d86613c5c565b60005b82811015613ea557848901358255600182019150602085019450602081019050613e80565b86831015613ec25784890135613ebe601f891682613dce565b8355505b6001600288020188555050505b50505050505050565b7f4e6f2066756e6473206c65667420746f20776974686472617700000000000000600082015250565b6000613f0e60198361315b565b9150613f1982613ed8565b602082019050919050565b60006020820190508181036000830152613f3d81613f01565b9050919050565b600081905092915050565b50565b6000613f5f600083613f44565b9150613f6a82613f4f565b600082019050919050565b6000613f8082613f52565b9150819050919050565b7f5472616e73666572206661696c65642e00000000000000000000000000000000600082015250565b6000613fc060108361315b565b9150613fcb82613f8a565b602082019050919050565b60006020820190508181036000830152613fef81613fb3565b9050919050565b7f4552433732313a20696e76616c696420746f6b656e2049440000000000000000600082015250565b600061402c60188361315b565b915061403782613ff6565b602082019050919050565b6000602082019050818103600083015261405b8161401f565b9050919050565b7f4552433732313a2061646472657373207a65726f206973206e6f74206120766160008201527f6c6964206f776e65720000000000000000000000000000000000000000000000602082015250565b60006140be60298361315b565b91506140c982614062565b604082019050919050565b600060208201905081810360008301526140ed816140b1565b9050919050565b7f496e636f72726563742054696572000000000000000000000000000000000000600082015250565b600061412a600e8361315b565b9150614135826140f4565b602082019050919050565b600060208201905081810360008301526141598161411d565b9050919050565b7f4d696e74696e67206e6f7420616c6c6f776564206f757473696465207468652060008201527f63616d706169676e2077696e646f770000000000000000000000000000000000602082015250565b60006141bc602f8361315b565b91506141c782614160565b604082019050919050565b600060208201905081810360008301526141eb816141af565b9050919050565b7f4164647265737320616c7265616479206d696e74656420746869732074696572600082015250565b600061422860208361315b565b9150614233826141f2565b602082019050919050565b600060208201905081810360008301526142578161421b565b9050919050565b7f496e76616c6964205369676e6572000000000000000000000000000000000000600082015250565b6000614294600e8361315b565b915061429f8261425e565b602082019050919050565b600060208201905081810360008301526142c381614287565b9050919050565b60008160601b9050919050565b60006142e2826142ca565b9050919050565b60006142f4826142d7565b9050919050565b61430c61430782613285565b6142e9565b82525050565b6004811061432357614322613b19565b5b50565b600081905061433482614312565b919050565b600061434482614326565b9050919050565b60008160f81b9050919050565b60006143638261434b565b9050919050565b61437b61437682614339565b614358565b82525050565b600061438d82856142fb565b60148201915061439d828461436a565b6001820191508190509392505050565b600081905092915050565b7f19457468657265756d205369676e6564204d6573736167653a0a333200000000600082015250565b60006143ee601c836143ad565b91506143f9826143b8565b601c82019050919050565b6000819050919050565b61441f61441a82613810565b614404565b82525050565b6000614430826143e1565b915061443c828461440e565b60208201915081905092915050565b61445481613810565b82525050565b61446381613846565b82525050565b600060808201905061447e600083018761444b565b61448b602083018661445a565b614498604083018561444b565b6144a5606083018461444b565b95945050505050565b7f556e617574686f72697a6564205369676e657200000000000000000000000000600082015250565b60006144e460138361315b565b91506144ef826144ae565b602082019050919050565b60006020820190508181036000830152614513816144d7565b9050919050565b7f546f6b656e20646f6573206e6f74206578697374000000000000000000000000600082015250565b600061455060148361315b565b915061455b8261451a565b602082019050919050565b6000602082019050818103600083015261457f81614543565b9050919050565b7f546869732066756e6374696f6e206973206f6e6c7920666f722046495253545f60008201527f434c415353207469657200000000000000000000000000000000000000000000602082015250565b60006145e2602a8361315b565b91506145ed82614586565b604082019050919050565b60006020820190508181036000830152614611816145d5565b9050919050565b7f45746865722073656e74206973206e6f7420636f727265637400000000000000600082015250565b600061464e60198361315b565b915061465982614618565b602082019050919050565b6000602082019050818103600083015261467d81614641565b9050919050565b7f4164647265737320616c7265616479206d696e74656420466972737400000000600082015250565b60006146ba601c8361315b565b91506146c582614684565b602082019050919050565b600060208201905081810360008301526146e9816146ad565b9050919050565b7f4f776e61626c653a206e6577206f776e657220697320746865207a65726f206160008201527f6464726573730000000000000000000000000000000000000000000000000000602082015250565b600061474c60268361315b565b9150614757826146f0565b604082019050919050565b6000602082019050818103600083015261477b8161473f565b9050919050565b7f4f776e61626c653a2063616c6c6572206973206e6f7420746865206f776e6572600082015250565b60006147b860208361315b565b91506147c382614782565b602082019050919050565b600060208201905081810360008301526147e7816147ab565b9050919050565b7f5265656e7472616e637947756172643a207265656e7472616e742063616c6c00600082015250565b6000614824601f8361315b565b915061482f826147ee565b602082019050919050565b6000602082019050818103600083015261485381614817565b9050919050565b7f546f6b656e20494420616c726561647920657869737473000000000000000000600082015250565b600061489060178361315b565b915061489b8261485a565b602082019050919050565b600060208201905081810360008301526148bf81614883565b9050919050565b7f43616e6e6f74206d696e7420746f20746865207a65726f206164647265737300600082015250565b60006148fc601f8361315b565b9150614907826148c6565b602082019050919050565b6000602082019050818103600083015261492b816148ef565b9050919050565b600061493d82613202565b915061494883613202565b92508282019050808211156149605761495f613b48565b5b92915050565b61496f82613150565b67ffffffffffffffff81111561498857614987613602565b5b6149928254613995565b61499d828285613d7b565b600060209050601f8311600181146149d057600084156149be578287015190505b6149c88582613dec565b865550614a30565b601f1984166149de86613c5c565b60005b82811015614a06578489015182556001820191506020850194506020810190506149e1565b86831015614a235784890151614a1f601f891682613dce565b8355505b6001600288020188555050505b505050505050565b7f4552433732313a207472616e736665722066726f6d20696e636f72726563742060008201527f6f776e6572000000000000000000000000000000000000000000000000000000602082015250565b6000614a9460258361315b565b9150614a9f82614a38565b604082019050919050565b60006020820190508181036000830152614ac381614a87565b9050919050565b7f4552433732313a207472616e7366657220746f20746865207a65726f2061646460008201527f7265737300000000000000000000000000000000000000000000000000000000602082015250565b6000614b2660248361315b565b9150614b3182614aca565b604082019050919050565b60006020820190508181036000830152614b5581614b19565b9050919050565b7f4552433732313a20617070726f766520746f2063616c6c657200000000000000600082015250565b6000614b9260198361315b565b9150614b9d82614b5c565b602082019050919050565b60006020820190508181036000830152614bc181614b85565b9050919050565b7f4552433732313a207472616e7366657220746f206e6f6e20455243373231526560008201527f63656976657220696d706c656d656e7465720000000000000000000000000000602082015250565b6000614c2460328361315b565b9150614c2f82614bc8565b604082019050919050565b60006020820190508181036000830152614c5381614c17565b9050919050565b7f4552433732313a206d696e7420746f20746865207a65726f2061646472657373600082015250565b6000614c9060208361315b565b9150614c9b82614c5a565b602082019050919050565b60006020820190508181036000830152614cbf81614c83565b9050919050565b7f4552433732313a20746f6b656e20616c7265616479206d696e74656400000000600082015250565b6000614cfc601c8361315b565b9150614d0782614cc6565b602082019050919050565b60006020820190508181036000830152614d2b81614cef565b9050919050565b600081519050919050565b600082825260208201905092915050565b6000614d5982614d32565b614d638185614d3d565b9350614d7381856020860161316c565b614d7c81613196565b840191505092915050565b6000608082019050614d9c6000830187613297565b614da96020830186613297565b614db6604083018561340c565b8181036060830152614dc88184614d4e565b905095945050505050565b600081519050614de2816130c1565b92915050565b600060208284031215614dfe57614dfd61308b565b5b6000614e0c84828501614dd3565b9150509291505056fea2646970667358221220ef96581b92c8bf9e4f03108649fd935f90d5bc5b669cb62360986e29fd90629e64736f6c63430008140033",
  "linkReferences": {},
  "deployedLinkReferences": {}
}