{
  "_format": "hh-sol-artifact-1",
  "contractName": "LingoNFT",
  "sourceName": "contracts/LingoNFT.sol",
  "abi": [
    {
      "inputs": [],
      "stateMutability": "nonpayable",
      "type": "constructor"
    },
    {
      "anonymous": false,
      "inputs": [
        {
          "indexed": true,
          "internalType": "address",
          "name": "owner",
          "type": "address"
        },
        {
          "indexed": true,
          "internalType": "address",
          "name": "approved",
          "type": "address"
        },
        {
          "indexed": true,
          "internalType": "uint256",
          "name": "tokenId",
          "type": "uint256"
        }
      ],
      "name": "Approval",
      "type": "event"
    },
    {
      "anonymous": false,
      "inputs": [
        {
          "indexed": true,
          "internalType": "address",
          "name": "owner",
          "type": "address"
        },
        {
          "indexed": true,
          "internalType": "address",
          "name": "operator",
          "type": "address"
        },
        {
          "indexed": false,
          "internalType": "bool",
          "name": "approved",
          "type": "bool"
        }
      ],
      "name": "ApprovalForAll",
      "type": "event"
    },
    {
      "anonymous": false,
      "inputs": [
        {
          "indexed": true,
          "internalType": "address",
          "name": "previousOwner",
          "type": "address"
        },
        {
          "indexed": true,
          "internalType": "address",
          "name": "newOwner",
          "type": "address"
        }
      ],
      "name": "OwnershipTransferred",
      "type": "event"
    },
    {
      "anonymous": false,
      "inputs": [
        {
          "indexed": true,
          "internalType": "address",
          "name": "from",
          "type": "address"
        },
        {
          "indexed": true,
          "internalType": "address",
          "name": "to",
          "type": "address"
        },
        {
          "indexed": true,
          "internalType": "uint256",
          "name": "tokenId",
          "type": "uint256"
        }
      ],
      "name": "Transfer",
      "type": "event"
    },
    {
      "inputs": [
        {
          "internalType": "address[]",
          "name": "recipients",
          "type": "address[]"
        },
        {
          "internalType": "enum LingoNFT.Tier",
          "name": "tier",
          "type": "uint8"
        }
      ],
      "name": "airdropNFT",
      "outputs": [],
      "stateMutability": "nonpayable",
      "type": "function"
    },
    {
      "inputs": [
        {
          "internalType": "address",
          "name": "to",
          "type": "address"
        },
        {
          "internalType": "uint256",
          "name": "tokenId",
          "type": "uint256"
        }
      ],
      "name": "approve",
      "outputs": [],
      "stateMutability": "nonpayable",
      "type": "function"
    },
    {
      "inputs": [
        {
          "internalType": "address",
          "name": "owner",
          "type": "address"
        }
      ],
      "name": "balanceOf",
      "outputs": [
        {
          "internalType": "uint256",
          "name": "",
          "type": "uint256"
        }
      ],
      "stateMutability": "view",
      "type": "function"
    },
    {
      "inputs": [],
      "name": "businessSigner",
      "outputs": [
        {
          "internalType": "address",
          "name": "",
          "type": "address"
        }
      ],
      "stateMutability": "view",
      "type": "function"
    },
    {
      "inputs": [],
      "name": "domainSeparator",
      "outputs": [
        {
          "internalType": "bytes32",
          "name": "",
          "type": "bytes32"
        }
      ],
      "stateMutability": "view",
      "type": "function"
    },
    {
      "inputs": [],
      "name": "economySigner",
      "outputs": [
        {
          "internalType": "address",
          "name": "",
          "type": "address"
        }
      ],
      "stateMutability": "view",
      "type": "function"
    },
    {
      "inputs": [],
      "name": "firstClassMintPrice",
      "outputs": [
        {
          "internalType": "uint256",
          "name": "",
          "type": "uint256"
        }
      ],
      "stateMutability": "view",
      "type": "function"
    },
    {
      "inputs": [],
      "name": "firstSigner",
      "outputs": [
        {
          "internalType": "address",
          "name": "",
          "type": "address"
        }
      ],
      "stateMutability": "view",
      "type": "function"
    },
    {
      "inputs": [
        {
          "internalType": "uint256",
          "name": "tokenId",
          "type": "uint256"
        }
      ],
      "name": "getApproved",
      "outputs": [
        {
          "internalType": "address",
          "name": "",
          "type": "address"
        }
      ],
      "stateMutability": "view",
      "type": "function"
    },
    {
      "inputs": [],
      "name": "getCurrentTimestamp",
      "outputs": [
        {
          "internalType": "uint256",
          "name": "",
          "type": "uint256"
        }
      ],
      "stateMutability": "view",
      "type": "function"
    },
    {
      "inputs": [],
      "name": "getFirstClassSupply",
      "outputs": [
        {
          "internalType": "uint256",
          "name": "",
          "type": "uint256"
        }
      ],
      "stateMutability": "view",
      "type": "function"
    },
    {
      "inputs": [],
      "name": "getSaleStartTime",
      "outputs": [
        {
          "internalType": "uint256",
          "name": "",
          "type": "uint256"
        }
      ],
      "stateMutability": "view",
      "type": "function"
    },
    {
      "inputs": [
        {
          "internalType": "enum LingoNFT.Tier",
          "name": "tier",
          "type": "uint8"
        }
      ],
      "name": "getTierURI",
      "outputs": [
        {
          "internalType": "string",
          "name": "",
          "type": "string"
        }
      ],
      "stateMutability": "view",
      "type": "function"
    },
    {
      "inputs": [],
      "name": "getTotalSupply",
      "outputs": [
        {
          "internalType": "uint256",
          "name": "",
          "type": "uint256"
        }
      ],
      "stateMutability": "view",
      "type": "function"
    },
    {
      "inputs": [
        {
          "internalType": "address",
          "name": "account",
          "type": "address"
        },
        {
          "internalType": "enum LingoNFT.Tier",
          "name": "tier",
          "type": "uint8"
        }
      ],
      "name": "hasMinted",
      "outputs": [
        {
          "internalType": "bool",
          "name": "",
          "type": "bool"
        }
      ],
      "stateMutability": "view",
      "type": "function"
    },
    {
      "inputs": [
        {
          "internalType": "address",
          "name": "owner",
          "type": "address"
        },
        {
          "internalType": "address",
          "name": "operator",
          "type": "address"
        }
      ],
      "name": "isApprovedForAll",
      "outputs": [
        {
          "internalType": "bool",
          "name": "",
          "type": "bool"
        }
      ],
      "stateMutability": "view",
      "type": "function"
    },
    {
      "inputs": [],
      "name": "maxFirstClassSupply",
      "outputs": [
        {
          "internalType": "uint256",
          "name": "",
          "type": "uint256"
        }
      ],
      "stateMutability": "view",
      "type": "function"
    },
    {
      "inputs": [
        {
          "internalType": "enum LingoNFT.Tier",
          "name": "tier",
          "type": "uint8"
        },
        {
          "internalType": "bytes32",
          "name": "r",
          "type": "bytes32"
        },
        {
          "internalType": "bytes32",
          "name": "s",
          "type": "bytes32"
        },
        {
          "internalType": "uint8",
          "name": "v",
          "type": "uint8"
        }
      ],
      "name": "mintEconomyBusinessClassNFT",
      "outputs": [],
      "stateMutability": "nonpayable",
      "type": "function"
    },
    {
      "inputs": [
        {
          "internalType": "enum LingoNFT.Tier",
          "name": "tier",
          "type": "uint8"
        },
        {
          "internalType": "bytes32",
          "name": "r",
          "type": "bytes32"
        },
        {
          "internalType": "bytes32",
          "name": "s",
          "type": "bytes32"
        },
        {
          "internalType": "uint8",
          "name": "v",
          "type": "uint8"
        }
      ],
      "name": "mintFirstClassNFT",
      "outputs": [],
      "stateMutability": "payable",
      "type": "function"
    },
    {
      "inputs": [
        {
          "internalType": "address[]",
          "name": "recipients",
          "type": "address[]"
        }
      ],
      "name": "mintPrivateJetNFT",
      "outputs": [],
      "stateMutability": "nonpayable",
      "type": "function"
    },
    {
      "inputs": [],
      "name": "name",
      "outputs": [
        {
          "internalType": "string",
          "name": "",
          "type": "string"
        }
      ],
      "stateMutability": "view",
      "type": "function"
    },
    {
      "inputs": [],
      "name": "owner",
      "outputs": [
        {
          "internalType": "address",
          "name": "",
          "type": "address"
        }
      ],
      "stateMutability": "view",
      "type": "function"
    },
    {
      "inputs": [
        {
          "internalType": "uint256",
          "name": "tokenId",
          "type": "uint256"
        }
      ],
      "name": "ownerOf",
      "outputs": [
        {
          "internalType": "address",
          "name": "",
          "type": "address"
        }
      ],
      "stateMutability": "view",
      "type": "function"
    },
    {
      "inputs": [],
      "name": "renounceOwnership",
      "outputs": [],
      "stateMutability": "nonpayable",
      "type": "function"
    },
    {
      "inputs": [
        {
          "internalType": "address",
          "name": "from",
          "type": "address"
        },
        {
          "internalType": "address",
          "name": "to",
          "type": "address"
        },
        {
          "internalType": "uint256",
          "name": "tokenId",
          "type": "uint256"
        }
      ],
      "name": "safeTransferFrom",
      "outputs": [],
      "stateMutability": "nonpayable",
      "type": "function"
    },
    {
      "inputs": [
        {
          "internalType": "address",
          "name": "from",
          "type": "address"
        },
        {
          "internalType": "address",
          "name": "to",
          "type": "address"
        },
        {
          "internalType": "uint256",
          "name": "tokenId",
          "type": "uint256"
        },
        {
          "internalType": "bytes",
          "name": "data",
          "type": "bytes"
        }
      ],
      "name": "safeTransferFrom",
      "outputs": [],
      "stateMutability": "nonpayable",
      "type": "function"
    },
    {
      "inputs": [],
      "name": "saleStartTime",
      "outputs": [
        {
          "internalType": "uint256",
          "name": "",
          "type": "uint256"
        }
      ],
      "stateMutability": "view",
      "type": "function"
    },
    {
      "inputs": [
        {
          "internalType": "address",
          "name": "operator",
          "type": "address"
        },
        {
          "internalType": "bool",
          "name": "approved",
          "type": "bool"
        }
      ],
      "name": "setApprovalForAll",
      "outputs": [],
      "stateMutability": "nonpayable",
      "type": "function"
    },
    {
      "inputs": [
        {
          "internalType": "address",
          "name": "_businessSigner",
          "type": "address"
        }
      ],
      "name": "setBusinessSigner",
      "outputs": [],
      "stateMutability": "nonpayable",
      "type": "function"
    },
    {
      "inputs": [
        {
          "internalType": "address",
          "name": "_economySigner",
          "type": "address"
        }
      ],
      "name": "setEconomySigner",
      "outputs": [],
      "stateMutability": "nonpayable",
      "type": "function"
    },
    {
      "inputs": [
        {
          "internalType": "uint256",
          "name": "_price",
          "type": "uint256"
        }
      ],
      "name": "setFirstClassMintPrice",
      "outputs": [],
      "stateMutability": "nonpayable",
      "type": "function"
    },
    {
      "inputs": [
        {
          "internalType": "address",
          "name": "_firstSigner",
          "type": "address"
        }
      ],
      "name": "setFirstSigner",
      "outputs": [],
      "stateMutability": "nonpayable",
      "type": "function"
    },
    {
      "inputs": [
        {
          "internalType": "uint256",
          "name": "_maxSupply",
          "type": "uint256"
        }
      ],
      "name": "setMaxFirstClassSupply",
      "outputs": [],
      "stateMutability": "nonpayable",
      "type": "function"
    },
    {
      "inputs": [
        {
          "internalType": "uint256",
          "name": "_startDate",
          "type": "uint256"
        }
      ],
      "name": "setSaleStartTime",
      "outputs": [],
      "stateMutability": "nonpayable",
      "type": "function"
    },
    {
      "inputs": [
        {
          "internalType": "enum LingoNFT.Tier",
          "name": "tier",
          "type": "uint8"
        },
        {
          "internalType": "string",
          "name": "uri",
          "type": "string"
        }
      ],
      "name": "setTierURI",
      "outputs": [],
      "stateMutability": "nonpayable",
      "type": "function"
    },
    {
      "inputs": [
        {
          "internalType": "bytes4",
          "name": "interfaceId",
          "type": "bytes4"
        }
      ],
      "name": "supportsInterface",
      "outputs": [
        {
          "internalType": "bool",
          "name": "",
          "type": "bool"
        }
      ],
      "stateMutability": "view",
      "type": "function"
    },
    {
      "inputs": [],
      "name": "symbol",
      "outputs": [
        {
          "internalType": "string",
          "name": "",
          "type": "string"
        }
      ],
      "stateMutability": "view",
      "type": "function"
    },
    {
      "inputs": [
        {
          "internalType": "uint256",
          "name": "tokenId",
          "type": "uint256"
        }
      ],
      "name": "tokenURI",
      "outputs": [
        {
          "internalType": "string",
          "name": "",
          "type": "string"
        }
      ],
      "stateMutability": "view",
      "type": "function"
    },
    {
      "inputs": [
        {
          "internalType": "address",
          "name": "from",
          "type": "address"
        },
        {
          "internalType": "address",
          "name": "to",
          "type": "address"
        },
        {
          "internalType": "uint256",
          "name": "tokenId",
          "type": "uint256"
        }
      ],
      "name": "transferFrom",
      "outputs": [],
      "stateMutability": "nonpayable",
      "type": "function"
    },
    {
      "inputs": [
        {
          "internalType": "address",
          "name": "newOwner",
          "type": "address"
        }
      ],
      "name": "transferOwnership",
      "outputs": [],
      "stateMutability": "nonpayable",
      "type": "function"
    },
    {
      "inputs": [],
      "name": "withdraw",
      "outputs": [],
      "stateMutability": "nonpayable",
      "type": "function"
    }
  ],
  "bytecode": "0x608060405260006008553480156200001657600080fd5b506040518060400160405280600981526020017f4c696e676f204e465400000000000000000000000000000000000000000000008152506040518060400160405280600481526020017f4c494e4700000000000000000000000000000000000000000000000000000000815250816000908162000094919062000733565b508060019081620000a6919062000733565b505050620000c9620000bd620003e860201b60201c565b620003f060201b60201c565b6001600781905550620000ed67e8e7551bcd8bf68860c01b620004b660201b60201c565b6200010967c5e348515467557660c01b620004b660201b60201c565b60405180606001604052806035815260200162006f6e60359139601160008060038111156200013d576200013c6200081a565b5b60038111156200015257620001516200081a565b5b815260200190815260200160002090816200016e919062000733565b506200018b67a34870e69e1e621660c01b620004b660201b60201c565b60405180606001604052806035815260200162006fa3603591396011600060016003811115620001c057620001bf6200081a565b5b6003811115620001d557620001d46200081a565b5b81526020019081526020016000209081620001f1919062000733565b506200020e67699292cf9fdf97f260c01b620004b660201b60201c565b60405180606001604052806035815260200162006f396035913960116000600260038111156200024357620002426200081a565b5b60038111156200025857620002576200081a565b5b8152602001908152602001600020908162000274919062000733565b5062000291676c3042d25362a21c60c01b620004b660201b60201c565b60405180606001604052806035815260200162006f046035913960116000600380811115620002c557620002c46200081a565b5b6003811115620002da57620002d96200081a565b5b81526020019081526020016000209081620002f6919062000733565b50620003136773199ac7347e4c3360c01b620004b660201b60201c565b7f8b73c3c69bb8fe3d512ecc4cf759cc79239f7b179b0ffacaa9a75d522b39400f6040518060400160405280600981526020017f4c696e676f204e46540000000000000000000000000000000000000000000000815250805190602001206040518060400160405280600181526020017f3100000000000000000000000000000000000000000000000000000000000000815250805190602001204630604051602001620003c6959493929190620008ba565b6040516020818303038152906040528051906020012060138190555062000917565b600033905090565b6000600660009054906101000a900473ffffffffffffffffffffffffffffffffffffffff16905081600660006101000a81548173ffffffffffffffffffffffffffffffffffffffff021916908373ffffffffffffffffffffffffffffffffffffffff1602179055508173ffffffffffffffffffffffffffffffffffffffff168173ffffffffffffffffffffffffffffffffffffffff167f8be0079c531659141344cd1fd0a4f28419497f9722a3daafe3b4186f6b6457e060405160405180910390a35050565b50565b600081519050919050565b7f4e487b7100000000000000000000000000000000000000000000000000000000600052604160045260246000fd5b7f4e487b7100000000000000000000000000000000000000000000000000000000600052602260045260246000fd5b600060028204905060018216806200053b57607f821691505b602082108103620005515762000550620004f3565b5b50919050565b60008190508160005260206000209050919050565b60006020601f8301049050919050565b600082821b905092915050565b600060088302620005bb7fffffffffffffffffffffffffffffffffffffffffffffffffffffffffffffffff826200057c565b620005c786836200057c565b95508019841693508086168417925050509392505050565b6000819050919050565b6000819050919050565b6000620006146200060e6200060884620005df565b620005e9565b620005df565b9050919050565b6000819050919050565b6200063083620005f3565b620006486200063f826200061b565b84845462000589565b825550505050565b600090565b6200065f62000650565b6200066c81848462000625565b505050565b5b8181101562000694576200068860008262000655565b60018101905062000672565b5050565b601f821115620006e357620006ad8162000557565b620006b8846200056c565b81016020851015620006c8578190505b620006e0620006d7856200056c565b83018262000671565b50505b505050565b600082821c905092915050565b60006200070860001984600802620006e8565b1980831691505092915050565b6000620007238383620006f5565b9150826002028217905092915050565b6200073e82620004b9565b67ffffffffffffffff8111156200075a5762000759620004c4565b5b62000766825462000522565b6200077382828562000698565b600060209050601f831160018114620007ab576000841562000796578287015190505b620007a2858262000715565b86555062000812565b601f198416620007bb8662000557565b60005b82811015620007e557848901518255600182019150602085019450602081019050620007be565b8683101562000805578489015162000801601f891682620006f5565b8355505b6001600288020188555050505b505050505050565b7f4e487b7100000000000000000000000000000000000000000000000000000000600052602160045260246000fd5b6000819050919050565b6200085e8162000849565b82525050565b6200086f81620005df565b82525050565b600073ffffffffffffffffffffffffffffffffffffffff82169050919050565b6000620008a28262000875565b9050919050565b620008b48162000895565b82525050565b600060a082019050620008d1600083018862000853565b620008e0602083018762000853565b620008ef604083018662000853565b620008fe606083018562000864565b6200090d6080830184620008a9565b9695505050505050565b6165dd80620009276000396000f3fe6080604052600436106102465760003560e01c8063715018a611610139578063c5f50a47116100b6578063f2fde38b1161007a578063f2fde38b14610857578063f3ad4c1f14610880578063f3e997e9146108ab578063f698da25146108d4578063fc2418fe146108ff578063ff97f6601461092a57610246565b8063c5f50a471461076f578063c87b56dd14610798578063d4eeb2bd146107d5578063da1642cb146107fe578063e985e9c51461081a57610246565b8063a22cb465116100fd578063a22cb4651461069e578063b88d4fde146106c7578063bb7c7cd0146106f0578063c2b1ddaf14610719578063c4e41b221461074457610246565b8063715018a6146105dd578063779d3693146105f457806385e1af811461061f5780638da5cb5b1461064857806395d89b411461067357610246565b806329caa756116101c7578063525f8a5c1161018b578063525f8a5c146104e45780635b1f4bd71461050d5780636352211e146105385780636c9230db1461057557806370a08231146105a057610246565b806329caa75614610427578063333e972d146104505780633ccfd60b14610479578063413215ae1461049057806342842e0e146104bb57610246565b80630ddd124d1161020e5780630ddd124d146103425780631cbaee2d1461036b57806323b872dd14610396578063278cf873146103bf57806327af03aa146103ea57610246565b806301ffc9a71461024b57806306fdde0314610288578063081812fc146102b3578063082587ed146102f0578063095ea7b314610319575b600080fd5b34801561025757600080fd5b50610272600480360381019061026d91906146a3565b610967565b60405161027f91906146eb565b60405180910390f35b34801561029457600080fd5b5061029d610a49565b6040516102aa9190614796565b60405180910390f35b3480156102bf57600080fd5b506102da60048036038101906102d591906147ee565b610adb565b6040516102e7919061485c565b60405180910390f35b3480156102fc57600080fd5b50610317600480360381019061031291906148a3565b610b21565b005b34801561032557600080fd5b50610340600480360381019061033b91906148d0565b610c7c565b005b34801561034e57600080fd5b5061036960048036038101906103649190614975565b610d93565b005b34801561037757600080fd5b50610380610fc1565b60405161038d91906149d1565b60405180910390f35b3480156103a257600080fd5b506103bd60048036038101906103b891906149ec565b610fc7565b005b3480156103cb57600080fd5b506103d4611027565b6040516103e1919061485c565b60405180910390f35b3480156103f657600080fd5b50610411600480360381019061040c9190614a64565b61104d565b60405161041e9190614796565b60405180910390f35b34801561043357600080fd5b5061044e600480360381019061044991906147ee565b611152565b005b34801561045c57600080fd5b5061047760048036038101906104729190614ae7565b611247565b005b34801561048557600080fd5b5061048e611381565b005b34801561049c57600080fd5b506104a56115b4565b6040516104b2919061485c565b60405180910390f35b3480156104c757600080fd5b506104e260048036038101906104dd91906149ec565b6115da565b005b3480156104f057600080fd5b5061050b600480360381019061050691906147ee565b6115fa565b005b34801561051957600080fd5b5061052261165c565b60405161052f91906149d1565b60405180910390f35b34801561054457600080fd5b5061055f600480360381019061055a91906147ee565b611662565b60405161056c919061485c565b60405180910390f35b34801561058157600080fd5b5061058a6116e8565b60405161059791906149d1565b60405180910390f35b3480156105ac57600080fd5b506105c760048036038101906105c291906148a3565b61172c565b6040516105d491906149d1565b60405180910390f35b3480156105e957600080fd5b506105f26117e3565b005b34801561060057600080fd5b506106096117f7565b604051610616919061485c565b60405180910390f35b34801561062b57600080fd5b50610646600480360381019061064191906148a3565b61181d565b005b34801561065457600080fd5b5061065d611978565b60405161066a919061485c565b60405180910390f35b34801561067f57600080fd5b506106886119a2565b6040516106959190614796565b60405180910390f35b3480156106aa57600080fd5b506106c560048036038101906106c09190614b73565b611a34565b005b3480156106d357600080fd5b506106ee60048036038101906106e99190614ce3565b611a4a565b005b3480156106fc57600080fd5b5061071760048036038101906107129190614d66565b611aac565b005b34801561072557600080fd5b5061072e611d7c565b60405161073b91906149d1565b60405180910390f35b34801561075057600080fd5b50610759611dc2565b60405161076691906149d1565b60405180910390f35b34801561077b57600080fd5b5061079660048036038101906107919190614e35565b611e08565b005b3480156107a457600080fd5b506107bf60048036038101906107ba91906147ee565b61252e565b6040516107cc9190614796565b60405180910390f35b3480156107e157600080fd5b506107fc60048036038101906107f791906148a3565b6126a7565b005b61081860048036038101906108139190614e35565b612802565b005b34801561082657600080fd5b50610841600480360381019061083c9190614e9c565b612f57565b60405161084e91906146eb565b60405180910390f35b34801561086357600080fd5b5061087e600480360381019061087991906148a3565b612feb565b005b34801561088c57600080fd5b5061089561306e565b6040516108a291906149d1565b60405180910390f35b3480156108b757600080fd5b506108d260048036038101906108cd91906147ee565b613074565b005b3480156108e057600080fd5b506108e9613169565b6040516108f69190614eeb565b60405180910390f35b34801561090b57600080fd5b5061091461316f565b60405161092191906149d1565b60405180910390f35b34801561093657600080fd5b50610951600480360381019061094c9190614f06565b6131b5565b60405161095e91906146eb565b60405180910390f35b60007f80ac58cd000000000000000000000000000000000000000000000000000000007bffffffffffffffffffffffffffffffffffffffffffffffffffffffff1916827bffffffffffffffffffffffffffffffffffffffffffffffffffffffff19161480610a3257507f5b5e139f000000000000000000000000000000000000000000000000000000007bffffffffffffffffffffffffffffffffffffffffffffffffffffffff1916827bffffffffffffffffffffffffffffffffffffffffffffffffffffffff1916145b80610a425750610a418261327d565b5b9050919050565b606060008054610a5890614f75565b80601f0160208091040260200160405190810160405280929190818152602001828054610a8490614f75565b8015610ad15780601f10610aa657610100808354040283529160200191610ad1565b820191906000526020600020905b815481529060010190602001808311610ab457829003601f168201915b5050505050905090565b6000610ae6826132e7565b6004600083815260200190815260200160002060009054906101000a900473ffffffffffffffffffffffffffffffffffffffff169050919050565b610b3567256ff9ee31e8fe3f60c01b613332565b610b3d613335565b610b5167a7308f1e7093b3bb60c01b613332565b610b65670709e6f3008e546760c01b613332565b610b796766d304edc4f7d8f460c01b613332565b610b8d67a303dc62d0dac67560c01b613332565b610ba167d5a3e45c35a0277260c01b613332565b600073ffffffffffffffffffffffffffffffffffffffff168173ffffffffffffffffffffffffffffffffffffffff1603610c10576040517f08c379a0000000000000000000000000000000000000000000000000000000008152600401610c0790614ff2565b60405180910390fd5b610c246776e85466dea809f360c01b613332565b610c3867013abe2df9c1b95460c01b613332565b80600b60006101000a81548173ffffffffffffffffffffffffffffffffffffffff021916908373ffffffffffffffffffffffffffffffffffffffff16021790555050565b6000610c8782611662565b90508073ffffffffffffffffffffffffffffffffffffffff168373ffffffffffffffffffffffffffffffffffffffff1603610cf7576040517f08c379a0000000000000000000000000000000000000000000000000000000008152600401610cee90615084565b60405180910390fd5b8073ffffffffffffffffffffffffffffffffffffffff16610d166133b3565b73ffffffffffffffffffffffffffffffffffffffff161480610d455750610d4481610d3f6133b3565b612f57565b5b610d84576040517f08c379a0000000000000000000000000000000000000000000000000000000008152600401610d7b90615116565b60405180910390fd5b610d8e83836133bb565b505050565b610da767cf6a52ce354ea57c60c01b613332565b610daf613474565b610dc367f87a4ccb0acbf85660c01b613332565b610dd767df87cfee2e63fae860c01b613332565b610ddf613335565b610df367e6bd6414dc67abd660c01b613332565b610e07679eae2968a8e3a56260c01b613332565b610e1b67799652641db84e3760c01b613332565b610e2f673a6a58b9bb12cdd860c01b613332565b6000610e45672cae69691be6308b60c01b613332565b610e5967f93edc5acb2dcb5460c01b613332565b60005b83839050811015610fb357610e7b67785f5352f30c608460c01b613332565b610e836134c3565b9150610e99677982ae62ab98f04060c01b613332565b610ead67076abe2459a5889660c01b613332565b610fa0848483818110610ec357610ec2615136565b5b9050602002016020810190610ed891906148a3565b8360116000600380811115610ef057610eef615165565b5b6003811115610f0257610f01615165565b5b81526020019081526020016000208054610f1b90614f75565b80601f0160208091040260200160405190810160405280929190818152602001828054610f4790614f75565b8015610f945780601f10610f6957610100808354040283529160200191610f94565b820191906000526020600020905b815481529060010190602001808311610f7757829003601f168201915b50505050506003613537565b8080610fab906151c3565b915050610e5c565b5050610fbd61388a565b5050565b60085481565b610fd8610fd26133b3565b82613894565b611017576040517f08c379a000000000000000000000000000000000000000000000000000000000815260040161100e9061527d565b60405180910390fd5b611022838383613929565b505050565b600a60009054906101000a900473ffffffffffffffffffffffffffffffffffffffff1681565b606061106367c35919cd5b3e5a9960c01b613332565b61107767231c838989a491ca60c01b613332565b61108b67de225181b3b46aca60c01b613332565b601160008360038111156110a2576110a1615165565b5b60038111156110b4576110b3615165565b5b815260200190815260200160002080546110cd90614f75565b80601f01602080910402602001604051908101604052809291908181526020018280546110f990614f75565b80156111465780601f1061111b57610100808354040283529160200191611146565b820191906000526020600020905b81548152906001019060200180831161112957829003601f168201915b50505050509050919050565b61116667c8ef4b699851ef5260c01b613332565b61116e613335565b6111826744c0ea0ab95b184d60c01b613332565b611196673232e07f62e202ae60c01b613332565b6111aa674837509015ef68ac60c01b613332565b6111be67e419cf17c9636b3560c01b613332565b6111d2678cfb9d90cb595c9160c01b613332565b60008111611215576040517f08c379a000000000000000000000000000000000000000000000000000000000815260040161120c906152e9565b60405180910390fd5b61122967379ba7b2d23ac4b360c01b613332565b61123d674f6626bad0812a2160c01b613332565b80600c8190555050565b61125b67ff8152a6da748ebb60c01b613332565b611263613335565b61127767e3330728b535382760c01b613332565b61128b67614a745a268174c460c01b613332565b61129f67b1e34de18270099460c01b613332565b6112b3673f28b52745bd716160c01b613332565b6112c76758d1b21e5cbbbd9260c01b613332565b6000828290501161130d576040517f08c379a000000000000000000000000000000000000000000000000000000000815260040161130490615355565b60405180910390fd5b6113216734d0a3c9bb1587ee60c01b613332565b6113356778af37aafd542f3160c01b613332565b81816011600086600381111561134e5761134d615165565b5b60038111156113605761135f615165565b5b8152602001908152602001600020918261137b92919061552c565b50505050565b61139567a1f6c5239861419060c01b613332565b61139d613335565b6113b167a20931b85162a3dd60c01b613332565b6113c567a88195c09db3d1e560c01b613332565b6113d9676c09e8e6ceb1476560c01b613332565b6113ed672ed682c4aa128a9460c01b613332565b600047905061140667c3c96ca6d5da875e60c01b613332565b61141a670d7e6ea333fa31b360c01b613332565b61142e679792999ee23bcf8b60c01b613332565b60008111611471576040517f08c379a000000000000000000000000000000000000000000000000000000000815260040161146890615648565b60405180910390fd5b6114856726355c10e9d5056f60c01b613332565b61149967e92355ac8d4af43960c01b613332565b6114ad674d366d6de6fb07c960c01b613332565b60006114b7611978565b73ffffffffffffffffffffffffffffffffffffffff16826040516114da90615699565b60006040518083038185875af1925050503d8060008114611517576040519150601f19603f3d011682016040523d82523d6000602084013e61151c565b606091505b5050905061153467da1ef27afb28340060c01b613332565b611548672513cc4db81545cb60c01b613332565b61155c67d7b362e5947cd39d60c01b613332565b8061159c576040517f08c379a0000000000000000000000000000000000000000000000000000000008152600401611593906156fa565b60405180910390fd5b6115b067412dcc5cc5eb8d3e60c01b613332565b5050565b600960009054906101000a900473ffffffffffffffffffffffffffffffffffffffff1681565b6115f583838360405180602001604052806000815250611a4a565b505050565b61160e670b8bbd89be72646360c01b613332565b611616613335565b61162a67d74b855a52e5cb7160c01b613332565b61163e67c10133130a22f28260c01b613332565b61165267ad5bd6f203fa5d2760c01b613332565b8060088190555050565b600c5481565b60008061166e83613c22565b9050600073ffffffffffffffffffffffffffffffffffffffff168173ffffffffffffffffffffffffffffffffffffffff16036116df576040517f08c379a00000000000000000000000000000000000000000000000000000000081526004016116d690615766565b60405180910390fd5b80915050919050565b60006116fe673c2bc6ade7140c2960c01b613332565b611712670716506356ee95a460c01b613332565b611726675098a3ba54aad08160c01b613332565b42905090565b60008073ffffffffffffffffffffffffffffffffffffffff168273ffffffffffffffffffffffffffffffffffffffff160361179c576040517f08c379a0000000000000000000000000000000000000000000000000000000008152600401611793906157f8565b60405180910390fd5b600360008373ffffffffffffffffffffffffffffffffffffffff1673ffffffffffffffffffffffffffffffffffffffff168152602001908152602001600020549050919050565b6117eb613335565b6117f56000613c5f565b565b600b60009054906101000a900473ffffffffffffffffffffffffffffffffffffffff1681565b61183167ddd4ddbed2d1acdd60c01b613332565b611839613335565b61184d67ebafc39890633c8160c01b613332565b611861670145848d8f99f69260c01b613332565b61187567b19440e889ce889160c01b613332565b6118896787d1c8ea5e58d4c660c01b613332565b61189d67f6ce76e53581c72060c01b613332565b600073ffffffffffffffffffffffffffffffffffffffff168173ffffffffffffffffffffffffffffffffffffffff160361190c576040517f08c379a000000000000000000000000000000000000000000000000000000000815260040161190390614ff2565b60405180910390fd5b611920676b2a1cf57f94eee960c01b613332565b611934674822283688e5d96660c01b613332565b80600960006101000a81548173ffffffffffffffffffffffffffffffffffffffff021916908373ffffffffffffffffffffffffffffffffffffffff16021790555050565b6000600660009054906101000a900473ffffffffffffffffffffffffffffffffffffffff16905090565b6060600180546119b190614f75565b80601f01602080910402602001604051908101604052809291908181526020018280546119dd90614f75565b8015611a2a5780601f106119ff57610100808354040283529160200191611a2a565b820191906000526020600020905b815481529060010190602001808311611a0d57829003601f168201915b5050505050905090565b611a46611a3f6133b3565b8383613d25565b5050565b611a5b611a556133b3565b83613894565b611a9a576040517f08c379a0000000000000000000000000000000000000000000000000000000008152600401611a919061527d565b60405180910390fd5b611aa684848484613e91565b50505050565b611ac067bef5f529fab50ad860c01b613332565b611ac8613474565b611adc67f9faadef90c08c9e60c01b613332565b611af067bb64e7a21ac92fa560c01b613332565b611af8613335565b611b0c673bee1fba18c6752260c01b613332565b611b20675a23e01ea80f787260c01b613332565b611b3467c9584addb23913e960c01b613332565b611b4867635cd0ed75c87eea60c01b613332565b611b5c673a44fc8069e1e4d160c01b613332565b600380811115611b6f57611b6e615165565b5b816003811115611b8257611b81615165565b5b03611bc2576040517f08c379a0000000000000000000000000000000000000000000000000000000008152600401611bb990615864565b60405180910390fd5b611bd667297f177f8ee0b45a60c01b613332565b611bea67110f22470faade5e60c01b613332565b611bfe67c65d2e4826a1f94d60c01b613332565b60005b83839050811015611d6e57611c206722fd2b8c1facceaf60c01b613332565b611c3467b9468758c28065bf60c01b613332565b6000611c3e6134c3565b9050611c5467d97460b17e3d1dbc60c01b613332565b611c6867013c1ab7688e14cf60c01b613332565b611d5a858584818110611c7e57611c7d615136565b5b9050602002016020810190611c9391906148a3565b8260116000876003811115611cab57611caa615165565b5b6003811115611cbd57611cbc615165565b5b81526020019081526020016000208054611cd690614f75565b80601f0160208091040260200160405190810160405280929190818152602001828054611d0290614f75565b8015611d4f5780601f10611d2457610100808354040283529160200191611d4f565b820191906000526020600020905b815481529060010190602001808311611d3257829003601f168201915b505050505086613537565b508080611d66906151c3565b915050611c01565b50611d7761388a565b505050565b6000611d92670f011a88240a333460c01b613332565b611da6679602512ffe4c0f4b60c01b613332565b611dba67da39300f2f2368c860c01b613332565b600854905090565b6000611dd8672280f258cc3c902160c01b613332565b611dec67ff5dcaeb9f89894860c01b613332565b611e0067dcc9aae838fdf4c560c01b613332565b600f54905090565b611e1c678252d3651870f6f860c01b613332565b611e24613474565b611e3867641b39729987e83060c01b613332565b611e4c6769b71cd6fe7b611760c01b613332565b611e6067068581d139beeab460c01b613332565b611e7467dc3d063509e938e160c01b613332565b611e8867c603af357ba0a69860c01b613332565b611e9c67ca3349687977d2a860c01b613332565b600060085414158015611eb157506008544210155b611ef0576040517f08c379a0000000000000000000000000000000000000000000000000000000008152600401611ee7906158d0565b60405180910390fd5b611f0467fbc6416f853f5a9560c01b613332565b611f186764fa59d610fc110e60c01b613332565b611f2c6785a45e9c0d2c9a1a60c01b613332565b611f4067f75f76046d8473b360c01b613332565b611f54671a2e0f20ec9062ac60c01b613332565b611f68672ba0492117a85d6660c01b613332565b611f7c678dfee671ec0c3fad60c01b613332565b60006003811115611f9057611f8f615165565b5b846003811115611fa357611fa2615165565b5b148015611fc05750611fbf67718cf567b063d78360c01b613eed565b5b8061200b575060016003811115611fda57611fd9615165565b5b846003811115611fed57611fec615165565b5b14801561200a575061200967ee56df2d2de81a8260c01b613eed565b5b5b61204a576040517f08c379a000000000000000000000000000000000000000000000000000000000815260040161204190615864565b60405180910390fd5b61205e676d2446f062a811b760c01b613332565b6120726722c3435bd6ee4e0660c01b613332565b6120866755de688c9b38101b60c01b613332565b612099668adba59646d7ef60c01b613332565b601260003373ffffffffffffffffffffffffffffffffffffffff1673ffffffffffffffffffffffffffffffffffffffff16815260200190815260200160002060008560038111156120ed576120ec615165565b5b60038111156120ff576120fe615165565b5b815260200190815260200160002060009054906101000a900460ff161561215b576040517f08c379a00000000000000000000000000000000000000000000000000000000081526004016121529061593c565b60405180910390fd5b61216f67d50627bf5f92482060c01b613332565b61218367f0dad14dfc81bff160c01b613332565b61219767a91fe48fb69db2bf60c01b613332565b6121ab67edd141e6f80b4efe60c01b613332565b600073ffffffffffffffffffffffffffffffffffffffff166121cc85613ef8565b73ffffffffffffffffffffffffffffffffffffffff1603612222576040517f08c379a0000000000000000000000000000000000000000000000000000000008152600401612219906159a8565b60405180910390fd5b6122366734061599af79a91760c01b613332565b61224a6756b02107e0b41a8060c01b613332565b61225e67d4313f4f9b978eb960c01b613332565b6000601354338660405160200161227793929190615aa0565b6040516020818303038152906040528051906020012090506122a367505ee69766883e5560c01b613332565b6122b76785020f5d11b2a2fa60c01b613332565b6000816040516020016122ca9190615b34565b6040516020818303038152906040528051906020012090506122f6670806ba655e0c235960c01b613332565b61230a670ac951b86f85360160c01b613332565b61231e671b213939c85309f660c01b613332565b61232786613ef8565b73ffffffffffffffffffffffffffffffffffffffff16600182858888604051600081526020016040526040516123609493929190615b69565b6020604051602081039080840390855afa158015612382573d6000803e3d6000fd5b5050506020604051035173ffffffffffffffffffffffffffffffffffffffff16146123e2576040517f08c379a00000000000000000000000000000000000000000000000000000000081526004016123d990615bfa565b60405180910390fd5b6123f667f3a12159d85dd0b160c01b613332565b61240a679000b7db4c3ec58f60c01b613332565b61241e67294caadd377f9e7060c01b613332565b60006124286134c3565b905061243e67bc087d959e289f2160c01b613332565b6124526761134faeb95c756160c01b613332565b61251d3382601160008b600381111561246e5761246d615165565b5b60038111156124805761247f615165565b5b8152602001908152602001600020805461249990614f75565b80601f01602080910402602001604051908101604052809291908181526020018280546124c590614f75565b80156125125780601f106124e757610100808354040283529160200191612512565b820191906000526020600020905b8154815290600101906020018083116124f557829003601f168201915b50505050508a613537565b50505061252861388a565b50505050565b606061254467fa7444a6c7a8126c60c01b613332565b612558676bcbbd05f838b81b60c01b613332565b61256c672c8b6ec9360ec2e360c01b613332565b61258067dd0e351419dc126560c01b613332565b612589826141aa565b6125c8576040517f08c379a00000000000000000000000000000000000000000000000000000000081526004016125bf90615c66565b60405180910390fd5b6125dc67d975c44c14b7f95f60c01b613332565b6125f06708ab47ef2f5286c460c01b613332565b61260467aaa68dbef334ec8d60c01b613332565b60106000838152602001908152602001600020805461262290614f75565b80601f016020809104026020016040519081016040528092919081815260200182805461264e90614f75565b801561269b5780601f106126705761010080835404028352916020019161269b565b820191906000526020600020905b81548152906001019060200180831161267e57829003601f168201915b50505050509050919050565b6126bb6705e59143944167e960c01b613332565b6126c3613335565b6126d767de37fda7593db0d960c01b613332565b6126eb6744b64877c925631660c01b613332565b6126ff67a675400337234b9f60c01b613332565b61271367a0ede6d6e0991df260c01b613332565b612727675d1223e84e81fc5960c01b613332565b600073ffffffffffffffffffffffffffffffffffffffff168173ffffffffffffffffffffffffffffffffffffffff1603612796576040517f08c379a000000000000000000000000000000000000000000000000000000000815260040161278d90614ff2565b60405180910390fd5b6127aa672e88f22efd69513e60c01b613332565b6127be67d8efcc36914e4a5560c01b613332565b80600a60006101000a81548173ffffffffffffffffffffffffffffffffffffffff021916908373ffffffffffffffffffffffffffffffffffffffff16021790555050565b61281667a4c19a65a1781cc060c01b613332565b61281e613474565b61283267f1e691078517031f60c01b613332565b6128466729d093d48ecb254d60c01b613332565b61285a67068581d139beeab460c01b613332565b61286e67dc3d063509e938e160c01b613332565b61288267c603af357ba0a69860c01b613332565b61289667ca3349687977d2a860c01b613332565b6000600854141580156128ab57506008544210155b6128ea576040517f08c379a00000000000000000000000000000000000000000000000000000000081526004016128e1906158d0565b60405180910390fd5b6128fe67fbc6416f853f5a9560c01b613332565b6129126764fa59d610fc110e60c01b613332565b61292667847db94e912bb27260c01b613332565b61293a673ac0a27305033e6b60c01b613332565b61294e679405fc1ced44988960c01b613332565b61296267486461725507494760c01b613332565b61297667a05afc722123a79760c01b613332565b6002600381111561298a57612989615165565b5b84600381111561299d5761299c615165565b5b146129dd576040517f08c379a00000000000000000000000000000000000000000000000000000000081526004016129d490615cf8565b60405180910390fd5b6129f167819902f2ae01857d60c01b613332565b612a0567b0a5120fc115420260c01b613332565b612a1967b6c83ddd3c31cfc060c01b613332565b612a2d675a56d17f3eb0957c60c01b613332565b600c543414612a71576040517f08c379a0000000000000000000000000000000000000000000000000000000008152600401612a6890615d64565b60405180910390fd5b612a8567347a51745a44125c60c01b613332565b612a99675c6d53192801a6d760c01b613332565b612aad67e389ce4c867658c760c01b613332565b612ac1679c6ca09e0f9f65a060c01b613332565b601260003373ffffffffffffffffffffffffffffffffffffffff1673ffffffffffffffffffffffffffffffffffffffff168152602001908152602001600020600060026003811115612b1657612b15615165565b5b6003811115612b2857612b27615165565b5b815260200190815260200160002060009054906101000a900460ff1615612b84576040517f08c379a0000000000000000000000000000000000000000000000000000000008152600401612b7b90615dd0565b60405180910390fd5b612b9867d1095e5d6348f62960c01b613332565b612bac671ddbc5919186a2ff60c01b613332565b612bc0679ebf476f9ce4ddcc60c01b613332565b612bd4675d838f2da0a89a3760c01b613332565b600073ffffffffffffffffffffffffffffffffffffffff16612bf585613ef8565b73ffffffffffffffffffffffffffffffffffffffff1603612c4b576040517f08c379a0000000000000000000000000000000000000000000000000000000008152600401612c42906159a8565b60405180910390fd5b612c5f67214e6e8cb770a73360c01b613332565b612c73672e327bc98ff05abb60c01b613332565b612c8767494eb4fa62ba724c60c01b613332565b60006013543386604051602001612ca093929190615aa0565b604051602081830303815290604052805190602001209050612ccc67a8fb2b2b9189a4db60c01b613332565b612ce067a9870b5686739f3a60c01b613332565b600081604051602001612cf39190615b34565b604051602081830303815290604052805190602001209050612d1f6763b2ba5bf707669360c01b613332565b612d3367399f7a7dce00d4cd60c01b613332565b612d4767b2f8313894cea02a60c01b613332565b612d5086613ef8565b73ffffffffffffffffffffffffffffffffffffffff1660018285888860405160008152602001604052604051612d899493929190615b69565b6020604051602081039080840390855afa158015612dab573d6000803e3d6000fd5b5050506020604051035173ffffffffffffffffffffffffffffffffffffffff1614612e0b576040517f08c379a0000000000000000000000000000000000000000000000000000000008152600401612e0290615bfa565b60405180910390fd5b612e1f67afbe4925c982b59760c01b613332565b612e3367d56ebc52aa98643460c01b613332565b612e476716e3623e81fbf24e60c01b613332565b6000612e516134c3565b9050612e67670837eba401729a6260c01b613332565b612e7b671757f5a5f5cc101460c01b613332565b612f463382601160008b6003811115612e9757612e96615165565b5b6003811115612ea957612ea8615165565b5b81526020019081526020016000208054612ec290614f75565b80601f0160208091040260200160405190810160405280929190818152602001828054612eee90614f75565b8015612f3b5780601f10612f1057610100808354040283529160200191612f3b565b820191906000526020600020905b815481529060010190602001808311612f1e57829003601f168201915b50505050508a613537565b505050612f5161388a565b50505050565b6000600560008473ffffffffffffffffffffffffffffffffffffffff1673ffffffffffffffffffffffffffffffffffffffff16815260200190815260200160002060008373ffffffffffffffffffffffffffffffffffffffff1673ffffffffffffffffffffffffffffffffffffffff16815260200190815260200160002060009054906101000a900460ff16905092915050565b612ff3613335565b600073ffffffffffffffffffffffffffffffffffffffff168173ffffffffffffffffffffffffffffffffffffffff1603613062576040517f08c379a000000000000000000000000000000000000000000000000000000000815260040161305990615e62565b60405180910390fd5b61306b81613c5f565b50565b600d5481565b61308867efd7956f6753e05e60c01b613332565b613090613335565b6130a46752c84f8710eeb93860c01b613332565b6130b867580c1c5196d1764160c01b613332565b6130cc677348563ab76c5f5760c01b613332565b6130e0677194eca2a3a1e98760c01b613332565b6130f467bc2a22444ed7343660c01b613332565b60008111613137576040517f08c379a000000000000000000000000000000000000000000000000000000000815260040161312e90615ef4565b60405180910390fd5b61314b67890d09dbc83b96ad60c01b613332565b61315f67d242a4a9a99435a560c01b613332565b80600d8190555050565b60135481565b600061318567eb406d6284b4edf860c01b613332565b61319967b97757cff6caf5d460c01b613332565b6131ad67b36745c659a1c90f60c01b613332565b600e54905090565b60006131cb677b6f4747c9284c0b60c01b613332565b6131df675e2e2d57362b32b660c01b613332565b6131f3670d80b261112c177860c01b613332565b601260008473ffffffffffffffffffffffffffffffffffffffff1673ffffffffffffffffffffffffffffffffffffffff168152602001908152602001600020600083600381111561324757613246615165565b5b600381111561325957613258615165565b5b815260200190815260200160002060009054906101000a900460ff16905092915050565b60007f01ffc9a7000000000000000000000000000000000000000000000000000000007bffffffffffffffffffffffffffffffffffffffffffffffffffffffff1916827bffffffffffffffffffffffffffffffffffffffffffffffffffffffff1916149050919050565b6132f0816141aa565b61332f576040517f08c379a000000000000000000000000000000000000000000000000000000000815260040161332690615766565b60405180910390fd5b50565b50565b61333d6133b3565b73ffffffffffffffffffffffffffffffffffffffff1661335b611978565b73ffffffffffffffffffffffffffffffffffffffff16146133b1576040517f08c379a00000000000000000000000000000000000000000000000000000000081526004016133a890615f60565b60405180910390fd5b565b600033905090565b816004600083815260200190815260200160002060006101000a81548173ffffffffffffffffffffffffffffffffffffffff021916908373ffffffffffffffffffffffffffffffffffffffff160217905550808273ffffffffffffffffffffffffffffffffffffffff1661342e83611662565b73ffffffffffffffffffffffffffffffffffffffff167f8c5be1e5ebec7d5bd14f71427d1e84f3dd0314c0f7b2291e5b200ac8c7c3b92560405160405180910390a45050565b6002600754036134b9576040517f08c379a00000000000000000000000000000000000000000000000000000000081526004016134b090615fcc565b60405180910390fd5b6002600781905550565b60006134d967cdadf7710a04516960c01b613332565b6134ed6730a614bf153b237860c01b613332565b6135016701a6444017d5b8cb60c01b613332565b6000600f54905061351c672e5e355896f0fee760c01b613332565b61353067399e208d4985314c60c01b613332565b8091505090565b61354b67182d5f48c963203c60c01b613332565b61355f67c2b9f3feb32ad05660c01b613332565b613573679a0571539e67e17560c01b613332565b6135876786d50d45e06be00e60c01b613332565b613590836141aa565b156135d0576040517f08c379a00000000000000000000000000000000000000000000000000000000081526004016135c790616038565b60405180910390fd5b6135e467b31f152a15e3bd2260c01b613332565b6135f867f8a176b9ebda2abf60c01b613332565b61360c6765e97128dc948c2960c01b613332565b61362067e22840e60f767a0660c01b613332565b600073ffffffffffffffffffffffffffffffffffffffff168473ffffffffffffffffffffffffffffffffffffffff160361368f576040517f08c379a0000000000000000000000000000000000000000000000000000000008152600401613686906160a4565b60405180910390fd5b6136a36782a5c27017b69af360c01b613332565b6136b767ecd70405ae88822d60c01b613332565b6001601260003373ffffffffffffffffffffffffffffffffffffffff1673ffffffffffffffffffffffffffffffffffffffff168152602001908152602001600020600083600381111561370d5761370c615165565b5b600381111561371f5761371e615165565b5b815260200190815260200160002060006101000a81548160ff021916908315150217905550613758674bb51c3d738b281760c01b613332565b6001600f5461376791906160c4565b600f8190555061378167096e942bf196763660c01b613332565b816010600085815260200190815260200160002090816137a191906160f8565b506137b66771fc2ca97eefe0b160c01b613332565b6137ca6716701e282139fc7860c01b613332565b6137d484846141eb565b6137e86726d28f44f671c74160c01b613332565b6137fc670f564b74c5dd1ea460c01b613332565b600260038111156138105761380f615165565b5b81600381111561382357613822615165565b5b0361386f5761383c67dc153d2575a7cd1060c01b613332565b6138506762442a0b51b00f8660c01b613332565b6001600e600082825461386391906160c4565b92505081905550613884565b61388367d7e300894f868dd660c01b613332565b5b50505050565b6001600781905550565b6000806138a083611662565b90508073ffffffffffffffffffffffffffffffffffffffff168473ffffffffffffffffffffffffffffffffffffffff1614806138e257506138e18185612f57565b5b8061392057508373ffffffffffffffffffffffffffffffffffffffff1661390884610adb565b73ffffffffffffffffffffffffffffffffffffffff16145b91505092915050565b8273ffffffffffffffffffffffffffffffffffffffff1661394982611662565b73ffffffffffffffffffffffffffffffffffffffff161461399f576040517f08c379a00000000000000000000000000000000000000000000000000000000081526004016139969061623c565b60405180910390fd5b600073ffffffffffffffffffffffffffffffffffffffff168273ffffffffffffffffffffffffffffffffffffffff1603613a0e576040517f08c379a0000000000000000000000000000000000000000000000000000000008152600401613a05906162ce565b60405180910390fd5b613a1b8383836001614209565b8273ffffffffffffffffffffffffffffffffffffffff16613a3b82611662565b73ffffffffffffffffffffffffffffffffffffffff1614613a91576040517f08c379a0000000000000000000000000000000000000000000000000000000008152600401613a889061623c565b60405180910390fd5b6004600082815260200190815260200160002060006101000a81549073ffffffffffffffffffffffffffffffffffffffff02191690556001600360008573ffffffffffffffffffffffffffffffffffffffff1673ffffffffffffffffffffffffffffffffffffffff168152602001908152602001600020600082825403925050819055506001600360008473ffffffffffffffffffffffffffffffffffffffff1673ffffffffffffffffffffffffffffffffffffffff16815260200190815260200160002060008282540192505081905550816002600083815260200190815260200160002060006101000a81548173ffffffffffffffffffffffffffffffffffffffff021916908373ffffffffffffffffffffffffffffffffffffffff160217905550808273ffffffffffffffffffffffffffffffffffffffff168473ffffffffffffffffffffffffffffffffffffffff167fddf252ad1be2c89b69c2b068fc378daa952ba7f163c4a11628f55a4df523b3ef60405160405180910390a4613c1d838383600161420f565b505050565b60006002600083815260200190815260200160002060009054906101000a900473ffffffffffffffffffffffffffffffffffffffff169050919050565b6000600660009054906101000a900473ffffffffffffffffffffffffffffffffffffffff16905081600660006101000a81548173ffffffffffffffffffffffffffffffffffffffff021916908373ffffffffffffffffffffffffffffffffffffffff1602179055508173ffffffffffffffffffffffffffffffffffffffff168173ffffffffffffffffffffffffffffffffffffffff167f8be0079c531659141344cd1fd0a4f28419497f9722a3daafe3b4186f6b6457e060405160405180910390a35050565b8173ffffffffffffffffffffffffffffffffffffffff168373ffffffffffffffffffffffffffffffffffffffff1603613d93576040517f08c379a0000000000000000000000000000000000000000000000000000000008152600401613d8a9061633a565b60405180910390fd5b80600560008573ffffffffffffffffffffffffffffffffffffffff1673ffffffffffffffffffffffffffffffffffffffff16815260200190815260200160002060008473ffffffffffffffffffffffffffffffffffffffff1673ffffffffffffffffffffffffffffffffffffffff16815260200190815260200160002060006101000a81548160ff0219169083151502179055508173ffffffffffffffffffffffffffffffffffffffff168373ffffffffffffffffffffffffffffffffffffffff167f17307eab39ab6107e8899845ad3d59bd9653f200f220920489ca2b5937696c3183604051613e8491906146eb565b60405180910390a3505050565b613e9c848484613929565b613ea884848484614215565b613ee7576040517f08c379a0000000000000000000000000000000000000000000000000000000008152600401613ede906163cc565b60405180910390fd5b50505050565b600060019050919050565b6000613f0e67333b486cd179870860c01b613332565b613f22674fbfc387140ce24360c01b613332565b613f36673525f1ba942875ba60c01b613332565b60006003811115613f4a57613f49615165565b5b826003811115613f5d57613f5c615165565b5b03613fc857613f7667dc611d78a701925460c01b613332565b613f8a67cfcabf8f848888b060c01b613332565b613f9e67403d43c797c9850a60c01b613332565b600960009054906101000a900473ffffffffffffffffffffffffffffffffffffffff1690506141a5565b613fdc67c16542b49fb97a9860c01b613332565b613ff06759099ad48aed3ae760c01b613332565b6140046709bf9367142c2bc960c01b613332565b6001600381111561401857614017615165565b5b82600381111561402b5761402a615165565b5b03614096576140446722aef9a047f2881b60c01b613332565b61405867eaf5c74a7f54feab60c01b613332565b61406c673b5e8609e47a3d8b60c01b613332565b600a60009054906101000a900473ffffffffffffffffffffffffffffffffffffffff1690506141a5565b6140aa67d8f61e80e7193bf760c01b613332565b6140be67bdbe5c96b8eba3b060c01b613332565b6140d26790eba48f4612723e60c01b613332565b600260038111156140e6576140e5615165565b5b8260038111156140f9576140f8615165565b5b03614164576141126713eca0be65fc361060c01b613332565b61412667828ab05ef6c1129a60c01b613332565b61413a67308b380b46965eb160c01b613332565b600b60009054906101000a900473ffffffffffffffffffffffffffffffffffffffff1690506141a5565b6141786706e23e2f3f894c6560c01b613332565b61418c67596c3b7e402f787c60c01b613332565b6141a0677cdd4470eb7d772760c01b613332565b600090505b919050565b60008073ffffffffffffffffffffffffffffffffffffffff166141cc83613c22565b73ffffffffffffffffffffffffffffffffffffffff1614159050919050565b61420582826040518060200160405280600081525061439c565b5050565b50505050565b50505050565b60006142368473ffffffffffffffffffffffffffffffffffffffff166143f7565b1561438f578373ffffffffffffffffffffffffffffffffffffffff1663150b7a0261425f6133b3565b8786866040518563ffffffff1660e01b81526004016142819493929190616441565b6020604051808303816000875af19250505080156142bd57506040513d601f19601f820116820180604052508101906142ba91906164a2565b60015b61433f573d80600081146142ed576040519150601f19603f3d011682016040523d82523d6000602084013e6142f2565b606091505b506000815103614337576040517f08c379a000000000000000000000000000000000000000000000000000000000815260040161432e906163cc565b60405180910390fd5b805181602001fd5b63150b7a0260e01b7bffffffffffffffffffffffffffffffffffffffffffffffffffffffff1916817bffffffffffffffffffffffffffffffffffffffffffffffffffffffff191614915050614394565b600190505b949350505050565b6143a6838361441a565b6143b36000848484614215565b6143f2576040517f08c379a00000000000000000000000000000000000000000000000000000000081526004016143e9906163cc565b60405180910390fd5b505050565b6000808273ffffffffffffffffffffffffffffffffffffffff163b119050919050565b600073ffffffffffffffffffffffffffffffffffffffff168273ffffffffffffffffffffffffffffffffffffffff1603614489576040517f08c379a00000000000000000000000000000000000000000000000000000000081526004016144809061651b565b60405180910390fd5b614492816141aa565b156144d2576040517f08c379a00000000000000000000000000000000000000000000000000000000081526004016144c990616587565b60405180910390fd5b6144e0600083836001614209565b6144e9816141aa565b15614529576040517f08c379a000000000000000000000000000000000000000000000000000000000815260040161452090616587565b60405180910390fd5b6001600360008473ffffffffffffffffffffffffffffffffffffffff1673ffffffffffffffffffffffffffffffffffffffff16815260200190815260200160002060008282540192505081905550816002600083815260200190815260200160002060006101000a81548173ffffffffffffffffffffffffffffffffffffffff021916908373ffffffffffffffffffffffffffffffffffffffff160217905550808273ffffffffffffffffffffffffffffffffffffffff16600073ffffffffffffffffffffffffffffffffffffffff167fddf252ad1be2c89b69c2b068fc378daa952ba7f163c4a11628f55a4df523b3ef60405160405180910390a461463360008383600161420f565b5050565b6000604051905090565b600080fd5b600080fd5b60007fffffffff0000000000000000000000000000000000000000000000000000000082169050919050565b6146808161464b565b811461468b57600080fd5b50565b60008135905061469d81614677565b92915050565b6000602082840312156146b9576146b8614641565b5b60006146c78482850161468e565b91505092915050565b60008115159050919050565b6146e5816146d0565b82525050565b600060208201905061470060008301846146dc565b92915050565b600081519050919050565b600082825260208201905092915050565b60005b83811015614740578082015181840152602081019050614725565b60008484015250505050565b6000601f19601f8301169050919050565b600061476882614706565b6147728185614711565b9350614782818560208601614722565b61478b8161474c565b840191505092915050565b600060208201905081810360008301526147b0818461475d565b905092915050565b6000819050919050565b6147cb816147b8565b81146147d657600080fd5b50565b6000813590506147e8816147c2565b92915050565b60006020828403121561480457614803614641565b5b6000614812848285016147d9565b91505092915050565b600073ffffffffffffffffffffffffffffffffffffffff82169050919050565b60006148468261481b565b9050919050565b6148568161483b565b82525050565b6000602082019050614871600083018461484d565b92915050565b6148808161483b565b811461488b57600080fd5b50565b60008135905061489d81614877565b92915050565b6000602082840312156148b9576148b8614641565b5b60006148c78482850161488e565b91505092915050565b600080604083850312156148e7576148e6614641565b5b60006148f58582860161488e565b9250506020614906858286016147d9565b9150509250929050565b600080fd5b600080fd5b600080fd5b60008083601f84011261493557614934614910565b5b8235905067ffffffffffffffff81111561495257614951614915565b5b60208301915083602082028301111561496e5761496d61491a565b5b9250929050565b6000806020838503121561498c5761498b614641565b5b600083013567ffffffffffffffff8111156149aa576149a9614646565b5b6149b68582860161491f565b92509250509250929050565b6149cb816147b8565b82525050565b60006020820190506149e660008301846149c2565b92915050565b600080600060608486031215614a0557614a04614641565b5b6000614a138682870161488e565b9350506020614a248682870161488e565b9250506040614a35868287016147d9565b9150509250925092565b60048110614a4c57600080fd5b50565b600081359050614a5e81614a3f565b92915050565b600060208284031215614a7a57614a79614641565b5b6000614a8884828501614a4f565b91505092915050565b60008083601f840112614aa757614aa6614910565b5b8235905067ffffffffffffffff811115614ac457614ac3614915565b5b602083019150836001820283011115614ae057614adf61491a565b5b9250929050565b600080600060408486031215614b0057614aff614641565b5b6000614b0e86828701614a4f565b935050602084013567ffffffffffffffff811115614b2f57614b2e614646565b5b614b3b86828701614a91565b92509250509250925092565b614b50816146d0565b8114614b5b57600080fd5b50565b600081359050614b6d81614b47565b92915050565b60008060408385031215614b8a57614b89614641565b5b6000614b988582860161488e565b9250506020614ba985828601614b5e565b9150509250929050565b600080fd5b7f4e487b7100000000000000000000000000000000000000000000000000000000600052604160045260246000fd5b614bf08261474c565b810181811067ffffffffffffffff82111715614c0f57614c0e614bb8565b5b80604052505050565b6000614c22614637565b9050614c2e8282614be7565b919050565b600067ffffffffffffffff821115614c4e57614c4d614bb8565b5b614c578261474c565b9050602081019050919050565b82818337600083830152505050565b6000614c86614c8184614c33565b614c18565b905082815260208101848484011115614ca257614ca1614bb3565b5b614cad848285614c64565b509392505050565b600082601f830112614cca57614cc9614910565b5b8135614cda848260208601614c73565b91505092915050565b60008060008060808587031215614cfd57614cfc614641565b5b6000614d0b8782880161488e565b9450506020614d1c8782880161488e565b9350506040614d2d878288016147d9565b925050606085013567ffffffffffffffff811115614d4e57614d4d614646565b5b614d5a87828801614cb5565b91505092959194509250565b600080600060408486031215614d7f57614d7e614641565b5b600084013567ffffffffffffffff811115614d9d57614d9c614646565b5b614da98682870161491f565b93509350506020614dbc86828701614a4f565b9150509250925092565b6000819050919050565b614dd981614dc6565b8114614de457600080fd5b50565b600081359050614df681614dd0565b92915050565b600060ff82169050919050565b614e1281614dfc565b8114614e1d57600080fd5b50565b600081359050614e2f81614e09565b92915050565b60008060008060808587031215614e4f57614e4e614641565b5b6000614e5d87828801614a4f565b9450506020614e6e87828801614de7565b9350506040614e7f87828801614de7565b9250506060614e9087828801614e20565b91505092959194509250565b60008060408385031215614eb357614eb2614641565b5b6000614ec18582860161488e565b9250506020614ed28582860161488e565b9150509250929050565b614ee581614dc6565b82525050565b6000602082019050614f006000830184614edc565b92915050565b60008060408385031215614f1d57614f1c614641565b5b6000614f2b8582860161488e565b9250506020614f3c85828601614a4f565b9150509250929050565b7f4e487b7100000000000000000000000000000000000000000000000000000000600052602260045260246000fd5b60006002820490506001821680614f8d57607f821691505b602082108103614fa057614f9f614f46565b5b50919050565b7f5369676e657220616464726573732063616e6e6f74206265207a65726f000000600082015250565b6000614fdc601d83614711565b9150614fe782614fa6565b602082019050919050565b6000602082019050818103600083015261500b81614fcf565b9050919050565b7f4552433732313a20617070726f76616c20746f2063757272656e74206f776e6560008201527f7200000000000000000000000000000000000000000000000000000000000000602082015250565b600061506e602183614711565b915061507982615012565b604082019050919050565b6000602082019050818103600083015261509d81615061565b9050919050565b7f4552433732313a20617070726f76652063616c6c6572206973206e6f7420746f60008201527f6b656e206f776e6572206f7220617070726f76656420666f7220616c6c000000602082015250565b6000615100603d83614711565b915061510b826150a4565b604082019050919050565b6000602082019050818103600083015261512f816150f3565b9050919050565b7f4e487b7100000000000000000000000000000000000000000000000000000000600052603260045260246000fd5b7f4e487b7100000000000000000000000000000000000000000000000000000000600052602160045260246000fd5b7f4e487b7100000000000000000000000000000000000000000000000000000000600052601160045260246000fd5b60006151ce826147b8565b91507fffffffffffffffffffffffffffffffffffffffffffffffffffffffffffffffff8203615200576151ff615194565b5b600182019050919050565b7f4552433732313a2063616c6c6572206973206e6f7420746f6b656e206f776e6560008201527f72206f7220617070726f76656400000000000000000000000000000000000000602082015250565b6000615267602d83614711565b91506152728261520b565b604082019050919050565b600060208201905081810360008301526152968161525a565b9050919050565b7f5072696365206d7573742062652067726561746572207468616e207a65726f00600082015250565b60006152d3601f83614711565b91506152de8261529d565b602082019050919050565b60006020820190508181036000830152615302816152c6565b9050919050565b7f5552492063616e6e6f7420626520656d70747900000000000000000000000000600082015250565b600061533f601383614711565b915061534a82615309565b602082019050919050565b6000602082019050818103600083015261536e81615332565b9050919050565b600082905092915050565b60008190508160005260206000209050919050565b60006020601f8301049050919050565b600082821b905092915050565b6000600883026153e27fffffffffffffffffffffffffffffffffffffffffffffffffffffffffffffffff826153a5565b6153ec86836153a5565b95508019841693508086168417925050509392505050565b6000819050919050565b600061542961542461541f846147b8565b615404565b6147b8565b9050919050565b6000819050919050565b6154438361540e565b61545761544f82615430565b8484546153b2565b825550505050565b600090565b61546c61545f565b61547781848461543a565b505050565b5b8181101561549b57615490600082615464565b60018101905061547d565b5050565b601f8211156154e0576154b181615380565b6154ba84615395565b810160208510156154c9578190505b6154dd6154d585615395565b83018261547c565b50505b505050565b600082821c905092915050565b6000615503600019846008026154e5565b1980831691505092915050565b600061551c83836154f2565b9150826002028217905092915050565b6155368383615375565b67ffffffffffffffff81111561554f5761554e614bb8565b5b6155598254614f75565b61556482828561549f565b6000601f8311600181146155935760008415615581578287013590505b61558b8582615510565b8655506155f3565b601f1984166155a186615380565b60005b828110156155c9578489013582556001820191506020850194506020810190506155a4565b868310156155e657848901356155e2601f8916826154f2565b8355505b6001600288020188555050505b50505050505050565b7f4e6f2066756e6473206c65667420746f20776974686472617700000000000000600082015250565b6000615632601983614711565b915061563d826155fc565b602082019050919050565b6000602082019050818103600083015261566181615625565b9050919050565b600081905092915050565b50565b6000615683600083615668565b915061568e82615673565b600082019050919050565b60006156a482615676565b9150819050919050565b7f5472616e73666572206661696c65642e00000000000000000000000000000000600082015250565b60006156e4601083614711565b91506156ef826156ae565b602082019050919050565b60006020820190508181036000830152615713816156d7565b9050919050565b7f4552433732313a20696e76616c696420746f6b656e2049440000000000000000600082015250565b6000615750601883614711565b915061575b8261571a565b602082019050919050565b6000602082019050818103600083015261577f81615743565b9050919050565b7f4552433732313a2061646472657373207a65726f206973206e6f74206120766160008201527f6c6964206f776e65720000000000000000000000000000000000000000000000602082015250565b60006157e2602983614711565b91506157ed82615786565b604082019050919050565b60006020820190508181036000830152615811816157d5565b9050919050565b7f496e636f72726563742054696572000000000000000000000000000000000000600082015250565b600061584e600e83614711565b915061585982615818565b602082019050919050565b6000602082019050818103600083015261587d81615841565b9050919050565b7f4d696e74696e67206e6f7420616c6c6f77656400000000000000000000000000600082015250565b60006158ba601383614711565b91506158c582615884565b602082019050919050565b600060208201905081810360008301526158e9816158ad565b9050919050565b7f4164647265737320616c7265616479206d696e74656420746869732074696572600082015250565b6000615926602083614711565b9150615931826158f0565b602082019050919050565b6000602082019050818103600083015261595581615919565b9050919050565b7f496e76616c6964205369676e6572000000000000000000000000000000000000600082015250565b6000615992600e83614711565b915061599d8261595c565b602082019050919050565b600060208201905081810360008301526159c181615985565b9050919050565b6000819050919050565b6159e36159de82614dc6565b6159c8565b82525050565b60008160601b9050919050565b6000615a01826159e9565b9050919050565b6000615a13826159f6565b9050919050565b615a2b615a268261483b565b615a08565b82525050565b60048110615a4257615a41615165565b5b50565b6000819050615a5382615a31565b919050565b6000615a6382615a45565b9050919050565b60008160f81b9050919050565b6000615a8282615a6a565b9050919050565b615a9a615a9582615a58565b615a77565b82525050565b6000615aac82866159d2565b602082019150615abc8285615a1a565b601482019150615acc8284615a89565b600182019150819050949350505050565b600081905092915050565b7f19457468657265756d205369676e6564204d6573736167653a0a333200000000600082015250565b6000615b1e601c83615add565b9150615b2982615ae8565b601c82019050919050565b6000615b3f82615b11565b9150615b4b82846159d2565b60208201915081905092915050565b615b6381614dfc565b82525050565b6000608082019050615b7e6000830187614edc565b615b8b6020830186615b5a565b615b986040830185614edc565b615ba56060830184614edc565b95945050505050565b7f556e617574686f72697a6564205369676e657200000000000000000000000000600082015250565b6000615be4601383614711565b9150615bef82615bae565b602082019050919050565b60006020820190508181036000830152615c1381615bd7565b9050919050565b7f546f6b656e20646f6573206e6f74206578697374000000000000000000000000600082015250565b6000615c50601483614711565b9150615c5b82615c1a565b602082019050919050565b60006020820190508181036000830152615c7f81615c43565b9050919050565b7f546869732066756e6374696f6e206973206f6e6c7920666f722046495253545f60008201527f434c415353207469657200000000000000000000000000000000000000000000602082015250565b6000615ce2602a83614711565b9150615ced82615c86565b604082019050919050565b60006020820190508181036000830152615d1181615cd5565b9050919050565b7f45746865722073656e74206973206e6f7420636f727265637400000000000000600082015250565b6000615d4e601983614711565b9150615d5982615d18565b602082019050919050565b60006020820190508181036000830152615d7d81615d41565b9050919050565b7f4164647265737320616c7265616479206d696e74656420466972737400000000600082015250565b6000615dba601c83614711565b9150615dc582615d84565b602082019050919050565b60006020820190508181036000830152615de981615dad565b9050919050565b7f4f776e61626c653a206e6577206f776e657220697320746865207a65726f206160008201527f6464726573730000000000000000000000000000000000000000000000000000602082015250565b6000615e4c602683614711565b9150615e5782615df0565b604082019050919050565b60006020820190508181036000830152615e7b81615e3f565b9050919050565b7f4d617820737570706c79206d7573742062652067726561746572207468616e2060008201527f7a65726f00000000000000000000000000000000000000000000000000000000602082015250565b6000615ede602483614711565b9150615ee982615e82565b604082019050919050565b60006020820190508181036000830152615f0d81615ed1565b9050919050565b7f4f776e61626c653a2063616c6c6572206973206e6f7420746865206f776e6572600082015250565b6000615f4a602083614711565b9150615f5582615f14565b602082019050919050565b60006020820190508181036000830152615f7981615f3d565b9050919050565b7f5265656e7472616e637947756172643a207265656e7472616e742063616c6c00600082015250565b6000615fb6601f83614711565b9150615fc182615f80565b602082019050919050565b60006020820190508181036000830152615fe581615fa9565b9050919050565b7f546f6b656e20494420616c726561647920657869737473000000000000000000600082015250565b6000616022601783614711565b915061602d82615fec565b602082019050919050565b6000602082019050818103600083015261605181616015565b9050919050565b7f43616e6e6f74206d696e7420746f20746865207a65726f206164647265737300600082015250565b600061608e601f83614711565b915061609982616058565b602082019050919050565b600060208201905081810360008301526160bd81616081565b9050919050565b60006160cf826147b8565b91506160da836147b8565b92508282019050808211156160f2576160f1615194565b5b92915050565b61610182614706565b67ffffffffffffffff81111561611a57616119614bb8565b5b6161248254614f75565b61612f82828561549f565b600060209050601f8311600181146161625760008415616150578287015190505b61615a8582615510565b8655506161c2565b601f19841661617086615380565b60005b8281101561619857848901518255600182019150602085019450602081019050616173565b868310156161b557848901516161b1601f8916826154f2565b8355505b6001600288020188555050505b505050505050565b7f4552433732313a207472616e736665722066726f6d20696e636f72726563742060008201527f6f776e6572000000000000000000000000000000000000000000000000000000602082015250565b6000616226602583614711565b9150616231826161ca565b604082019050919050565b6000602082019050818103600083015261625581616219565b9050919050565b7f4552433732313a207472616e7366657220746f20746865207a65726f2061646460008201527f7265737300000000000000000000000000000000000000000000000000000000602082015250565b60006162b8602483614711565b91506162c38261625c565b604082019050919050565b600060208201905081810360008301526162e7816162ab565b9050919050565b7f4552433732313a20617070726f766520746f2063616c6c657200000000000000600082015250565b6000616324601983614711565b915061632f826162ee565b602082019050919050565b6000602082019050818103600083015261635381616317565b9050919050565b7f4552433732313a207472616e7366657220746f206e6f6e20455243373231526560008201527f63656976657220696d706c656d656e7465720000000000000000000000000000602082015250565b60006163b6603283614711565b91506163c18261635a565b604082019050919050565b600060208201905081810360008301526163e5816163a9565b9050919050565b600081519050919050565b600082825260208201905092915050565b6000616413826163ec565b61641d81856163f7565b935061642d818560208601614722565b6164368161474c565b840191505092915050565b6000608082019050616456600083018761484d565b616463602083018661484d565b61647060408301856149c2565b81810360608301526164828184616408565b905095945050505050565b60008151905061649c81614677565b92915050565b6000602082840312156164b8576164b7614641565b5b60006164c68482850161648d565b91505092915050565b7f4552433732313a206d696e7420746f20746865207a65726f2061646472657373600082015250565b6000616505602083614711565b9150616510826164cf565b602082019050919050565b60006020820190508181036000830152616534816164f8565b9050919050565b7f4552433732313a20746f6b656e20616c7265616479206d696e74656400000000600082015250565b6000616571601c83614711565b915061657c8261653b565b602082019050919050565b600060208201905081810360008301526165a081616564565b905091905056fea2646970667358221220741726ffe21ad012a3b06c2d984915a239c6d715ad9c734a9708ce52026b4a4364736f6c63430008140033697066733a2f2f516d504e535a326a6751744c6e6b343645614376636d3557513331505a444d6543746774506662426274424d7378697066733a2f2f516d5773647a74576d7058663868697547583870387358646e364b364a367a577557574d63676161365461503248697066733a2f2f516d5a316847564b556a596e4e7a77626a4a775641616b4657684458356e317144574a36525a6765724478324c4a697066733a2f2f516d59515352785556326646774b63583939513868697876796332417354454a74355447775a5445524432645851",
  "linkReferences": {},
  "deployedLinkReferences": {}
}