{
  "_format": "hh-sol-artifact-1",
  "contractName": "LingoNFT",
  "sourceName": "contracts/LingoNFT.sol",
  "abi": [
    {
      "inputs": [],
      "stateMutability": "nonpayable",
      "type": "constructor"
    },
    {
      "inputs": [],
      "name": "InvalidShortString",
      "type": "error"
    },
    {
      "inputs": [
        {
          "internalType": "string",
          "name": "str",
          "type": "string"
        }
      ],
      "name": "StringTooLong",
      "type": "error"
    },
    {
      "anonymous": false,
      "inputs": [
        {
          "indexed": true,
          "internalType": "address",
          "name": "owner",
          "type": "address"
        },
        {
          "indexed": true,
          "internalType": "address",
          "name": "approved",
          "type": "address"
        },
        {
          "indexed": true,
          "internalType": "uint256",
          "name": "tokenId",
          "type": "uint256"
        }
      ],
      "name": "Approval",
      "type": "event"
    },
    {
      "anonymous": false,
      "inputs": [
        {
          "indexed": true,
          "internalType": "address",
          "name": "owner",
          "type": "address"
        },
        {
          "indexed": true,
          "internalType": "address",
          "name": "operator",
          "type": "address"
        },
        {
          "indexed": false,
          "internalType": "bool",
          "name": "approved",
          "type": "bool"
        }
      ],
      "name": "ApprovalForAll",
      "type": "event"
    },
    {
      "anonymous": false,
      "inputs": [],
      "name": "EIP712DomainChanged",
      "type": "event"
    },
    {
      "anonymous": false,
      "inputs": [
        {
          "indexed": true,
          "internalType": "address",
          "name": "previousOwner",
          "type": "address"
        },
        {
          "indexed": true,
          "internalType": "address",
          "name": "newOwner",
          "type": "address"
        }
      ],
      "name": "OwnershipTransferred",
      "type": "event"
    },
    {
      "anonymous": false,
      "inputs": [
        {
          "indexed": true,
          "internalType": "address",
          "name": "from",
          "type": "address"
        },
        {
          "indexed": true,
          "internalType": "address",
          "name": "to",
          "type": "address"
        },
        {
          "indexed": true,
          "internalType": "uint256",
          "name": "tokenId",
          "type": "uint256"
        }
      ],
      "name": "Transfer",
      "type": "event"
    },
    {
      "inputs": [
        {
          "internalType": "address[]",
          "name": "recipients",
          "type": "address[]"
        },
        {
          "internalType": "enum LingoNFT.Tier",
          "name": "tier",
          "type": "uint8"
        }
      ],
      "name": "airdropNFT",
      "outputs": [],
      "stateMutability": "nonpayable",
      "type": "function"
    },
    {
      "inputs": [
        {
          "internalType": "address",
          "name": "to",
          "type": "address"
        },
        {
          "internalType": "uint256",
          "name": "tokenId",
          "type": "uint256"
        }
      ],
      "name": "approve",
      "outputs": [],
      "stateMutability": "nonpayable",
      "type": "function"
    },
    {
      "inputs": [
        {
          "internalType": "address",
          "name": "owner",
          "type": "address"
        }
      ],
      "name": "balanceOf",
      "outputs": [
        {
          "internalType": "uint256",
          "name": "",
          "type": "uint256"
        }
      ],
      "stateMutability": "view",
      "type": "function"
    },
    {
      "inputs": [],
      "name": "eip712Domain",
      "outputs": [
        {
          "internalType": "bytes1",
          "name": "fields",
          "type": "bytes1"
        },
        {
          "internalType": "string",
          "name": "name",
          "type": "string"
        },
        {
          "internalType": "string",
          "name": "version",
          "type": "string"
        },
        {
          "internalType": "uint256",
          "name": "chainId",
          "type": "uint256"
        },
        {
          "internalType": "address",
          "name": "verifyingContract",
          "type": "address"
        },
        {
          "internalType": "bytes32",
          "name": "salt",
          "type": "bytes32"
        },
        {
          "internalType": "uint256[]",
          "name": "extensions",
          "type": "uint256[]"
        }
      ],
      "stateMutability": "view",
      "type": "function"
    },
    {
      "inputs": [],
      "name": "firstClassMintPrice",
      "outputs": [
        {
          "internalType": "uint256",
          "name": "",
          "type": "uint256"
        }
      ],
      "stateMutability": "view",
      "type": "function"
    },
    {
      "inputs": [
        {
          "internalType": "uint256",
          "name": "tokenId",
          "type": "uint256"
        }
      ],
      "name": "getApproved",
      "outputs": [
        {
          "internalType": "address",
          "name": "",
          "type": "address"
        }
      ],
      "stateMutability": "view",
      "type": "function"
    },
    {
      "inputs": [],
      "name": "getCurrentTimestamp",
      "outputs": [
        {
          "internalType": "uint256",
          "name": "",
          "type": "uint256"
        }
      ],
      "stateMutability": "view",
      "type": "function"
    },
    {
      "inputs": [],
      "name": "getDomainSeperator",
      "outputs": [
        {
          "internalType": "bytes32",
          "name": "",
          "type": "bytes32"
        }
      ],
      "stateMutability": "view",
      "type": "function"
    },
    {
      "inputs": [],
      "name": "getFirstClassSupply",
      "outputs": [
        {
          "internalType": "uint256",
          "name": "",
          "type": "uint256"
        }
      ],
      "stateMutability": "view",
      "type": "function"
    },
    {
      "inputs": [],
      "name": "getSaleStartTime",
      "outputs": [
        {
          "internalType": "uint256",
          "name": "",
          "type": "uint256"
        }
      ],
      "stateMutability": "view",
      "type": "function"
    },
    {
      "inputs": [
        {
          "internalType": "enum LingoNFT.Tier",
          "name": "tier",
          "type": "uint8"
        }
      ],
      "name": "getTierURI",
      "outputs": [
        {
          "internalType": "string",
          "name": "",
          "type": "string"
        }
      ],
      "stateMutability": "view",
      "type": "function"
    },
    {
      "inputs": [],
      "name": "getTotalSupply",
      "outputs": [
        {
          "internalType": "uint256",
          "name": "",
          "type": "uint256"
        }
      ],
      "stateMutability": "view",
      "type": "function"
    },
    {
      "inputs": [
        {
          "internalType": "address",
          "name": "account",
          "type": "address"
        },
        {
          "internalType": "enum LingoNFT.Tier",
          "name": "tier",
          "type": "uint8"
        }
      ],
      "name": "hasMinted",
      "outputs": [
        {
          "internalType": "bool",
          "name": "",
          "type": "bool"
        }
      ],
      "stateMutability": "view",
      "type": "function"
    },
    {
      "inputs": [
        {
          "internalType": "address",
          "name": "owner",
          "type": "address"
        },
        {
          "internalType": "address",
          "name": "operator",
          "type": "address"
        }
      ],
      "name": "isApprovedForAll",
      "outputs": [
        {
          "internalType": "bool",
          "name": "",
          "type": "bool"
        }
      ],
      "stateMutability": "view",
      "type": "function"
    },
    {
      "inputs": [],
      "name": "maxFirstClassSupply",
      "outputs": [
        {
          "internalType": "uint256",
          "name": "",
          "type": "uint256"
        }
      ],
      "stateMutability": "view",
      "type": "function"
    },
    {
      "inputs": [
        {
          "internalType": "enum LingoNFT.Tier",
          "name": "tier",
          "type": "uint8"
        },
        {
          "internalType": "bytes32",
          "name": "r",
          "type": "bytes32"
        },
        {
          "internalType": "bytes32",
          "name": "s",
          "type": "bytes32"
        },
        {
          "internalType": "uint8",
          "name": "v",
          "type": "uint8"
        }
      ],
      "name": "mintEconomyBusinessClassNFT",
      "outputs": [],
      "stateMutability": "nonpayable",
      "type": "function"
    },
    {
      "inputs": [
        {
          "internalType": "enum LingoNFT.Tier",
          "name": "tier",
          "type": "uint8"
        },
        {
          "internalType": "bytes32",
          "name": "r",
          "type": "bytes32"
        },
        {
          "internalType": "bytes32",
          "name": "s",
          "type": "bytes32"
        },
        {
          "internalType": "uint8",
          "name": "v",
          "type": "uint8"
        }
      ],
      "name": "mintFirstClassNFT",
      "outputs": [],
      "stateMutability": "payable",
      "type": "function"
    },
    {
      "inputs": [
        {
          "internalType": "address[]",
          "name": "recipients",
          "type": "address[]"
        }
      ],
      "name": "mintPrivateJetNFT",
      "outputs": [],
      "stateMutability": "nonpayable",
      "type": "function"
    },
    {
      "inputs": [],
      "name": "mintSigner",
      "outputs": [
        {
          "internalType": "address",
          "name": "",
          "type": "address"
        }
      ],
      "stateMutability": "view",
      "type": "function"
    },
    {
      "inputs": [],
      "name": "name",
      "outputs": [
        {
          "internalType": "string",
          "name": "",
          "type": "string"
        }
      ],
      "stateMutability": "view",
      "type": "function"
    },
    {
      "inputs": [],
      "name": "owner",
      "outputs": [
        {
          "internalType": "address",
          "name": "",
          "type": "address"
        }
      ],
      "stateMutability": "view",
      "type": "function"
    },
    {
      "inputs": [
        {
          "internalType": "uint256",
          "name": "tokenId",
          "type": "uint256"
        }
      ],
      "name": "ownerOf",
      "outputs": [
        {
          "internalType": "address",
          "name": "",
          "type": "address"
        }
      ],
      "stateMutability": "view",
      "type": "function"
    },
    {
      "inputs": [],
      "name": "renounceOwnership",
      "outputs": [],
      "stateMutability": "nonpayable",
      "type": "function"
    },
    {
      "inputs": [
        {
          "internalType": "address",
          "name": "from",
          "type": "address"
        },
        {
          "internalType": "address",
          "name": "to",
          "type": "address"
        },
        {
          "internalType": "uint256",
          "name": "tokenId",
          "type": "uint256"
        }
      ],
      "name": "safeTransferFrom",
      "outputs": [],
      "stateMutability": "nonpayable",
      "type": "function"
    },
    {
      "inputs": [
        {
          "internalType": "address",
          "name": "from",
          "type": "address"
        },
        {
          "internalType": "address",
          "name": "to",
          "type": "address"
        },
        {
          "internalType": "uint256",
          "name": "tokenId",
          "type": "uint256"
        },
        {
          "internalType": "bytes",
          "name": "data",
          "type": "bytes"
        }
      ],
      "name": "safeTransferFrom",
      "outputs": [],
      "stateMutability": "nonpayable",
      "type": "function"
    },
    {
      "inputs": [],
      "name": "saleStartTime",
      "outputs": [
        {
          "internalType": "uint256",
          "name": "",
          "type": "uint256"
        }
      ],
      "stateMutability": "view",
      "type": "function"
    },
    {
      "inputs": [
        {
          "internalType": "address",
          "name": "operator",
          "type": "address"
        },
        {
          "internalType": "bool",
          "name": "approved",
          "type": "bool"
        }
      ],
      "name": "setApprovalForAll",
      "outputs": [],
      "stateMutability": "nonpayable",
      "type": "function"
    },
    {
      "inputs": [
        {
          "internalType": "uint256",
          "name": "_price",
          "type": "uint256"
        }
      ],
      "name": "setFirstClassMintPrice",
      "outputs": [],
      "stateMutability": "nonpayable",
      "type": "function"
    },
    {
      "inputs": [
        {
          "internalType": "uint256",
          "name": "_maxSupply",
          "type": "uint256"
        }
      ],
      "name": "setMaxFirstClassSupply",
      "outputs": [],
      "stateMutability": "nonpayable",
      "type": "function"
    },
    {
      "inputs": [
        {
          "internalType": "address",
          "name": "_signer",
          "type": "address"
        }
      ],
      "name": "setMintSigner",
      "outputs": [],
      "stateMutability": "nonpayable",
      "type": "function"
    },
    {
      "inputs": [
        {
          "internalType": "uint256",
          "name": "_startDate",
          "type": "uint256"
        }
      ],
      "name": "setSaleStartTime",
      "outputs": [],
      "stateMutability": "nonpayable",
      "type": "function"
    },
    {
      "inputs": [
        {
          "internalType": "enum LingoNFT.Tier",
          "name": "tier",
          "type": "uint8"
        },
        {
          "internalType": "string",
          "name": "uri",
          "type": "string"
        }
      ],
      "name": "setTierURI",
      "outputs": [],
      "stateMutability": "nonpayable",
      "type": "function"
    },
    {
      "inputs": [
        {
          "internalType": "bytes4",
          "name": "interfaceId",
          "type": "bytes4"
        }
      ],
      "name": "supportsInterface",
      "outputs": [
        {
          "internalType": "bool",
          "name": "",
          "type": "bool"
        }
      ],
      "stateMutability": "view",
      "type": "function"
    },
    {
      "inputs": [],
      "name": "symbol",
      "outputs": [
        {
          "internalType": "string",
          "name": "",
          "type": "string"
        }
      ],
      "stateMutability": "view",
      "type": "function"
    },
    {
      "inputs": [
        {
          "internalType": "uint256",
          "name": "tokenId",
          "type": "uint256"
        }
      ],
      "name": "tokenURI",
      "outputs": [
        {
          "internalType": "string",
          "name": "",
          "type": "string"
        }
      ],
      "stateMutability": "view",
      "type": "function"
    },
    {
      "inputs": [
        {
          "internalType": "address",
          "name": "from",
          "type": "address"
        },
        {
          "internalType": "address",
          "name": "to",
          "type": "address"
        },
        {
          "internalType": "uint256",
          "name": "tokenId",
          "type": "uint256"
        }
      ],
      "name": "transferFrom",
      "outputs": [],
      "stateMutability": "nonpayable",
      "type": "function"
    },
    {
      "inputs": [
        {
          "internalType": "address",
          "name": "newOwner",
          "type": "address"
        }
      ],
      "name": "transferOwnership",
      "outputs": [],
      "stateMutability": "nonpayable",
      "type": "function"
    },
    {
      "inputs": [],
      "name": "withdraw",
      "outputs": [],
      "stateMutability": "nonpayable",
      "type": "function"
    }
  ],
  "bytecode": "0x6101606040526000600a553480156200001757600080fd5b506040518060400160405280600981526020017f4c696e676f204e465400000000000000000000000000000000000000000000008152506040518060400160405280600181526020017f31000000000000000000000000000000000000000000000000000000000000008152506040518060400160405280600981526020017f4c696e676f204e465400000000000000000000000000000000000000000000008152506040518060400160405280600481526020017f4c494e4700000000000000000000000000000000000000000000000000000000815250816000908162000101919062000802565b50806001908162000113919062000802565b5050506200012c6006836200038e60201b90919060201c565b61012081815250506200014a6007826200038e60201b90919060201c565b6101408181525050818051906020012060e08181525050808051906020012061010081815250504660a0818152505062000189620003e660201b60201c565b608081815250503073ffffffffffffffffffffffffffffffffffffffff1660c08173ffffffffffffffffffffffffffffffffffffffff16815250505050620001e6620001da6200044360201b60201c565b6200044b60201b60201c565b6001600981905550604051806060016040528060358152602001620068066035913960116000806003811115620002225762000221620008e9565b5b6003811115620002375762000236620008e9565b5b8152602001908152602001600020908162000253919062000802565b506040518060600160405280603581526020016200683b603591396011600060016003811115620002895762000288620008e9565b5b60038111156200029e576200029d620008e9565b5b81526020019081526020016000209081620002ba919062000802565b50604051806060016040528060358152602001620067d1603591396011600060026003811115620002f057620002ef620008e9565b5b6003811115620003055762000304620008e9565b5b8152602001908152602001600020908162000321919062000802565b506040518060600160405280603581526020016200679c6035913960116000600380811115620003565762000355620008e9565b5b60038111156200036b576200036a620008e9565b5b8152602001908152602001600020908162000387919062000802565b5062000b3b565b6000602083511015620003b457620003ac836200051160201b60201c565b9050620003e0565b82620003c6836200057e60201b60201c565b6000019081620003d7919062000802565b5060ff60001b90505b92915050565b60007f8b73c3c69bb8fe3d512ecc4cf759cc79239f7b179b0ffacaa9a75d522b39400f60e0516101005146306040516020016200042895949392919062000989565b60405160208183030381529060405280519060200120905090565b600033905090565b6000600860009054906101000a900473ffffffffffffffffffffffffffffffffffffffff16905081600860006101000a81548173ffffffffffffffffffffffffffffffffffffffff021916908373ffffffffffffffffffffffffffffffffffffffff1602179055508173ffffffffffffffffffffffffffffffffffffffff168173ffffffffffffffffffffffffffffffffffffffff167f8be0079c531659141344cd1fd0a4f28419497f9722a3daafe3b4186f6b6457e060405160405180910390a35050565b600080829050601f815111156200056157826040517f305a27a900000000000000000000000000000000000000000000000000000000815260040162000558919062000a75565b60405180910390fd5b8051816200056f9062000acb565b60001c1760001b915050919050565b6000819050919050565b600081519050919050565b7f4e487b7100000000000000000000000000000000000000000000000000000000600052604160045260246000fd5b7f4e487b7100000000000000000000000000000000000000000000000000000000600052602260045260246000fd5b600060028204905060018216806200060a57607f821691505b60208210810362000620576200061f620005c2565b5b50919050565b60008190508160005260206000209050919050565b60006020601f8301049050919050565b600082821b905092915050565b6000600883026200068a7fffffffffffffffffffffffffffffffffffffffffffffffffffffffffffffffff826200064b565b6200069686836200064b565b95508019841693508086168417925050509392505050565b6000819050919050565b6000819050919050565b6000620006e3620006dd620006d784620006ae565b620006b8565b620006ae565b9050919050565b6000819050919050565b620006ff83620006c2565b620007176200070e82620006ea565b84845462000658565b825550505050565b600090565b6200072e6200071f565b6200073b818484620006f4565b505050565b5b8181101562000763576200075760008262000724565b60018101905062000741565b5050565b601f821115620007b2576200077c8162000626565b62000787846200063b565b8101602085101562000797578190505b620007af620007a6856200063b565b83018262000740565b50505b505050565b600082821c905092915050565b6000620007d760001984600802620007b7565b1980831691505092915050565b6000620007f28383620007c4565b9150826002028217905092915050565b6200080d8262000588565b67ffffffffffffffff81111562000829576200082862000593565b5b620008358254620005f1565b6200084282828562000767565b600060209050601f8311600181146200087a576000841562000865578287015190505b620008718582620007e4565b865550620008e1565b601f1984166200088a8662000626565b60005b82811015620008b4578489015182556001820191506020850194506020810190506200088d565b86831015620008d45784890151620008d0601f891682620007c4565b8355505b6001600288020188555050505b505050505050565b7f4e487b7100000000000000000000000000000000000000000000000000000000600052602160045260246000fd5b6000819050919050565b6200092d8162000918565b82525050565b6200093e81620006ae565b82525050565b600073ffffffffffffffffffffffffffffffffffffffff82169050919050565b6000620009718262000944565b9050919050565b620009838162000964565b82525050565b600060a082019050620009a0600083018862000922565b620009af602083018762000922565b620009be604083018662000922565b620009cd606083018562000933565b620009dc608083018462000978565b9695505050505050565b600082825260208201905092915050565b60005b8381101562000a17578082015181840152602081019050620009fa565b60008484015250505050565b6000601f19601f8301169050919050565b600062000a418262000588565b62000a4d8185620009e6565b935062000a5f818560208601620009f7565b62000a6a8162000a23565b840191505092915050565b6000602082019050818103600083015262000a91818462000a34565b905092915050565b600081519050919050565b6000819050602082019050919050565b600062000ac2825162000918565b80915050919050565b600062000ad88262000a99565b8262000ae48462000aa4565b905062000af18162000ab4565b9250602082101562000b345762000b2f7fffffffffffffffffffffffffffffffffffffffffffffffffffffffffffffffff836020036008026200064b565b831692505b5050919050565b60805160a05160c05160e051610100516101205161014051615c0662000b9660003960006111ed015260006111b9015260006130850152600061306401526000612680015260006126d6015260006126ff0152615c066000f3fe6080604052600436106102255760003560e01c806384b0196e11610123578063c87b56dd116100ab578063f2fde38b1161006f578063f2fde38b146107ea578063f3ad4c1f14610813578063f3e997e91461083e578063fc2418fe14610867578063ff97f6601461089257610225565b8063c87b56dd14610700578063da1642cb1461073d578063e84a972814610759578063e985e9c514610782578063f17af48d146107bf57610225565b8063b88d4fde116100f2578063b88d4fde1461062f578063bb7c7cd014610658578063c2b1ddaf14610681578063c4e41b22146106ac578063c5f50a47146106d757610225565b806384b0196e1461057f5780638da5cb5b146105b057806395d89b41146105db578063a22cb4651461060657610225565b806329caa756116101b15780635b1f4bd7116101755780635b1f4bd7146104985780636352211e146104c35780636c9230db1461050057806370a082311461052b578063715018a61461056857610225565b806329caa756146103dd578063333e972d146104065780633ccfd60b1461042f57806342842e0e14610446578063525f8a5c1461046f57610225565b80630ddd124d116101f85780630ddd124d146102f85780631cbaee2d1461032157806320379ee51461034c57806323b872dd1461037757806327af03aa146103a057610225565b806301ffc9a71461022a57806306fdde0314610267578063081812fc14610292578063095ea7b3146102cf575b600080fd5b34801561023657600080fd5b50610251600480360381019061024c91906138cb565b6108cf565b60405161025e9190613913565b60405180910390f35b34801561027357600080fd5b5061027c6109b1565b60405161028991906139be565b60405180910390f35b34801561029e57600080fd5b506102b960048036038101906102b49190613a16565b610a43565b6040516102c69190613a84565b60405180910390f35b3480156102db57600080fd5b506102f660048036038101906102f19190613acb565b610a89565b005b34801561030457600080fd5b5061031f600480360381019061031a9190613b70565b610ba0565b005b34801561032d57600080fd5b50610336610ce1565b6040516103439190613bcc565b60405180910390f35b34801561035857600080fd5b50610361610ce7565b60405161036e9190613c00565b60405180910390f35b34801561038357600080fd5b5061039e60048036038101906103999190613c1b565b610cf6565b005b3480156103ac57600080fd5b506103c760048036038101906103c29190613c93565b610d56565b6040516103d491906139be565b60405180910390f35b3480156103e957600080fd5b5061040460048036038101906103ff9190613a16565b610e1f565b005b34801561041257600080fd5b5061042d60048036038101906104289190613d16565b610e74565b005b34801561043b57600080fd5b50610444610f0e565b005b34801561045257600080fd5b5061046d60048036038101906104689190613c1b565b611015565b005b34801561047b57600080fd5b5061049660048036038101906104919190613a16565b611035565b005b3480156104a457600080fd5b506104ad611047565b6040516104ba9190613bcc565b60405180910390f35b3480156104cf57600080fd5b506104ea60048036038101906104e59190613a16565b61104d565b6040516104f79190613a84565b60405180910390f35b34801561050c57600080fd5b506105156110d3565b6040516105229190613bcc565b60405180910390f35b34801561053757600080fd5b50610552600480360381019061054d9190613d76565b6110db565b60405161055f9190613bcc565b60405180910390f35b34801561057457600080fd5b5061057d611192565b005b34801561058b57600080fd5b506105946111a6565b6040516105a79796959493929190613e9c565b60405180910390f35b3480156105bc57600080fd5b506105c56112a8565b6040516105d29190613a84565b60405180910390f35b3480156105e757600080fd5b506105f06112d2565b6040516105fd91906139be565b60405180910390f35b34801561061257600080fd5b5061062d60048036038101906106289190613f4c565b611364565b005b34801561063b57600080fd5b50610656600480360381019061065191906140bc565b61137a565b005b34801561066457600080fd5b5061067f600480360381019061067a919061413f565b6113dc565b005b34801561068d57600080fd5b50610696611580565b6040516106a39190613bcc565b60405180910390f35b3480156106b857600080fd5b506106c161158a565b6040516106ce9190613bcc565b60405180910390f35b3480156106e357600080fd5b506106fe60048036038101906106f99190614204565b611594565b005b34801561070c57600080fd5b5061072760048036038101906107229190613a16565b611a41565b60405161073491906139be565b60405180910390f35b61075760048036038101906107529190614204565b611b2e565b005b34801561076557600080fd5b50610780600480360381019061077b9190613d76565b611f65565b005b34801561078e57600080fd5b506107a960048036038101906107a4919061426b565b612020565b6040516107b69190613913565b60405180910390f35b3480156107cb57600080fd5b506107d46120b4565b6040516107e19190613a84565b60405180910390f35b3480156107f657600080fd5b50610811600480360381019061080c9190613d76565b6120da565b005b34801561081f57600080fd5b5061082861215d565b6040516108359190613bcc565b60405180910390f35b34801561084a57600080fd5b5061086560048036038101906108609190613a16565b612163565b005b34801561087357600080fd5b5061087c6121b8565b6040516108899190613bcc565b60405180910390f35b34801561089e57600080fd5b506108b960048036038101906108b491906142ab565b6121c2565b6040516108c69190613913565b60405180910390f35b60007f80ac58cd000000000000000000000000000000000000000000000000000000007bffffffffffffffffffffffffffffffffffffffffffffffffffffffff1916827bffffffffffffffffffffffffffffffffffffffffffffffffffffffff1916148061099a57507f5b5e139f000000000000000000000000000000000000000000000000000000007bffffffffffffffffffffffffffffffffffffffffffffffffffffffff1916827bffffffffffffffffffffffffffffffffffffffffffffffffffffffff1916145b806109aa57506109a98261224e565b5b9050919050565b6060600080546109c09061431a565b80601f01602080910402602001604051908101604052809291908181526020018280546109ec9061431a565b8015610a395780601f10610a0e57610100808354040283529160200191610a39565b820191906000526020600020905b815481529060010190602001808311610a1c57829003601f168201915b5050505050905090565b6000610a4e826122b8565b6004600083815260200190815260200160002060009054906101000a900473ffffffffffffffffffffffffffffffffffffffff169050919050565b6000610a948261104d565b90508073ffffffffffffffffffffffffffffffffffffffff168373ffffffffffffffffffffffffffffffffffffffff1603610b04576040517f08c379a0000000000000000000000000000000000000000000000000000000008152600401610afb906143bd565b60405180910390fd5b8073ffffffffffffffffffffffffffffffffffffffff16610b23612303565b73ffffffffffffffffffffffffffffffffffffffff161480610b525750610b5181610b4c612303565b612020565b5b610b91576040517f08c379a0000000000000000000000000000000000000000000000000000000008152600401610b889061444f565b60405180910390fd5b610b9b838361230b565b505050565b610ba86123c4565b610bb0612413565b600080600090505b83839050811015610cd357610bcb612491565b9150610cc0848483818110610be357610be261446f565b5b9050602002016020810190610bf89190613d76565b8360116000600380811115610c1057610c0f61449e565b5b6003811115610c2257610c2161449e565b5b81526020019081526020016000208054610c3b9061431a565b80601f0160208091040260200160405190810160405280929190818152602001828054610c679061431a565b8015610cb45780601f10610c8957610100808354040283529160200191610cb4565b820191906000526020600020905b815481529060010190602001808311610c9757829003601f168201915b505050505060036124a0565b8080610ccb906144fc565b915050610bb8565b5050610cdd612672565b5050565b600a5481565b6000610cf161267c565b905090565b610d07610d01612303565b82612733565b610d46576040517f08c379a0000000000000000000000000000000000000000000000000000000008152600401610d3d906145b6565b60405180910390fd5b610d518383836127c8565b505050565b606060116000836003811115610d6f57610d6e61449e565b5b6003811115610d8157610d8061449e565b5b81526020019081526020016000208054610d9a9061431a565b80601f0160208091040260200160405190810160405280929190818152602001828054610dc69061431a565b8015610e135780601f10610de857610100808354040283529160200191610e13565b820191906000526020600020905b815481529060010190602001808311610df657829003601f168201915b50505050509050919050565b610e27612413565b60008111610e6a576040517f08c379a0000000000000000000000000000000000000000000000000000000008152600401610e6190614622565b60405180910390fd5b80600c8190555050565b610e7c612413565b60008282905011610ec2576040517f08c379a0000000000000000000000000000000000000000000000000000000008152600401610eb99061468e565b60405180910390fd5b818160116000866003811115610edb57610eda61449e565b5b6003811115610eed57610eec61449e565b5b81526020019081526020016000209182610f08929190614865565b50505050565b610f16612413565b600047905060008111610f5e576040517f08c379a0000000000000000000000000000000000000000000000000000000008152600401610f5590614981565b60405180910390fd5b6000610f686112a8565b73ffffffffffffffffffffffffffffffffffffffff1682604051610f8b906149d2565b60006040518083038185875af1925050503d8060008114610fc8576040519150601f19603f3d011682016040523d82523d6000602084013e610fcd565b606091505b5050905080611011576040517f08c379a000000000000000000000000000000000000000000000000000000000815260040161100890614a33565b60405180910390fd5b5050565b6110308383836040518060200160405280600081525061137a565b505050565b61103d612413565b80600a8190555050565b600c5481565b60008061105983612ac1565b9050600073ffffffffffffffffffffffffffffffffffffffff168173ffffffffffffffffffffffffffffffffffffffff16036110ca576040517f08c379a00000000000000000000000000000000000000000000000000000000081526004016110c190614a9f565b60405180910390fd5b80915050919050565b600042905090565b60008073ffffffffffffffffffffffffffffffffffffffff168273ffffffffffffffffffffffffffffffffffffffff160361114b576040517f08c379a000000000000000000000000000000000000000000000000000000000815260040161114290614b31565b60405180910390fd5b600360008373ffffffffffffffffffffffffffffffffffffffff1673ffffffffffffffffffffffffffffffffffffffff168152602001908152602001600020549050919050565b61119a612413565b6111a46000612afe565b565b6000606080600080600060606111e660067f0000000000000000000000000000000000000000000000000000000000000000612bc490919063ffffffff16565b61121a60077f0000000000000000000000000000000000000000000000000000000000000000612bc490919063ffffffff16565b46306000801b600067ffffffffffffffff81111561123b5761123a613f91565b5b6040519080825280602002602001820160405280156112695781602001602082028036833780820191505090505b507f0f00000000000000000000000000000000000000000000000000000000000000959493929190965096509650965096509650965090919293949596565b6000600860009054906101000a900473ffffffffffffffffffffffffffffffffffffffff16905090565b6060600180546112e19061431a565b80601f016020809104026020016040519081016040528092919081815260200182805461130d9061431a565b801561135a5780601f1061132f5761010080835404028352916020019161135a565b820191906000526020600020905b81548152906001019060200180831161133d57829003601f168201915b5050505050905090565b61137661136f612303565b8383612c74565b5050565b61138b611385612303565b83612733565b6113ca576040517f08c379a00000000000000000000000000000000000000000000000000000000081526004016113c1906145b6565b60405180910390fd5b6113d684848484612de0565b50505050565b6113e46123c4565b6113ec612413565b6003808111156113ff576113fe61449e565b5b8160038111156114125761141161449e565b5b03611452576040517f08c379a000000000000000000000000000000000000000000000000000000000815260040161144990614b9d565b60405180910390fd5b60005b8383905081101561157257600061146a612491565b905061155e8585848181106114825761148161446f565b5b90506020020160208101906114979190613d76565b82601160008760038111156114af576114ae61449e565b5b60038111156114c1576114c061449e565b5b815260200190815260200160002080546114da9061431a565b80601f01602080910402602001604051908101604052809291908181526020018280546115069061431a565b80156115535780601f1061152857610100808354040283529160200191611553565b820191906000526020600020905b81548152906001019060200180831161153657829003601f168201915b5050505050866124a0565b50808061156a906144fc565b915050611455565b5061157b612672565b505050565b6000600a54905090565b6000600f54905090565b61159c6123c4565b6000600a54141580156115b15750600a544210155b6115f0576040517f08c379a00000000000000000000000000000000000000000000000000000000081526004016115e790614c09565b60405180910390fd5b600060038111156116045761160361449e565b5b8460038111156116175761161661449e565b5b14806116475750600160038111156116325761163161449e565b5b8460038111156116455761164461449e565b5b145b611686576040517f08c379a000000000000000000000000000000000000000000000000000000000815260040161167d90614b9d565b60405180910390fd5b601260003373ffffffffffffffffffffffffffffffffffffffff1673ffffffffffffffffffffffffffffffffffffffff16815260200190815260200160002060008560038111156116da576116d961449e565b5b60038111156116ec576116eb61449e565b5b815260200190815260200160002060009054906101000a900460ff1615611748576040517f08c379a000000000000000000000000000000000000000000000000000000000815260040161173f90614c75565b60405180910390fd5b600060405180604001604052803373ffffffffffffffffffffffffffffffffffffffff1681526020018660038111156117845761178361449e565b5b81525090506000816000015182602001516040516020016117a6929190614cdd565b60405160208183030381529060405280519060200120905060006117d16117cb61267c565b83612e3c565b90506118126040518060400160405280600d81526020017f626c6f636b2e636861696e49640000000000000000000000000000000000000081525046612e7d565b61185c6040518060400160405280600d81526020017f45434453412e7265636f7665720000000000000000000000000000000000000081525061185783878a8a612f19565b612f44565b6118bd6040518060400160405280600a81526020017f6d696e745369676e657200000000000000000000000000000000000000000000815250600b60009054906101000a900473ffffffffffffffffffffffffffffffffffffffff16612f44565b600b60009054906101000a900473ffffffffffffffffffffffffffffffffffffffff1673ffffffffffffffffffffffffffffffffffffffff1661190282868989612f19565b73ffffffffffffffffffffffffffffffffffffffff1614611958576040517f08c379a000000000000000000000000000000000000000000000000000000000815260040161194f90614d52565b60405180910390fd5b6000611962612491565b9050611a2f3382601160008c60038111156119805761197f61449e565b5b60038111156119925761199161449e565b5b815260200190815260200160002080546119ab9061431a565b80601f01602080910402602001604051908101604052809291908181526020018280546119d79061431a565b8015611a245780601f106119f957610100808354040283529160200191611a24565b820191906000526020600020905b815481529060010190602001808311611a0757829003601f168201915b50505050508b6124a0565b50505050611a3b612672565b50505050565b6060611a4c82612fe0565b611a8b576040517f08c379a0000000000000000000000000000000000000000000000000000000008152600401611a8290614dbe565b60405180910390fd5b601060008381526020019081526020016000208054611aa99061431a565b80601f0160208091040260200160405190810160405280929190818152602001828054611ad59061431a565b8015611b225780601f10611af757610100808354040283529160200191611b22565b820191906000526020600020905b815481529060010190602001808311611b0557829003601f168201915b50505050509050919050565b611b366123c4565b6000600a5414158015611b4b5750600a544210155b611b8a576040517f08c379a0000000000000000000000000000000000000000000000000000000008152600401611b8190614c09565b60405180910390fd5b60026003811115611b9e57611b9d61449e565b5b846003811115611bb157611bb061449e565b5b14611bf1576040517f08c379a0000000000000000000000000000000000000000000000000000000008152600401611be890614e50565b60405180910390fd5b600c543414611c35576040517f08c379a0000000000000000000000000000000000000000000000000000000008152600401611c2c90614ebc565b60405180910390fd5b601260003373ffffffffffffffffffffffffffffffffffffffff1673ffffffffffffffffffffffffffffffffffffffff168152602001908152602001600020600060026003811115611c8a57611c8961449e565b5b6003811115611c9c57611c9b61449e565b5b815260200190815260200160002060009054906101000a900460ff1615611cf8576040517f08c379a0000000000000000000000000000000000000000000000000000000008152600401611cef90614f28565b60405180910390fd5b600d54600e5410611d3e576040517f08c379a0000000000000000000000000000000000000000000000000000000008152600401611d3590614f94565b60405180910390fd5b6000611d4861267c565b3386604051602001611d5c93929190615053565b604051602081830303815290604052805190602001209050600081604051602001611d8791906150e7565b604051602081830303815290604052805190602001209050600b60009054906101000a900473ffffffffffffffffffffffffffffffffffffffff1673ffffffffffffffffffffffffffffffffffffffff1660018285888860405160008152602001604052604051611dfb949392919061511c565b6020604051602081039080840390855afa158015611e1d573d6000803e3d6000fd5b5050506020604051035173ffffffffffffffffffffffffffffffffffffffff1614611e7d576040517f08c379a0000000000000000000000000000000000000000000000000000000008152600401611e7490614d52565b60405180910390fd5b6000611e87612491565b9050611f543382601160008b6003811115611ea557611ea461449e565b5b6003811115611eb757611eb661449e565b5b81526020019081526020016000208054611ed09061431a565b80601f0160208091040260200160405190810160405280929190818152602001828054611efc9061431a565b8015611f495780601f10611f1e57610100808354040283529160200191611f49565b820191906000526020600020905b815481529060010190602001808311611f2c57829003601f168201915b50505050508a6124a0565b505050611f5f612672565b50505050565b611f6d612413565b600073ffffffffffffffffffffffffffffffffffffffff168173ffffffffffffffffffffffffffffffffffffffff1603611fdc576040517f08c379a0000000000000000000000000000000000000000000000000000000008152600401611fd3906151ad565b60405180910390fd5b80600b60006101000a81548173ffffffffffffffffffffffffffffffffffffffff021916908373ffffffffffffffffffffffffffffffffffffffff16021790555050565b6000600560008473ffffffffffffffffffffffffffffffffffffffff1673ffffffffffffffffffffffffffffffffffffffff16815260200190815260200160002060008373ffffffffffffffffffffffffffffffffffffffff1673ffffffffffffffffffffffffffffffffffffffff16815260200190815260200160002060009054906101000a900460ff16905092915050565b600b60009054906101000a900473ffffffffffffffffffffffffffffffffffffffff1681565b6120e2612413565b600073ffffffffffffffffffffffffffffffffffffffff168173ffffffffffffffffffffffffffffffffffffffff1603612151576040517f08c379a00000000000000000000000000000000000000000000000000000000081526004016121489061523f565b60405180910390fd5b61215a81612afe565b50565b600d5481565b61216b612413565b600081116121ae576040517f08c379a00000000000000000000000000000000000000000000000000000000081526004016121a5906152d1565b60405180910390fd5b80600d8190555050565b6000600e54905090565b6000601260008473ffffffffffffffffffffffffffffffffffffffff1673ffffffffffffffffffffffffffffffffffffffff16815260200190815260200160002060008360038111156122185761221761449e565b5b600381111561222a5761222961449e565b5b815260200190815260200160002060009054906101000a900460ff16905092915050565b60007f01ffc9a7000000000000000000000000000000000000000000000000000000007bffffffffffffffffffffffffffffffffffffffffffffffffffffffff1916827bffffffffffffffffffffffffffffffffffffffffffffffffffffffff1916149050919050565b6122c181612fe0565b612300576040517f08c379a00000000000000000000000000000000000000000000000000000000081526004016122f790614a9f565b60405180910390fd5b50565b600033905090565b816004600083815260200190815260200160002060006101000a81548173ffffffffffffffffffffffffffffffffffffffff021916908373ffffffffffffffffffffffffffffffffffffffff160217905550808273ffffffffffffffffffffffffffffffffffffffff1661237e8361104d565b73ffffffffffffffffffffffffffffffffffffffff167f8c5be1e5ebec7d5bd14f71427d1e84f3dd0314c0f7b2291e5b200ac8c7c3b92560405160405180910390a45050565b600260095403612409576040517f08c379a00000000000000000000000000000000000000000000000000000000081526004016124009061533d565b60405180910390fd5b6002600981905550565b61241b612303565b73ffffffffffffffffffffffffffffffffffffffff166124396112a8565b73ffffffffffffffffffffffffffffffffffffffff161461248f576040517f08c379a0000000000000000000000000000000000000000000000000000000008152600401612486906153a9565b60405180910390fd5b565b600080600f5490508091505090565b6124a983612fe0565b156124e9576040517f08c379a00000000000000000000000000000000000000000000000000000000081526004016124e090615415565b60405180910390fd5b600073ffffffffffffffffffffffffffffffffffffffff168473ffffffffffffffffffffffffffffffffffffffff1603612558576040517f08c379a000000000000000000000000000000000000000000000000000000000815260040161254f90615481565b60405180910390fd5b6001601260003373ffffffffffffffffffffffffffffffffffffffff1673ffffffffffffffffffffffffffffffffffffffff16815260200190815260200160002060008360038111156125ae576125ad61449e565b5b60038111156125c0576125bf61449e565b5b815260200190815260200160002060006101000a81548160ff0219169083151502179055506001600f546125f491906154a1565b600f819055508160106000858152602001908152602001600020908161261a91906154d5565b506126258484613021565b600260038111156126395761263861449e565b5b81600381111561264c5761264b61449e565b5b0361266c576001600e600082825461266491906154a1565b925050819055505b50505050565b6001600981905550565b60007f000000000000000000000000000000000000000000000000000000000000000073ffffffffffffffffffffffffffffffffffffffff163073ffffffffffffffffffffffffffffffffffffffff161480156126f857507f000000000000000000000000000000000000000000000000000000000000000046145b15612725577f00000000000000000000000000000000000000000000000000000000000000009050612730565b61272d61303f565b90505b90565b60008061273f8361104d565b90508073ffffffffffffffffffffffffffffffffffffffff168473ffffffffffffffffffffffffffffffffffffffff16148061278157506127808185612020565b5b806127bf57508373ffffffffffffffffffffffffffffffffffffffff166127a784610a43565b73ffffffffffffffffffffffffffffffffffffffff16145b91505092915050565b8273ffffffffffffffffffffffffffffffffffffffff166127e88261104d565b73ffffffffffffffffffffffffffffffffffffffff161461283e576040517f08c379a000000000000000000000000000000000000000000000000000000000815260040161283590615619565b60405180910390fd5b600073ffffffffffffffffffffffffffffffffffffffff168273ffffffffffffffffffffffffffffffffffffffff16036128ad576040517f08c379a00000000000000000000000000000000000000000000000000000000081526004016128a4906156ab565b60405180910390fd5b6128ba83838360016130d5565b8273ffffffffffffffffffffffffffffffffffffffff166128da8261104d565b73ffffffffffffffffffffffffffffffffffffffff1614612930576040517f08c379a000000000000000000000000000000000000000000000000000000000815260040161292790615619565b60405180910390fd5b6004600082815260200190815260200160002060006101000a81549073ffffffffffffffffffffffffffffffffffffffff02191690556001600360008573ffffffffffffffffffffffffffffffffffffffff1673ffffffffffffffffffffffffffffffffffffffff168152602001908152602001600020600082825403925050819055506001600360008473ffffffffffffffffffffffffffffffffffffffff1673ffffffffffffffffffffffffffffffffffffffff16815260200190815260200160002060008282540192505081905550816002600083815260200190815260200160002060006101000a81548173ffffffffffffffffffffffffffffffffffffffff021916908373ffffffffffffffffffffffffffffffffffffffff160217905550808273ffffffffffffffffffffffffffffffffffffffff168473ffffffffffffffffffffffffffffffffffffffff167fddf252ad1be2c89b69c2b068fc378daa952ba7f163c4a11628f55a4df523b3ef60405160405180910390a4612abc83838360016130db565b505050565b60006002600083815260200190815260200160002060009054906101000a900473ffffffffffffffffffffffffffffffffffffffff169050919050565b6000600860009054906101000a900473ffffffffffffffffffffffffffffffffffffffff16905081600860006101000a81548173ffffffffffffffffffffffffffffffffffffffff021916908373ffffffffffffffffffffffffffffffffffffffff1602179055508173ffffffffffffffffffffffffffffffffffffffff168173ffffffffffffffffffffffffffffffffffffffff167f8be0079c531659141344cd1fd0a4f28419497f9722a3daafe3b4186f6b6457e060405160405180910390a35050565b606060ff60001b8314612be157612bda836130e1565b9050612c6e565b818054612bed9061431a565b80601f0160208091040260200160405190810160405280929190818152602001828054612c199061431a565b8015612c665780601f10612c3b57610100808354040283529160200191612c66565b820191906000526020600020905b815481529060010190602001808311612c4957829003601f168201915b505050505090505b92915050565b8173ffffffffffffffffffffffffffffffffffffffff168373ffffffffffffffffffffffffffffffffffffffff1603612ce2576040517f08c379a0000000000000000000000000000000000000000000000000000000008152600401612cd990615717565b60405180910390fd5b80600560008573ffffffffffffffffffffffffffffffffffffffff1673ffffffffffffffffffffffffffffffffffffffff16815260200190815260200160002060008473ffffffffffffffffffffffffffffffffffffffff1673ffffffffffffffffffffffffffffffffffffffff16815260200190815260200160002060006101000a81548160ff0219169083151502179055508173ffffffffffffffffffffffffffffffffffffffff168373ffffffffffffffffffffffffffffffffffffffff167f17307eab39ab6107e8899845ad3d59bd9653f200f220920489ca2b5937696c3183604051612dd39190613913565b60405180910390a3505050565b612deb8484846127c8565b612df784848484613155565b612e36576040517f08c379a0000000000000000000000000000000000000000000000000000000008152600401612e2d906157a9565b60405180910390fd5b50505050565b60006040517f190100000000000000000000000000000000000000000000000000000000000081528360028201528260228201526042812091505092915050565b612f158282604051602401612e939291906157c9565b6040516020818303038152906040527fb60e72cc000000000000000000000000000000000000000000000000000000007bffffffffffffffffffffffffffffffffffffffffffffffffffffffff19166020820180517bffffffffffffffffffffffffffffffffffffffffffffffffffffffff83818316178352505050506132dc565b5050565b6000806000612f2a878787876132f6565b91509150612f37816133d8565b8192505050949350505050565b612fdc8282604051602401612f5a9291906157f9565b6040516020818303038152906040527f319af333000000000000000000000000000000000000000000000000000000007bffffffffffffffffffffffffffffffffffffffffffffffffffffffff19166020820180517bffffffffffffffffffffffffffffffffffffffffffffffffffffffff83818316178352505050506132dc565b5050565b60008073ffffffffffffffffffffffffffffffffffffffff1661300283612ac1565b73ffffffffffffffffffffffffffffffffffffffff1614159050919050565b61303b82826040518060200160405280600081525061353e565b5050565b60007f8b73c3c69bb8fe3d512ecc4cf759cc79239f7b179b0ffacaa9a75d522b39400f7f00000000000000000000000000000000000000000000000000000000000000007f000000000000000000000000000000000000000000000000000000000000000046306040516020016130ba959493929190615829565b60405160208183030381529060405280519060200120905090565b50505050565b50505050565b606060006130ee83613599565b90506000602067ffffffffffffffff81111561310d5761310c613f91565b5b6040519080825280601f01601f19166020018201604052801561313f5781602001600182028036833780820191505090505b5090508181528360208201528092505050919050565b60006131768473ffffffffffffffffffffffffffffffffffffffff166135e9565b156132cf578373ffffffffffffffffffffffffffffffffffffffff1663150b7a0261319f612303565b8786866040518563ffffffff1660e01b81526004016131c194939291906158d1565b6020604051808303816000875af19250505080156131fd57506040513d601f19601f820116820180604052508101906131fa9190615932565b60015b61327f573d806000811461322d576040519150601f19603f3d011682016040523d82523d6000602084013e613232565b606091505b506000815103613277576040517f08c379a000000000000000000000000000000000000000000000000000000000815260040161326e906157a9565b60405180910390fd5b805181602001fd5b63150b7a0260e01b7bffffffffffffffffffffffffffffffffffffffffffffffffffffffff1916817bffffffffffffffffffffffffffffffffffffffffffffffffffffffff1916149150506132d4565b600190505b949350505050565b6132f3816132eb61360c61362d565b63ffffffff16565b50565b6000807f7fffffffffffffffffffffffffffffff5d576e7357a4501ddfe92f46681b20a08360001c11156133315760006003915091506133cf565b600060018787878760405160008152602001604052604051613356949392919061511c565b6020604051602081039080840390855afa158015613378573d6000803e3d6000fd5b505050602060405103519050600073ffffffffffffffffffffffffffffffffffffffff168173ffffffffffffffffffffffffffffffffffffffff16036133c6576000600192509250506133cf565b80600092509250505b94509492505050565b600060048111156133ec576133eb61449e565b5b8160048111156133ff576133fe61449e565b5b031561353b57600160048111156134195761341861449e565b5b81600481111561342c5761342b61449e565b5b0361346c576040517f08c379a0000000000000000000000000000000000000000000000000000000008152600401613463906159ab565b60405180910390fd5b600260048111156134805761347f61449e565b5b8160048111156134935761349261449e565b5b036134d3576040517f08c379a00000000000000000000000000000000000000000000000000000000081526004016134ca90615a17565b60405180910390fd5b600360048111156134e7576134e661449e565b5b8160048111156134fa576134f961449e565b5b0361353a576040517f08c379a000000000000000000000000000000000000000000000000000000000815260040161353190615aa9565b60405180910390fd5b5b50565b6135488383613638565b6135556000848484613155565b613594576040517f08c379a000000000000000000000000000000000000000000000000000000000815260040161358b906157a9565b60405180910390fd5b505050565b60008060ff8360001c169050601f8111156135e0576040517fb3512b0c00000000000000000000000000000000000000000000000000000000815260040160405180910390fd5b80915050919050565b6000808273ffffffffffffffffffffffffffffffffffffffff163b119050919050565b60006a636f6e736f6c652e6c6f679050600080835160208501845afa505050565b613855819050919050565b600073ffffffffffffffffffffffffffffffffffffffff168273ffffffffffffffffffffffffffffffffffffffff16036136a7576040517f08c379a000000000000000000000000000000000000000000000000000000000815260040161369e90615b15565b60405180910390fd5b6136b081612fe0565b156136f0576040517f08c379a00000000000000000000000000000000000000000000000000000000081526004016136e790615b81565b60405180910390fd5b6136fe6000838360016130d5565b61370781612fe0565b15613747576040517f08c379a000000000000000000000000000000000000000000000000000000000815260040161373e90615b81565b60405180910390fd5b6001600360008473ffffffffffffffffffffffffffffffffffffffff1673ffffffffffffffffffffffffffffffffffffffff16815260200190815260200160002060008282540192505081905550816002600083815260200190815260200160002060006101000a81548173ffffffffffffffffffffffffffffffffffffffff021916908373ffffffffffffffffffffffffffffffffffffffff160217905550808273ffffffffffffffffffffffffffffffffffffffff16600073ffffffffffffffffffffffffffffffffffffffff167fddf252ad1be2c89b69c2b068fc378daa952ba7f163c4a11628f55a4df523b3ef60405160405180910390a46138516000838360016130db565b5050565b61385d615ba1565b565b6000604051905090565b600080fd5b600080fd5b60007fffffffff0000000000000000000000000000000000000000000000000000000082169050919050565b6138a881613873565b81146138b357600080fd5b50565b6000813590506138c58161389f565b92915050565b6000602082840312156138e1576138e0613869565b5b60006138ef848285016138b6565b91505092915050565b60008115159050919050565b61390d816138f8565b82525050565b60006020820190506139286000830184613904565b92915050565b600081519050919050565b600082825260208201905092915050565b60005b8381101561396857808201518184015260208101905061394d565b60008484015250505050565b6000601f19601f8301169050919050565b60006139908261392e565b61399a8185613939565b93506139aa81856020860161394a565b6139b381613974565b840191505092915050565b600060208201905081810360008301526139d88184613985565b905092915050565b6000819050919050565b6139f3816139e0565b81146139fe57600080fd5b50565b600081359050613a10816139ea565b92915050565b600060208284031215613a2c57613a2b613869565b5b6000613a3a84828501613a01565b91505092915050565b600073ffffffffffffffffffffffffffffffffffffffff82169050919050565b6000613a6e82613a43565b9050919050565b613a7e81613a63565b82525050565b6000602082019050613a996000830184613a75565b92915050565b613aa881613a63565b8114613ab357600080fd5b50565b600081359050613ac581613a9f565b92915050565b60008060408385031215613ae257613ae1613869565b5b6000613af085828601613ab6565b9250506020613b0185828601613a01565b9150509250929050565b600080fd5b600080fd5b600080fd5b60008083601f840112613b3057613b2f613b0b565b5b8235905067ffffffffffffffff811115613b4d57613b4c613b10565b5b602083019150836020820283011115613b6957613b68613b15565b5b9250929050565b60008060208385031215613b8757613b86613869565b5b600083013567ffffffffffffffff811115613ba557613ba461386e565b5b613bb185828601613b1a565b92509250509250929050565b613bc6816139e0565b82525050565b6000602082019050613be16000830184613bbd565b92915050565b6000819050919050565b613bfa81613be7565b82525050565b6000602082019050613c156000830184613bf1565b92915050565b600080600060608486031215613c3457613c33613869565b5b6000613c4286828701613ab6565b9350506020613c5386828701613ab6565b9250506040613c6486828701613a01565b9150509250925092565b60048110613c7b57600080fd5b50565b600081359050613c8d81613c6e565b92915050565b600060208284031215613ca957613ca8613869565b5b6000613cb784828501613c7e565b91505092915050565b60008083601f840112613cd657613cd5613b0b565b5b8235905067ffffffffffffffff811115613cf357613cf2613b10565b5b602083019150836001820283011115613d0f57613d0e613b15565b5b9250929050565b600080600060408486031215613d2f57613d2e613869565b5b6000613d3d86828701613c7e565b935050602084013567ffffffffffffffff811115613d5e57613d5d61386e565b5b613d6a86828701613cc0565b92509250509250925092565b600060208284031215613d8c57613d8b613869565b5b6000613d9a84828501613ab6565b91505092915050565b60007fff0000000000000000000000000000000000000000000000000000000000000082169050919050565b613dd881613da3565b82525050565b600081519050919050565b600082825260208201905092915050565b6000819050602082019050919050565b613e13816139e0565b82525050565b6000613e258383613e0a565b60208301905092915050565b6000602082019050919050565b6000613e4982613dde565b613e538185613de9565b9350613e5e83613dfa565b8060005b83811015613e8f578151613e768882613e19565b9750613e8183613e31565b925050600181019050613e62565b5085935050505092915050565b600060e082019050613eb1600083018a613dcf565b8181036020830152613ec38189613985565b90508181036040830152613ed78188613985565b9050613ee66060830187613bbd565b613ef36080830186613a75565b613f0060a0830185613bf1565b81810360c0830152613f128184613e3e565b905098975050505050505050565b613f29816138f8565b8114613f3457600080fd5b50565b600081359050613f4681613f20565b92915050565b60008060408385031215613f6357613f62613869565b5b6000613f7185828601613ab6565b9250506020613f8285828601613f37565b9150509250929050565b600080fd5b7f4e487b7100000000000000000000000000000000000000000000000000000000600052604160045260246000fd5b613fc982613974565b810181811067ffffffffffffffff82111715613fe857613fe7613f91565b5b80604052505050565b6000613ffb61385f565b90506140078282613fc0565b919050565b600067ffffffffffffffff82111561402757614026613f91565b5b61403082613974565b9050602081019050919050565b82818337600083830152505050565b600061405f61405a8461400c565b613ff1565b90508281526020810184848401111561407b5761407a613f8c565b5b61408684828561403d565b509392505050565b600082601f8301126140a3576140a2613b0b565b5b81356140b384826020860161404c565b91505092915050565b600080600080608085870312156140d6576140d5613869565b5b60006140e487828801613ab6565b94505060206140f587828801613ab6565b935050604061410687828801613a01565b925050606085013567ffffffffffffffff8111156141275761412661386e565b5b6141338782880161408e565b91505092959194509250565b60008060006040848603121561415857614157613869565b5b600084013567ffffffffffffffff8111156141765761417561386e565b5b61418286828701613b1a565b9350935050602061419586828701613c7e565b9150509250925092565b6141a881613be7565b81146141b357600080fd5b50565b6000813590506141c58161419f565b92915050565b600060ff82169050919050565b6141e1816141cb565b81146141ec57600080fd5b50565b6000813590506141fe816141d8565b92915050565b6000806000806080858703121561421e5761421d613869565b5b600061422c87828801613c7e565b945050602061423d878288016141b6565b935050604061424e878288016141b6565b925050606061425f878288016141ef565b91505092959194509250565b6000806040838503121561428257614281613869565b5b600061429085828601613ab6565b92505060206142a185828601613ab6565b9150509250929050565b600080604083850312156142c2576142c1613869565b5b60006142d085828601613ab6565b92505060206142e185828601613c7e565b9150509250929050565b7f4e487b7100000000000000000000000000000000000000000000000000000000600052602260045260246000fd5b6000600282049050600182168061433257607f821691505b602082108103614345576143446142eb565b5b50919050565b7f4552433732313a20617070726f76616c20746f2063757272656e74206f776e6560008201527f7200000000000000000000000000000000000000000000000000000000000000602082015250565b60006143a7602183613939565b91506143b28261434b565b604082019050919050565b600060208201905081810360008301526143d68161439a565b9050919050565b7f4552433732313a20617070726f76652063616c6c6572206973206e6f7420746f60008201527f6b656e206f776e6572206f7220617070726f76656420666f7220616c6c000000602082015250565b6000614439603d83613939565b9150614444826143dd565b604082019050919050565b600060208201905081810360008301526144688161442c565b9050919050565b7f4e487b7100000000000000000000000000000000000000000000000000000000600052603260045260246000fd5b7f4e487b7100000000000000000000000000000000000000000000000000000000600052602160045260246000fd5b7f4e487b7100000000000000000000000000000000000000000000000000000000600052601160045260246000fd5b6000614507826139e0565b91507fffffffffffffffffffffffffffffffffffffffffffffffffffffffffffffffff8203614539576145386144cd565b5b600182019050919050565b7f4552433732313a2063616c6c6572206973206e6f7420746f6b656e206f776e6560008201527f72206f7220617070726f76656400000000000000000000000000000000000000602082015250565b60006145a0602d83613939565b91506145ab82614544565b604082019050919050565b600060208201905081810360008301526145cf81614593565b9050919050565b7f5072696365206d7573742062652067726561746572207468616e207a65726f00600082015250565b600061460c601f83613939565b9150614617826145d6565b602082019050919050565b6000602082019050818103600083015261463b816145ff565b9050919050565b7f5552492063616e6e6f7420626520656d70747900000000000000000000000000600082015250565b6000614678601383613939565b915061468382614642565b602082019050919050565b600060208201905081810360008301526146a78161466b565b9050919050565b600082905092915050565b60008190508160005260206000209050919050565b60006020601f8301049050919050565b600082821b905092915050565b60006008830261471b7fffffffffffffffffffffffffffffffffffffffffffffffffffffffffffffffff826146de565b61472586836146de565b95508019841693508086168417925050509392505050565b6000819050919050565b600061476261475d614758846139e0565b61473d565b6139e0565b9050919050565b6000819050919050565b61477c83614747565b61479061478882614769565b8484546146eb565b825550505050565b600090565b6147a5614798565b6147b0818484614773565b505050565b5b818110156147d4576147c960008261479d565b6001810190506147b6565b5050565b601f821115614819576147ea816146b9565b6147f3846146ce565b81016020851015614802578190505b61481661480e856146ce565b8301826147b5565b50505b505050565b600082821c905092915050565b600061483c6000198460080261481e565b1980831691505092915050565b6000614855838361482b565b9150826002028217905092915050565b61486f83836146ae565b67ffffffffffffffff81111561488857614887613f91565b5b614892825461431a565b61489d8282856147d8565b6000601f8311600181146148cc57600084156148ba578287013590505b6148c48582614849565b86555061492c565b601f1984166148da866146b9565b60005b82811015614902578489013582556001820191506020850194506020810190506148dd565b8683101561491f578489013561491b601f89168261482b565b8355505b6001600288020188555050505b50505050505050565b7f4e6f2066756e6473206c65667420746f20776974686472617700000000000000600082015250565b600061496b601983613939565b915061497682614935565b602082019050919050565b6000602082019050818103600083015261499a8161495e565b9050919050565b600081905092915050565b50565b60006149bc6000836149a1565b91506149c7826149ac565b600082019050919050565b60006149dd826149af565b9150819050919050565b7f5472616e73666572206661696c65642e00000000000000000000000000000000600082015250565b6000614a1d601083613939565b9150614a28826149e7565b602082019050919050565b60006020820190508181036000830152614a4c81614a10565b9050919050565b7f4552433732313a20696e76616c696420746f6b656e2049440000000000000000600082015250565b6000614a89601883613939565b9150614a9482614a53565b602082019050919050565b60006020820190508181036000830152614ab881614a7c565b9050919050565b7f4552433732313a2061646472657373207a65726f206973206e6f74206120766160008201527f6c6964206f776e65720000000000000000000000000000000000000000000000602082015250565b6000614b1b602983613939565b9150614b2682614abf565b604082019050919050565b60006020820190508181036000830152614b4a81614b0e565b9050919050565b7f496e636f72726563742054696572000000000000000000000000000000000000600082015250565b6000614b87600e83613939565b9150614b9282614b51565b602082019050919050565b60006020820190508181036000830152614bb681614b7a565b9050919050565b7f4d696e74696e67206e6f7420616c6c6f77656400000000000000000000000000600082015250565b6000614bf3601383613939565b9150614bfe82614bbd565b602082019050919050565b60006020820190508181036000830152614c2281614be6565b9050919050565b7f4164647265737320616c7265616479206d696e74656420746869732074696572600082015250565b6000614c5f602083613939565b9150614c6a82614c29565b602082019050919050565b60006020820190508181036000830152614c8e81614c52565b9050919050565b60048110614ca657614ca561449e565b5b50565b6000819050614cb782614c95565b919050565b6000614cc782614ca9565b9050919050565b614cd781614cbc565b82525050565b6000604082019050614cf26000830185613a75565b614cff6020830184614cce565b9392505050565b7f556e617574686f72697a6564205369676e657200000000000000000000000000600082015250565b6000614d3c601383613939565b9150614d4782614d06565b602082019050919050565b60006020820190508181036000830152614d6b81614d2f565b9050919050565b7f546f6b656e20646f6573206e6f74206578697374000000000000000000000000600082015250565b6000614da8601483613939565b9150614db382614d72565b602082019050919050565b60006020820190508181036000830152614dd781614d9b565b9050919050565b7f546869732066756e6374696f6e206973206f6e6c7920666f722046495253545f60008201527f434c415353207469657200000000000000000000000000000000000000000000602082015250565b6000614e3a602a83613939565b9150614e4582614dde565b604082019050919050565b60006020820190508181036000830152614e6981614e2d565b9050919050565b7f45746865722073656e74206973206e6f7420636f727265637400000000000000600082015250565b6000614ea6601983613939565b9150614eb182614e70565b602082019050919050565b60006020820190508181036000830152614ed581614e99565b9050919050565b7f4164647265737320616c7265616479206d696e74656420466972737400000000600082015250565b6000614f12601c83613939565b9150614f1d82614edc565b602082019050919050565b60006020820190508181036000830152614f4181614f05565b9050919050565b7f4d6178696d756d20737570706c79207265616368656400000000000000000000600082015250565b6000614f7e601683613939565b9150614f8982614f48565b602082019050919050565b60006020820190508181036000830152614fad81614f71565b9050919050565b6000819050919050565b614fcf614fca82613be7565b614fb4565b82525050565b60008160601b9050919050565b6000614fed82614fd5565b9050919050565b6000614fff82614fe2565b9050919050565b61501761501282613a63565b614ff4565b82525050565b60008160f81b9050919050565b60006150358261501d565b9050919050565b61504d61504882614cbc565b61502a565b82525050565b600061505f8286614fbe565b60208201915061506f8285615006565b60148201915061507f828461503c565b600182019150819050949350505050565b600081905092915050565b7f19457468657265756d205369676e6564204d6573736167653a0a333200000000600082015250565b60006150d1601c83615090565b91506150dc8261509b565b601c82019050919050565b60006150f2826150c4565b91506150fe8284614fbe565b60208201915081905092915050565b615116816141cb565b82525050565b60006080820190506151316000830187613bf1565b61513e602083018661510d565b61514b6040830185613bf1565b6151586060830184613bf1565b95945050505050565b7f5369676e657220616464726573732063616e6e6f74206265207a65726f000000600082015250565b6000615197601d83613939565b91506151a282615161565b602082019050919050565b600060208201905081810360008301526151c68161518a565b9050919050565b7f4f776e61626c653a206e6577206f776e657220697320746865207a65726f206160008201527f6464726573730000000000000000000000000000000000000000000000000000602082015250565b6000615229602683613939565b9150615234826151cd565b604082019050919050565b600060208201905081810360008301526152588161521c565b9050919050565b7f4d617820737570706c79206d7573742062652067726561746572207468616e2060008201527f7a65726f00000000000000000000000000000000000000000000000000000000602082015250565b60006152bb602483613939565b91506152c68261525f565b604082019050919050565b600060208201905081810360008301526152ea816152ae565b9050919050565b7f5265656e7472616e637947756172643a207265656e7472616e742063616c6c00600082015250565b6000615327601f83613939565b9150615332826152f1565b602082019050919050565b600060208201905081810360008301526153568161531a565b9050919050565b7f4f776e61626c653a2063616c6c6572206973206e6f7420746865206f776e6572600082015250565b6000615393602083613939565b915061539e8261535d565b602082019050919050565b600060208201905081810360008301526153c281615386565b9050919050565b7f546f6b656e20494420616c726561647920657869737473000000000000000000600082015250565b60006153ff601783613939565b915061540a826153c9565b602082019050919050565b6000602082019050818103600083015261542e816153f2565b9050919050565b7f43616e6e6f74206d696e7420746f20746865207a65726f206164647265737300600082015250565b600061546b601f83613939565b915061547682615435565b602082019050919050565b6000602082019050818103600083015261549a8161545e565b9050919050565b60006154ac826139e0565b91506154b7836139e0565b92508282019050808211156154cf576154ce6144cd565b5b92915050565b6154de8261392e565b67ffffffffffffffff8111156154f7576154f6613f91565b5b615501825461431a565b61550c8282856147d8565b600060209050601f83116001811461553f576000841561552d578287015190505b6155378582614849565b86555061559f565b601f19841661554d866146b9565b60005b8281101561557557848901518255600182019150602085019450602081019050615550565b86831015615592578489015161558e601f89168261482b565b8355505b6001600288020188555050505b505050505050565b7f4552433732313a207472616e736665722066726f6d20696e636f72726563742060008201527f6f776e6572000000000000000000000000000000000000000000000000000000602082015250565b6000615603602583613939565b915061560e826155a7565b604082019050919050565b60006020820190508181036000830152615632816155f6565b9050919050565b7f4552433732313a207472616e7366657220746f20746865207a65726f2061646460008201527f7265737300000000000000000000000000000000000000000000000000000000602082015250565b6000615695602483613939565b91506156a082615639565b604082019050919050565b600060208201905081810360008301526156c481615688565b9050919050565b7f4552433732313a20617070726f766520746f2063616c6c657200000000000000600082015250565b6000615701601983613939565b915061570c826156cb565b602082019050919050565b60006020820190508181036000830152615730816156f4565b9050919050565b7f4552433732313a207472616e7366657220746f206e6f6e20455243373231526560008201527f63656976657220696d706c656d656e7465720000000000000000000000000000602082015250565b6000615793603283613939565b915061579e82615737565b604082019050919050565b600060208201905081810360008301526157c281615786565b9050919050565b600060408201905081810360008301526157e38185613985565b90506157f26020830184613bbd565b9392505050565b600060408201905081810360008301526158138185613985565b90506158226020830184613a75565b9392505050565b600060a08201905061583e6000830188613bf1565b61584b6020830187613bf1565b6158586040830186613bf1565b6158656060830185613bbd565b6158726080830184613a75565b9695505050505050565b600081519050919050565b600082825260208201905092915050565b60006158a38261587c565b6158ad8185615887565b93506158bd81856020860161394a565b6158c681613974565b840191505092915050565b60006080820190506158e66000830187613a75565b6158f36020830186613a75565b6159006040830185613bbd565b81810360608301526159128184615898565b905095945050505050565b60008151905061592c8161389f565b92915050565b60006020828403121561594857615947613869565b5b60006159568482850161591d565b91505092915050565b7f45434453413a20696e76616c6964207369676e61747572650000000000000000600082015250565b6000615995601883613939565b91506159a08261595f565b602082019050919050565b600060208201905081810360008301526159c481615988565b9050919050565b7f45434453413a20696e76616c6964207369676e6174757265206c656e67746800600082015250565b6000615a01601f83613939565b9150615a0c826159cb565b602082019050919050565b60006020820190508181036000830152615a30816159f4565b9050919050565b7f45434453413a20696e76616c6964207369676e6174757265202773272076616c60008201527f7565000000000000000000000000000000000000000000000000000000000000602082015250565b6000615a93602283613939565b9150615a9e82615a37565b604082019050919050565b60006020820190508181036000830152615ac281615a86565b9050919050565b7f4552433732313a206d696e7420746f20746865207a65726f2061646472657373600082015250565b6000615aff602083613939565b9150615b0a82615ac9565b602082019050919050565b60006020820190508181036000830152615b2e81615af2565b9050919050565b7f4552433732313a20746f6b656e20616c7265616479206d696e74656400000000600082015250565b6000615b6b601c83613939565b9150615b7682615b35565b602082019050919050565b60006020820190508181036000830152615b9a81615b5e565b9050919050565b7f4e487b7100000000000000000000000000000000000000000000000000000000600052605160045260246000fdfea264697066735822122071cf969f61f63bf7d4082e3340470fc13de9d566e3f2bae48f490059e20348b964736f6c63430008140033697066733a2f2f516d504e535a326a6751744c6e6b343645614376636d3557513331505a444d6543746774506662426274424d7378697066733a2f2f516d5773647a74576d7058663868697547583870387358646e364b364a367a577557574d63676161365461503248697066733a2f2f516d5a316847564b556a596e4e7a77626a4a775641616b4657684458356e317144574a36525a6765724478324c4a697066733a2f2f516d59515352785556326646774b63583939513868697876796332417354454a74355447775a5445524432645851",
  "linkReferences": {},
  "deployedLinkReferences": {}
}